:020000022000DC
:1070000000000420757302005D7302005F730200CC
:1070100061730200637302006573020000000000E8
:107020000000000000000000000000006773020084
:1070300069730200000000006B7302006D730200B0
:10704000A57A02006F7302002586020019950200DE
:107050006F7302006F7302001D8502006F730200E0
:107060006F7302006F7302006F7302006F73020090
:107070006F730200218A02006F7302006F730200B7
:107080006F73020059C402006F7302006F73020035
:107090006F7302006F73020049C102006F73020038
:1070A0006F7302006F7302006F7302006F73020050
:1070B0006F7302006F730200000000000000000008
:1070C0006F7302006F7302006F7302006F73020030
:1070D0006F7302006F7302006F7302006F73020020
:1070E0006F7302006F7302006F73020000000000F4
:1070F000000000006F730200000000006F730200C8
:10710000000000000000000000000000000000007F
:10711000000000000000000000000000000000006F
:10712000000000000000000000000000000000005F
:10713000000000000000000000000000000000004F
:10714000000000000000000000000000000000003F
:10715000000000000000000000000000000000002F
:10716000000000000000000000000000000000001F
:10717000000000000000000000000000000000000F
:1071800000000000000000000000000000000000FF
:1071900000000000000000000000000000000000EF
:1071A00000000000000000000000000000000000DF
:1071B00000000000000000000000000000000000CF
:1071C00000000000000000000000000000000000BF
:1071D00000000000000000000000000000000000AF
:1071E000000000000000000000000000000000009F
:1071F000000000000000000000000000000000008F
:10720000354936480A1A02D0072291438D4634493F
:1072100034480A1A06D00722914381F309880222D2
:1072200082F3148830483149314A00F044F831483B
:107230003149324A00F03FF831483249324A00F0D1
:107240003AF832483249334A00F035F83248334987
:10725000334A00F030F833483349344A00F02BF811
:1072600033483449344A00F026F83448344900227F
:1072700000F02CF833483449002200F027F8334856
:107280003349091A082902DB002202604160314AB1
:1072900090471F481F49884205D00268043003B454
:1072A000904703BCF7E700208646EC46002000210B
:1072B000294A9047FEE7884207D0521A05D0037842
:1072C00001300B700131013AF9D17047884202D088
:1072D00002700130FAE770470000042000E003204C
:1072E00000000420000004207CF80200102C002084
:1072F000702C0020D0730200D07302002CDC02003E
:107300007CF80200102C0020102C0020ECDC020085
:10731000ECDC0200ECDC0200ECDC0200ECDC020045
:10732000ECDC0200ECDC0200ECDC02007AF802008B
:10733000DCF80200702C0020702C0020702C002043
:10734000A4480020A4480020A4480020A44800200D
:10735000A46800209D7302006DA90200FEE7FEE70D
:10736000FEE7FEE7FEE7FEE7FEE7FEE7FEE7FEE7F5
:1073700000F002B8FFF7FCBF0F484FF00701884349
:1073800085460E4880470E48016841F4700101604F
:10739000BFF34F8FBFF36F8FFFF732BF09480A4922
:1073A0000A4A884207D0521A05D0037801300B7080
:1073B0000131013AF9D17047000004203DAF0200CD
:1073C00088ED00E0ECDC0200102C0020102C0020E6
:1073D00082B003468DF807309DF90730002B13DB90
:1073E0009DF8073003F01F0209499DF907305B093A
:1073F000012000FA02F2203341F82320BFF34F8F1F
:1074000000BFBFF36F8F00BF00BF02B0704700BF67
:1074100000E100E0044BD3F80034002B14BF01233B
:107420000023DBB2184670470000014008B504F0A5
:107430005DFE034683F00103DBB2002B03D1094953
:107440007B2005F0C9F9FFF7E5FF034683F0010350
:10745000DBB2002B04D000F005FB034B00229A7036
:1074600000BF08BDF4DC0200702C002000B583B022
:1074700000230193184B1B78002B02D08523019326
:107480001CE0154B00229A60134B00225A60124BED
:1074900000221A61104B0022DA60104800F0A6FAB0
:1074A000019004F023FE034683F00103DBB2002BBE
:1074B00001D000F0C3FA084B01221A70FFF7AAFFAF
:1074C0000346002B02D0044B01229A70019B184600
:1074D00003B05DF804FB00BF702C0020B5750200FE
:1074E00084B00190019B1B680393039B002B03D086
:1074F000039B1A68019B1A60039B184604B07047EF
:1075000000B583B0164B1B78002B04D1154940F20F
:10751000171005F061F9124BDB68002B04D11149FB
:107520004FF48C7005F058F900238DF807300DF1F9
:107530000703184604F042FF094BDB68013B084A89
:10754000D360074BDB68002B01D1FFF76FFF9DF87D
:107550000730184604F048FF00BF03B05DF804FB95
:10756000702C0020F4DC020000B585B003468DF8D5
:1075700007309DF80730002B02D10C4B039301E03C
:107580000B4B03930398FFF7ABFF0290029B002B7A
:1075900006D0029B5B689DF8072010469847F1E7EC
:1075A00000BF00BF05B05DF804FB00BF782C0020D1
:1075B000802C002000B583B003468DF807309DF87D
:1075C0000730002B05D10A4B01225A700020FFF72B
:1075D000CBFF9DF80730012B05D1054B01229A7096
:1075E0000120FFF7C1FF00BF03B05DF804FB00BF3F
:1075F000702C002000B583B001900091019B002BFE
:1076000005D1054B01225A700020FFF7ADFF00BFE6
:1076100003B05DF804FB00BF702C002000B585B0FE
:10762000034600918DF807309DF80730032B29D0D1
:10763000032B35DC002B02D0012B04D030E00020DE
:10764000FFF7C6FE2DE000238DF80F300DF10F037C
:10765000184604F0B3FE154B1B7883F00103DBB230
:10766000002B01D0FFF702FF104BDB6801330F4AFC
:10767000D3600E4B01229A709DF80F30184604F02B
:10768000B3FE0EE0094B1B78002B04D1084940F2F1
:10769000522005F0A1F800F0D1F9FFF731FF00E02A
:1076A00000BF00BF05B05DF804FB00BF702C0020D8
:1076B000F4DC020000B585B003468DF807300023E6
:1076C0008DF80F300DF10F03184604F077FE04F02B
:1076D0000DFD034683F00103DBB2002B0DD00DF14D
:1076E00007031946094805F0F9FF084805F0D2FFDD
:1076F0000346002B01D001F061F99DF80F301846C8
:1077000004F072FE00BF05B05DF804FB34DC02003B
:1077100000B585B0034600918DF807309DF807301D
:10772000002B02D0032B09D02AE0174B1B78012B2A
:1077300025D101F043F901F057F920E000238DF83D
:107740000B300DF10B03184604F038FE0E4B1B787E
:10775000012B0ED10D490E4801F0D8F80390039B80
:10776000002B04D00B4940F2071005F035F801F06A
:107770000BF99DF80B30184604F036FE00E000BF10
:1077800000BF05B05DF804FB842C0020B576020034
:10779000852C002080DD020082B003468DF8073082
:1077A0009DF90730002B0CDB9DF8073003F01F021A
:1077B00005499DF907305B09012000FA02F241F802
:1077C000232000BF02B0704700E100E082B0034612
:1077D00000918DF807309DF90730002B0ADB009BE4
:1077E000DAB20C499DF907305201D2B20B4483F84A
:1077F00000230BE0009BDAB207499DF8073003F045
:107800000F03043B5201D2B20B441A7600BF02B000
:10781000704700BF00E100E000ED00E082B00190A1
:10782000019B1B0B5BB2184602B0704700B583B0DA
:1078300003460A468DF8073013468DF806309DF84A
:107840000630012B03D99DF80630032B0BD99DF888
:107850000630042B03D99DF80630072B03D90849BD
:107860006B2004F0B9FF9DF806209DF90730114602
:107870001846FFF7ABFF00BF03B05DF804FB00BF85
:1078800008DE020000B583B003468DF807309DF98D
:1078900007301846FFF780FF00BF03B05DF804FB18
:1078A00082B003468DF807300F4A9DF90730002B50
:1078B00000DA1F335B115BB252F823209DF90730C9
:1078C000594203F01F0301F01F0158BF4B425BB246
:1078D00022FA03F303F00103002B14BF012300235A
:1078E000DBB2184602B0704700E100E082B00190C0
:1078F0004FF08042019BC2F8083300BF02B07047CE
:1079000082B003468DF807309DF8073003F18043BD
:1079100001221A6000BF02B0704784B00346ADF880
:107920000630BDF8063003F1804300221A60BDF82E
:10793000063003F180431B680393039B00BF04B030
:10794000704782B00346ADF80630BDF8063003F14B
:1079500080431B68002B14BF01230023DBB21846B1
:1079600002B0704782B001904FF08042019BC2F894
:10797000183500BF02B070474FF08043D3F8183479
:107980001B0C03F00103002B14BF01230023DBB207
:107990001846704700B583B006238DF807304FF0C6
:1079A0008040FFF73BFF03461846FFF779FF034689
:1079B00083F00103DBB2002B13D04FF08040FFF7C0
:1079C0002DFF03461A469DF8073019461046FFF76B
:1079D0002DFF4FF08040FFF721FF03461846FFF7C9
:1079E00051FF00BF03B05DF804FB000000B585B097
:1079F0000190019B002B03D10E49A42004F0ECFE62
:107A0000002303930C4B1B79002B02D08523039397
:107A10000BE0094B00229A71074A019B1360064B49
:107A200001221A71044B00225A71039B184605B0BB
:107A30005DF804FB34DE0200D82C002008B5074BAB
:107A40001B79002B03D10649BD2004F0C5FEFFF7CA
:107A5000A1FF0020FFF786FF00BF08BDD82C002043
:107A600034DE020008B50D4B1B79002B03D10C4905
:107A7000F72004F0B1FE0220FFF738FF4FF48270C8
:107A8000FFF74BFF0C20FFF73BFF00BFFFF774FF32
:107A90000346002BFAD100BF00BF08BDD82C002040
:107AA00034DE020008B54FF48070FFF74AFF03464A
:107AB000002B14D04FF48070FFF72FFF0120FFF749
:107AC00015FF264B5B7983F00103DBB2002B06D058
:107AD000224B01225A71214B1B68002098474FF41A
:107AE0008270FFF72EFF0346002B0AD04FF48270FE
:107AF000FFF713FF0220FFF7F9FE184B1B68012068
:107B000098474FF48870FFF71CFF0346002B0AD0FC
:107B10004FF48870FFF701FF1020FFF7E7FE0F4BCF
:107B20001B68022098474FF48670FFF70AFF034650
:107B3000002B10D00A4B00221A604FF48670FFF71A
:107B4000ECFE0820FFF7D2FE044B00229A71034B93
:107B50001B680320984700BF08BD00BFD82C002039
:107B6000340C004000B583B00346ADF80630BDF8D4
:107B70000630184600F026F803461B68012B0CBFA0
:107B800001230023DBB2184603B05DF804FB00B507
:107B900085B00346ADF80630BDF80630184600F053
:107BA00011F803461A4600231360BDF80630184644
:107BB00000F008F803461B680393039B00BF05B061
:107BC0005DF804FB82B00346ADF80630BDF8063020
:107BD00003F1804303F5C043184602B0704700002C
:107BE00082B00190034A019BC2F8043300BF02B087
:107BF000704700BF0060004082B00190034BD3F893
:107C00000423019B1340184602B0704700600040F7
:107C100082B00190084A019B03F5A27352F8233009
:107C2000054943F00102019B03F5A27341F82320AB
:107C300000BF02B0704700BF0060004084B00390F6
:107C4000029113468DF80730144A039B03F5A27383
:107C500052F82330114923F44F3323F44073039A2D
:107C600002F5A27241F822300C4A039B03F5A2737D
:107C700052F82320029B1B0203F47C519DF807302D
:107C80001B0403F440330B4304491A43039B03F5DD
:107C9000A27341F8232000BF04B070470060004089
:107CA00082B00190054A019B03F5A27352F823307C
:107CB0001B0A03F03F03184602B070470060004003
:107CC00082B00190064A019B03F5A27352F823305B
:107CD0001B0C03F00303DBB2184602B0704700BF71
:107CE0000060004000B583B00190019B1B681846FE
:107CF00000F02AF90346002B04D10B494FF4F6702B
:107D000004F06AFD019B1B681F2B02D84FF0A043B3
:107D100006E0019B1B6803F01F02019B1A60034BE6
:107D2000184603B05DF804FBE0DE020000030050DB
:107D300000B585B00190084611461A4603468DF8F5
:107D400003300B468DF8023013468DF8013001AB3D
:107D50001846FFF7C7FF03909DF803209DF80230F7
:107D60005B001A439DF801309B001A439DF81830C0
:107D70001B0242EA03019DF81C301B04019A1943BF
:107D8000039B02F5E07243F8221000BF05B05DF8D6
:107D900004FB00B585B003900B468DF80B309DF8C1
:107DA0000B30002201920022009200220021039851
:107DB000FFF7BEFF00BF05B05DF804FB00B585B05E
:107DC000019001AB1846FFF78DFF0390019A039BCA
:107DD00002F5E07253F8223023F002030293019A75
:107DE000039B02F5E072029943F8221000BF05B030
:107DF0005DF804FB00B585B001900B468DF80330AB
:107E000001AB1846FFF76EFF0390019A039B02F542
:107E1000E07253F82230019A23F44031039B02F5BB
:107E2000E07243F82210019A039B02F5E07253F8C6
:107E300022309DF8032012041146019A1943039B36
:107E400002F5E07243F8221000BF05B05DF804FBB4
:107E500000B585B0019001AB1846FFF743FF0390D2
:107E6000039800F020F80246019B22FA03F303F086
:107E70000103184605B05DF804FB00B585B001901C
:107E800001AB1846FFF72EFF0390019A039B02F502
:107E9000E07253F822301B0C03F00303DBB21846E8
:107EA00005B05DF804FB82B00190019BD3F810355A
:107EB000184602B07047000088B00390029101920A
:107EC000164A05AB92E8030083E80300039B07937F
:107ED00019E0079B9B0020336B4453F80C3CD3F80C
:107EE0002025019B1A60079B9B0020336B4453F8AD
:107EF0000C3C019A1268C3F82025019B04330193BE
:107F0000079B01330793039A029B1344079A9A42F3
:107F1000DFD300BF00BF08B0704700BF00DF020022
:107F200000B585B0019001AB1846FFF7DBFE03906A
:107F3000019B012202FA03F31A46039BC3F8202592
:107F400000BF05B05DF804FB84B00190019B5B09A4
:107F5000029300230393029B002B03D0029B012B6F
:107F600004D007E04FF0FF33039303E04FF6FF73B5
:107F7000039300BF019B03F01F030193039A019B2E
:107F800022FA03F303F00103002B14BF01230023A3
:107F9000DBB2184604B0704784B001900091009B9A
:107FA0000393019BDB080293019B03F007030193FA
:107FB0000122019B02FA03F30399029A0A44127800
:107FC0001340184604B0704784B001900091009BA4
:107FD0000393019BDB080293019B03F007030193CA
:107FE000039A029B13441B785AB20121019B01FAA8
:107FF00003F35BB2134359B2039A029B1344CAB210
:108000001A7000BF04B0704782B001900C4A019B07
:108010001344303393F90030002B09DB084A019BED
:108020001344303393F90030072B01DC012300E0C7
:10803000002303F00103DBB2184602B0704700BF13
:10804000E02C002082B00190064A019B134430339B
:1080500093F90030072BCCBF01230023DBB2184675
:1080600002B07047E02C002082B00190064A019BCC
:108070001344303393F90030DB43DBB2DB09DBB26E
:10808000184602B0704700BFE02C002084B0039077
:10809000029101928DF80330029B59B20E4A039B64
:1080A000134430330A461A700B49029B019A41F877
:1080B00023209DF8033083F00103DBB2002B08D0AE
:1080C000029B083B039A51B2034A13440A4683F8C1
:1080D000602000BF04B07047E02C002000B583B0E2
:1080E000019004490198FFF76FFF00BF03B05DF8EE
:1080F00004FB00BF442D002082B00190044A019B84
:108100001344303393F90030184602B0704700BF73
:10811000E02C002082B00190034A019B52F82330EA
:10812000184602B0704700BFE02C002084B00190D8
:10813000074A019B1344603393F900308DF80F30E8
:108140009DF80F3023F0C003184604B0704700BFFD
:10815000E02C002084B00190074A019B1344603357
:1081600093F900308DF80F309DF80F309B09DBB28A
:10817000184604B0704700BFE02C002000B589B05D
:108180000390029113468DF80730FF238DF81F30BE
:108190009DF80730002B01D0002300E00823059351
:1081A0009DF80730002B01D0082300E00C23049336
:1081B000059B069314E00F4A069B52F82330B3F157
:1081C000FF3F0AD19DF80730029A06990398FFF7FE
:1081D0005DFF069B8DF81F3006E0069B013306937A
:1081E000069A049B9A42E6D39DF91F30184609B0BF
:1081F0005DF804FBE02C002000B587B003900291ED
:1082000001920398FFF7A0FE0346002B04D13649E4
:108210004FF40C7004F0E0FA002305930398FFF785
:1082200023FF0346002B02D00823059357E0029B4F
:108230009B78C3F34003DBB21A4601990398FFF71A
:108240009DFF03468DF813309DF91330B3F1FF3FC6
:1082500043D0029B9B78C3F38003DBB283F001031E
:10826000DBB2002B13D0029B9B7803F00103DBB23F
:10827000002B03D00398FFF7A1FD05E0029B5B787C
:1082800019460398FFF785FD0398FFF727FF029B28
:108290009B7803F00203DBB2002B08D09DF913009A
:1082A000029B1B781A460399FFF7C8FC17E09DF95B
:1082B0001330083B0D4A134493F96010029B1B785E
:1082C0009B015AB29DF91330083B0A4351B2074A49
:1082D00013440A4683F8602001E004230593059BBC
:1082E000184607B05DF804FB10DF0200E02C002008
:1082F00000B589B001900B468DF803300198FFF767
:1083000023FE0346002B04D13A494FF4187004F0C1
:1083100063FA0198FFF7A8FE0346002B04D1354904
:1083200040F2612004F058FA0198FFF78BFE0346F3
:10833000002B2AD00198FFF7DFFE0346083B1846C2
:10834000FFF708FF03468DF80F309DF80F30032B21
:108350000BD10198FFF77CFD0346002B01D00323CE
:1083600000E002238DF81F3008E09DF80F30012B4C
:1083700001D1022300E003238DF81F309DF81F3048
:1083800019460198FFF736FD30E00198FFF73CFEF3
:108390000346002B2AD00198FFF7AEFE0346069352
:1083A000069B9BB240339BB29B00ADF81630069BF8
:1083B0001846FFF72DFCBDF816301846FFF7E7FB0F
:1083C0009DF80330002B11D00198FFF795FE03466E
:1083D0001846FFF79FFE0490049B002B06D0012255
:1083E000069B02FA03F31846FFF7FAFB00BF09B039
:1083F0005DF804FB10DF020000B585B00190019A22
:1084000002210020FFF758FD002303930BE0039B9C
:108410009B00019A13441B68002B01D0012306E046
:10842000039B01330393039B012BF0D900231846D0
:1084300005B05DF804FB000000B587B00190002393
:1084400005935BE0344A059B1344603393F9003095
:10845000B3F1FF3F4ED00598FFF768FE04900199F5
:108460000498FFF799FD0346002B44D00598FFF7C9
:1084700071FE03468DF80F300498FFF7FEFC0346AB
:108480008DF80E309DF80E30022B01D1032300E051
:1084900002238DF80D309DF80D3019460498FFF732
:1084A000A9FC0498FFF73CFD0498FFF725FE03465E
:1084B0001846FFF72FFE0290029B002B1BD09DF861
:1084C0000F30032B0FD09DF80E30022B03D19DF8F7
:1084D0000F30012B07D09DF80E30032B0BD19DF8E8
:1084E0000F30022B07D19DF80F20029B11460498F4
:1084F000984700E000BF059B01330593059B032BC4
:10850000A0D90198FFF778FF0346002B97D100BF51
:1085100000BF07B05DF804FBE02C002000B58BB075
:108520000023089301AB00221A605A604FF4807355
:10853000ADF81A30012309930023079321E0BDF819
:108540001A301846FFF70EFB0346002B0ED0099891
:10855000FFF752FB0346002B08D0BDF81A3018462F
:10856000FFF715FB089A099B13430893099B5B00CF
:108570000993BDF81A300433ADF81A30079B013364
:108580000793079B072BDAD94FF4BE70FFF7EAFA7F
:108590000346002B0DD04FF4BE70FFF7F8FA089B8E
:1085A00043F00043089301AB1A4602210020FFF775
:1085B00083FC089BDBB2002B29D001230993002305
:1085C000079321E0099A089B1340002B16D00798C7
:1085D000FFF766FB05900798FFF772FB03468DF8DF
:1085E00013300798FFF796FD0390039B002B05D0EF
:1085F0009DF81320039B114605989847099B5B0043
:108600000993079B01330793079B072BDAD9089B34
:10861000002B03DA01AB1846FFF70EFF00BF0BB0CB
:108620005DF804FB08B5064B1B68002B03D1054918
:10863000512004F0D1F8024B1B68984700BF08BDD9
:108640004C2D00209CDF020082B00190019B044A67
:10865000934201D1034B00E00023184602B070475B
:10866000002000404C2D002000B587B00190009103
:10867000019B002B03D11C49772004F0ADF8019831
:10868000FFF7E2FF0590059B002B25D000238DF816
:10869000133000238DF80B300DF10B03184603F057
:1086A0008DFE059B1B79002B03D001238DF8133021
:1086B00005E0059B009A1A60059B01221A719DF83E
:1086C0000B30184603F090FE9DF81330002B03D0BA
:1086D00011230393039B02E000230393039B18469B
:1086E00007B05DF804FB00BF9CDF020082B00346C8
:1086F0008DF807309DF90730002B0CDB9DF8073013
:1087000003F01F0205499DF907305B09012000FABB
:1087100002F241F8232000BF02B0704700E100E000
:1087200082B003468DF807309DF90730002B13DB2C
:108730009DF8073003F01F0209499DF907305B09D6
:10874000012000FA02F2203341F82320BFF34F8FBB
:1087500000BFBFF36F8F00BF00BF02B0704700BF04
:1087600000E100E082B0034600918DF807309DF9EA
:108770000730002B0ADB009BDAB20C499DF9073069
:108780005201D2B20B4483F800230BE0009BDAB213
:1087900007499DF8073003F00F03043B5201D2B2A2
:1087A0000B441A7600BF02B0704700BF00E100E042
:1087B00000ED00E000B583B003460A468DF80730AF
:1087C00013468DF806309DF80630012B03D99DF82D
:1087D0000630032B0BD99DF80630042B03D99DF8E6
:1087E0000630072B03D908496B2003F0F5FF9DF8ED
:1087F00006209DF9073011461846FFF7B3FF00BF6A
:1088000003B05DF804FB00BF24E0020000B583B0B4
:1088100003468DF807309DF907301846FFF766FFCD
:1088200000BF03B05DF804FB00B583B003468DF8CC
:1088300007309DF907301846FFF772FF00BF03B0FD
:108840005DF804FB82B00190034A019BC2F8043337
:1088500000BF02B0704700BF00D0004082B001905E
:10886000034A019BC2F8083300BF02B0704700BF43
:1088700000D0004082B003468DF807309DF80730E5
:1088800003F1804303F5504301221A6000BF02B098
:10889000704784B00346ADF80630BDF8063003F1EA
:1088A000804303F5504300221A60BDF8063003F1FF
:1088B000804303F550431B680393039B00BF04B040
:1088C0007047000082B00190054BD3F80022019B55
:1088D000DB4303491340C1F8003200BF02B07047C8
:1088E00000D00040024BD3F80835DBB21846704781
:1088F00000D00040044BD3F80435034A43F0010391
:10890000C2F8043500BF704700D0004000B583B006
:1089100001900091019B002B03D118493E2003F0E8
:108920005BFF009B002B03D114493F2003F054FF51
:10893000134B1B78002B01D085231BE0114A009BB1
:108940001360019B1B7803F00103DBB2002B01D005
:10895000FFF7D0FF0120FFF7B5FF019B5B781946B9
:108960000D20FFF727FF0D20FFF750FF044B0122DA
:108970001A700023184603B05DF804FB4CE00200B7
:10898000542D0020582D002008B50A4B1B78012BD0
:1089900003D00949562003F01FFF4FF48070FFF702
:1089A00078FF0120FFF74EFF0020FFF763FF00BFB5
:1089B00008BD00BF542D00204CE0020008B5084B54
:1089C0001B78012B03D007495E2003F005FF01202F
:1089D000FFF744FF0420FFF74DFF00BF08BD00BFB5
:1089E000542D00204CE0020008B50B4B1B78012BE6
:1089F00003D00A49652003F0EFFE0120FFF72EFFA8
:108A00000420FFF737FF0D20FFF70EFF024B002277
:108A10001A7000BF08BD00BF542D00204CE00200BA
:108A200000B583B04FF48070FFF733FFFFF75AFFB4
:108A300003468DF80730054B1B689DF8072010464C
:108A4000984700BF03B05DF804FB00BF582D00201D
:108A500000B589B001900091009B0793019B1B78A2
:108A60008DF80830019B5B680393019B9B68DBB228
:108A70008DF81030019BDB680593019B1B69DBB20D
:108A80008DF81830074A079B52F823300649079A99
:108A900051F8221002AA1046984700BF09B05DF8AD
:108AA00004FB00BF5C2D00206C2D002010B58AB0A7
:108AB0000390029101920093039B1B780993224932
:108AC000099B019A41F823202049099B009A41F80B
:108AD0002320002308931E4B04AC0FCB84E80F0027
:108AE000029B1B788DF81030029B5B788DF811305B
:108AF000029B9B788DF81230029BDB788DF8133047
:108B0000029B1B798DF81530029B5B798DF816302E
:108B1000029B9B680693029B1B7B8DF81C30029B7B
:108B20005B7B8DF81D30039B181D019B002B01D032
:108B3000084A00E00022099B04A900F073FA08909B
:108B4000089B18460AB010BD5C2D00206C2D00203B
:108B500078E20200518A020082B003468DF80730A5
:108B60009DF90730002B0CDB9DF8073003F01F0246
:108B700005499DF907305B09012000FA02F241F82E
:108B8000232000BF02B0704700E100E082B003463E
:108B900000918DF807309DF90730002B0ADB009B10
:108BA000DAB20C499DF907305201D2B20B4483F876
:108BB00000230BE0009BDAB207499DF8073003F071
:108BC0000F03043B5201D2B20B441A7600BF02B02D
:108BD000704700BF00E100E000ED00E082B00190CE
:108BE000019B03F06043B3F1005F0CBF012300233E
:108BF000DBB2184602B0704782B00190019B1B0B9C
:108C00005BB2184602B0704700B583B003460A460F
:108C10008DF8073013468DF806309DF80630012B8D
:108C200003D99DF80630032B0BD99DF80630042B91
:108C300003D99DF80630072B03D908496B2003F0B0
:108C4000CBFD9DF806209DF9073011461846FFF729
:108C50009DFF00BF03B05DF804FB00BF88E2020087
:108C600000B583B003468DF807309DF907301846EC
:108C7000FFF772FF00BF03B05DF804FB82B0019004
:108C80000B468DF803309DF80330019A13440122FE
:108C90001A6000BF02B0704784B001900B46ADF877
:108CA0000230BDF80230019A134400221A60BDF868
:108CB0000230019A13441B680393039B00BF04B066
:108CC000704782B001900B46ADF80230BDF802301B
:108CD000019A13441B68002B14BF01230023DBB24D
:108CE000184602B0704782B001900091019B009A33
:108CF000C3F8042300BF02B0704782B00190009116
:108D0000019B009AC3F8082300BF02B0704782B0ED
:108D10000190019B0722C3F8002500BF02B07047F5
:108D200084B00390029101920093039B029AC3F8CE
:108D30000825039B019AC3F80C25039B009AC3F8EE
:108D4000102500BF04B0704782B001900091009AD6
:108D5000019BC3F8242500BF02B0704784B0039084
:108D600002910192029A039BC3F84425039B019A46
:108D7000C3F8482500BF04B0704784B00390029147
:108D80000192029A039BC3F83425039B019AC3F80E
:108D9000382500BF04B0704784B001900B468DF8B1
:108DA000033013468DF802309DF80230002B14BFBB
:108DB00001230023DBB203939DF80330032B10D073
:108DC000032B13DC012B02D0022B05D00EE0039BFA
:108DD00043F0020303930AE0039B43F0040303936D
:108DE00005E0039B43F00603039300E000BF019BF3
:108DF000039AC3F8542500BF04B0704782B00190B5
:108E00000B468DF803309DF80320019BC3F8C02565
:108E100000BF02B0704782B00190019B0122C3F8ED
:108E2000502500BF02B0704782B00190019B002224
:108E3000C3F8502500BF02B0704782B00190019B7B
:108E40000122C3F8402500BF02B0704782B00190F4
:108E5000019B0022C3F8402500BF02B0704700000C
:108E600000B583B00190019B1B68184600F0B1F873
:108E70000346002B04D10B494FF4F67003F0ACFC11
:108E8000019B1B681F2B02D84FF0A04306E0019BFB
:108E90001B6803F01F02019B1A60034B184603B0C6
:108EA0005DF804FBACE202000003005000B585B0A1
:108EB0000190084611461A4603468DF803300B46CA
:108EC0008DF8023013468DF8013001AB1846FFF7DC
:108ED000C7FF03909DF803209DF802305B001A4302
:108EE0009DF801309B001A439DF818301B0242EA9E
:108EF00003019DF81C301B04019A1943039B02F5E2
:108F0000E07243F8221000BF05B05DF804FB00B525
:108F100085B00390002301930023009300230122D6
:108F200001210398FFF7C2FF00BF05B05DF804FB05
:108F300000B585B003900B468DF80B309DF80B30D3
:108F40000022019200220092002200210398FFF7E4
:108F5000ADFF00BF05B05DF804FB00B585B0019022
:108F600001AB1846FFF77CFF0390019B012202FA38
:108F700003F31946039800F018F800BF05B05DF838
:108F800004FB00B585B0019001AB1846FFF768FF00
:108F90000390019B012202FA03F31946039800F0A3
:108FA0000EF800BF05B05DF804FB82B0019000919F
:108FB000019B009AC3F8082500BF02B0704782B039
:108FC00001900091019B009AC3F80C2500BF02B0EC
:108FD000704784B00190019B5B09029300230393C7
:108FE000029B002B03D0029B012B04D007E04FF023
:108FF000FF33039303E04FF6FF73039300BF019B1E
:1090000003F01F030193039A019B22FA03F303F079
:109010000103002B14BF01230023DBB2184604B068
:109020007047000000B58DB0059004910392029343
:10903000049B002B03D16C49AD2003F0CDFB059BB5
:109040001B791A461346DB0013449B00674A1344FE
:109050000A930A9B1B7F002B03D008230793079BCF
:10906000BDE0059B1B680993059B1A68059B1B794E
:1090700019465F4B53F8213019461046FFF7F4FAB2
:109080000346002B03D011230793079BA7E00A9BFD
:10909000039A1A600A9B029A5A60049B1B7B012B5D
:1090A00005D8049B1B781846FFF76BFF04E0049B70
:1090B0001B781846FFF751FF049B1B7818460023C6
:1090C000019300230093002300220121FFF7EEFE0D
:1090D000049B5B78FF2B09D0049B5B780B930B9868
:1090E000FFF74FFF0B98FFF712FF02E04FF0FF333F
:1090F0000B93049B9B78FF2B07D0049B9B780893D2
:1091000001210898FFF714FF02E04FF0FF330893A6
:10911000049B9A780A9B83F82020049BDA780A9BA8
:10912000DA77049BDB78FF2B17D0049B1B79002B8D
:1091300005D0049BDB781846FFF723FF04E0049B6F
:10914000DB781846FFF709FF049BDB781846FFF72A
:10915000DEFE049B1A790A9B9A77049B1B781946BA
:10916000089B0B9A0998FFF7DBFD049B9B68194647
:109170000998FFF7E9FD049B197B049B5B7B1A466A
:109180000998FFF709FE049B9B7919460998FFF798
:1091900035FE0998FFF7BBFD0A9B1B68002B15D015
:1091A000059B1B681846FFF727FD03461A46049BDC
:1091B0005B7919461046FFF727FD059B1B6818468B
:1091C000FFF71AFD03461846FFF74AFD0A9B0022E7
:1091D0005A770A9B01221A7700230793079B1846A8
:1091E0000DB05DF804FB00BFD4E202007C2D00202E
:1091F0005CE3020000B583B00190019BDB7FFF2B95
:109200000ED0019B9B7F002B05D0019BDB7F184676
:10921000FFF7B7FE04E0019BDB7F1846FFF79DFEDA
:10922000019B00225A77019B00221A72019B1B6846
:10923000019A02F10800019A52681146984700BF4E
:1092400003B05DF804FB00B583B001900B468DF8C8
:1092500003309DF8033083F00103DBB2002B04D010
:1092600040210198FFF749FD03E040210198FFF7F5
:109270003AFD00BF03B05DF804FB00B583B0019078
:109280000091009B03F00103002B03D00198FFF72E
:10929000C2FD02E00198FFF7C7FD009B03F0020347
:1092A000002B03D00198FFF7C8FD02E00198FFF7FB
:1092B000CDFD00BF03B05DF804FB00B587B003909F
:1092C000029101920093019B1B68002B0AD0019B25
:1092D0001B681846FFF782FC034683F00103DBB2EC
:1092E000002B0ED1019B9B68002B11D0019B9B682A
:1092F0001846FFF773FC034683F00103DBB2002B33
:1093000006D0029B00225A7710230593059B54E058
:10931000019B1968019B5B681A460398FFF71EFDC5
:10932000019B9968019BDB681A460398FFF725FDAE
:109330004FF48C710398FFF7AFFC00990398FFF787
:109340009CFF009B03F00803002B03D1102103981E
:10935000FFF794FC029B1B68002B1FD100BF4FF44A
:109360008C710398FFF7ADFC034683F00103DBB279
:10937000002BF4D1029BDB7FFF2B1BD0029B9B7F3A
:10938000002B05D0029BDB7F1846FFF7FAFD11E0AA
:10939000029BDB7F1846FFF7E0FD0BE0009B03F02C
:1093A0000403002B0CBF01230023DBB219460398F2
:1093B000FFF749FF00230593059B184607B05DF8AA
:1093C00004FB000010B586B0039002910192039B4C
:1093D0001B791A461346DB0013449B003A4A134498
:1093E0000593059B1B7F002B04D1384940F22D20AB
:1093F00003F0F2F9029B1B68002B08D1029B5B680B
:10940000002B04D0314940F22E2003F0E5F9029BF5
:109410009B68002B08D1029BDB68002B04D02B49F2
:1094200040F22F2003F0D8F9039B1B79002B09D1C0
:10943000029BDB68B3F5803F04D2029B5B68B3F507
:10944000803F04D321494FF40C7003F0C5F9002389
:109450000493059B5B7FDBB2002B03D011230493A5
:10946000049B2EE0059B1B68002B07D0019B03F09B
:109470001403002B02D1059B01225A77059B029A07
:1094800003F10C0413460FCB84E80F00059BDB7F30
:10949000FF2B0ED0059B9B7F002B05D0059BDB7F10
:1094A0001846FFF75AFD04E0059BDB7F1846FFF7DF
:1094B00068FD039B1868019B029A0599FFF7FDFE62
:1094C0000346184606B010BD7C2D0020D4E20200F1
:1094D00000B583B0019000914FF48C710198FFF7B3
:1094E000F0FB0346002B10D04FF48C710198FFF76E
:1094F000D3FB009B1B68002B04D1064940F2972048
:1095000003F06AF90098FFF775FE00BF03B05DF83D
:1095100004FB00BFD4E2020008B503490348FFF78B
:10952000D7FF00BF08BD00BF7C2D002000300040E9
:1095300000B585B00190019B002B0AD0074B43F08A
:1095400001030393019B9B010293039B029898479D
:1095500000E000BF05B05DF804FB00BF70E302004F
:1095600000B583B00190019B002B0AD04FF47A70B4
:10957000FFF7DEFF019B013B0193019B002BF5D11F
:1095800000E000BF03B05DF804FB08B501F08CFB00
:1095900000BF08BD00B589B0039002910192019B04
:1095A000002B33D00023079303230693029A079BD3
:1095B0001344019A1946002001F026FB0590079AF2
:1095C000059B13440793019A059BD31A0193059BAE
:1095D000002B13D10F4B1B7883F00103DBB2002B60
:1095E00013D10120FFF7BCFF069B013B0693069BAE
:1095F000002B03D1074B00221A7007E0054B012214
:109600001A70019B002BD1D100E000BF00BF09B050
:109610005DF804FBA02D002000B585B003900291F9
:10962000054B00934023054A0299039800F012F875
:1096300000BF05B05DF804FB95950200A42D002045
:1096400082B0019000BF02B0704782B0019000BFAD
:1096500002B0704700B5A1B0059004910392029347
:10966000049803F0D7FE039B1593029B16930023E7
:10967000179300238DF8603000231993229B1A93CF
:1096800000231F930FA91F9B0822049803F09CFF3F
:1096900008231F93119B1293BDF84030ADF84C3056
:1096A000BDF84230ADF84E3000238DF851309DF8B2
:1096B0003C3003F00303DBB2012B26D10F9BC3F335
:1096C00095231C939DF83C30C3F3C203DBB28DF8A5
:1096D0005030BDF83C30C3F38313DBB21B931B9BAC
:1096E0009A0009A91F9B049803F06EFF1B9B9B0027
:1096F0001F9A13441F9312AA09A915AB009313468E
:109700001B9A1C9800F0E0FE2FE09DF83C3003F01F
:109710000303DBB2022B28D1BDF83E30C3F389131B
:109720009BB21E939DF83C30C3F3C203DBB28DF8AD
:1097300050301E9B082B28BF08231D9307A91F9B91
:109740001D9A049803F040FF1F9A1D9B13441F931A
:109750001E9A1D9BD31A1E9315AB12AA07A81D991A
:1097600000F054FF1E9B002BE3D1049803F061FE30
:1097700000BF21B05DF804FB82B00190019BDB6863
:1097800001225A7100BF02B07047000000B583B0DB
:109790004FF0FF330193FFF7F8FE0421084800F073
:1097A000AFFD0190019B002B03DA0649412003F035
:1097B00013F80348FFF7E0FF00BF03B05DF804FBB8
:1097C000DCDC020088E3020000B583B00190009168
:1097D000019B1B681B6800990198984700BF03B064
:1097E0005DF804FB00B583B00190019B1B685B68CA
:1097F0000198984700BF03B05DF804FB00B583B043
:109800000190019B1B689B680198984700BF03B0BB
:109810005DF804FB82B001900B468DF80330019B8C
:10982000DB689DF803201A7100BF02B0704782B058
:109830000190019BDB681B79184602B0704782B02B
:109840000190019BDB6801225A7100BF02B0704792
:1098500082B00190019BDB685B79184602B07047CB
:1098600000B585B0019000910C4B01221A700C4894
:1098700003F034FD0390039B002B01D0039B08E011
:10988000084803F0E3FF084A084BD31ADB080293A9
:109890000023184605B05DF804FB00BF143000201B
:1098A00058DC020020E40200DCDC02006CDC020078
:1098B000024A034BD31ADB0818467047DCDC02006F
:1098C0006CDC020000B587B001900B468DF80330C8
:1098D0009DF80330002B1FD0FFF7EAFF0490002310
:1098E000059313E0059B9B000E4A13440393039BCF
:1098F0001B881A46019B1B689A4204D1019B059A5A
:109900001A60002309E0059B01330593059A049B27
:109910009A42E7D3052300E00023184607B05DF81C
:1099200004FB00BF102C002000B585B001900B4651
:109930008DF803309DF8032001AB11461846FFF760
:10994000C1FF0346002B07D1019BDB00054A1344EE
:109950000393039B1B6800E00023184605B05DF8E5
:1099600004FB00BF6CDC020084B001900B468DF854
:109970000330019BDB00174A134402939DF8033028
:10998000013B032B1CD801A252F823F09D99020041
:10999000A5990200AD990200B799020002238DF843
:1099A0000F3011E004238DF80F300DE0029B1B797E
:1099B0008DF80F3008E0029B5B798DF80F3003E0E3
:1099C00000238DF80F3000BF9DF80F30184604B00B
:1099D000704700BF6CDC020084B00190009100234E
:1099E0008DF80F30019B1B7803F00403DBB2002BD2
:1099F00024D0019B1B78C3F30103DBB2012B02D0FF
:109A0000022B0CD017E0009B1B68019A1288C2F34E
:109A10008312D2B213449A1C009B1A600BE0009B85
:109A20001B68019A5288C2F3891292B213449A1C9D
:109A3000009B1A6000BF01238DF80F309DF80F3096
:109A4000184604B07047000000B58BB00023ADF895
:109A500026303E4802F04DFF3D4802F04AFF3D4BA4
:109A60009B6804933C4B1B680693049A069B134027
:109A700002339B00374A13440433089304AB19465E
:109A80000898FFF7A9FF0346002B09D0049A069B0C
:109A9000134002339B002F4A134404330893EDE72D
:109AA00000BF0023079311E0049B5A1C0492069AFE
:109AB0001340079A920001A90A44264902339B00E9
:109AC0000B445B681360079B01330793079B012BD3
:109AD000EAD99DF80430C3F30103DBB2012B10D0A7
:109AE000022B1CD1BDF80A30ADF82630BDF8063087
:109AF000C3F389139BB203339A08049B1344049362
:109B000013E0BDF80A30ADF82630BDF80430C3F3D9
:109B10008313DBB21A46049B1344049305E00F49F8
:109B20004FF4C27002F058FE00BF094802F0EDFE8B
:109B30000590059B002B02D0049B064A9360BDF85C
:109B4000263018460BB05DF804FB00BF2C34002013
:109B50002834002014300020182C002030E40200AB
:109B600000B585B00021074802F04CFE0390039B2E
:109B70000293029B83F310030193019B184605B0E7
:109B80005DF804FB3034002000B589B003900291E9
:109B900001920093039B1B0C0793FFF7E1FF0690D4
:109BA000FFF786FE0246079B934204D3214940F209
:109BB000A91002F011FE069B1904009B5A1C0A9B77
:109BC0001340079A0A431C4902339B000B445A6016
:109BD000009A0A9B134002339B00174A1344043334
:109BE0000593039B03F00703D9B2059A137861F339
:109BF000C5031370019B03F00F03D9B2059A1388B4
:109C000061F389131380029BC3F31501059A13684E
:109C100061F39F231360059A1378012161F3010317
:109C20001370059A13786FF38203137000BF09B0A5
:109C30005DF804FB30E402001430002000B58DB064
:109C40000390029113468DF80730039B02330A9369
:109C500001238DF8273000238DF81B300DF11B03F5
:109C6000184602F0ABFB404B5A68029B1A603F4B10
:109C70001A683D4B99683C4B5B68CB1A134401331F
:109C80000B9314E001213A4802F003FEFFF7DCFEDB
:109C900007900799364802F0FCFD344B1A68324BA6
:109CA0009968314B5B68CB1A134401330B930A9AC2
:109CB0000B9B9A42E6D89DF82730002B48D0002312
:109CC00005939DF80730002B17D09DF81430012222
:109CD00062F301038DF814309DF8143043F004034F
:109CE0008DF81430039B03F00F03DAB2BDF8143083
:109CF00062F38913ADF8143016E09DF81430022297
:109D000062F301038DF814309DF8143043F004031E
:109D10008DF81430039BC3F309039AB2BDF81630D3
:109D200062F38F13ADF816300F4B5A680F4B1B6858
:109D3000134002339B000C4A134404330893059AE2
:109D4000089B1A60084B5A680A9B1344064A5360E2
:109D50009DF81B30184602F047FB9DF82730184647
:109D60000DB05DF804FB00BF14300020182C00205B
:109D70003034002000B58BB005900491039202931B
:109D80001F4B1B68079306AB012219460298FFF789
:109D900055FF0346002B24D0069B02330993002372
:109DA000089311E0089B9B00039A1A44099B591CD5
:109DB000099107990B401268124902339B000B442A
:109DC0005A60089B01330893089A029B9A42E9D390
:109DD000069A079B00931346029A04990598FFF789
:109DE000D3FE084B1B78002B05D000BF00F07EF897
:109DF0000346002BFAD100BF0BB05DF804FB00BF97
:109E0000182C00201430002000B583B00190009180
:109E10000023002200990198FFF7ACFF00BF03B0B8
:109E20005DF804FB00B587B0039002910192019B9D
:109E3000059305AA012302990398FFF79BFF00BF32
:109E400007B05DF804FB00B587B003900291019262
:109E50000093019B0493009B059304AA022302999B
:109E60000398FFF787FF00BF07B05DF804FB00B55C
:109E700089B00390029101920093019B0593009B8E
:109E800006930A9B079305AA032302990398FFF7F9
:109E900071FF00BF09B05DF804FB00B58BB0039003
:109EA000029101920093019B0593009B06930C9BEA
:109EB00007930D9B08930E9B099305AA052302990E
:109EC0000398FFF757FF00BF0BB05DF804FB0000DD
:109ED000054B9A68044B5B689A420CBF0123002330
:109EE000DBB21846704700BF1430002000B599B0AF
:109EF000FFF7EEFF0346002B01D00023C0E19B4B90
:109F00000022C3F81824BFF34F8F00BF974B9B6804
:109F10000493974B1B681093049A109B13400233D1
:109F20009B00924A13440433119300231793002398
:109F3000169300230F9304AB19461198FFF74CFDBD
:109F40000346002B19D0894BD3F81834002B14D1B9
:109F5000864B5A68049B9A4205D8844B5B68834AB7
:109F6000936000238CE1049A109B134002339B0002
:109F70007E4A134404331193DDE70023159311E067
:109F8000049B5A1C0492109A1340159A920001A93E
:109F90000A44764902339B000B445B681360159BAF
:109FA00001331593159B012BEAD99DF8043003F07A
:109FB0000303DBB2022B40F09C80BDF80630C3F3F4
:109FC00089139BB20D93BDF80630C3F389139BB27E
:109FD000A02B28BFA0239BB20C930C9BC3F30903B7
:109FE0009AB2BDF8063062F38F13ADF806300C9BC1
:109FF00008330B939DF80430C3F3C203DBB20F9315
:10A000000B995C4803F075F91790179B002B00F033
:10A01000D380179803F0FEF901A9169B0822179820
:10A0200003F0B4FA169B08331693049BDA43109B93
:10A03000134001339B000A930C9A0A9B9A4242D91F
:10A040000A9B002B08D0049A109B134002339B00FC
:10A05000464A1344043300E0474B08930A9B002B05
:10A0600002D00A9BDBB201E00C9BDBB28DF81F3003
:10A070000A9B002B01D0404B00E0002306930A9B73
:10A08000002B06D00C9BDAB20A9BDBB2D31ADBB2F0
:10A0900000E000238DF817309DF81F20169B0899CB
:10A0A000179803F073FA9DF81F30169A134416930D
:10A0B000069B002B16D09DF81720169B0699179823
:10A0C00003F064FA0EE0049A109B134002339B00E5
:10A0D000264A134404330993169B0C9A099917983E
:10A0E00003F054FA0D9B03339A08049B1344049322
:10A0F00062E09DF8043003F00303DBB2012B5BD177
:10A10000BDF80430C3F38313DBB2062B28BF06234C
:10A11000DAB2BDF8043062F38913ADF80430BDF84B
:10A120000430C3F38313DBB202330E939DF8043083
:10A13000C3F3C203DBB20F930E9B9B0019460D487D
:10A1400003F0D7F81790179B002B35D0179803F022
:10A1500061F901A9169B0822179803F017FA169BBC
:10A1600008331693002315931DE000BF1430002020
:10A17000182C002058DC020020300020049B5A1CC0
:10A180000492109A134002339B003F4A1344191D56
:10A19000169B0422179803F0F9F9169B04331693C3
:10A1A000159B01331593BDF80430C3F38313DBB261
:10A1B0001A46159B9342E1D3179B002B40D0324B9C
:10A1C000D3F810341493304BD3F81834002B1BD031
:10A1D000179803F02EF94DE000238DF84F301498B6
:10A1E000FFF736FB0346002B02D001238DF84F30DA
:10A1F0009DF84F30002B03D017991498FFF7E4FA1D
:10A20000149BDB681B681493149B002BE4D11798F4
:10A2100003F00FF900238DF803300DF10303184606
:10A2200002F0CCF8184BD3F81834002B02D1049B61
:10A23000154A93609DF80330184602F0D5F819E0EE
:10A24000114BD3F81034129306E01298FFF7D6FAA8
:10A25000129BDB681B681293129B002BF5D10B4AF3
:10A260000B4BD31ADB081B0443F0020309491846C1
:10A27000FFF7CAFDFFF72CFE034683F00103DBB2B4
:10A28000184619B05DF804FB14300020A4DC02006D
:10A290006CDC0200C0E4020000B585B0002303932B
:10A2A00023E0164BD3F81034029301238DF80730C6
:10A2B0000FE00298FFF7BBFA03461A46039B93424E
:10A2C00003D100238DF8073006E0029BDB681B6892
:10A2D0000293029B002BECD19DF80730002B01D09C
:10A2E000039B07E0039B01330393039B092BD8DDFA
:10A2F0004FF0FF33184605B05DF804FB1430002022
:10A3000000B585B001900B468DF80330FFF7C4FF10
:10A310000390039BB3F1FF3F01D1039B22E0039B1A
:10A32000DBB219460198FFF775FA104BD3F81034D9
:10A33000002B08D10D4A019BC2F81034019BDB6849
:10A3400000221A600DE0094BD3F81034DA68019B43
:10A35000DB6812681A60054BD3F81034DB68019A89
:10A360001A60039B184605B05DF804FB143000200A
:10A3700000B583B00C4BD3F8103401930A4B012283
:10A380001A7009E00198FFF75AFA0198FFF72AFAC4
:10A39000019BDB681B680193019B002BF2D100BF7E
:10A3A00000BF03B05DF804FB1430002082B00190C0
:10A3B000009100BF02B0704710B584B003900291C5
:10A3C000039BDB88002B0AD0039BDB881A461F4BBC
:10A3D000009313461E4A1F49029802F0D3FB039BC9
:10A3E0001B7A052B2ED0039B5B7A002B12D0039B8C
:10A3F0009B881A46039B1B7A19461046FFF7B4FA4E
:10A4000003461A46144B53F822301A461349029851
:10A4100002F0B8FB039B1B6819460298FFF7C6FFC2
:10A42000039B1B7A1A460E4B53F82240039B9B88D2
:10A4300000211846FFF778FA034622460949029898
:10A4400002F0A0FB00BF04B010BD00BFF4E40200A6
:10A4500004E502003CE50200302C002054E5020037
:10A460001C2C002058E5020000B585B00390029135
:10A4700013468DF80730039B1B7A052B0FD0039BE7
:10A480005B7A002B06D00D4B1B681A460C490298CC
:10A4900002F078FB0B49029802F074FB07E09DF88C
:10A4A0000730002B03D00749029802F06BFB02989B
:10A4B00002F046FB00BF05B05DF804FB302C002025
:10A4C00054E5020064E5020030B58BB007900691B8
:10A4D000059204930E9B1B7B8DF827300E9B002268
:10A4E0001A730E990498FFF767FF059B062B7FD818
:10A4F00001A252F823F000BF15A502001FA502001B
:10A500002FA5020043A5020061A5020089A5020053
:10A51000B9A5020007990E9802F034FB69E0069B8A
:10A520001B681A4607990E9802F02CFB61E0069B07
:10A530001A68069B04331B6807990E9802F022FBE9
:10A5400057E0069B1A68069B04331968069B08337C
:10A550001B6800930B4607990E9802F013FB48E026
:10A56000069B1968069B04331868069B08331B6812
:10A57000069A0C3212680192009303460A46079924
:10A580000E9802F0FFFA34E0069B1868069B04332D
:10A590001C68069B08331B68069A0C3212680699E1
:10A5A00010310968029101920093234602460799EF
:10A5B0000E9802F0E7FA1CE0069B1C68069B043329
:10A5C0001D68069B08331B68069A0C3212680699B0
:10A5D00010310968069814300068039002910192C6
:10A5E00000932B46224607990E9802F0CBFA00E022
:10A5F00000BF00220E990498FFF736FF0E9B9DF8CE
:10A6000027201A7300BF0BB030BD00BF00B587B064
:10A610000390029101920093029B082B60D8009B4B
:10A620001B7B8DF81330009B00221A730099019850
:10A63000FFF7C2FE0023059314E0059A029B9A429D
:10A6400009D2039A059B13441B781A4626490098A1
:10A6500002F098FA03E02549009802F093FA059B6E
:10A6600001330593059B072BE7D92149009802F098
:10A6700089FA0023059326E0059A029B9A421BD291
:10A68000039A059B13441B788DF812309DF8123005
:10A690007E2B0AD89DF81230184603F033FA034691
:10A6A000002B02D09DF8123000E02E231A461149EB
:10A6B000009802F067FA03E00F49009802F062FA8E
:10A6C000059B01330593059B072BD5D901220099E2
:10A6D0000198FFF7C9FE009B9DF813201A7300E054
:10A6E00000BF07B05DF804FB68E5020070E50200FA
:10A6F00074E5020078E502007CE5020000B585B053
:10A700000190019B002B0AD0074B43F001030393F8
:10A71000019B9B010293039B0298984700E000BFB6
:10A7200005B05DF804FB00BF80E8020000B583B00F
:10A730000190019B002B0AD04FF47A70FFF7DEFFE7
:10A74000019B013B0193019B002BF5D100E000BF71
:10A7500003B05DF804FB000000B583B00190019BDD
:10A760001B68184600F0AEF80346002B04D10B49D5
:10A770004FF4F67002F030F8019B1B681F2B02D8D3
:10A780004FF0A04306E0019B1B6803F01F02019BF2
:10A790001A60034B184603B05DF804FB80E5020025
:10A7A0000003005000B585B00190084611461A46D6
:10A7B00003468DF803300B468DF8023013468DF8B2
:10A7C000013001AB1846FFF7C7FF03909DF8032047
:10A7D0009DF802305B001A439DF801309B001A433C
:10A7E0009DF818301B0242EA03019DF81C301B043F
:10A7F000019A1943039B02F5E07243F8221000BF4F
:10A8000005B05DF804FB00B585B00390002301930B
:10A81000002300930023012201210398FFF7C2FFC8
:10A8200000BF05B05DF804FB00B585B0019001AB39
:10A830001846FFF791FF0390019B012202FA03F3F0
:10A840001946039800F02AF800BF05B05DF804FB34
:10A8500000B585B0019001AB1846FFF77DFF03906E
:10A86000019B012202FA03F31946039800F020F835
:10A8700000BF05B05DF804FB00B583B00190009106
:10A88000009B002B03D10198FFF7E2FF02E0019843
:10A89000FFF7CAFF00BF03B05DF804FB82B0019070
:10A8A0000091019B009AC3F8082500BF02B07047D1
:10A8B00082B001900091019B009AC3F80C2500BF63
:10A8C00002B0704784B00190019B5B0902930023A2
:10A8D0000393029B002B03D0029B012B04D007E0C3
:10A8E0004FF0FF33039303E04FF6FF73039300BF72
:10A8F000019B03F01F030193039A019B22FA03F3C8
:10A9000003F00103002B14BF01230023DBB2184620
:10A9100004B0704700B583B04FF480410020FEF7CB
:10A920009FFF0190019B0093009B002B04D00B4ADA
:10A930008221009801F00DFCFEF728FF084A094B20
:10A94000D31ADB081B0443F0040307491846FFF73A
:10A950005BFA00BF03B05DF804FB00BFA0E6020095
:10A96000A4DC02006CDC020004E7020000B585B044
:10A970000020FFF748FF0A20FFF7D8FE0121002042
:10A98000FFF77AFF0A20FFF7D1FEFFF7C3FF01F0C0
:10A9900025FE00F063FD01210E2001F05DFB114A50
:10A9A000114BD31ADB081B0443F004030F4918466C
:10A9B000FFF72AFA052303930D4A6B4692E803003A
:10A9C00083E8030008238DF80B306B469DF80B20BD
:10A9D0009DF80A10039801F05EFB4FF4C870FFF772
:10A9E000A5FEE7E7A4DC02006CDC020060E80200E0
:10A9F00070E8020082B0234B0193019B08221A6188
:10AA0000019B08225A61019B1F4A9A61019B1F4AC0
:10AA1000DA61019B4FF480521A62019B00229A6214
:10AA2000019B00225A62019B0222DA62019B164AB4
:10AA3000C3F8D820019B164AC3F8DC20019B802272
:10AA4000C3F8E020019B0022C3F8E820019B00220C
:10AA5000C3F8E420019B0222C3F8EC20019B0733DA
:10AA60000C4A10681860019B0B4A106818609188A6
:10AA7000927999809A71019B20229A7100BF02B04D
:10AA8000704700BF3434002088E80200CC35002035
:10AA9000CC45002094E8020098E8020000B589B097
:10AAA00003900291019200230693039BDB680593B8
:10AAB000039B1B690493049A059B9A4205D9049A47
:10AAC000059BD31A013B079307E0039B9A680499FF
:10AAD000059BCB1A1344013B0793039B9A68059B84
:10AAE000D31A079A934228BF13460793079A019BEC
:10AAF000934228BF13460793039B5A68059B134450
:10AB0000079A0299184603F005F8069A079B134422
:10AB10000693029A079B13440293019A079BD31A48
:10AB20000193059A079B13440593039B9B68059A21
:10AB30009A4201D100230593039B059ADA60019B99
:10AB4000002BB5D1069B184609B05DF804FB00B593
:10AB500089B0039002910192039BDB680793039BEA
:10AB60009A68079BD31A0693069A019B9A420ED9BC
:10AB7000039B5A68079B1344019A0299184602F0F6
:10AB8000C9FF079A019B1A44039BDA601AE0069BEF
:10AB90000593039B5A68079B1344059A029918462C
:10ABA00002F0B8FF019A069BD31A0593039B5868DD
:10ABB000029A069B1344059A194602F0ABFF039BC9
:10ABC000059ADA6000BF09B05DF804FB86B0019019
:10ABD000019B1B690493019BDB680393049A039B0D
:10ABE0009A4208D8019B9A68039BD21A049B13448B
:10ABF000013B059304E0049A039BD31A013B0593A0
:10AC0000059B184606B0704700B589B003900291C5
:10AC10000192029B0693039B5A1C13465B0013444C
:10AC2000DB00204A13440593059B5B69022B29D066
:10AC3000022B2ED8002B02D0012B13D029E005982F
:10AC4000FFF7C4FF0490049A019B9A4202D20023AA
:10AC5000079321E0019B0793019A06990598FFF756
:10AC600076FF19E00598FFF7B1FF0490019A049B65
:10AC7000934228BF13460793079A06990598FFF752
:10AC800066FF09E0019A06990598FFF707FF07900C
:10AC900002E00023079300BF079B184609B05DF848
:10ACA00004FB00BF3434002008B5FFF7A3FE00BF4B
:10ACB00008BD0000BFF34F8F00BF064BDB6803F4F5
:10ACC000E0620449044B1343CB60BFF34F8F00BFD6
:10ACD00000BFFDE700ED00E00400FA0582B0124B72
:10ACE0001B680193114B1B680093019B082B17D124
:10ACF000009B032B12D801A252F823F00DAD0200E5
:10AD000011AD020015AD020019AD0200012308E0EB
:10AD1000012306E0012304E0012302E0012300E017
:10AD20000023184602B070473001001034010010B3
:10AD300082B0124B1B680193114B1B680093019B5F
:10AD4000082B17D1009B032B12D801A252F823F035
:10AD500061AD020065AD020069AD02006DAD02009B
:10AD6000012308E0012306E0012304E0012302E0BF
:10AD7000012300E00023184602B0704730010010A4
:10AD80003401001082B0124B1B680193114B1B68F9
:10AD90000093019B082B17D1009B032B12D801A213
:10ADA00052F823F0B5AD0200B9AD0200BDAD02000E
:10ADB000C1AD0200012308E0002306E0002304E007
:10ADC000002302E0002300E00023184602B0704791
:10ADD000300100103401001082B0124B1B68019347
:10ADE000114B1B680093019B082B17D1009B032B71
:10ADF00012D801A252F823F009AE02000DAE0200F3
:10AE000011AE020015AE0200012308E0002306E0A7
:10AE1000002304E0002302E0002300E000231846A2
:10AE200002B07047300100103401001082B0124BA4
:10AE30001B680193114B1B680093019B082B17D1D2
:10AE4000009B032B12D801A252F823F05DAE020042
:10AE500061AE020065AE020069AE0200012308E0A7
:10AE6000002306E0002304E0002302E0002300E0CA
:10AE70000023184602B07047300100103401001062
:10AE800082B0124B1B680193114B1B680093019B0E
:10AE9000082B17D1009B032B12D801A252F823F0E4
:10AEA000B1AE0200B5AE0200B9AE0200BDAE020006
:10AEB000012308E0002306E0002304E0002302E071
:10AEC000002300E00023184602B070473001001054
:10AED0003401001082B0124B1B680193114B1B68A8
:10AEE0000093019B082B17D1009B032B12D801A2C2
:10AEF00052F823F005AF020009AF02000DAF0200C7
:10AF000011AF0200012308E0012306E0012304E061
:10AF1000012302E0012300E00023184602B070473D
:10AF20003001001034010010024B034A1A6000BFC8
:10AF3000704700BF542C00200090D00308B5FFF7E5
:10AF4000CDFE0346002B0ED04FF080430022C3F805
:10AF50000C214FF080430022C3F810214FF08043B2
:10AF60000022C3F83825FFF7E3FE0346002B76D016
:10AF70004FF080537D4AD3F80434C2F820354FF0A7
:10AF800080537A4AD3F80834C2F824354FF08053FE
:10AF9000764AD3F80C34C2F828354FF08053734A00
:10AFA000D3F81034C2F82C354FF080536F4AD3F8E1
:10AFB0001434C2F830354FF080536C4AD3F818344B
:10AFC000C2F834354FF08053684AD3F81C34C2F8C5
:10AFD00040354FF08053654AD3F82034C2F84435E9
:10AFE0004FF08053614AD3F82434C2F848354FF00B
:10AFF00080535E4AD3F82834C2F84C354FF0805362
:10B000005A4AD3F82C34C2F850354FF08053574A7F
:10B01000D3F83034C2F854354FF08053534AD3F844
:10B020003434C2F860354FF08053504AD3F8383486
:10B03000C2F864354FF080534C4AD3F83C34C2F820
:10B0400068354FF08053494AD3F84034C2F86C3524
:10B050004FF08053454AD3F84434C2F87035FFF7B7
:10B0600091FE0346002B02D0414B424A1A60FFF783
:10B07000B3FE0346002B03D03F4BFB22C3F8182539
:10B08000FFF7D4FE0346002B0AD03C4B1B6823F08D
:10B090000F023B4B1B6803F00F03384913430B604F
:10B0A000FFF7EEFE0346002B03D0364B4FF4007241
:10B0B0001A60FFF70FFF0346002B0DD04FF08043BF
:10B0C000D3F8003403F00103002B05D04FF0804388
:10B0D0006FF00102C3F800242B4BD3F888302A4AC2
:10B0E00043F47003C2F88830BFF34F8F00BFBFF343
:10B0F0006F8F00BF4FF01023D3F80032002B05DB19
:10B100004FF01023D3F80432002B2BDA1F4B01220F
:10B11000C3F8042500BF1D4BD3F80034002BFAD030
:10B120004FF010231222C3F8002200BF174BD3F8B0
:10B130000034002BFAD04FF010231222C3F804225F
:10B1400000BF124BD3F80034002BFAD00F4B002273
:10B15000C3F8042500BF0D4BD3F80034002BFAD000
:10B16000FFF7A8FDFFF7E0FE00BF08BD00C00040EC
:10B170008C5600404881030000F00040E40E00407F
:10B18000580200104096024000ED00E000E001404F
:10B1900041DF704700BF184600B585B00190019BA4
:10B1A000002B0AD0074B43F001030393019B9B0143
:10B1B0000293039B0298984700E000BF05B05DF83A
:10B1C00004FB00BF60E9020000B583B00190019B61
:10B1D000002B0AD04FF47A70FFF7DEFF019B013B92
:10B1E0000193019B002BF5D100E000BF03B05DF897
:10B1F00004FB000000B583B00190019B1B6818465A
:10B2000000F0B9F80346002B04D10B494FF4F67057
:10B2100001F0E2FA019B1B681F2B02D84FF0A043FC
:10B2200006E0019B1B6803F01F02019B1A60034BA1
:10B23000184603B05DF804FBA0E8020000030050CC
:10B2400000B585B00190084611461A4603468DF8B0
:10B2500003300B468DF8023013468DF8013001ABF8
:10B260001846FFF7C7FF03909DF803209DF80230B2
:10B270005B001A439DF801309B001A439DF818307B
:10B280001B0242EA03019DF81C301B04019A19437A
:10B29000039B02F5E07243F8221000BF05B05DF891
:10B2A00004FB00B585B003900023019300230093B5
:10B2B0000023012201210398FFF7C2FF00BF05B060
:10B2C0005DF804FB00B585B0019001AB1846FFF7AF
:10B2D00091FF0390019B012202FA03F319460398A0
:10B2E00000F035F800BF05B05DF804FB00B585B08F
:10B2F000019001AB1846FFF77DFF0390019B0122EF
:10B3000002FA03F31946039800F02BF800BF05B0CA
:10B310005DF804FB00B585B0019001AB1846FFF75E
:10B3200069FF0390039800F00AF80246019B22FA95
:10B3300003F303F00103184605B05DF804FB82B087
:10B340000190019BD3F81035184602B0704782B0C7
:10B3500001900091019B009AC3F8082500BF02B03C
:10B36000704782B001900091019B009AC3F80C25B0
:10B3700000BF02B0704784B00190019B5B0902934B
:10B3800000230393029B002B03D0029B012B04D0CC
:10B3900007E04FF0FF33039303E04FF6FF7303938F
:10B3A00000BF019B03F01F030193039A019B22FA44
:10B3B00003F303F00103002B14BF01230023DBB2CE
:10B3C000184604B0704700B58FB003900291009307
:10B3D00013468DF8073000230D93029B09939DF8C7
:10B3E00007300A93009B0B939DF840300C93039B0E
:10B3F000043309A900221846FDF7E4FF0D900D9BC8
:10B4000018460FB05DF804FB00B583B001900B4601
:10B410008DF803300198FFF77DFF0346002B03D022
:10B420001020FFF74FFF02E01020FFF75FFF00BF83
:10B4300003B05DF804FB000082B001900091019B15
:10B440001B78002B03D1044B01221A7000E000BFCF
:10B4500000BF02B0704700BF582C002010B588B064
:10B4600000230793222000F0E1FD274A04AB126875
:10B47000114619800233120C1A7003238DF8113013
:10B4800004AB224A19462920FCF7B6FE0790079B19
:10B490000693069B002B04D01D4A4A21069800F013
:10B4A00058FE01212920FCF723FF1A4B6C460FCBD5
:10B4B00084E80F004FF00073029300238DF80C30E6
:10B4C00022238DF803300E238DF802300F238DF8E0
:10B4D00001300D238DF8003000238DF80D306946C2
:10B4E00000230D4A0D48FDF7E1FA0790079B0593ED
:10B4F000059B002B04D0064A5821059800F029FE30
:10B5000000BF08B010BD00BF30E9020009B402005E
:10B51000C0E8020034E9020039B4020048E9020040
:10B5200008B5034B5B7C1846FFF7E0FE00BF08BD83
:10B530004C46002008B5034B5B7C1846FFF7C2FE63
:10B5400000BF08BD4C46002000B587B0FFF7E8FFFC
:10B55000C0238DF80C3001238DF81730164B0022D4
:10B560001A709DF8172003A90023009300231348A5
:10B57000FFF729FF0490049B002B0ED0104A722184
:10B58000049800F0E6FD08E000F0B0FD0346002B53
:10B5900002D0FFF7FDFD00E020BF074B1B78DBB2B8
:10B5A00083F00103DBB2002BEED1FFF7C3FF00BF36
:10B5B00007B05DF804FB00BF582C002048E90200EA
:10B5C000C0E8020000B589B003468DF80F30FFF7E0
:10B5D000A7FF03238DF814309DF80F308DF8153038
:10B5E00000238DF8163003238DF81F3003238DF8C8
:10B5F0001E309DF81E2004AB0021184602F0B3FA5D
:10B60000184B00221A7004A89DF81F2005A99DF868
:10B610001E30009303461448FFF7D5FE0690069BA4
:10B62000002B0ED0114A9121069800F092FD08E0FF
:10B6300000F05CFD0346002B02D0FFF7A9FD00E0FF
:10B6400020BF084B1B78DBB283F00103DBB2002B79
:10B65000EED1FFF76FFF9DF81230184609B05DF884
:10B6600004FB00BF582C002048E90200C0E802009B
:10B6700000B589B003460A468DF80F3013468DF8A1
:10B680000E30FFF74DFF02238DF814309DF80F3078
:10B690008DF815309DF80E308DF8163003238DF897
:10B6A0001F30164B00221A709DF81F2005A9002399
:10B6B000009300231248FFF786FE0690069B002B9E
:10B6C0000ED0104AD521069800F043FD08E000F0A6
:10B6D0000DFD0346002B02D0FFF75AFD00E020BF0E
:10B6E000064B1B78DBB283F00103DBB2002BEED1FB
:10B6F000FFF720FF00BF09B05DF804FB582C0020C5
:10B7000048E90200C0E8020000B589B00346029192
:10B710008DF80F3013468DF80E30FFF701FF02232E
:10B720008DF810309DF80F308DF811309DF80E30E7
:10B7300002338DF81F309DF80E300233184600F0AA
:10B74000EBFF03460693BDF81020069B1A80069B6C
:10B7500002339DF80E200299184602F0DBF9184BCF
:10B7600000221A709DF81F200023009300230699E1
:10B770001448FFF728FE0590059B002B0ED0124AB7
:10B78000F421059800F0E5FC08E000F0AFFC03466A
:10B79000002B02D0FFF7FCFC00E020BF084B1B7819
:10B7A000DBB283F00103DBB2002BEED1069800F090
:10B7B000DDFFFFF7BFFE00BF09B05DF804FB00BF6F
:10B7C000582C002048E90200C0E8020000B589B00A
:10B7D00003468DF80F300B468DF80E3013468DF86A
:10B7E0000D30FFF79DFE05238DF814309DF80F30C6
:10B7F0008DF815309DF80E308DF816309DF80D300F
:10B800008DF8173004238DF81F30174B00221A7063
:10B810009DF81F2005A90023009300231348FFF77C
:10B82000D2FD0690069B002B0FD0114A4FF4887171
:10B83000069800F08EFC08E000F058FC0346002B50
:10B8400002D0FFF7A5FC00E020BF074B1B78DBB25E
:10B8500083F00103DBB2002BEED1FFF76BFE00BFDC
:10B8600009B05DF804FB00BF582C002048E9020035
:10B87000C0E8020000B585B003468DF807309DF89A
:10B8800007301A46E0210F20FFF7A0FF0A20FFF73C
:10B890009BFC0F20FFF796FE03468DF80F300A2021
:10B8A000FFF792FC9DF80F3023F01F038DF80F3047
:10B8B0009DF80F209DF807309A4201D1002300E047
:10B8C0000123184605B05DF804FB000000B585B003
:10B8D00003460A468DF8073013468DF806300123DB
:10B8E0008DF80F309DF80630012B03D0022B00F0AD
:10B8F000B28060E19DF80730013B0F2B00F2A6807B
:10B9000001A252F823F000BF49B902005DB902005C
:10B9100071B9020085B902004DBA020099B902005E
:10B92000ADB90200C1B902004DBA02004DBA020021
:10B93000D5B90200E9B90200FDB9020011BA02004E
:10B9400025BA020039BA02003F238DF80E30FF23DA
:10B950008DF80D3087238DF80C307BE01F238DF898
:10B960000E30FF238DF80D3087238DF80C3071E0F9
:10B970000F238DF80E30FF238DF80D3087238DF8BF
:10B980000C3067E00F238DF80E30F1238DF80D3069
:10B9900085238DF80C305DE007238DF80E30FF23F2
:10B9A0008DF80D3087238DF80C3053E007238DF888
:10B9B0000E30FA238DF80D3087238DF80C3049E0D6
:10B9C00003238DF80E30FF238DF80D3087238DF87B
:10B9D0000C303FE003238DF80E30FA238DF80D3044
:10B9E00087238DF80C3035E003238DF80E30F023DB
:10B9F0008DF80D3086238DF80C302BE001238DF867
:10BA00000E30FA238DF80D3087238DF80C3021E0AD
:10BA100041238DF80E30F1238DF80D3085238DF8FC
:10BA20000C3017E000238DF80E30F0238DF80D3028
:10BA300086238DF80C300DE000238DF80E30D023D6
:10BA40008DF80D3082238DF80C3003E000238DF843
:10BA50000F3000BFB3E09DF80730013B0F2B00F221
:10BA6000A58001A252F823F0A9BA0200BDBA0200D3
:10BA7000D1BA0200E5BA0200ADBB0200F9BA020079
:10BA80000DBB020021BB0200ADBB0200ADBB02003A
:10BA900035BB020049BB02005DBB020071BB020066
:10BAA00085BB020099BB02001F238DF80E30BF2317
:10BAB0008DF80D3007238DF80C307BE00F238DF8C7
:10BAC0000E30BF238DF80D3007238DF80C3071E058
:10BAD00007238DF80E30BF238DF80D3007238DF826
:10BAE0000C3067E007238DF80E30A4238DF80D305D
:10BAF00004238DF80C305DE003238DF80E30BF2356
:10BB00008DF80D3007238DF80C3053E003238DF8AA
:10BB10000E30B4238DF80D3006238DF80C3049E03B
:10BB200001238DF80E30BF238DF80D3007238DF8DB
:10BB30000C303FE001238DF80E30B4238DF80D302A
:10BB400006238DF80C3035E001238DF80E30B1233B
:10BB50008DF80D3005238DF80C302BE000238DF887
:10BB60000E30B4238DF80D3006238DF80C3021E013
:10BB700000238DF80E30B1238DF80D3005238DF89C
:10BB80000C3017E000238DF80E3090238DF80D3027
:10BB900002238DF80C300DE000238DF80E30802349
:10BBA0008DF80D3000238DF80C3003E000238DF864
:10BBB0000F3000BF03E000238DF80F3000BF9DF869
:10BBC0000F30002B13D09DF80E3019462A20FFF7B6
:10BBD0004FFD9DF80D3019462920FFF749FD9DF8CE
:10BBE0000C3019462820FFF743FD002300E0012315
:10BBF000184605B05DF804FB00B583B030238DF81E
:10BC0000063040238DF8053050238DF80430002392
:10BC10008DF8073025E09DF8063000211846FFF723
:10BC200027FD9DF8053000211846FFF721FD9DF8FE
:10BC3000043000211846FFF71BFD9DF80630013344
:10BC40008DF806309DF8053001338DF805309DF8EC
:10BC5000043001338DF804309DF8073001338DF83E
:10BC600007309DF807300D2BD5D900216020FFF754
:10BC7000FFFC00217020FFF7FBFC00BF03B05DF864
:10BC800004FB00B585B003460A468DF8073013461D
:10BC90008DF80630FFF758FC0A20FFF795FA802050
:10BCA000FFF7E8FD03468DF80F309DF80F30002BAD
:10BCB00005D00A20FFF788FA9DF80F303FE00A20F0
:10BCC000FFF782FA9DF806209DF8073011461846C6
:10BCD000FFF7FCFD0346002B05D00A20FFF774FA9E
:10BCE0009DF80F302BE00A20FFF76EFA9DF80F3019
:10BCF000002B22D1FFF780FF03212B20FFF7B8FC98
:10BD0000042264216020FFF761FD00226021702081
:10BD1000FFF75CFD0020FFF7ADFD03468DF80F3007
:10BD20009DF80F30002B05D00A20FFF74DFA9DF843
:10BD30000F3004E00A20FFF747FA9DF80F3018464D
:10BD400005B05DF804FB00B585B0034600928DF8A0
:10BD500007300B468DF80630009BADF80E309DF88D
:10BD60000630012B34D1BDF80E30DBB28DF80B302C
:10BD7000BDF80E301B0A9BB2DBB28DF80A30009B77
:10BD80001B0CADF80E30BDF80E30DBB203F0030330
:10BD9000DBB28DF809309DF80920BDF80E30DBB21A
:10BDA000DB00DBB223F01F03DBB21344DBB28DF800
:10BDB00009309DF8093043F00803DBB28DF80930F3
:10BDC000BDF80E305B099BB2DBB28DF8083013E092
:10BDD000BDF80E30DB089BB2DBB28DF80830BDF841
:10BDE0000E30DBB25B01DBB28DF8093000238DF839
:10BDF0000B3000238DF80A3002A99DF80730042289
:10BE00001846FFF781FC00BF05B05DF804FB000099
:10BE100000B585B003468DF807309DF807308DF8E2
:10BE20000F309DF80F300533DBB20E4A127A0E49FF
:10BE30001846FFF769FC9DF80F300433DBB2094A5E
:10BE4000127A11461846FFF713FC064B1978054B7A
:10BE50005A689DF80F301846FFF775FF00BF05B010
:10BE60005DF804FB4C4600205546002000B583B029
:10BE700003468DF807309DF80730013BDBB20822FE
:10BE800008211846FFF7A2FC00BF03B05DF804FBD1
:10BE900000B585B00190214A02AB126811461980A5
:10BEA0000233120C1A7002238DF80E30019B00220F
:10BEB0001A7000238DF80F3026E09DF80F301033F4
:10BEC0006B4413F8083C1846FFF77CFB03468DF8DB
:10BED0000D309DF80D3003F00803002B0FD19DF8B5
:10BEE0000F3010336B4413F8083C0133DAB2019B76
:10BEF0001A7000238DF80E309DF80E300AE09DF880
:10BF00000F3001338DF80F309DF80F30022BD4D94C
:10BF10009DF80E30184605B05DF804FB44E90200B8
:10BF200086B0039001930B468DF80B3013468DF8C5
:10BF30000A3000230593114A9DF80B3013700F4A05
:10BF4000039B53600D4A9DF80A301372002305933A
:10BF50000CE0059B019A13441978084A059B134489
:10BF600009330A461A70059B01330593059B072B7D
:10BF7000EFDD0023184606B0704700BF4C46002096
:10BF800000B583B00023ADF806300DF10303184669
:10BF9000FFF77EFF03468DF80530BDF8063001330C
:10BFA000ADF806309DF80530022B03D1BDF8063000
:10BFB000312BEAD9BDF80630322B01D1062330E00F
:10BFC0000023ADF806309DF803301846FFF720FF38
:10BFD0009DF803301846FFF749FFBDF806300133DE
:10BFE000ADF806309DF80330013BDBB21846FFF791
:10BFF000E9FA03468DF804309DF8043003F0080395
:10C000008DF804309DF80430002B03D0BDF80630C5
:10C01000312BE2D9BDF80630322B01D1072300E0E5
:10C020000023184603B05DF804FB000000B583B0A0
:10C0300003468DF80730074A9DF807305374054BC7
:10C040005B7C1846FFF72DF9FFF774FA00BF03B0C9
:10C050005DF804FB4C46002000B585B003460A4657
:10C060008DF8073013468DF806309DF806209DF8B0
:10C07000073011461846FFF704FE03468DF80F30CF
:10C080009DF80F30002B01D1002300E0012318465A
:10C0900005B05DF804FB00B585B0039001930B4635
:10C0A0008DF80B3013468DF80A309DF80A209DF864
:10C0B0000B10019B0398FFF733FFFFF761FF034667
:10C0C000184605B05DF804FB00B583B00190019BF4
:10C0D000002B03D10449C42000F07EFB019B5B6868
:10C0E000184603B05DF804FB68E90200014B1B78B9
:10C0F000184670476046002000B585B06B46114970
:10C10000184601F0C1FB10E06B461846FFF7DCFF54
:10C110000390039B1B680293039B5A68029B104683
:10C1200098476B46184601F0D9FB6B461846FFF757
:10C13000CBFF0346002BE7D100BF00BF05B05DF881
:10C1400004FB00BF40EA020008B5FFF7D5FF00BFBF
:10C1500008BD00B583B002900091019244F2010045
:10C1600071466A4600F004F803B000BD00BF00004D
:10C1700030B58BB007900691059272B600BFFEF7FE
:10C18000F7F800BFFDF7B2FE0346002BFAD1079B7C
:10C1900044F2020293422FD0079B44F202029342E0
:10C1A00069D8079B44F20102934237D0079B44F2BF
:10C1B000010293425FD8079B012B05D0079B41F2F8
:10C1C000010293420CD056E0394A3A4BD31ADB08AD
:10C1D0001B0443F0010338491846FDF715FE57E0EC
:10C1E000334A344BD31ADB081B0443F001033349B1
:10C1F0001846FDF709FE4BE0059B09932C4A2D4B91
:10C20000D31ADB081B0443F00100099B5B681A4644
:10C21000099B1B682A49FDF716FE39E0059B089328
:10C22000234A244BD31ADB081B0443F00104089B68
:10C230009D68089B9B68184601F082FB03461846E0
:10C24000089B5B681946089B1B68069A029201933B
:10C25000009103462A461B492046FDF71EFE144A5C
:10C26000144BD31ADB081B0443F00103164918468C
:10C27000FDF7CAFD0CE00E4A0E4BD31ADB081B0477
:10C2800043F00103069A11491846FDF7CBFD00BFA4
:10C290000F4B1B6803F00103002B00D000BE059A72
:10C2A0000699079801F094FB00BF0BB030BD00BFAA
:10C2B000A4DC02006CDC0200E4EA020004EB0200F1
:10C2C00028EB020044EB02006CEB020080EB020062
:10C2D000F0ED00E082B0EFF310830093009B019338
:10C2E00072B600BF019B184602B0704762B600BF2D
:10C2F00000BF704700B585B00190FFF7EBFF0390DA
:10C30000164B9B68002B1BD1144B01229A60144BD7
:10C31000D3F88020134B1340104A1360104B114A7E
:10C32000C3F880200E4BD3F884300C4A53600C4B7A
:10C330004FF0FF32C3F88420019B00221A7002E004
:10C34000019B01221A70039B002B01D1FFF7CEFF46
:10C350000023184605B05DF804FB00BF64460020CA
:10C3600000E100E0FC06FFBD00B585B003468DF896
:10C370000730104B9B68002B16D09DF80730002B20
:10C3800012D1FFF7A7FF03900B4A0A4B1B681360FB
:10C39000094A084B5B685360064B00229A60039B76
:10C3A000002B01D1FFF7A2FF0023184605B05DF86E
:10C3B00004FB00BF6446002000E100E000B583B04C
:10C3C000019000F02BF80346012B03D005494320D0
:10C3D00000F002FA0198FFF78DFF00BF03B05DF88F
:10C3E00004FB00BF30EC020000B583B003468DF8BB
:10C3F000073000F013F80346012B03D00649512003
:10C4000000F0EAF99DF807301846FFF7ADFF00BFCE
:10C4100003B05DF804FB00BF30EC020084B0EFF322
:10C4200005830193019BC3F308030393039B002B34
:10C430000DD1EFF314830093009B0293029B03F052
:10C440000103002B0CBF01230023DBB200E001231A
:10C45000184604B07047000008B5044B1B68044A36
:10C4600012681046984700BF08BD00BF7046002004
:10C470007446002086B0039002910192039B5B09F1
:10C480000593059B5B01039AD31A0493029B059ABB
:10C490001A60019B049A1A6000BF06B07047000042
:10C4A00084B001900091002303931FE0019B002BB7
:10C4B00010D0124A039B52F82330019A9A4209D8AD
:10C4C0000F4A039B52F823200E49039B51F8233057
:10C4D0009A4206D10A4A039B52F82330009A9A42A4
:10C4E00001D2039B06E0039B01330393039B062BBE
:10C4F000DCD90023184604B0704700BF48ED0200A5
:10C5000080ED020064ED020000B585B0019002AA42
:10C5100003AB19460198FFF7ADFF039B074A52F89A
:10C520002310029B01229A40039B0A43034941F8CE
:10C53000232000BF05B05DF804FB00BF7C4800204D
:10C5400000B585B0019001990020FFF7A9FF039085
:10C55000034A039B52F82330184605B05DF804FBEC
:10C5600048ED020000B585B0019002AA03AB194660
:10C570000198FFF77FFF039B084A52F82320029B94
:10C5800022FA03F303F00103002B14BF012300235D
:10C59000DBB2184605B05DF804FB00BF7C48002004
:10C5A00000B585B0019002AA03AB19460198FFF7C8
:10C5B00061FF039B084A52F82310029B012202FAF2
:10C5C00003F3DA43039B0A40034941F8232000BFE9
:10C5D00005B05DF804FB00BF7C48002000B583B0C7
:10C5E000002301930023019305E00198FFF78CFFDE
:10C5F000019B01330193019B0F2BF6D9034B0122C1
:10C600001A700023184603B05DF804FB8048002030
:10C6100000B58BB003900291384B1B7883F0010377
:10C62000DBB2002B02D048F2081362E0039B002B20
:10C6300002D148F20E135CE0029B002B02D148F2BB
:10C640000E1356E0029B1B680593059B002B02D03E
:10C65000059B202B02D948F207134AE010210598C8
:10C66000FFF71EFF0490264A049B52F823300993DB
:10C67000244A049B52F82330079348F2041308938A
:10C680001EE00998FFF75CFF06900998FFF76AFF24
:10C690000346002B0DD0002308930998FFF780FF75
:10C6A000079B194A1A44039B1A60029B069A1A6058
:10C6B00009E0079A069B13440793099B01330993EA
:10C6C000099B0F2BDDD9089B002B11D00F4A104B73
:10C6D000D31ADB081B0443F00100039B1B681A46B6
:10C6E000029B1B6800931346089A0A49FDF7BFFB9B
:10C6F000089B18460BB05DF804FB00BF8048002083
:10C7000064ED02009CED02007C460020C4DC0200C7
:10C710006CDC0200CCEC020000B587B00190002375
:10C720000493019B039303AA04AB11461846FFF739
:10C730006FFF0590059B002B0DD0094A094BD31ABA
:10C74000DB081B0443F00103019A07491846FDF773
:10C7500069FB00230493049B184607B05DF804FBB3
:10C76000C4DC02006CDC020008ED020000B585B0FC
:10C770000190174B1B7883F00103DBB2002B20D113
:10C78000019B002B1FD0002303930023029314E08E
:10C79000039B104A1344019A9A4204D10298FFF76E
:10C7A000B3FE00BF10E00298FFF7CAFE0246039BEB
:10C7B00013440393029B01330293029B0F2BE7D98F
:10C7C00002E000BF00E000BF05B05DF804FB00BF61
:10C7D000804800207C46002000B585B003460091CB
:10C7E000ADF80630BDF806300293009B039302AB10
:10C7F0001A46002144F20200FFF7BAFC00BF05B060
:10C800005DF804FB10B487B001900091019B009A81
:10C8100053E8004F104643E8000191F0000FF7D1B4
:10C82000059404900391059B184607B05DF8044BEE
:10C83000704710B487B001900091019B009A53E8B3
:10C84000004F44EA020043E8000191F0000FF6D1E6
:10C85000059404900391049B184607B05DF8044BBF
:10C86000704710B487B001900091019B009A53E883
:10C87000004F04EA020043E8000191F0000FF6D1F6
:10C88000059404900391059B184607B05DF8044B8E
:10C89000704710B487B001900091019B009A53E853
:10C8A000004F04EB020043E8000191F0000FF6D1C5
:10C8B000059404900391049B184607B05DF8044B5F
:10C8C000704710B487B001900091019B009A53E823
:10C8D000004FA4EB020043E8000191F0000FF6D1F5
:10C8E000059404900391049B184607B05DF8044B2F
:10C8F000704700B583B0019001210198FFF799FFBF
:10C900000346184603B05DF804FB00B583B0019000
:10C9100000210198FFF7A5FF0346184603B05DF814
:10C9200004FB000000B583B001900B468DF8033086
:10C93000019B002B03D10849E820FFF74DFF019B25
:10C94000DA689DF803300199098A01FB03F3134467
:10C95000184603B05DF804FBB8ED020000B583B0E3
:10C9600001900091019B002B03D10849F520FFF7AE
:10C9700033FF009B019AD2689B1A019A128AB3FB7B
:10C98000F2F3DBB2184603B05DF804FBB8ED020029
:10C9900000B585B00190019B002B01D10E234CE026
:10C9A000019B1B68002B03D12649FF20FFF714FFD2
:10C9B000019B5B68002B04D122494FF48070FFF784
:10C9C0000BFF019B9B68002B04D11E4940F2011014
:10C9D000FFF702FF019BDB68002B04D119494FF4DC
:10C9E0008170FFF7F9FE019B1B8A002B04D11549CA
:10C9F00040F20310FFF7F0FE019B9A68019B5B6811
:10CA0000D31A8DF80F30019B1B68019A52681A6087
:10CA100007E0019B1A681368591C11609DF80F20EC
:10CA20001A709DF80F305A1E8DF80F20002BF0D190
:10CA3000019B1B6800221A710023184605B05DF89F
:10CA400004FB00BFB8ED020000B585B00190019B6A
:10CA5000002B04D11F494FF49270FFF7BDFE002355
:10CA6000039300238DF80A300DF10A031846FFF7EF
:10CA7000A5FC019B1B681A68019B5B689A421FD941
:10CA8000019B1B681A68013A1A601B681B781946DB
:10CA90000198FFF747FF0390019B9A68019B1B6871
:10CAA0001B68D31A8DF80B30019B1B681B799DF80E
:10CAB0000B209A4204D9019B1B689DF80B201A7128
:10CAC0009DF80A301846FFF78FFC039B184605B007
:10CAD0005DF804FBB8ED020010B584B00190009140
