:020000022000DC
:1070000000000420757302005D7302005F730200CC
:1070100061730200637302006573020000000000E8
:107020000000000000000000000000006773020084
:1070300069730200000000006B7302006D730200B0
:107040005DCD02006F73020055DB020049EA0200C9
:107050006F7302006F7302004DDA02006F7302005B
:107060006F7302006F7302006F7302006F73020090
:107070006F73020051DF02006F7302006F73020032
:107080006F7302007D8B02006F7302006F7302004A
:107090006F7302006F730200418303006F7302007D
:1070A0006F7302006F7302006F7302006F73020050
:1070B0006F7302006F730200000000000000000008
:1070C0006F7302006F7302006F7302006F73020030
:1070D0006F7302006F7302006F7302006F73020020
:1070E0006F7302006F730200FD9803000000000040
:1070F000000000006F730200000000006F730200C8
:10710000000000000000000000000000000000007F
:10711000000000000000000000000000000000006F
:10712000000000000000000000000000000000005F
:10713000000000000000000000000000000000004F
:10714000000000000000000000000000000000003F
:10715000000000000000000000000000000000002F
:10716000000000000000000000000000000000001F
:10717000000000000000000000000000000000000F
:1071800000000000000000000000000000000000FF
:1071900000000000000000000000000000000000EF
:1071A00000000000000000000000000000000000DF
:1071B00000000000000000000000000000000000CF
:1071C00000000000000000000000000000000000BF
:1071D00000000000000000000000000000000000AF
:1071E000000000000000000000000000000000009F
:1071F000000000000000000000000000000000008F
:10720000354936480A1A02D0072291438D4634493F
:1072100034480A1A06D00722914381F309880222D2
:1072200082F3148830483149314A00F044F831483B
:107230003149324A00F03FF831483249324A00F0D1
:107240003AF832483249334A00F035F83248334987
:10725000334A00F030F833483349344A00F02BF811
:1072600033483449344A00F026F83448344900227F
:1072700000F02CF833483449002200F027F8334856
:107280003349091A082902DB002202604160314AB1
:1072900090471F481F49884205D00268043003B454
:1072A000904703BCF7E700208646EC46002000210B
:1072B000294A9047FEE7884207D0521A05D0037842
:1072C00001300B700131013AF9D17047884202D088
:1072D00002700130FAE770470000042000E003204C
:1072E0000000042000000420F4EF0300242C002000
:1072F0009C2C0020D0730200D0730200D49F0300A6
:10730000F4EF0300242C0020242C002080A1030093
:1073100080A1030080A1030080A1030080A10300DD
:1073200080A1030080A1030080A10300F1EF03000E
:107330006CF003009C2C00209C2C00209C2C002036
:10734000E86A0020E86A0020E86A0020E86A002075
:10735000E88A00209D7302001D0B0300FEE7FEE794
:10736000FEE7FEE7FEE7FEE7FEE7FEE7FEE7FEE7F5
:1073700000F002B8FFF7FCBF0F484FF00701884349
:1073800085460E4880470E48016841F4700101604F
:10739000BFF34F8FBFF36F8FFFF732BF09480A4922
:1073A0000A4A884207D0521A05D0037801300B7080
:1073B0000131013AF9D17047000004208511030022
:1073C00088ED00E06CA10300102C0020242C00208C
:1073D00000B583B00190019B1B68184600F04CF883
:1073E0000346002B04D10B494FF4F67003F0E0F88C
:1073F000019B1B681F2B02D84FF0A04306E0019BA6
:107400001B6803F01F02019B1A60034B184603B070
:107410005DF804FB80A103000003005000B585B0B7
:1074200001900B468DF8033001AB1846FFF7D0FFF3
:107430000390019A039B02F5E07253F82230019AFF
:1074400023F44031039B02F5E07243F82210019AC5
:10745000039B02F5E07253F822309DF803201204DA
:107460001146019A1943039B02F5E07243F822107A
:1074700000BF05B05DF804FB84B00190019B5B097F
:10748000029300230393029B002B03D0029B012B4A
:1074900004D007E04FF0FF33039303E04FF6FF7390
:1074A000039300BF019B03F01F030193039A019B09
:1074B00022FA03F303F00103002B14BF012300237E
:1074C000DBB2184604B0704700B583B00190019B51
:1074D000032B04D8019807F0CFFC034600E00023FB
:1074E000184603B05DF804FB00B587B003460A46B2
:1074F0008DF8073013468DF8063000238DF81730CD
:10750000002304939DF80730184607F0FDFC049013
:10751000049B032B61D89DF80630022B52D0022B1E
:107520005EDC002B31D0012B5AD13649049A134628
:107530005B0013440B441B788DF817303149049AD3
:1075400013465B0013440B4401331B78002B0ED011
:107550002D4B2E4A4FF48041184601F0A5F90390B7
:10756000039B002B03D1294A9DF80730137025494E
:10757000049A13465B0013440B4402331978244ADF
:10758000049B13440A461A702AE01F4B184601F068
:10759000C3F91F4A049B134419781A48049A1346E6
:1075A0005B001344034402331B78994217D11549F9
:1075B000049A13465B0013440B4402331B788DF886
:1075C00017300CE00F49049A13465B0013440B4438
:1075D00001331B788DF8173002E000BF00E000BFD8
:1075E0009DF81730002B09D00A4B1B68002B05D0E3
:1075F000084B1B689DF817201046984700BF07B03E
:107600005DF804FBEC2C0020F82C0020182D002045
:107610001C2D0020E82C002000B583B00190019BB8
:107620001B7802211846FFF75FFF00BF03B05DF82B
:1076300004FB000000B583B00C4B1B78002B0FD06F
:107640000023019308E0019B022B02D0019807F070
:107650009FFB019B01330193019B032BF3D901E0B5
:1076600007F0B0FB00BF03B05DF804FBA42C0020C2
:107670002DE9D04F92B003468DF83F30002311938F
:1076800000231093CC4B1B78002B04D0CA4A002354
:107690001370FFF7CFFF9DF83F30172B00F23F82AA
:1076A00001A252F823F000BF0977020021770200FF
:1076B00021770200BD77020059780200D5780200D8
:1076C000697902008979020099790200C57902007E
:1076D000E3790200017A02001F7A02002D7A02008B
:1076E0002D7A02002D7A02002D7A02002D7A0200F6
:1076F000C17A0200CF7A0200E37A0200F77A020030
:10770000117B0200117B0200FFF794FFAB4B184680
:1077100001F002F91190AA4A9DF83F301370FFE181
:10772000002007F0EDFA0346002B0DD0002007F0F3
:107730002FFB9DF83F30022B02D14FF4E16301E0B3
:107740004FF47A6310930BE0002007F007FB9DF8DD
:107750003F30022B01D1C82301E04FF4C8731093CE
:10776000974A9DF83F301370944C109B0022009371
:1077700001924FF000024FF00003DDE90067394647
:10778000CB03314643EA51433146CA0312F57A71BD
:10779000029143F1000303934FF4FA624FF00003A8
:1077A000DDE9020110F090FE02460B46134600226E
:1077B0001946204601F078F81190B1E1002007F059
:1077C0009FFA0346002B0DD0002007F0E1FA9DF848
:1077D0003F30032B02D14FF4487301E04FF47A633A
:1077E00010930BE0002007F0B9FA9DF83F30032B0F
:1077F00001D1C82301E04FF4C8731093704A9DF87B
:107800003F3013706D4C109B0022049305924FF093
:1078100000024FF00003DDE904673946CB0331462F
:1078200043EA51433146CA0312F57A71069143F196
:10783000000307934FF4FA624FF00003DDE90601FD
:1078400010F042FE02460B4613460022194620461F
:1078500001F02AF8119063E1002007F051FA034685
:10786000002B06D0002007F093FA4FF47A631093B0
:1078700005E0002007F072FA4FF4C8731093504AE5
:107880009DF83F3013704D4C109B00229A46934652
:107890004FF000024FF000034FEACB3343EA5A4364
:1078A0004FEACA3212F57A71089143F10003099345
:1078B0004FF4FA624FF00003DDE9080110F004FE16
:1078C00002460B46134600221946204600F0ECFF04
:1078D000119025E1002007F013FA0346002B0CD08D
:1078E000002007F055FA9DF83F30052B01D1C82341
:1078F00001E04FF47A6310930BE0002007F02EFABA
:107900009DF83F30052B01D1C82301E04FF4C87327
:1079100010932B4A9DF83F301370284C109B002287
:10792000984691464FF000024FF000034FEAC933EA
:1079300043EA58434FEAC83212F57A710A9143F18B
:1079400000030B934FF4FA624FF00003DDE90A01E4
:1079500010F0BAFD02460B46134600221946204697
:1079600000F0A2FF1190DBE0002007F051FA144A6A
:107970009DF83F301370114B002240F266611846AB
:1079800000F092FF1190CBE0002007F0E7F90C4ADD
:107990009DF83F301370C3E0074B01221A7001209D
:1079A00007F036FA054B002240F26661184600F0F7
:1079B0007BFF1190B4E000BF9D2C0020A82C00207C
:1079C0009C2C0020594B01221A70012007F020FA4C
:1079D000574B00224FF40051184600F065FF1190FC
:1079E0009EE0524B01221A70012007F011FA504B11
:1079F000002240F26661184600F056FF11908FE0B9
:107A00004A4B01221A70012007F002FA484B00226B
:107A10004FF40051184600F047FF119080E007F046
:107A2000E4F9444A9DF83F30137079E0424B184620
:107A300000F072FF11909DF83F30C3F111031093D5
:107A4000109B002B35D0119B002B32D1109B012BAA
:107A500028D9394C109B9BB21A46C82302FB03F36A
:107A6000DA171E4617464FF000024FF00003FB03E3
:107A700043EA5643F20312F57A710C9143F1000385
:107A80000D934FF4FA624FF00003DDE90C0110F0A2
:107A90001BFD02460B46134600221946204600F005
:107AA00003FF1190022007F059F9244B01221A70AC
:107AB00036E0022007F06CF9204B00221A702FE00C
:107AC000FFF7B8FD1B4A9DF83F30137028E0FFF721
:107AD000B1FD002007F042F9164A9DF83F301370BF
:107AE0001EE0FFF7A7FD012007F038F9114A9DF8C5
:107AF0003F30137014E0FFF79DFD002007F02EF9D2
:107B0000012007F02BF90B4A9DF83F30137007E076
:107B100007F06BF9074A9DF83F30137000E000BF93
:107B2000119B184612B0BDE8D08F00BF9D2C0020DD
:107B3000A82C00209C2C0020C82C0020A42C002065
:107B400000B583B00190074B1B6803F00103002BC5
:107B500004D0054B1B781846FFF78AFD00BF03B021
:107B60005DF804FBA02C00209C2C002000B583B005
:107B70000190022007F04CF900BF03B05DF804FB50
:107B800000B585B003468DF8073000230393084BFA
:107B90001B6803F00103002B05D09DF80730184641
:107BA000FFF766FD0390039B184605B05DF804FBE4
:107BB000A02C002000B585B0019000910023039314
:107BC0002A4A019B13602A4A009B1360019B03F021
:107BD0000203002B2AD00023029308E00122012196
:107BE000029800F055F80390029B01330293029B28
:107BF000032B02D8039B002BF0D0039B002B06D154
:107C000040F2333204211B4800F0F4FB0390039B45
:107C1000002B02D100F076FC0390039B002B05D1D2
:107C2000154A0021154800F00BFE0390019B03F05C
:107C30000103002B14D0012007F09CF9039B002BBB
:107C400005D10F4A00210F4800F0FAFD0390039B75
:107C5000002B05D10C4A01210C4800F0F1FD0390E6
:107C6000039B184605B05DF804FB00BFA02C002064
:107C7000E82C0020ACA1030019760200A8A10300A3
:107C8000417B0200A0A103006D7B0200A4A10300C0
:107C900084B001900B468DF8033013468DF8023006
:107CA00000230393019B032B3CD89DF80230012B4A
:107CB0000BD19DF80330012B04D1019BDBB20E33B5
:107CC000DBB200E000238DF802309DF80330022B78
:107CD0000FD0022B23DC002B16D0012B1FD114490F
:107CE000019A13465B0013440B449DF802201A705E
:107CF0001AE00F49019A13465B0013440B44013309
:107D00009DF802201A700FE00949019A13465B00A2
:107D100013440B4402339DF802201A7004E0072339
:107D2000039301E007230393039B184604B07047B5
:107D3000EC2C002000B585B001900B468DF8033087
:107D4000019B032B14D89DF80330002B01D0032393
:107D500000E000238DF80F30019807F0F5F8024697
:107D60009DF80F3019461046FFF758FB002300E03E
:107D70000623184605B05DF804FB00B583B00190FA
:107D800001210198FFF7D6FF0346184603B05DF8BE
:107D900004FB00B583B0012200210020FFF778FF2B
:107DA0000190019B002B04D0019B072B01D0019B6C
:107DB0001CE0072202210120FFF76AFF0190019BCE
:107DC000002B04D0019B072B01D0019B0EE0042265
:107DD00002210020FFF75CFF0190019B002B04D0E3
:107DE000019B072B01D0019B00E00023184603B044
:107DF0005DF804FB00B583B0012202210020FFF7EB
:107E000047FF0190019B002B04D0019B072B01D061
:107E1000019B1CE0072202210120FFF739FF01909E
:107E2000019B002B04D0019B072B01D0019B0EE08E
:107E30000A2200210020FFF72BFF0190019B002B5D
:107E400004D0019B072B01D0019B00E000231846C2
:107E500003B05DF804FB00B583B001900120FFF78B
:107E600033FB0346002B03D0019B02221A700CE067
:107E70000020FFF729FB0346002B03D0019B0B22B8
:107E80001A7002E0019B00221A7000BF03B05DF877
:107E900004FB00B583B00020FFF76FFF0190019B4A
:107EA000002B04D0019B062B01D0019B0CE001208C
:107EB000FFF763FF0190019B002B04D0019B062B71
:107EC00001D0019B00E00023184603B05DF804FBDD
:107ED00000B585B001900091019B1B88102B02D04A
:107EE000112B18D02FE01A4B1B68002B0DD1FFF778
:107EF00050FF0390039B002B07D0164B1B68002BF1
:107F000003D0144B1B6803989847114B1B6801332F
:107F10000F4A136017E00E4B1B68013B0C4A1360BD
:107F20000B4B1B68002B0DD1FFF764FF0390039BE5
:107F3000002B07D0074B1B68002B03D0054B1B6899
:107F40000398984700BF00BF05B05DF804FB00BF71
:107F5000242D0020202D002000B585B00190009137
:107F6000002303930A4A019B1360009B002B02D05D
:107F70000098FFF770FF074B1B68002B02D1FFF73B
:107F800039FF0390039B184605B05DF804FB00BF62
:107F9000202D0020242D002084B003468DF80730CA
:107FA0009DF807305B08DBB21A460D4B9B5C8DF8E1
:107FB0000F309DF8073003F00103002B04D09DF82B
:107FC0000F301B09DBB204E09DF80F3003F00F0304
:107FD000DBB28DF80E309DF80E30184604B07047B5
:107FE000602D002084B003460A468DF80730134602
:107FF0008DF806309DF8073003F00103002B01D007
:108000000F2300E0F0238DF80F309DF8073003F0C8
:108010000103002B04D09DF806301B01DBB201E008
:108020009DF806308DF80E309DF807305B08DBB206
:108030001A46114B9A5C9DF807305B08DBB2194673
:108040009DF80F301340DAB20B4B5A549DF80730AD
:108050005B08DBB21A46084B9A5C9DF807305B0858
:10806000DBB219469DF80E301343DAB2024B5A5474
:1080700000BF04B0704700BF602D002000B585B080
:1080800003468DF807300023039310E00F4B1A6866
:10809000039BDB0013440293029B1B789DF807208F
:1080A0009A4201D1029B0DE0039B01330393084BDD
:1080B0001B781A46039B9342E8DB0649882002F0AE
:1080C00077FA0023184605B05DF804FB282D002040
:1080D0002C2D0020D8A1030000B585B003460A4628
:1080E0008DF8073013468DF806309DF80730184696
:1080F000FFF7C4FF0390039B002B0BD0039B5B682F
:10810000002B07D0039B5B689DF806109DF80720A5
:108110001046984700BF05B05DF804FB2DE9F04F0D
:1081200087B003460A468DF80F3013468DF80E309F
:108130009DF80F301846FFF72FFF0346042B00F27F
:10814000C28001A252F823F05D810200D1810200B9
:10815000ED8102001D820200338202009DF80E3084
:10816000002B00F0AD809DF80F3001211846FFF77D
:1081700039FF00238DF817300DF11703184600F072
:1081800071FC9DF80F104FF001024FF00003A1F1B8
:108190002004C1F1200003FA01F702FA04F4274396
:1081A00022FA00F0074302FA01F6494BD3E9002313
:1081B00046EA020100913B430193454BDDE9001281
:1081C000C3E900129DF81730184600F061FC77E013
:1081D0009DF80E30002B01D0022200E000229DF815
:1081E0000F3011461846FFF7FDFE6CE09DF80E308B
:1081F000002B0CD09DF80F3003211846FFF7F2FE3C
:108200009DF80F3001211846FFF766FF5BE09DF8EF
:108210000F3001211846FFF7E5FE54E09DF80E30BF
:10822000002B4FD19DF80F3004211846FFF7DAFEDE
:1082300048E09DF80E30002B06D09DF80F3003214A
:108240001846FFF7CFFE3EE09DF80F30002118469C
:10825000FFF7C8FE9DF80F3000211846FFF73CFFDE
:1082600000238DF816300DF11603184600F0FAFBC6
:108270009DF80F104FF001024FF00003A1F120060E
:10828000C1F1200003FA01F502FA06F6354322FA9D
:1082900000F0054302FA01F46FEA04086FEA0509E9
:1082A0000B4BD3E9002308EA020A09EA030B084B47
:1082B000C3E900AB9DF81630184600F0E9FB02E078
:1082C00000BF00E000BF00BF07B0BDE8F08F00BFF7
:1082D000582D002000B583B00648074B1B685B088B
:1082E0000022194600F0E0FA019000BF03B05DF8EB
:1082F00004FB00BF382D0020302D002000B587B0D2
:1083000001900023059328E01C4B1A68059BDB00B5
:1083100013440493049B1B78184605F0E7FA0346C0
:108320008DF80F30049B5B78012B0CBF01230023D9
:10833000DBB21A469DF80F309A420CBF012300238E
:108340008DF80E30049B1B789DF80E2011461846C0
:10835000FFF7E4FE059B01330593094B1B781A4692
:10836000059B9342D0DB074BD3E90023134301D095
:10837000FFF7B0FF00BF07B05DF804FB282D002019
:108380002C2D0020582D002000B585B001900B4603
:108390008DF80330019BDBB21846FFF76FFE0390A8
:1083A000039B1B78184605F0A1FA03468DF80B30A5
:1083B000039B5B78012B0CBF01230023DBB21A4621
:1083C0009DF80B309A420CBF012300238DF80A3030
:1083D0009DF80A30002B06D0054BD3E90023134348
:1083E00001D1FFF777FF00BF05B05DF804FB00BFC8
:1083F000582D002000B58BB003900B4601928DF8EC
:108400000B30019B092B01D8072367E005F062F9C7
:10841000034683F00103DBB2002B09D005F0F6F828
:108420000990099B0893089B002B01D0089B55E0FD
:108430002C4A039B13602C4A9DF80B3013702B4A77
:10844000019B136020220021294810F05EF9294980
:108450004FF000024FF00003C1E9002331E09DF826
:108460000B30DB00039A1344079303238DF8143079
:1084700000238DF815309DF816306FF300038DF84A
:1084800016309DF816306FF341038DF816309DF8C5
:1084900016306FF382038DF81630079B9B788DF8AA
:1084A0001530079B1B78184605AB134A194605F093
:1084B0001DF90990099B0693069B002B01D0069B92
:1084C0000CE09DF80B305A1E8DF80B20002BC6D106
:1084D0000A4A00210A4800F0B3F9034618460BB0D7
:1084E0005DF804FB282D00202C2D0020302D0020CD
:1084F000602D0020582D002089830200FD8202009B
:1085000064A2030000B583B0114B1B68002B04D19B
:10851000104940F2351002F04BF8002301930CE0B3
:108520000B4B1A68019BDB0013441B780121184692
:1085300005F058F9019B01330193074B1B781A464C
:10854000019B9342ECD30023184603B05DF804FB73
:10855000282D0020D8A103002C2D002086B00390E8
:108560000291019201238DF817309DF81730204AAF
:10857000039B13601E4A029B53601D4A019B93603C
:10858000039B44F20102934212D0039B44F2020285
:10859000934220D1019B164AD360154BDB681B68C0
:1085A000134A9361124BDB685B68114AD36112E096
:1085B000019B0F4A13610E4B1B699B680C4A536168
:1085C0000B4B1B691B680A4A9361094B1B695B686B
:1085D000074AD36100BF72B600BF00BF9DF81730D5
:1085E000DBB2002BFAD162B600BF00BF06B0704705
:1085F000802D002000B583B002900091019244F2DA
:10860000010071466A4600F003F803B000BD00BFE8
:1086100030B58BB007900691059272B600BF07F097
:10862000DFFB00BF07F09AF90346002BFAD1079B46
:1086300044F2020293422FD0079B44F2020293427B
:1086400069D8079B44F20102934237D0079B44F25A
:10865000010293425FD8079B012B05D0079B41F293
:10866000010293420CD056E0394A3A4BD31ADB0848
:108670001B0443F001033849184607F0FDF857E0A2
:10868000334A344BD31ADB081B0443F0010333494C
:10869000184607F0F1F84BE0059B09932C4A2D4B47
:1086A000D31ADB081B0443F00100099B5B681A46E0
:1086B000099B1B682A4907F0FEF839E0059B0893DF
:1086C000234A244BD31ADB081B0443F00104089B04
:1086D0009D68089B9B68184603F08EFF034618466A
:1086E000089B5B681946089B1B68069A02920193D7
:1086F000009103462A461B49204607F006F9144A12
:10870000144BD31ADB081B0443F001031649184627
:1087100007F0B2F80CE00E4A0E4BD31ADB081B042C
:1087200043F00103069A1149184607F0B3F800BF59
:108730000F4B1B6803F00103002B00D000BE059A0D
:1087400006990798FFF70AFF00BF0BB030BD00BFC6
:108750009CA0030064A0030068A2030088A2030099
:10876000ACA20300C8A20300F0A2030004A303000C
:10877000F0ED00E02DE9F04383B0144800F0E4F997
:10878000034600221C461546114BD3E9002314EB87
:10879000020845EB0309CDE900890E4BD3E900231C
:1087A000DDE90001904271EB030307D2DDE900230C
:1087B00012F1807643F10007CDE90067DDE900237F
:1087C0001046194603B0BDE8F08300BF242C0020FA
:1087D000A02D0020A82D002008B5024800F0C1F906
:1087E00000BF08BD242C002000B585B003460091D1
:1087F0008DF80730114A02AB1946104601F063FFAD
:108800000390039B002B13D0039B9DF807201A7045
:10881000039B009A5A60094A02AB1946104601F0C0
:108820006BFF0346002B01D0FFF7D6FF002300E0CB
:108830000423184605B05DF804FB00BFB02D0020EE
:1088400000B587B003900B4601928DF80B30039B67
:10885000002B04D1134940F22E2001F0A9FE019B08
:10886000002B04D10F4940F22F2001F0A1FE019B03
:10887000002B01D1072310E0039B1B680593059B88
:10888000019A5A619DF80B30012B0CBF0123002384
:10889000DBB21A46059B1A610023184607B05DF843
:1088A00004FB00BF28A30300F0B587B0039002913A
:1088B0000192039B002B04D1164940F23E2001F0A7
:1088C00077FE039B0593059B1B7FDBB2002B01D03A
:1088D00000231CE0059B019A9A61FFF74BFF0246BB
:1088E0000B46029900200C460546161943EB050776
:1088F000059BC3E90267059B1B69002B02D0059B02
:10890000029A1A6105990020FFF76EFF0346184688
:1089100007B0F0BD28A3030000B585B00190019B0E
:10892000002B04D109494FF4157001F041FE019B61
:108930000393039B00221A7703990120FFF754FF4A
:108940000346184605B05DF804FB00BF28A30300EA
:1089500082B001900091019A009BD31A23F07F43CB
:10896000184602B07047000008B5034800F0ECF864
:108970000346184608BD00BF242C002082B0EFF348
:1089800010830093009B019372B600BF019B1846B1
:1089900002B0704762B600BF00BF704700B585B037
:1089A0000190FFF7EBFF0390164B9B68002B1BD148
:1089B000144B01229A60144BD3F88020134B1340C0
:1089C000104A1360104B114AC3F880200E4BD3F8A5
:1089D00084300C4A53600C4B4FF0FF32C3F88420B4
:1089E000019B00221A7002E0019B01221A70039B76
:1089F000002B01D1FFF7CEFF0023184605B05DF82C
:108A000004FB00BFC02D002000E100E0FC06FFBD1C
:108A100000B585B003468DF80730104B9B68002BDE
:108A200016D09DF80730002B12D1FFF7A7FF039057
:108A30000B4A0A4B1B681360094A084B5B6853607A
:108A4000064B00229A60039B002B01D1FFF7A2FF87
:108A50000023184605B05DF804FB00BFC02D0020C0
:108A600000E100E000B583B0019000F02BF8034670
:108A7000012B03D00549432001F09AFD0198FFF72F
:108A80008DFF00BF03B05DF804FB00BFB4A303007B
:108A900000B583B003468DF8073000F013F80346A5
:108AA000012B03D00649512001F082FD9DF80730CB
:108AB0001846FFF7ADFF00BF03B05DF804FB00BF31
:108AC000B4A3030084B0EFF305830193019BC3F3C8
:108AD00008030393039B002B0DD1EFF31483009342
:108AE000009B0293029B03F00103002B0CBF0123A8
:108AF0000023DBB200E00123184604B070470000F9
:108B000082B003468DF807309DF90730002B0DDB4E
:108B10009DF8073003F01F0206499DF907305B09F5
:108B2000012000FA02F2403341F8232000BF02B0D6
:108B3000704700BF00E100E082B00190019BD3F8D4
:108B40000435184602B0704700B583B00190019B10
:108B50001B681846FFF7F0FF0346184603B05DF8A0
:108B600004FB00B583B00190019B93F904301846D3
:108B7000FFF7C6FF00BF03B05DF804FB08B5044B68
:108B80001B68044A12681046984700BF08BD00BF22
:108B9000CC2D0020D02D002082B00190019B03F04D
:108BA0000303002B0CBF01230023DBB2184602B0E5
:108BB0007047000000B585B00190002303930EE0DC
:108BC0000B4A039B52F82330002B05D0084A039B25
:108BD00052F8233001989847039B01330393039B7A
:108BE000032BEDD900BF00BF05B05DF804FB00BF4B
:108BF000E42D002082B001900091019B1B78013B85
:108C0000052B61D801A252F823F000BF258C020089
:108C10002D8C0200538C0200858C0200A58C020072
:108C2000C18C0200009B00221A704EE0009B0122C2
:108C30001A70019B1A89009B9A81019B9A88009B5C
:108C4000DA81019BDA68009B9A60009B00221A740B
:108C50003BE0009B02221A70019B1A89009B9A81BB
:108C6000019B9A88009BDA81019BDA68009B9A60DD
:108C7000019B9B7D062B0CBF01230023DAB2009BD6
:108C80001A7422E0009B03221A70019BDA88009B71
:108C90009A81019B1A89009BDA81019BDA68009B0B
:108CA0009A6012E0009B04221A70019BDA88009BF4
:108CB0009A81009B0022DA81009B00229A6004E0E6
:108CC000009B05221A7000E000BF00BF02B0704791
:108CD00084B001900091019B0393039A009B9A42F8
:108CE00006D2039B1B68B3F1FF3F01D0012300E0D4
:108CF000002303F00103DBB2184604B0704782B0D2
:108D00000190019B5B8803339B00019A1344184632
:108D100002B0704700B583B0019000910198FFF751
:108D2000EEFF0246009B934201D2022311E0019B19
:108D30009B884FF6FF72934208D0019B1B88002B43
:108D400004D0019B9B68B3F1FF3F01D1012300E0F8
:108D50000023184603B05DF804FB000000B583B0A3
:108D60000190019B002B13D00D4BDB681A46019B31
:108D700093420DD30A4B1B691A46019B934207D8B5
:108D80000198FFF709FF0346002B01D0012300E003
:108D9000002303F00103DBB2184603B05DF804FBC7
:108DA000102C002082B003460A46ADF80630134668
:108DB000ADF80430BDF80620134913469B00134458
:108DC0009B000B4408331A88BDF804301344ADF8F7
:108DD0000430BDF806200C4913469B0013449B0049
:108DE0000B440A331A88BDF804301344ADF804303C
:108DF000BDF80430B3F5806F94BF01230023DBB2CC
:108E0000184602B0704700BF082E002084B00190C1
:108E1000009148F2096303930023ADF80A3027E07C
:108E2000BDF80A20164913469B0013449B000B44CF
:108E300004331B68009A9A4215D9BDF80A201049DC
:108E400013469B0013449B000B4404331B6803F53B
:108E50008053009A9A4206D200230393019BBDF8E7
:108E60000A201A8008E0BDF80A300133ADF80A3054
:108E7000BDF80A30012BD3D9039B184604B07047C4
:108E8000082E002082B001900091009B9B7D022B58
:108E900009D9019B1A89009BDB8813449BB20333D9
:108EA0009AB2019B1A81019B5A89009BDB88D31AD5
:108EB0009BB2033B9AB2019B5A8100BF02B070473C
:108EC00000B583B0074B1B681946002300930823A5
:108ED000054A064802F0D0FA0346184603B05DF88A
:108EE00004FB00BF302E0020C4A40300102C00207F
:108EF00000B585B003900399002300930823044A2A
:108F0000044802F0B9FA0346184605B05DF804FBC0
:108F1000CCA40300102C002000B585B003460091BE
:108F2000ADF8063000238DF80F30BDF8063003335E
:108F3000ADF80A30BDF80A3040F2FE32934202D951
:108F400048F208634BE00023ADF80C303BE0BDF87D
:108F50000C20254913469B0013449B000B441B78AF
:108F6000002B2BD1BDF80A20BDF80C301146184655
:108F7000FFF718FF0346002B20D001238DF80F3098
:108F8000009BBDF80C201A80BDF80C201649134632
:108F90009B0013449B000B440A331988BDF80C2036
:108FA000BDF80A300B4498B20F4913469B00134496
:108FB0009B000B440A3302461A8008E0BDF80C30CF
:108FC0000133ADF80C30BDF80C30012BBFD99DF842
:108FD0000F30002B01D0002301E048F20663184651
:108FE00005B05DF804FB00BF082E002082B00346E8
:108FF0000A46ADF806301346ADF80430BDF804203B
:109000000D4913469B0013449B000B440A331A88F6
:10901000BDF80630D31A9BB2BDF80420033B98B2CA
:10902000054913469B0013449B000B440A33024638
:109030001A8000BF02B07047082E002008B5012139
:10904000024801F0F5FC0346184608BDF42D002047
:1090500000B585B003460091ADF80630BDF8062096
:10906000244913469B0013449B000B4404331B68A4
:1090700003F580530293009B1B680393039B002B13
:1090800004D00398FFF73BFE039026E0BDF80620CE
:10909000184913469B0013449B000B4404331B6880
:1090A0000833039319E002990398FFF733FE034650
:1090B000022B10D0022B10DC002B02D0012B05D08C
:1090C0000BE0009B039A1A6001230EE00398FFF760
:1090D00016FE039001E0002307E002990398FFF7D2
:1090E000F7FD0346002BDED10023184605B05DF8DE
:1090F00004FB00BF082E002000B585B00190009150
:10910000019B5B681846FFF729FE0346002B19D028
:10911000019B1A89244B1B899A4213D1019B1A681F
:10912000019B5B689B689A420CD1019B5B68194666
:109130000098FFF76BFE0346002B0CBF01230023B2
:10914000DBB22CE0009B00221A8023E00023029374
:1091500010E0029B0393039B9A68019B1B689A4251
:1091600008D1029A019B5A600F4B1A89019B1A8100
:10917000012314E0009B1B8802AA11461846FFF742
:1091800067FF0346002BE4D1009B1B8801339AB292
:10919000009B1A80009B1B88012BD7D900231846FF
:1091A00005B05DF804FB00BF382E002000B587B085
:1091B0000390029101920093324B1B78DBB283F053
:1091C0000103DBB2002B02D048F2016355E0019BA2
:1091D000002B02D0009B002B49D148F204634CE0E5
:1091E000009B9B881946284A0B469B000B449B001A
:1091F00013441B78002B33D124E0009B1B6805939C
:10920000039B002B06D0059B9A88039B1B889A42E0
:1092100000D017E0029B002B06D0059B1A88029B0A
:109220001B889A4200D00DE0059B9A68019B1A604A
:10923000009B1A68019B5A60144B1A89019B1A8182
:1092400000231AE0009B9B88009A11461846FFF7FE
:10925000FFFE0346002BD0D1009B00221A6000E0E5
:1092600000BF009B9B8801339AB2009B9A80009BB1
:109270009B88012BB4D948F20963184607B05DF802
:1092800004FB00BFD82D0020082E0020382E00201F
:1092900000B585B00190084B0199184601F013FA0A
:1092A00003901C22002103980FF02FFA039B18460D
:1092B00005B05DF804FB00BFF82D002000B583B0B9
:1092C0000190044B0199184601F016FA00BF03B053
:1092D0005DF804FBF82D002000B583B00190054B2C
:1092E0000199184601F01CFA0346184603B05DF8D0
:1092F00004FB00BFF82D002000B583B00190044BA3
:109300000199184601F025FA00BF03B05DF804FB8F
:10931000F82D002008B50A4B1B68002B04D1094921
:109320004FF4247001F044F90121054801F098FB45
:109330000346002B14BF01230023DBB2184608BDEF
:10934000E02D002044A4030000B587B003900291F3
:10935000039B02229A750299039B1A1D0023009316
:109360000423074802F088F80590059B002B01D1E3
:10937000002301E048F20D63184607B05DF804FBD6
:10938000102C002000B587B003900291039B1B694D
:10939000002B01D0032200E00122039B9A75029B5F
:1093A00008331946039B03F10C02002300930423A6
:1093B000074802F061F80590059B002B01D10023BE
:1093C00001E048F20D63184607B05DF804FB00BFEA
:1093D000102C002000B587B003900291039B1B78EE
:1093E000032B01D1052200E00622039B9A75029B04
:1093F00004331946039B03F108020023009304235E
:10940000074802F039F80590059B002B01D1002395
:1094100001E048F20D63184607B05DF804FB00BF99
:10942000102C002000B587B003900B46ADF80A3031
:1094300003990023009304230D4A0E4802F01CF800
:109440000590059B002B02D048F20D630BE0BDF8A0
:109450000A20094913469B0013449B000B44103318
:1094600001221A700023184607B05DF804FB00BF04
:10947000D4A40300102C0020082E002000B589B0D1
:10948000019002AB00221A605A609A60019BDB686F
:1094900002930DF1160202AB11461846FFF72CFE9F
:1094A0000346002B12D0039B0693069B9A88019BD0
:1094B000DA80069B1A88019B1A81039BBDF816204F
:1094C00011461846FFF7AEFF079002E048F2096325
:1094D0000793079B184609B05DF804FB00B587B0F9
:1094E0000190019B981D02AA0D4B0021FFF75EFE23
:1094F0000590059B002B08D1039B094A92881146D1
:109500001846FFF78FFF059004E008220021044869
:109510000FF0FBF8059B184607B05DF804FB00BF91
:10952000482E002000B587B003900291039B0122D2
:109530009A75029B0C331846039B1A69039BDB88C0
:109540009B00002100910146074801F095FF05901E
:10955000059B002B01D1002301E048F20D63184662
:1095600007B05DF804FB00BF102C002082B0184B40
:109570001B8901339AB2164B1A81154B00225A806F
:10958000134B00221A730023ADF8063018E0BDF823
:109590000620104913469B0013449B000B441A7885
:1095A000BDF80630002A0CBF01220022D1B2084AC1
:1095B00013440A469A72BDF806300133ADF80630FE
:1095C000BDF80630012BE2D900BF00BF02B07047E2
:1095D000382E0020082E002084B0019000238DF842
:1095E0000F300023ADF80C3031E0BDF80C301C4AD0
:1095F00013449B7A002B25D0BDF80C30184A134435
:1096000000229A72BDF80C20164913469B001344A1
:109610009B000B440C331B68002B13D1BDF80C20AE
:10962000104913469B0013449B000B4410331B78D6
:10963000002B07D0019BBDF80C201A8001238DF868
:109640000F3008E0BDF80C300133ADF80C30BDF838
:109650000C30012BC9D99DF80F30184604B0704763
:10966000382E0020082E002008B5084B05221A705D
:10967000074B02229A80064B1B68194600230122E1
:10968000044801F0DBFF0346184608BD382E0020D1
:10969000302E0020102C002000B583B0164B5B88C4
:1096A000ADF80230BDF80220144913469B00134464
:1096B0009B000B440C331B68002B14D10E4B04226F
:1096C0001A70BDF802200D4913469B0013449B00FD
:1096D0000B4404331B68194600230122084801F09B
:1096E000ADFF019002E0FFF7BFFF0190019B18461C
:1096F00003B05DF804FB00BF382E0020082E0020C8
:10970000102C002000B587B0104B5B680593104B00
:109710001A680F4B9B889B0013440493059B5B883E
:109720000333ADF80E30094B03221A700499074B2E
:109730005A68BDF80E309B0000200090054801F0EB
:109740009BFE0346184607B05DF804FB382E002048
:10975000302E0020102C002000B583B00A4B5B880F
:109760000A491846FFF774FC0346002B03D0FFF7A5
:10977000C9FF019002E0FFF78FFF0190019B18469F
:1097800003B05DF804FB00BF382E00203C2E002003
:1097900008B50A4B06221A70084B5B881946084A1E
:1097A0000B469B000B449B00134404331B68184674
:1097B000FFF79EFB0346184608BD00BF382E002069
:1097C000082E002008B5054B07221A70034B002213
:1097D0005A60FFF775FB0346184608BD382E002077
:1097E00008B50D48FFF7F8FE034683F00103DBB22E
:1097F000002B0BD0094B00221A70084B00225A8014
:10980000064B00225A6041F61D5302E0FFF7A4FF09
:109810000346184608BD00BF3A2E0020382E00200F
:1098200082B0094B5B680193019B5B880333ADF801
:109830000230064B9A88BDF8023013449AB2034BAB
:109840009A8000BF02B07047382E0020302E0020D2
:1098500082B01E4B1B6801931D4B5B8819461D4A45
:109860000B469B000B449B00134404331B68174AB0
:109870001360174B5B881946164A0B469B000B4436
:109880009B0013440433019A1A60114B5B881946FC
:109890000E4B98880F4A0B469B000B449B001344C9
:1098A000083302461A80094B02229A80084B5B88D3
:1098B0001946084A0B469B000B449B001344103387
:1098C00000221A7000BF02B0704700BF302E002087
:1098D000382E0020082E002008B51A4B1B78072BC5
:1098E0002CD801A252F823F0099902003D990200F8
:1098F0003D99020015990200219902002D9902005C
:109900002D99020035990200FFF730FE0D4B012220
:109910001A7014E0FFF784FF0A4B02221A700EE05F
:10992000FFF796FF074B06221A7008E0054B072247
:109930001A7004E0034B01221A7000E000BF00BF60
:1099400008BD00BF382E002000B587B001900091FF
:1099500048F20E630593019B002B05D0634B002258
:109960005A604FF40643BCE0009B1B79032B00F2C6
:10997000AB8001A252F823F0899902009799020066
:10998000259A0200459A0200009B01221A71FFF7F6
:1099900097FA05909BE000238DF813300023ADF873
:1099A00010302BE0BDF81020514913469B001344A2
:1099B0009B000B441B78022B1BD1BDF810204C4997
:1099C00013469B0013449B000B4400221A70012392
:1099D0008DF81330BDF81020454913469B00134401
:1099E0009B000B4404331B681846FFF781FA05906F
:1099F00008E0BDF810300133ADF81030BDF810307C
:109A0000012BCFD99DF8133083F00103DBB2002B7B
:109A10005CD0364B01221A70344B00225A6041F65A
:109A20001D535EE0009B00221A71324B02229A8085
:109A3000304B1B681946002301222F4801F0FEFD20
:109A4000059044E0009B00221A712A4B1B681846BF
:109A5000FFF74EFA0590294B5B88ADF80E30254B89
:109A60001B680293BDF80E20214913469B00134446
:109A70009B000B4404331B681E4A1360BDF80E2084
:109A80001B4913469B0013449B000B440433029A6A
:109A90001A60BDF80E20174B9888154913469B0095
:109AA00013449B000B44083302461A80114B0222D8
:109AB0009A80BDF80E200E4913469B0013449B006C
:109AC0000B4400221A7002E000BF00E000BF059BBB
:109AD000002B05D0054B00225A6048F20D6300E0D0
:109AE0000023184607B05DF804FB00BFD82D002006
:109AF000082E0020302E0020102C0020382E0020B0
:109B000000B587B001900091009B9B8A1A461346CE
:109B10009B0013449B003B4A13440493019B002B7E
:109B200006D000990498FFF7ADF94FF4064364E0BE
:109B3000049B5A68049B1B899B0013440393009B5E
:109B40009B7D062B4DD801A252F823F0919B020079
:109B5000B59B02009D9B0200A99B0200699B02002D
:109B6000C19B0200DB9B0200274B00225A60009B36
:109B70009B69254A136025492348FFF7BDFA034630
:109B800083F00103DBB2002B02D048F2096334E01A
:109B900003990098FFF7D8FB059026E003990098F9
:109BA000FFF7F0FB059020E003990098FFF7BAFC5F
:109BB00005901AE003990098FFF70CFC059014E05B
:109BC000009B06229A75104B5B68104A128811465A
:109BD0001846FFF727FC059007E041F61D53059353
:109BE00003E048F20E63059300BF059B002B03D0F2
:109BF00000990498FFF746F9059B184607B05DF8F1
:109C000004FB00BF082E0020502E00205C2E0020F8
:109C100000B585B001900091019B002B02D04FF45C
:109C2000064329E0009B1B79022B1BD0022B1DDC75
:109C3000002B02D0012B08D018E0009B02221A71E1
:109C40000098FFF71BFC039015E00098FFF746FC17
:109C50000390039B48F2096293420BD141F61D53D6
:109C6000039307E041F61D53039304E048F20E63AB
:109C7000039300E000BF039B184605B05DF804FBAA
:109C800000B585B00190019B002B02D04FF4064334
:109C90003DE0214B1B7B002B03D01F4B00221A738E
:109CA00001E0FFF719FE1C4B1B78013B062B29D85E
:109CB00001A252F823F000BFD59C0200DD9C0200F7
:109CC000E59C0200ED9C0200059D0200F59C02004F
:109CD000FD9C0200FFF784FD039017E0FFF73CFDB9
:109CE000039013E0FFF70EFD03900FE0FFF7D4FCA5
:109CF00003900BE0FFF74CFD039007E0FFF762FDD8
:109D0000039003E048F20E63039300BF039B1846E1
:109D100005B05DF804FB00BF382E002000B589B007
:109D20000190404B1B68002B05D13F48FFF7D4FA48
:109D300003463C4A13603B4B1B68002B04D13B4954
:109D400040F29E5000F034FC364B1B681B78013B00
:109D5000052B2CD801A252F823F000BF759D0200FC
:109D6000859D0200859D0200959D0200959D020043
:109D7000A59D02002B4B1B6819460198FFF7E4FDD7
:109D8000019018E0274B1B6819460198FFF7B8FEB1
:109D9000019010E0234B1B6819460198FFF738FF2C
:109DA000019008E00198FFF76BFF019003E048F293
:109DB0000E63019300BF019B002B2BD003AB00224D
:109DC0001A605A609A60DA601A61019B41F61D526E
:109DD000934201D0019B00E000230493114B1B68C8
:109DE00003AA11461846FEF705FF03AB1846FEF717
:109DF000E1FE0C4B00221A60002301930A48FFF792
:109E00007BFAFFF787FA034683F00103DBB2002BEE
:109E100002D186E700BF00E000BF00BF09B05DF8D7
:109E200004FB00BF602E0020642E002044A4030029
:109E300008B50121054800F0E3FD0346002B02D1DF
:109E40000020FFF76BFF00BF08BD00BFE02D002022
:109E500000B583B00190019B5B681846FFF75EFF79
:109E600000BF03B05DF804FB00B58BB00390029116
:109E700001928DF803300023ADF824300023ADF8B3
:109E80002630534B1B78DBB283F00103DBB2002B8F
:109E900002D048F2016397E0029B002B02D148F206
:109EA000046391E0029B1B884FF6FF72934203D03C
:109EB000029B5B88002B02D148F2036384E0029B83
:109EC0005B681846FEF768FE034683F00103DBB2C9
:109ED000002B02D048F2026376E0019B002B11D1E7
:109EE000029B9B68ADF826300DF11A02BDF82630B2
:109EF00011461846FFF710F80890089B002B09D070
:109F0000089B61E0019B1B88ADF81A30019B5B88C0
:109F1000ADF8263005AB1846FFF7BAF90790079B56
:109F2000002B0AD1BDF81A20BDF82630114618467C
:109F3000FFF75CF848F2076346E0079B9DF80320B3
:109F40001A70079B00229A75BDF81A20079B9A8207
:109F5000029B5A68079B1A61FFF770F80246079B3D
:109F6000DA60029B1A88079B1A81029B5A88079B1A
:109F70009A80079BBDF82620DA809DF80330032BDA
:109F800006D1079B04229A75039B1A68079B9A6166
:109F9000079BBDF824205A8105AB1846FFF78EF9C0
:109FA000039B002B0DD0039B00225A60079BDA68AD
:109FB000039B1A60039B00229A72064B1A89039B2B
:109FC0001A81FFF735FF002318460BB05DF804FB3C
:109FD000D82D0020382E002000B585B001900091CA
:109FE000019B002B02D0009B002B02D148F204639E
:109FF0002AE00DF10A0319460198FFF77DF80346A0
:10A00000002B1FD0019B5B680393BDF80A301A46F2
:10A0100013469B0013449B0008330D4A134404333A
:10A020000121184600F004FD009B039A1A60019B71
:10A030005B6803F10C02009B5A60019B01229A723B
:10A04000002301E048F20963184605B05DF804FBFF
:10A05000082E002000B585B00190019B002B02D195
:10A0600048F204633BE00DF10A0319460198FFF73B
:10A0700043F80346002B2ED0BDF80A3019461A4A81
:10A080000B469B000B449B0013440C331B68002BB6
:10A090001DD0019B9B7A002B19D0BDF80A301A46BF
:10A0A000114913469B0013449B000B440C331B685F
:10A0B000591E0D4813469B0013449B0003440C3368
:10A0C0001960019B00229A720023039306E048F274
:10A0D0000563039302E048F209630393039B184668
:10A0E00005B05DF804FB00BF082E002000B583B06A
:10A0F000019000910223002200990198FFF7B4FE1D
:10A100000346184603B05DF804FB00B583B0019028
:10A110000091019B002B02D148F2046306E0032367
:10A12000002200990198FFF79FFE0346184603B0EE
:10A130005DF804FB00B585B00346ADF806301A4B58
:10A140001B78DBB283F00103DBB2002B02D048F2B4
:10A15000016324E0BDF806304FF6FF72934202D14E
:10A1600048F203631BE002AB1846FFF791F8039037
:10A17000039B002B02D148F2076310E0039B0522EA
:10A180001A70039B01221A71039BBDF80620DA8026
:10A1900002AB1846FFF792F8FFF74AFE0023184675
:10A1A00005B05DF804FB00BFD82D002000B585B0D8
:10A1B000029201930346ADF80E300B46ADF80C3019
:10A1C00003A90DF10E00019B029AFEF7EFFF034673
:10A1D000184605B05DF804FB00B585B00346029152
:10A1E0000192ADF80E300DF10E01019B029A002094
:10A1F000FEF7DCFF0346184605B05DF804FB00B52A
:10A2000085B0034602910192ADF80E300DF10E00BB
:10A21000019B029A0021FEF7C9FF0346184605B0CC
:10A220005DF804FB82B001900091019B002B02D0ED
:10A23000009B002B02D148F2046304E0019B1A68E2
:10A24000009B1A600023184602B0704786B0039046
:10A2500002910192039B5B090593059B5B01039AA5
:10A26000D31A0493029B059A1A60019B049A1A6000
:10A2700000BF06B07047000084B001900091002339
:10A2800003931FE0019B002B10D0124A039B52F84E
:10A290002330019A9A4209D80F4A039B52F823208F
:10A2A0000E49039B51F823309A4206D10A4A039B78
:10A2B00052F82330009A9A4201D2039B06E0039B96
:10A2C00001330393039B062BDCD90023184604B00B
:10A2D000704700BF60A5030098A503007CA503009C
:10A2E00000B585B0019002AA03AB19460198FFF7AB
:10A2F000ADFF039B074A52F82310029B01229A40AC
:10A30000039B0A43034941F8232000BF05B05DF8D1
:10A3100004FB00BF6830002000B585B001900199B2
:10A320000020FFF7A9FF0390034A039B52F8233054
:10A33000184605B05DF804FB60A5030000B585B0C4
:10A34000019002AA03AB19460198FFF77FFF039B18
:10A35000084A52F82320029B22FA03F303F0010378
:10A36000002B14BF01230023DBB2184605B05DF8B3
:10A3700004FB00BF6830002000B585B0019002AA40
:10A3800003AB19460198FFF761FF039B084A52F897
:10A390002310029B012202FA03F3DA43039B0A40D3
:10A3A000034941F8232000BF05B05DF804FB00BF5E
:10A3B0006830002000B583B000230193002301938F
:10A3C00005E00198FFF78CFF019B01330193019B8E
:10A3D0000F2BF6D9034B01221A700023184603B045
:10A3E0005DF804FB6C30002000B58BB00390029147
:10A3F000384B1B7883F00103DBB2002B02D048F20C
:10A40000081362E0039B002B02D148F20E135CE0BC
:10A41000029B002B02D148F20E1356E0029B1B68F0
:10A420000593059B002B02D0059B202B02D948F2F7
:10A4300007134AE010210598FFF71EFF0490264AF3
:10A44000049B52F823300993244A049B52F823308A
:10A45000079348F2041308931EE00998FFF75CFF86
:10A4600006900998FFF76AFF0346002B0DD00023E2
:10A4700008930998FFF780FF079B194A1A44039B2A
:10A480001A60029B069A1A6009E0079A069B134419
:10A490000793099B01330993099B0F2BDDD9089B77
:10A4A000002B11D00F4A104BD31ADB081B0443F0CA
:10A4B0000100039B1B681A46029B1B68009313460E
:10A4C000089A0A4905F00BFA089B18460BB05DF88C
:10A4D00004FB00BF6C3000207CA50300B4A5030082
:10A4E000682E0020BCA0030064A00300E4A40300C5
:10A4F00000B587B0019000230493019B039303AA46
:10A5000004AB11461846FFF76FFF0590059B002B23
:10A510000DD0094A094BD31ADB081B0443F0010391
:10A52000019A0749184605F0B5F900230493049BE6
:10A53000184607B05DF804FBBCA0030064A003004C
:10A5400020A5030000B585B00190174B1B7883F060
:10A550000103DBB2002B20D1019B002B1FD0002375
:10A5600003930023029314E0039B104A1344019ABF
:10A570009A4204D10298FFF7B3FE00BF10E00298A0
:10A58000FFF7CAFE0246039B13440393029B013369
:10A590000293029B0F2BE7D902E000BF00E000BF4F
:10A5A00005B05DF804FB00BF6C300020682E002071
:10A5B00000B585B003460091ADF80630BDF8063011
:10A5C0000293009B039302AB1A46002144F202005F
:10A5D000FEF71EF800BF05B05DF804FB86B00190E1
:10A5E0000091019B53E8011F8AB2D88902449889DF
:10A5F000824228BF121A1889824202BFBFF32F8FEE
:10A60000002307E0C2EA010243E801200028E9D163
:10A610004FF001038DF80F30059002910492029AD9
:10A62000009B1A609DF80F30DBB2184606B07047E9
:10A6300084B00190019951E8013FC3EA034341E826
:10A640000132002AF7D10392029300BF04B0704791
:10A6500086B001900091019B53E8021F1FFAA1F2FE
:10A66000D888824202BFBFF32F8F00230DE0D88924
:10A6700002449889824228BF121AC1EA024243E882
:10A6800002200028E8D14FF001038DF80F3005902B
:10A6900002910492029A009B1A609DF80F30DBB27F
:10A6A000184606B0704784B00190019951E8023F06
:10A6B000C3EA234341E80232002AF7D1039202930E
:10A6C00000BF04B0704700B585B001900091009BB9
:10A6D00019460198FFF782FF0346002B07D0019B24
:10A6E0001B68009A128813440393039B00E0002325
:10A6F000184605B05DF804FB00B583B001900091E9
:10A70000009B1A88009B5B889A4204D10198FFF74E
:10A710008FFF012300E00023184603B05DF804FB1F
:10A7200000B585B001900091009B19460198FFF794
:10A730008FFF0346002B07D0019B1B68009A5288AD
:10A7400013440393039B00E00023184605B05DF813
:10A7500004FB00B583B001900091009B1A88009B18
:10A760005B889A4204D10198FFF79DFF012300E026
:10A770000023184603B05DF804FB00B585B00190D6
:10A780000091009B5B099B00019A1A44009B03F017
:10A790001F03012101FA03F31946104600F0E8F8FF
:10A7A000039000BF05B05DF804FB00B583B00190D5
:10A7B0000091009B5B099B00019A1A44009B03F0E7
:10A7C0001F03012101FA03F31946104600F0B8F8FF
:10A7D0000246009B03F01F0322FA03F303F0010378
:10A7E000002B14BF01230023DBB2184603B05DF831
:10A7F00004FB00B585B001900091009B5B099B00B4
:10A80000019A1A44009B03F01F03012101FA03F38C
:10A81000DB431946104600F0DBF8039000BF05B09B
:10A820005DF804FB82B001900091009B5B099B00E6
:10A83000019A13441A68009B03F01F0322FA03F3E2
:10A8400003F00103002B14BF01230023DBB21846E1
:10A8500002B0704700B58DB00190009100230B93BA
:10A860004BE00B9B9B00019A13441B68DB4307934F
:10A87000079B93FAA3F30693069B0893089B002B70
:10A8800001D1202303E0089BB3FA83F3DBB20A93E0
:10A890002BE00B9B5B010A9A13440993099A009BD6
:10A8A0009A4226D209990198FFF77FFF034683F069
:10A8B0000103DBB2002B01D0099B26E00B9B9B0020
:10A8C000019A13441B68DB430493049B93FAA3F39C
:10A8D0000393039B0593059B002B01D1202303E0E9
:10A8E000059BB3FA83F3DBB20A930A9B1F2BD0D9E3
:10A8F00000E000BF0B9B01330B93009B013B5B0906
:10A9000001330B9A9A42ACD3009B18460DB05DF808
:10A9100004FB10B487B001900091019B009A53E8AA
:10A92000004F104643E8000191F0000FF7D1059465
:10A9300004900391059B184607B05DF8044B7047DF
:10A9400010B487B001900091019B009A53E8004F2A
:10A9500044EA020043E8000191F0000FF6D10594AB
:10A9600004900391059B184607B05DF8044B7047AF
:10A9700010B487B001900091019B009A53E8004FFA
:10A9800044EA020043E8000191F0000FF6D105947B
:10A9900004900391049B184607B05DF8044B704780
:10A9A00010B487B001900091019B009A53E8004FCA
:10A9B00004EA020043E8000191F0000FF6D105948B
:10A9C00004900391059B184607B05DF8044B70474F
:10A9D00010B487B001900091019B009A53E8004F9A
:10A9E00004EA020043E8000191F0000FF6D105945B
:10A9F00004900391049B184607B05DF8044B704720
:10AA000010B487B001900091019B009A53E8004F69
:10AA100004EB020043E8000191F0000FF6D1059429
:10AA200004900391059B184607B05DF8044B7047EE
:10AA300010B487B001900091019B009A53E8004F39
:10AA400004EB020043E8000191F0000FF6D10594F9
:10AA500004900391049B184607B05DF8044B7047BF
:10AA600010B487B001900091019B009A53E8004F09
:10AA7000A4EB020043E8000191F0000FF6D1059429
:10AA800004900391049B184607B05DF8044B70478F
:10AA900000B583B0019001210198FFF769FF0346DB
:10AAA000184603B05DF804FB00B583B001900021A7
:10AAB0000198FFF775FF0346184603B05DF804FBE5
:10AAC00000B583B001900B468DF80330019B002B3D
:10AAD00003D10849E820FFF76BFD019BDA689DF878
:10AAE00003300199098A01FB03F31344184603B0AC
:10AAF0005DF804FBD0A5030000B583B00190009180
:10AB0000019B002B03D10849F520FFF751FD009B65
:10AB1000019AD2689B1A019A128AB3FBF2F3DBB254
:10AB2000184603B05DF804FBD0A5030000B585B05E
:10AB30000190019B002B01D10E234CE0019B1B686F
:10AB4000002B03D12649FF20FFF732FD019B5B68F4
:10AB5000002B04D122494FF48070FFF729FD019B9F
:10AB60009B68002B04D11E4940F20110FFF720FD25
:10AB7000019BDB68002B04D119494FF48170FFF76A
:10AB800017FD019B1B8A002B04D1154940F20310CD
:10AB9000FFF70EFD019B9A68019B5B68D31A8DF845
:10ABA0000F30019B1B68019A52681A6007E0019BF5
:10ABB0001A681368591C11609DF80F201A709DF8CF
:10ABC0000F305A1E8DF80F20002BF0D1019B1B680F
:10ABD00000221A710023184605B05DF804FB00BF7F
:10ABE000D0A5030000B585B00190019B002B04D1D6
:10ABF0001F494FF49270FFF7DBFC002303930023FF
:10AC00008DF80A300DF10A031846FDF72BFF019B62
:10AC10001B681A68019B5B689A421FD9019B1B68DD
:10AC20001A68013A1A601B681B7819460198FFF7E9
:10AC300047FF0390019B9A68019B1B681B68D31A0E
:10AC40008DF80B30019B1B681B799DF80B209A42F5
:10AC500004D9019B1B689DF80B201A719DF80A30DE
:10AC60001846FDF715FF039B184605B05DF804FB79
:10AC7000D0A5030010B584B001900091019B002B7A
:10AC800004D1154940F24710FFF792FC009B002BBE
:10AC900004D111494FF4A470FFF78AFC009B039381
:10ACA00000238DF80B300DF10B031846FDF7DAFE8B
:10ACB000019B1B681C68621C1A6003990198FFF7CE
:10ACC0001BFF034623709DF80B301846FDF7E0FE8E
:10ACD00000BF04B010BD00BFD0A5030000B583B015
:10ACE0000190019B002B03D10C493120FFF760FC40
:10ACF000019B9B68002B0CD0019B5B69019A10693A
:10AD0000019A1168019A92689847019B00229A6003
:10AD100000E000BF03B05DF804FB00BF5CA60300C9
:10AD20000EB400B584B00190019B002B03D11849EB
:10AD30004220FFF73DFC019B5B69002B03D11449C6
:10AD40004320FFF735FC019B1B68002B03D1104902
:10AD50004420FFF72DFC019B5B68002B03D10C49BD
:10AD60004520FFF725FC059B002B0AD00023039309
:10AD700006AB039303AB1A460599019800F0B8F9A6
:10AD800000E000BF04B05DF804EB03B0704700BF03
:10AD90005CA6030000B583B001900B468DF803302C
:10ADA0009DF803300A2B03D10D210198FFF7F2FF24
:10ADB000019B1A68019B9B68581C01998860134489
:10ADC0009DF803201A70019B9A68019B5B689A4268
:10ADD00002D30198FFF782FF00BF03B05DF804FBC8
:10ADE00000B587B003900291019200930023059370
:10ADF000009B03F00103002B24D00BE0029B0133E6
:10AE00000293059B013305939DF81330194603986F
:10AE1000FFF7C0FF029B1B788DF813309DF81330AD
:10AE2000002BEBD106E0019B013B0193202103980D
:10AE3000FFF7B0FF019A059B9A422ED9019B002B88
:10AE4000F1D12AE0029B002B0BD002980DF090FC70
:10AE5000059006E0019B013B019320210398FFF739
:10AE600099FF019A059B9A420FD9019B002BF1D1C2
:10AE70000BE0029B01330293059B013305939DF880
:10AE8000133019460398FFF785FF029B1B788DF856
:10AE900013309DF81330002BEBD100BF07B05DF8E5
:10AEA00004FB000000B589B0039002910192009369
:10AEB000029B07930123069307E0079A019BB2FBCD
:10AEC000F3F30793069B01330693079A019B9A427B
:10AED000F3D2009A069B9A4201D9009B06930B9BE2
:10AEE00003F00103002B22D10A9B002B1FD00B9BE8
:10AEF00003F00203002B06D0009B002B03D130236C
:10AF00008DF8173002E020238DF8173008E00A9BF7
:10AF1000013B0A939DF8173019460398FFF73AFF53
:10AF20000A9B002B03D0069A0A9B9A42EFD3012377
:10AF30000793009B012B03D9009B013B009309E081
:10AF4000029A079BB2FBF3F30493049A019B9A4283
:10AF500000D205E0079B019A02FB03F30793E8E7A1
:10AF6000029A079BB2FBF3F30493049B079A02FB3C
:10AF700003F3029AD31A0293154A049B13441B78D5
:10AF800019460398FFF706FF079A019BB2FBF3F3FC
:10AF90000793079B002BE3D10B9B03F00103002BCE
:10AFA00011D00A9B002B0ED006E00A9B013B0A93AE
:10AFB00020210398FFF7EEFE0A9B002B03D0069A90
:10AFC0000A9B9A42F1D300BF09B05DF804FB00BFB1
:10AFD00064A7030000B589B0059004910392029321
:10AFE000049B002BB8BF5B4206930123079307E045
:10AFF000039B069A92FBF3F30693079B0133079397
:10B00000039B069A9A42F3DA029A079B9A4201D965
:10B01000029B07930A9B002B0AD0049B002B04DBA6
:10B020000B9B03F00403002B02D00A9B013B0A9305
:10B030000B9B03F00203002B02D0029B002B16D0C7
:10B040000B9B03F00103002B11D10A9B002B0ED0A8
:10B0500006E00A9B013B0A9320210598FFF79AFE20
:10B060000A9B002B03D0079A0A9B9A42F1D3049BB8
:10B07000002B07DA049B5B4204932D210598FFF710
:10B0800089FE08E00B9B03F00403002B03D02B2167
:10B090000598FFF77FFE0B9B03F00203002B19D0EE
:10B0A0000B9B03F00103002B14D1029B002B11D149
:10B0B0000A9B002B0ED006E00A9B013B0A9330212D
:10B0C0000598FFF767FE0A9B002B03D0079A0A9B9F
:10B0D0009A42F1D304990B9B01930A9B0093029B24
:10B0E000039A0598FFF7DEFE00BF09B05DF804FB88
:10B0F00000B58FB0059004910392059B002B04D1FD
:10B10000AD4940F25220FFF753FA059B5B69002BD3
:10B1100004D1A9494FF41570FFF74AFA059B1B6843
:10B12000002B04D1A44940F25520FFF741FA059BBA
:10B130005B68002B04D1A04940F25620FFF738FA93
:10B14000049B002B00F09381049B1B788DF8373013
:10B15000049B013304939DF83730002B00F07E816F
:10B160009DF83730252B40F06D8100230A93012391
:10B170000C93049B1B788DF837309DF83730302BBB
:10B180000DD0302B1BDC2B2B11D02D2B17D10A9B74
:10B1900043F001030A93049B0133049312E00A9BDA
:10B1A00043F002030A93049B013304930AE00A9BD1
:10B1B00043F004030A93049B0133049302E0002349
:10B1C0000C9300BF0C9B002BD3D1002309939DF857
:10B1D00037302A2B0CD1039B1B68191D039A116071
:10B1E0001B68099A13440993049B013304931AE0E2
:10B1F000049B1B788DF837309DF837302F2B12D9F0
:10B200009DF83730392B0ED8049B01330493099AEB
:10B2100013469B0013445B001A469DF837301344D5
:10B22000303B0993D3E700230B93049B1B788DF8E5
:10B2300037309DF837302E2B1DD1049B01330493FA
:10B24000049B1B788DF837309DF837302F2B12D99F
:10B250009DF83730392B0ED8049B013304930B9A99
:10B2600013469B0013445B001A469DF83730134485
:10B27000303B0B93E4E7049B1B788DF837309DF847
:10B2800037306C2B03D09DF83730682B07D1049BE7
:10B2900001330493049B1B788DF83730EFE79DF85A
:10B2A0003730252B00F0C480252BC0F2C680782BC8
:10B2B00000F3C380582BC0F2C080583B202B00F213
:10B2C000BC8001A252F823F0BDB302003BB40200DF
:10B2D0003BB402003BB402003BB402003BB40200AA
:10B2E0003BB402003BB402003BB402003BB402009A
:10B2F0003BB402004DB302006FB302003BB4020046
:10B300003BB402003BB402003BB402006FB3020046
:10B310003BB402003BB402003BB402003BB4020069
:10B320003BB402003BB40200FDB302003BB4020098
:10B330003BB40200E1B302003BB4020093B302004D
:10B340003BB402003BB40200BDB30200039B1B6888
:10B35000191D039A11601B680C930C9B8DF81F300C
:10B360009DF81F3019460598FFF714FD66E0039B12
:10B370001B68191D039A11601B680C930A9B0193AB
:10B38000099B00930B9B0A220C990598FFF722FE5C
:10B3900054E0039B1B68191D039A11601B680C93F2
:10B3A0000C990A9B0193099B00930B9B0A22059819
:10B3B000FFF778FD42E000BFDCA60300039B1B689B
:10B3C000191D039A11601B680C930C990A9B019339
:10B3D000099B00930B9B10220598FFF763FD2DE05E
:10B3E000039B1B68191D039A11601B6808930A9B35
:10B3F000099A08990598FFF7F3FC1FE0039B1B6867
:10B40000191D039A11601B680C9330210598FFF7F2
:10B41000C1FC78210598FFF7BDFC0C99002301932E
:10B4200008230093082310220598FFF73BFD05E051
:10B4300025210598FFF7AEFC00E000BF049B013317
:10B44000049305E09DF8373019460598FFF7A2FCF4
:10B45000049B1B78002B7FF477AE00E000BF059BB8
:10B460001B7B002B04D00598FFF738FC00E000BFE1
:10B470000FB05DF804FB00BF10B586B005900491D5
:10B4800003920293059B002B10D1604A604BD31AA4
:10B49000DB081B0443F001005E4A5F490E23009362
:10B4A0000B465E4904F01BFA0E23ABE0039B002B16
:10B4B00010D1564A564BD31ADB081B0443F0010047
:10B4C000574A55490E2300930B46544904F007FA96
:10B4D0000E2397E0059B1B68002B10D14B4A4C4B69
:10B4E000D31ADB081B0443F001004E4A4A490823E3
:10B4F00000930B46494904F0F2F9082382E0029BCD
:10B50000002B10D1414A424BD31ADB081B0443F0F5
:10B510000100454A4049092300930B463F4904F086
:10B52000DEF909236EE0059B5B685A68029BB3FB5A
:10B53000F2F101FB02F29B1A002B10D0334A344B7C
:10B54000D31ADB081B0443F00100384A32490923AF
:10B5500000930B46314904F0C2F9092352E00498E4
:10B5600000F01EF90346002B10D1284A284BD31AAD
:10B57000DB081B0443F001002D4A274910230093E8
:10B580000B46264904F0ABF910233BE0039B184619
:10B5900000F006F90346002B10D11C4A1C4BD31AAD
:10B5A000DB081B0443F00100224A1B4910230093CF
:10B5B0000B461A4904F093F9102323E0029A0499E8
:10B5C000059800F0D3F80346002B10D10F4A104B1A
:10B5D000D31ADB081B0443F00100174A0E4910235D
:10B5E00000930B460D4904F07AF910230AE0059BFD
:10B5F0001B68DC68089B0093029B039A04990598DA
:10B60000A0470346184606B010BD00BFD4A00300F3
:10B6100064A0030084A7030028A903008CA70300EB
:10B6200018A80300C0A70300D4A7030020A80300A4
:10B630004CA8030064A8030088A8030010B586B0D6
:10B640000590049103920293059B002B10D13E4A72
:10B650003E4BD31ADB081B0443F001003C4A3D4932
:10B660000E2300930B463C4904F039F90E2368E0A1
:10B67000059B1B68002B10D1334A344BD31ADB08CF
:10B680001B0443F00100354A3249082300930B465E
:10B69000314904F024F9082353E0039B002B10D117
:10B6A000294A2A4BD31ADB081B0443F001002C4A19
:10B6B0002849092300930B46274904F010F9092370
:10B6C0003FE00499059800F078F80346002B10D16C
:10B6D0001D4A1E4BD31ADB081B0443F00100214A0C
:10B6E0001C49102300930B461B4904F0F8F8102363
:10B6F00027E0059B5B681B68039A02FB03F31A466D
:10B700000499059800F032F80346002B10D10E4A38
:10B710000E4BD31ADB081B0443F00100124A0D49FB
:10B72000102300930B460C4904F0D9F8102308E0CD
:10B73000059B1B681C69029B039A04990598A04706
:10B740000346184606B010BDD4A0030064A0030051
:10B7500084A703003CA903008CA70300C0A7030033
:10B76000D4A70300B0A80300D8A8030084B00390B6
:10B7700002910192039BDB68029A9A4209D3029AD2
:10B78000019B13445A1E039B1B699A4201D8012353
:10B7900000E0002303F00103DBB2184604B0704759
:10B7A00082B00190019B03F00303002B0CBF012327
:10B7B0000023DBB2184602B0704782B001900091BE
:10B7C000019B5B681B685A1E009B1340002B0CBF3B
:10B7D00001230023DBB2184602B0704729DF70470F
:10B7E00000BF184628DF704700BF184600B589B073
:10B7F00001900091019B1B689B68002B35D002AB28
:10B8000000221A605A609A60DA601A615A61009BDD
:10B810000393019B9B680793019B1B79002B02D02C
:10B82000012B0DD01AE001238DF80830019B1B6914
:10B830000493019BDB680593019B5B6906930DE014
:10B8400002238DF80830019BDB684FF4805202FB25
:10B8500003F30493019B5B69069300BF019B1B6884
:10B860009B6802AA1046984700E000BF09B05DF847
:10B8700004FB00B587B00190019B5A69019B9B694D
:10B88000D31AB3F5805F28BF4FF480530593042289
:10B89000059BB3FBF2F3012B38BF01230593019BFA
:10B8A0001A69019B9B6913440493019BDB681A4648
:10B8B000019B9B6913440393059A03990498FFF72E
:10B8C0008DFF0346184607B05DF804FB00B583B052
:10B8D0000190019BDA68019B1B6913441846FFF72E
:10B8E00081FF0346184603B05DF804FB08B5034B1F
:10B8F00003491846FEF72DFF00BF08BD7030002039
:10B900009830002008B5084B08491846FEF708FF94
:10B910000346074A1360064B1B68002B14BF012324
:10B920000023DBB2184608BD70300020983000209C
:10B930009430002000B583B02A4B1B7A002B0BD12A
:10B94000FFF7E0FF034683F00103DBB2002B03D0D7
:10B95000244B00225A6042E0224B02221A72224BF0
:10B960001B681B79002B02D0012B07D00DE01E4B6A
:10B970001B681846FFF77DFF019009E01A4B1B6812
:10B980001846FFF7A3FF019002E00323019300BFD5
:10B99000019B002B03D0019B112B0CD00FE0114B0E
:10B9A0001B7C83F00103DBB2002B17D000210220A7
:10B9B00000F06EF812E00B4B01221A720FE00A4BF6
:10B9C0001B6803211846FFF711FF064B00221A726D
:10B9D000044B00225A60FFF789FF00E000BF03B06C
:10B9E0005DF804FB803000209430002084B001908A
:10B9F0001B4B0022DA60019B1B79002B02D0012B2C
:10BA000019D028E0019B5A69019B9B69D31AB3F5B1
:10BA1000805F28BF4FF480530393019B9A69039B77
:10BA20001A44019B9A61019B9A69019B5B699A4246
:10BA30000ED1012310E0019B1B695A1C019B1A6166
:10BA4000019B1A69019B5B699A4203D1012303E0C0
:10BA500000BF00E000BF0023184604B0704700BFDD
:10BA60008030002082B00190084BDB680133074A28
:10BA7000D360064BDB68082B04D9044B0022DA6044
:10BA8000012300E00023184602B0704780300020F8
:10BA900000B585B001900091019B022B02D0019B63
:10BAA000032B48D1274B1B7A022B05D0022B35DC08
:10BAB000002B42D0012B31E000238DF80F30019B89
:10BAC000022B03D0019B032B09D011E01E4B1B68F6
:10BAD0001846FFF78BFF03468DF80F3008E01A4B2E
:10BAE0001B681846FFF7BEFF03468DF80F3000BFF6
:10BAF0009DF80F30002B10D0124B00221A72124BFF
:10BB00001A68019B022B01D1002300E00D23194686
:10BB10001046FFF76BFEFFF7E9FE00BF094B5B7CA9
:10BB200083F00103DBB2002B02D0FFF703FF05E037
:10BB30000CF0BCFB02E000BF00E000BF05B05DF808
:10BB400004FB00BF803000209430002082B0034608
:10BB500000918DF80730064B01225A74044B1B7A72
:10BB6000002B0CBF01230023DBB2184602B0704744
:10BB70008030002000B583B0034600918DF8073077
:10BB80009DF80730012B03D09DF80730032B0DD112
:10BB9000084B00225A749DF80730012B0CBF01237B
:10BBA0000023DAB2034B1A74FFF7C4FE00BF03B0E0
:10BBB0005DF804FB8030002000B583B0019001984F
:10BBC000FEF7B4FF0346184603B05DF804FB00B56A
:10BBD0008BB001900091019B1B8A043B0793009A54
:10BBE000079B1344DA1C079BB2FBF3F38DF81B3061
:10BBF0000198FEF7F7FF0590059B002B01D100236C
:10BC000038E0059B00221A71059B01225A71079B9F
:10BC10009AB2059BDA80059B09939DF81B30013B86
:10BC20000493099B019A1A60002308931DE0019870
:10BC3000FEF7D8FF0390039B002B0ED0059B5B798A
:10BC40000133DAB2059B5A71099B039A1A60039B70
:10BC5000019A1A60039B099304E0059800F00EF81E
:10BC6000002307E0089B01330893089A049B9A423B
:10BC7000DDD3059B18460BB05DF804FB00B58BB017
:10BC80000190019B0793079B5B798DF81B30019B0B
:10BC900008939DF81B30013B05930023099305E0B1
:10BCA000089B1B680893099B01330993099A059B1C
:10BCB0009A42F5D3089B1B680493019B08930023C9
:10BCC00009930BE0089B1B68039308990498FEF7FF
:10BCD000D1FF039B0893099B013309939DF81B3007
:10BCE000099A9A42EED300BF00BF0BB05DF804FB87
:10BCF00000B585B00190019B0393039B04330121A0
:10BD00001846FEF795FE00BF05B05DF804FB00B5D0
:10BD100087B00190019B0593059B043301211846D0
:10BD2000FEF79EFE0346039303AB0493049B1B782C
:10BD3000002B02D10198FFF7A1FF00BF07B05DF80B
:10BD400004FB000000B591B00390029101920093B2
:10BD5000039B002B03D14349B620FEF729FC039B2C
:10BD60000993039B0F93099BDB881A46099B5B7918
:10BD700002FB03F3043B0893009A089B9A4203D307
:10BD80003849C420FEF714FC099BDB880793009B0D
:10BD90001A1D079BB2FBF3F30E93009B0433079A23
:10BDA000B3FBF2F2079901FB02F29B1A0D93019B80
:10BDB0001A68009B1344089A9A4203D2089A009B7F
:10BDC000D31A01E0019B1B680C93019B0C9A1A602B
:10BDD00005E00F9B1B680F930E9B013B0E930E9B80
:10BDE000002BF6D100230B93079A0D9BD31A0A93CD
:10BDF0000A9A0C9B934228BF13460A932AE0029AA0
:10BE00000B9B134406930F9A0D9B13440433059325
:10BE10009DF84830002B05D00A9A059906980CF039
:10BE20004BFC04E00A9A069905980CF045FC0023A7
:10BE30000D930F9B1B680F930C9A0A9BD31A0C93BC
:10BE40000B9A0A9B13440B93079A0C9B934228BFAF
:10BE500013460A930C9B002BD1D100BF00BF11B039
:10BE60005DF804FB50A9030000B589B0059004916A
:10BE700003920293039B079307AA00230093029B5C
:10BE800004990598FFF75EFF079B039A9A4203D037
:10BE90000349F620FEF78CFB00BF09B05DF804FBF8
:10BEA00050A9030000B589B0059004910392029354
:10BEB000039B079307AA01230093029B049905980B
:10BEC000FFF740FF079B039A9A4204D004494FF4BE
:10BED0008070FEF76DFB00BF09B05DF804FB00BF8A
:10BEE00050A9030082B003468DF807309DF9073052
:10BEF000002B0DDB9DF8073003F01F0206499DF96A
:10BF000007305B09012000FA02F2603341F8232078
:10BF100000BF02B0704700BF00E100E0BFF34F8FE9
:10BF200000BF064BDB6803F4E0620449044B134393
:10BF3000CB60BFF34F8F00BF00BFFDE700ED00E017
:10BF40000400FA0500B583B00190019B002B03D1DA
:10BF50000449C420FEF72CFB019B5B68184603B024
:10BF60005DF804FBDCA9030000B585B00190019BDE
:10BF7000002B03D10A498520FEF71AFB0121019805
:10BF8000FEF7C7FC0390BFF35F8F00BF039B002B3E
:10BF90000CBF01230023DBB2184605B05DF804FB9B
:10BFA00024AA030000B583B00190019B002B03D1AC
:10BFB0000A499220FEF7FCFA019B1B68012B03D073
:10BFC00006499320FEF7F4FABFF35F8F00BF019B91
:10BFD00000221A6000BF03B05DF804FB24AA03002E
:10BFE00033DF704700BF184641DF704700BF184677
:10BFF0004FF080430122C3F80025BFF34F8F00BFED
:10C0000020BFFDE700B585B000238DF807300DF1A6
:10C0100007031846FCF726FDF1EE103A0393039B45
:10C0200023F09F030293029BE1EE103A00BFBFF39F
:10C030005F8F00BF2620FFF755FF9DF80730184699
:10C04000FCF726FD039B03F00703002B03D00449F4
:10C050007D20FEF7ADFA00BF05B05DF804FB00BF20
:10C060005CAA030000B587B0FFF7CCFF00238DF872
:10C0700007300DF107031846FCF7F4FCFCF774FCDD
:10C0800005900CF02FF90346002B0ED0FFF7ACFF04
:10C090000490049B002B0BD0049B022B08D010496A
:10C0A00040F26110FEF784FA02E020BF40BF20BFDB
:10C0B000FCF75AFC039005990398FCF749FC0290A1
:10C0C000084B1A68029B1344064A13609DF8073018
:10C0D0001846FCF7DDFC00BF07B05DF804FB00BFAD
:10C0E0005CAA0300B030002000B583B0414A424B47
:10C0F000D31ADB081B0443F00303404A127840497B
:10C10000184603F0C7FB2BE03E48FFF71BFF0090EB
:10C11000009B1B68394A1278104698470346002B4B
:10C120000DD0344A344BD31ADB081B0443F0030010
:10C13000009B1B681A46344903F0ACFB0DE02D4A06
:10C140002D4BD31ADB081B0443F00300009B1B6834
:10C150001A462E4903F09EFB49E02A4800F01AFADD
:10C160002848FFF7EFFE0346002BCDD1214A224B92
:10C17000D31ADB081B0443F00303254A1278254930
:10C18000184603F087FB1B4A1B4BD31ADB081B0422
:10C1900043F003032049184603F06EFB03F020FE32
:10C1A00000BF03F0DBFB0346002BFAD1134B1B78D7
:10C1B000032B03D0114B1B78022B01D1FFF7AEFEEE
:10C1C0000CF090F80346002B0FD0FFF709FF019009
:10C1D000019B002B07D0019B022B04D00F4940F29A
:10C1E000A310FEF7E5F920BFFDE7FFF701FF03B05D
:10C1F0005DF804FB44A1030064A003009C30002010
:10C2000004AB0300A830002020AB030040AB0300C8
:10C21000B430002064AB03007CAB03005CAA0300D5
:10C2200000B583B003468DF807301E48FFF79CFE2B
:10C23000034683F00103DBB2002B2ED19DF80730BB
:10C24000042B0ED0184B1B78002B03D01548FFF79A
:10C25000A9FE23E0154A9DF807301370124B012206
:10C260001A70114B1B78002B04D111494FF4EB705D
:10C27000FEF79EF90F4A104BD31ADB081B0443F05C
:10C2800003039DF807200D49184603F003FBFFF751
:10C290002BFF0448FFF786FE00E000BF03B05DF807
:10C2A00004FB00BFA0300020A43000209C30002000
:10C2B0005CAA030044A1030064A0030090AB030048
:10C2C00082B00190019B9B68024A12781344184681
:10C2D00002B070472BAC030000B583B00190009111
:10C2E000019B002B03D108498320FEF761F9019BD4
:10C2F0009B68009A9A4202D2009B013300E000231F
:10C30000184603B05DF804FBA4AB030000B585B08C
:10C310000190019B1B681B680393019B1B685B6872
:10C320000293029A039B9A4203D3029A039BD31A65
:10C3300007E00198FFF7C4FF0246039BD21A029B55
:10C340001344184605B05DF804FB000000B585B045
:10C350000190019B002B03D10D499820FEF728F98D
:10C36000019B1B681B680393019B1B685B6802931E
:10C3700002990198FFF7B0FF0246039B93420CBF5E
:10C3800001230023DBB2184605B05DF804FB00BFB3
:10C39000A4AB030010B588B001900091002307936F
:10C3A000019B002B03D15649A320FEF701F9009B06
:10C3B000002B03D15249A420FEF7FAF800238DF890
:10C3C0000F300DF10F031846FCF74CFB0198FFF7F7
:10C3D000BDFF03468DF81B309DF81B3083F0010331
:10C3E000DBB2002B03D1019B1B7C002B7BD1019B7B
:10C3F0001B685B680593019B1B685A68019B1C685E
:10C4000011460198FFF768FF034663609DF81B30F3
:10C41000002B0AD0019B1B681A68019B1C681146FF
:10C420000198FFF759FF03462360019BDB68013B3E
:10C43000072B38D801A252F823F000BF5DC40200D8
:10C440006DC40200A7C402007FC40200A7C402009A
:10C45000A7C40200A7C4020091C40200019B5A684D
:10C46000059B1344009A12781A702DE0019B5A68BC
:10C47000059B5B001344009A12881A8024E0019BFC
:10C480005A68059B9B001344009A12681A601BE0CF
:10C49000019B5A68059BDB00D118009BD3E9002360
:10C4A000C1E9002310E0019B5B681946019BDB6832
:10C4B000059A02FB03F30B441846019BDB681A46FE
:10C4C00000990CF0F9F800BF0198FFF71FFF0490E6
:10C4D000019B1B689B68049A9A4207D9019B1B68C1
:10C4E000049A9A6002E00423079300E000BF9DF8DD
:10C4F0000F301846FCF7CCFA079B184608B010BD61
:10C50000A4AB030082B00190019B9B6800229A605B
:10C51000019B9B6800221A61019B9B6800225A6163
:10C52000019B9B680022DA60019B9B6800225A6095
:10C53000019B9B6800221A6000BF02B07047000098
:10C5400000B583B001900091019B002B03D11049ED
:10C550005020FEF72DF8009B002B03D10C495120F1
:10C56000FEF726F8019B009A1A60019B1B681A6867
:10C57000019B5A60019B5A68019B1B685B689A4249
:10C5800002D1019B00225A6000BF03B05DF804FB9A
:10C590002CAC030000B583B00190019B002B03D1AC
:10C5A00014496320FEF704F8019B1B68002B03D19C
:10C5B00010496420FDF7FCFF019B5B68002B14D041
:10C5C000019B5B681A46019B1B689B6813441A46D3
:10C5D000019B5A60019B5A68019B1B685B689A42E9
:10C5E00004D1019B00225A6000E000BF03B05DF857
:10C5F00004FB00BF2CAC030000B585B0019001988E
:10C6000000F00EF80390039B002B01D0039B00E089
:10C61000024B184605B05DF804FB00BF6CAD03008B
:10C6200086B00190164B0593164B04931FE0049AB5
:10C63000059BD31ADB10DA0F13445B10DB00059A5D
:10C6400013440393039B1B680293029A019B9A4233
:10C6500002D9039B04930AE0029A019B9A4203D2F7
:10C66000039B0833059302E0039B5B6804E0059A93
:10C67000049B9A42DBD30023184606B0704700BFE4
:10C680006CB1030094B2030082B003468DF807300A
:10C690009DF90730002B13DB9DF8073003F01F02D4
:10C6A00009499DF907305B09012000FA02F22033A5
:10C6B00041F82320BFF34F8F00BFBFF36F8F00BF40
:10C6C00000BF02B0704700BF00E100E0044BD3F8A8
:10C6D0000034002B14BF01230023DBB2184670473F
:10C6E0000000014008B50BF0FDFD034683F0010397
:10C6F000DBB2002B03D109497B20FDF759FFFFF77F
:10C70000E5FF034683F00103DBB2002B04D000F009
:10C7100005FB034B00229A7000BF08BD9CB20300CA
:10C72000B830002000B583B000230193184B1B786C
:10C73000002B02D0852301931CE0154B00229A6048
:10C74000134B00225A60124B00221A61104B002238
:10C75000DA60104800F0A6FA01900BF0C3FD034622
:10C7600083F00103DBB2002B01D000F0C3FA084BC9
:10C7700001221A70FFF7AAFF0346002B02D0044BD8
:10C7800001229A70019B184603B05DF804FB00BFBC
:10C79000B83000206DC8020084B00190019B1B6876
:10C7A0000393039B002B03D0039B1A68019B1A6021
:10C7B000039B184604B0704700B583B0164B1B7836
:10C7C000002B04D1154940F21710FDF7F1FE124B72
:10C7D000DB68002B04D111494FF48C70FDF7E8FEA3
:10C7E00000238DF807300DF107031846FCF73AF9DE
:10C7F000094BDB68013B084AD360074BDB68002B21
:10C8000001D1FFF76FFF9DF807301846FCF740F99C
:10C8100000BF03B05DF804FBB83000209CB20300F9
:10C8200000B585B003468DF807309DF80730002B22
:10C8300002D10C4B039301E00B4B03930398FFF7DA
:10C84000ABFF0290029B002B06D0029B5B689DF819
:10C85000072010469847F1E700BF00BF05B05DF81C
:10C8600004FB00BFC0300020C830002000B583B0FA
:10C8700003468DF807309DF80730002B05D10A4B91
:10C8800001225A700020FFF7CBFF9DF80730012BE3
:10C8900005D1054B01229A700120FFF7C1FF00BFAF
:10C8A00003B05DF804FB00BFB830002000B583B0D2
:10C8B00001900091019B002B05D1054B01225A707C
:10C8C0000020FFF7ADFF00BF03B05DF804FB00BF21
:10C8D000B830002000B585B0034600918DF80730D0
:10C8E0009DF80730032B29D0032B35DC002B02D019
:10C8F000012B04D030E00020FFF7C6FE2DE000231E
:10C900008DF80F300DF10F031846FCF7ABF8154BFF
:10C910001B7883F00103DBB2002B01D0FFF702FF8D
:10C92000104BDB6801330F4AD3600E4B01229A7023
:10C930009DF80F301846FCF7ABF80EE0094B1B785A
:10C94000002B04D1084940F25220FDF731FE00F0DF
:10C95000D1F9FFF731FF00E000BF00BF05B05DF87F
:10C9600004FB00BFB83000209CB2030000B585B0C6
:10C9700003468DF8073000238DF80F300DF10F03BB
:10C980001846FCF76FF80BF0ADFC034683F001038B
:10C99000DBB2002B0DD00DF1070319460948FFF754
:10C9A000F9FC0848FFF7D2FC0346002B01D001F048
:10C9B0009DFA9DF80F301846FCF76AF800BF05B0E5
:10C9C0005DF804FB04A0030000B585B003460091A8
:10C9D0008DF807309DF80730002B02D0032B09D0CB
:10C9E0002AE0174B1B78012B25D101F07FFA01F0CB
:10C9F00093FA20E000238DF80B300DF10B0318465D
:10CA0000FCF730F80E4B1B78012B0ED10D490E4868
:10CA100001F014FA0390039B002B04D00B4940F261
:10CA20000710FDF7C5FD01F047FA9DF80B301846D9
:10CA3000FCF72EF800E000BF00BF05B05DF804FB76
:10CA4000CC3000206DC90200CD30002028B3030097
:10CA500082B003468DF807309DF90730002B0CDBC0
:10CA60009DF8073003F01F0205499DF907305B0967
:10CA7000012000FA02F241F8232000BF02B0704703
:10CA800000E100E082B0034600918DF807309DF987
:10CA90000730002B0ADB009BDAB20C499DF9073006
:10CAA0005201D2B20B4483F800230BE0009BDAB2B0
:10CAB00007499DF8073003F00F03043B5201D2B23F
:10CAC0000B441A7600BF02B0704700BF00E100E0DF
:10CAD00000ED00E082B00190019B1B0B5BB2184699
