:020000022000DC
:1070000000000420757302005D7302005F730200CC
:1070100061730200637302006573020000000000E8
:107020000000000000000000000000006773020084
:1070300069730200000000006B7302006D730200B0
:1070400049C502006F73020041D3020035E202001D
:107050006F7302006F73020039D202006F73020077
:107060006F7302006F7302006F7302006F73020090
:107070006F7302003DD702006F7302006F7302004E
:107080006F7302007D8B02006F7302006F7302004A
:107090006F7302006F730200591D03006F730200CB
:1070A0006F7302006F7302006F7302006F73020050
:1070B0006F7302006F730200000000000000000008
:1070C0006F7302006F7302006F7302006F73020030
:1070D0006F7302006F7302006F7302006F73020020
:1070E0006F7302006F7302006F73020000000000F4
:1070F000000000006F730200000000006F730200C8
:10710000000000000000000000000000000000007F
:10711000000000000000000000000000000000006F
:10712000000000000000000000000000000000005F
:10713000000000000000000000000000000000004F
:10714000000000000000000000000000000000003F
:10715000000000000000000000000000000000002F
:10716000000000000000000000000000000000001F
:10717000000000000000000000000000000000000F
:1071800000000000000000000000000000000000FF
:1071900000000000000000000000000000000000EF
:1071A00000000000000000000000000000000000DF
:1071B00000000000000000000000000000000000CF
:1071C00000000000000000000000000000000000BF
:1071D00000000000000000000000000000000000AF
:1071E000000000000000000000000000000000009F
:1071F000000000000000000000000000000000008F
:10720000354936480A1A02D0072291438D4634493F
:1072100034480A1A06D00722914381F309880222D2
:1072200082F3148830483149314A00F044F831483B
:107230003149324A00F03FF831483249324A00F0D1
:107240003AF832483249334A00F035F83248334987
:10725000334A00F030F833483349344A00F02BF811
:1072600033483449344A00F026F83448344900227F
:1072700000F02CF833483449002200F027F8334856
:107280003349091A082902DB002202604160314AB1
:1072900090471F481F49884205D00268043003B454
:1072A000904703BCF7E700208646EC46002000210B
:1072B000294A9047FEE7884207D0521A05D0037842
:1072C00001300B700131013AF9D17047884202D088
:1072D00002700130FAE770470000042000E003204C
:1072E00000000420000004204C490300242C00204E
:1072F0008C2C0020D0730200D07302007421030094
:107300004C490300242C0020242C0020A022030040
:10731000A0220300A0220300A0220300A022030059
:10732000A0220300A0220300A02203004A49030078
:10733000B44903008C2C00208C2C00208C2C0020C5
:10734000984A0020984A0020984A0020984A002035
:10735000986A00209D73020019000300FEE7FEE713
:10736000FEE7FEE7FEE7FEE7FEE7FEE7FEE7FEE7F5
:1073700000F002B8FFF7FCBF0F484FF00701884349
:1073800085460E4880470E48016841F4700101604F
:10739000BFF34F8FBFF36F8FFFF732BF09480A4922
:1073A0000A4A884207D0521A05D0037801300B7080
:1073B0000131013AF9D17047000004208106030031
:1073C00088ED00E08C220300102C0020242C0020EB
:1073D00000B583B00190019B1B68184600F04CF883
:1073E0000346002B04D10B494FF4F67002F0EAFD7E
:1073F000019B1B681F2B02D84FF0A04306E0019BA6
:107400001B6803F01F02019B1A60034B184603B070
:107410005DF804FBA02203000003005000B585B016
:1074200001900B468DF8033001AB1846FFF7D0FFF3
:107430000390019A039B02F5E07253F82230019AFF
:1074400023F44031039B02F5E07243F82210019AC5
:10745000039B02F5E07253F822309DF803201204DA
:107460001146019A1943039B02F5E07243F822107A
:1074700000BF05B05DF804FB84B00190019B5B097F
:10748000029300230393029B002B03D0029B012B4A
:1074900004D007E04FF0FF33039303E04FF6FF7390
:1074A000039300BF019B03F01F030193039A019B09
:1074B00022FA03F303F00103002B14BF012300237E
:1074C000DBB2184604B0704700B583B00190019B51
:1074D000032B04D8019807F0C5F8034600E0002309
:1074E000184603B05DF804FB00B587B003460A46B2
:1074F0008DF8073013468DF8063000238DF81730CD
:10750000002304939DF80730184607F0F3F8049021
:10751000049B032B61D89DF80630022B52D0022B1E
:107520005EDC002B31D0012B5AD13649049A134628
:107530005B0013440B441B788DF817303149049AD3
:1075400013465B0013440B4401331B78002B0ED011
:107550002D4B2E4A4FF48041184601F0A5F90390B7
:10756000039B002B03D1294A9DF80730137025494E
:10757000049A13465B0013440B4402331978244ADF
:10758000049B13440A461A702AE01F4B184601F068
:10759000C3F91F4A049B134419781A48049A1346E6
:1075A0005B001344034402331B78994217D11549F9
:1075B000049A13465B0013440B4402331B788DF886
:1075C00017300CE00F49049A13465B0013440B4438
:1075D00001331B788DF8173002E000BF00E000BFD8
:1075E0009DF81730002B09D00A4B1B68002B05D0E3
:1075F000084B1B689DF817201046984700BF07B03E
:107600005DF804FBDC2C0020E82C0020082D002075
:107610000C2D0020D82C002000B583B00190019BD8
:107620001B7802211846FFF75FFF00BF03B05DF82B
:1076300004FB000000B583B00C4B1B78002B0FD06F
:107640000023019308E0019B022B02D0019806F071
:1076500095FF019B01330193019B032BF3D901E0BB
:1076600006F0A6FF00BF03B05DF804FB942C0020D9
:107670002DE9D04F92B003468DF83F30002311938F
:1076800000231093CC4B1B78002B04D0CA4A002354
:107690001370FFF7CFFF9DF83F30172B00F23F82AA
:1076A00001A252F823F000BF0977020021770200FF
:1076B00021770200BD77020059780200D5780200D8
:1076C000697902008979020099790200C57902007E
:1076D000E3790200017A02001F7A02002D7A02008B
:1076E0002D7A02002D7A02002D7A02002D7A0200F6
:1076F000C17A0200CF7A0200E37A0200F77A020030
:10770000117B0200117B0200FFF794FFAB4B184680
:1077100001F002F91190AA4A9DF83F301370FFE181
:10772000002006F0E3FE0346002B0DD0002006F0FB
:1077300025FF9DF83F30022B02D14FF4E16301E0B9
:107740004FF47A6310930BE0002006F0FDFE9DF8E5
:107750003F30022B01D1C82301E04FF4C8731093CE
:10776000974A9DF83F301370944C109B0022009371
:1077700001924FF000024FF00003DDE90067394647
:10778000CB03314643EA51433146CA0312F57A71BD
:10779000029143F1000303934FF4FA624FF00003A8
:1077A000DDE902010AF09CFB02460B46134600226B
:1077B0001946204601F078F81190B1E1002006F05A
:1077C00095FE0346002B0DD0002006F0D7FE9DF855
:1077D0003F30032B02D14FF4487301E04FF47A633A
:1077E00010930BE0002006F0AFFE9DF83F30032B16
:1077F00001D1C82301E04FF4C8731093704A9DF87B
:107800003F3013706D4C109B0022049305924FF093
:1078100000024FF00003DDE904673946CB0331462F
:1078200043EA51433146CA0312F57A71069143F196
:10783000000307934FF4FA624FF00003DDE90601FD
:107840000AF04EFB02460B4613460022194620461C
:1078500001F02AF8119063E1002006F047FE03468C
:10786000002B06D0002006F089FE4FF47A631093B7
:1078700005E0002006F068FE4FF4C8731093504AEC
:107880009DF83F3013704D4C109B00229A46934652
:107890004FF000024FF000034FEACB3343EA5A4364
:1078A0004FEACA3212F57A71089143F10003099345
:1078B0004FF4FA624FF00003DDE908010AF010FB13
:1078C00002460B46134600221946204600F0ECFF04
:1078D000119025E1002006F009FE0346002B0CD094
:1078E000002006F04BFE9DF83F30052B01D1C82348
:1078F00001E04FF47A6310930BE0002006F024FEC1
:107900009DF83F30052B01D1C82301E04FF4C87327
:1079100010932B4A9DF83F301370284C109B002287
:10792000984691464FF000024FF000034FEAC933EA
:1079300043EA58434FEAC83212F57A710A9143F18B
:1079400000030B934FF4FA624FF00003DDE90A01E4
:107950000AF0C6FA02460B46134600221946204694
:1079600000F0A2FF1190DBE0002006F047FE144A71
:107970009DF83F301370114B002240F266611846AB
:1079800000F092FF1190CBE0002006F0DDFD0C4AE4
:107990009DF83F301370C3E0074B01221A7001209D
:1079A00006F02CFE054B002240F26661184600F0FE
:1079B0007BFF1190B4E000BF8D2C0020982C00209C
:1079C0008C2C0020594B01221A70012006F016FE63
:1079D000574B00224FF40051184600F065FF1190FC
:1079E0009EE0524B01221A70012006F007FE504B18
:1079F000002240F26661184600F056FF11908FE0B9
:107A00004A4B01221A70012006F0F8FD484B002273
:107A10004FF40051184600F047FF119080E006F047
:107A2000DAFD444A9DF83F30137079E0424B184626
:107A300000F072FF11909DF83F30C3F111031093D5
:107A4000109B002B35D0119B002B32D1109B012BAA
:107A500028D9394C109B9BB21A46C82302FB03F36A
:107A6000DA171E4617464FF000024FF00003FB03E3
:107A700043EA5643F20312F57A710C9143F1000385
:107A80000D934FF4FA624FF00003DDE90C010AF0A8
:107A900027FA02460B46134600221946204600F0FC
:107AA00003FF1190022006F04FFD244B01221A70B3
:107AB00036E0022006F062FD204B00221A702FE013
:107AC000FFF7B8FD1B4A9DF83F30137028E0FFF721
:107AD000B1FD002006F038FD164A9DF83F301370C6
:107AE0001EE0FFF7A7FD012006F02EFD114A9DF8CC
:107AF0003F30137014E0FFF79DFD002006F024FDD9
:107B0000012006F021FD0B4A9DF83F30137007E07D
:107B100006F061FD074A9DF83F30137000E000BF9A
:107B2000119B184612B0BDE8D08F00BF8D2C0020ED
:107B3000982C00208C2C0020B82C0020942C0020A5
:107B400000B583B00190074B1B6803F00103002BC5
:107B500004D0054B1B781846FFF78AFD00BF03B021
:107B60005DF804FB902C00208C2C002000B583B025
:107B70000190022006F042FD00BF03B05DF804FB57
:107B800000B585B003468DF8073000230393084BFA
:107B90001B6803F00103002B05D09DF80730184641
:107BA000FFF766FD0390039B184605B05DF804FBE4
:107BB000902C002000B585B0019000910023039324
:107BC0002A4A019B13602A4A009B1360019B03F021
:107BD0000203002B2AD00023029308E00122012196
:107BE000029800F055F80390029B01330293029B28
:107BF000032B02D8039B002BF0D0039B002B06D154
:107C000040F2333204211B4800F0F4FB0390039B45
:107C1000002B02D100F076FC0390039B002B05D1D2
:107C2000154A0021154800F00BFE0390019B03F05C
:107C30000103002B14D0012006F092FD039B002BC2
:107C400005D10F4A00210F4800F0FAFD0390039B75
:107C5000002B05D10C4A01210C4800F0F1FD0390E6
:107C6000039B184605B05DF804FB00BF902C002074
:107C7000D82C0020CC22030019760200C822030071
:107C8000417B0200C02203006D7B0200C42203007E
:107C900084B001900B468DF8033013468DF8023006
:107CA00000230393019B032B3CD89DF80230012B4A
:107CB0000BD19DF80330012B04D1019BDBB20E33B5
:107CC000DBB200E000238DF802309DF80330022B78
:107CD0000FD0022B23DC002B16D0012B1FD114490F
:107CE000019A13465B0013440B449DF802201A705E
:107CF0001AE00F49019A13465B0013440B44013309
:107D00009DF802201A700FE00949019A13465B00A2
:107D100013440B4402339DF802201A7004E0072339
:107D2000039301E007230393039B184604B07047B5
:107D3000DC2C002000B585B001900B468DF8033097
:107D4000019B032B14D89DF80330002B01D0032393
:107D500000E000238DF80F30019806F0EBFC02469E
:107D60009DF80F3019461046FFF758FB002300E03E
:107D70000623184605B05DF804FB00B583B00190FA
:107D800001210198FFF7D6FF0346184603B05DF8BE
:107D900004FB00B583B0012200210020FFF778FF2B
:107DA0000190019B002B04D0019B072B01D0019B6C
:107DB0001CE0072202210120FFF76AFF0190019BCE
:107DC000002B04D0019B072B01D0019B0EE0042265
:107DD00002210020FFF75CFF0190019B002B04D0E3
:107DE000019B072B01D0019B00E00023184603B044
:107DF0005DF804FB00B583B0012202210020FFF7EB
:107E000047FF0190019B002B04D0019B072B01D061
:107E1000019B1CE0072202210120FFF739FF01909E
:107E2000019B002B04D0019B072B01D0019B0EE08E
:107E30000A2200210020FFF72BFF0190019B002B5D
:107E400004D0019B072B01D0019B00E000231846C2
:107E500003B05DF804FB00B583B001900120FFF78B
:107E600033FB0346002B03D0019B02221A700CE067
:107E70000020FFF729FB0346002B03D0019B0B22B8
:107E80001A7002E0019B00221A7000BF03B05DF877
:107E900004FB00B583B00020FFF76FFF0190019B4A
:107EA000002B04D0019B062B01D0019B0CE001208C
:107EB000FFF763FF0190019B002B04D0019B062B71
:107EC00001D0019B00E00023184603B05DF804FBDD
:107ED00000B585B001900091019B1B88102B02D04A
:107EE000112B18D02FE01A4B1B68002B0DD1FFF778
:107EF00050FF0390039B002B07D0164B1B68002BF1
:107F000003D0144B1B6803989847114B1B6801332F
:107F10000F4A136017E00E4B1B68013B0C4A1360BD
:107F20000B4B1B68002B0DD1FFF764FF0390039BE5
:107F3000002B07D0074B1B68002B03D0054B1B6899
:107F40000398984700BF00BF05B05DF804FB00BF71
:107F5000142D0020102D002000B585B00190009157
:107F6000002303930A4A019B1360009B002B02D05D
:107F70000098FFF770FF074B1B68002B02D1FFF73B
:107F800039FF0390039B184605B05DF804FB00BF62
:107F9000102D0020142D002084B003468DF80730EA
:107FA0009DF807305B08DBB21A460D4B9B5C8DF8E1
:107FB0000F309DF8073003F00103002B04D09DF82B
:107FC0000F301B09DBB204E09DF80F3003F00F0304
:107FD000DBB28DF80E309DF80E30184604B07047B5
:107FE000502D002084B003460A468DF80730134612
:107FF0008DF806309DF8073003F00103002B01D007
:108000000F2300E0F0238DF80F309DF8073003F0C8
:108010000103002B04D09DF806301B01DBB201E008
:108020009DF806308DF80E309DF807305B08DBB206
:108030001A46114B9A5C9DF807305B08DBB2194673
:108040009DF80F301340DAB20B4B5A549DF80730AD
:108050005B08DBB21A46084B9A5C9DF807305B0858
:10806000DBB219469DF80E301343DAB2024B5A5474
:1080700000BF04B0704700BF502D002000B585B090
:1080800003468DF807300023039310E00F4B1A6866
:10809000039BDB0013440293029B1B789DF807208F
:1080A0009A4201D1029B0DE0039B01330393084BDD
:1080B0001B781A46039B9342E8DB0649882001F0AF
:1080C00081FF0023184605B05DF804FB182D002041
:1080D0001C2D0020F822030000B585B003460A4697
:1080E0008DF8073013468DF806309DF80730184696
:1080F000FFF7C4FF0390039B002B0BD0039B5B682F
:10810000002B07D0039B5B689DF806109DF80720A5
:108110001046984700BF05B05DF804FB2DE9F04F0D
:1081200087B003460A468DF80F3013468DF80E309F
:108130009DF80F301846FFF72FFF0346042B00F27F
:10814000C28001A252F823F05D810200D1810200B9
:10815000ED8102001D820200338202009DF80E3084
:10816000002B00F0AD809DF80F3001211846FFF77D
:1081700039FF00238DF817300DF11703184600F072
:1081800071FC9DF80F104FF001024FF00003A1F1B8
:108190002004C1F1200003FA01F702FA04F4274396
:1081A00022FA00F0074302FA01F6494BD3E9002313
:1081B00046EA020100913B430193454BDDE9001281
:1081C000C3E900129DF81730184600F061FC77E013
:1081D0009DF80E30002B01D0022200E000229DF815
:1081E0000F3011461846FFF7FDFE6CE09DF80E308B
:1081F000002B0CD09DF80F3003211846FFF7F2FE3C
:108200009DF80F3001211846FFF766FF5BE09DF8EF
:108210000F3001211846FFF7E5FE54E09DF80E30BF
:10822000002B4FD19DF80F3004211846FFF7DAFEDE
:1082300048E09DF80E30002B06D09DF80F3003214A
:108240001846FFF7CFFE3EE09DF80F30002118469C
:10825000FFF7C8FE9DF80F3000211846FFF73CFFDE
:1082600000238DF816300DF11603184600F0FAFBC6
:108270009DF80F104FF001024FF00003A1F120060E
:10828000C1F1200003FA01F502FA06F6354322FA9D
:1082900000F0054302FA01F46FEA04086FEA0509E9
:1082A0000B4BD3E9002308EA020A09EA030B084B47
:1082B000C3E900AB9DF81630184600F0E9FB02E078
:1082C00000BF00E000BF00BF07B0BDE8F08F00BFF7
:1082D000482D002000B583B00648074B1B685B089B
:1082E0000022194600F0E0FA019000BF03B05DF8EB
:1082F00004FB00BF282D0020202D002000B587B0F2
:1083000001900023059328E01C4B1A68059BDB00B5
:1083100013440493049B1B78184604F0DDFE0346C7
:108320008DF80F30049B5B78012B0CBF01230023D9
:10833000DBB21A469DF80F309A420CBF012300238E
:108340008DF80E30049B1B789DF80E2011461846C0
:10835000FFF7E4FE059B01330593094B1B781A4692
:10836000059B9342D0DB074BD3E90023134301D095
:10837000FFF7B0FF00BF07B05DF804FB182D002029
:108380001C2D0020482D002000B585B001900B4623
:108390008DF80330019BDBB21846FFF76FFE0390A8
:1083A000039B1B78184604F097FE03468DF80B30AC
:1083B000039B5B78012B0CBF01230023DBB21A4621
:1083C0009DF80B309A420CBF012300238DF80A3030
:1083D0009DF80A30002B06D0054BD3E90023134348
:1083E00001D1FFF777FF00BF05B05DF804FB00BFC8
:1083F000482D002000B58BB003900B4601928DF8FC
:108400000B30019B092B01D8072367E004F058FDCE
:10841000034683F00103DBB2002B09D004F0ECFC2F
:108420000990099B0893089B002B01D0089B55E0FD
:108430002C4A039B13602C4A9DF80B3013702B4A77
:10844000019B136020220021294809F030FE2949B0
:108450004FF000024FF00003C1E9002331E09DF826
:108460000B30DB00039A1344079303238DF8143079
:1084700000238DF815309DF816306FF300038DF84A
:1084800016309DF816306FF341038DF816309DF8C5
:1084900016306FF382038DF81630079B9B788DF8AA
:1084A0001530079B1B78184605AB134A194604F094
:1084B00013FD0990099B0693069B002B01D0069B98
:1084C0000CE09DF80B305A1E8DF80B20002BC6D106
:1084D0000A4A00210A4800F0B3F9034618460BB0D7
:1084E0005DF804FB182D00201C2D0020202D0020FD
:1084F000502D0020482D002089830200FD820200BB
:108500008023030000B583B0114B1B68002B04D1FE
:10851000104940F2351001F055FD002301930CE0A5
:108520000B4B1A68019BDB0013441B780121184692
:1085300004F04EFD019B01330193074B1B781A4653
:10854000019B9342ECD30023184603B05DF804FB73
:10855000182D0020F82203001C2D002086B0039067
:108560000291019201238DF817309DF81730204AAF
:10857000039B13601E4A029B53601D4A019B93603C
:10858000039B44F20102934212D0039B44F2020285
:10859000934220D1019B164AD360154BDB681B68C0
:1085A000134A9361124BDB685B68114AD36112E096
:1085B000019B0F4A13610E4B1B699B680C4A536168
:1085C0000B4B1B691B680A4A9361094B1B695B686B
:1085D000074AD36100BF72B600BF00BF9DF81730D5
:1085E000DBB2002BFAD162B600BF00BF06B0704705
:1085F000702D002000B583B002900091019244F2EA
:10860000010071466A4600F003F803B000BD00BFE8
:1086100030B58BB007900691059272B600BF06F098
:10862000D5FF00BF06F090FD0346002BFAD1079B53
:1086300044F2020293422FD0079B44F2020293427B
:1086400069D8079B44F20102934237D0079B44F25A
:10865000010293425FD8079B012B05D0079B41F293
:10866000010293420CD056E0394A3A4BD31ADB0848
:108670001B0443F001033849184606F0F3FC57E0A9
:10868000334A344BD31ADB081B0443F0010333494C
:10869000184606F0E7FC4BE0059B09932C4A2D4B4E
:1086A000D31ADB081B0443F00100099B5B681A46E0
:1086B000099B1B682A4906F0F4FC39E0059B0893E6
:1086C000234A244BD31ADB081B0443F00104089B04
:1086D0009D68089B9B68184603F084FB0346184678
:1086E000089B5B681946089B1B68069A02920193D7
:1086F000009103462A461B49204606F0FCFC144A1A
:10870000144BD31ADB081B0443F001031649184627
:1087100006F0A8FC0CE00E4A0E4BD31ADB081B0433
:1087200043F00103069A1149184606F0A9FC00BF60
:108730000F4B1B6803F00103002B00D000BE059A0D
:1087400006990798FFF70AFF00BF0BB030BD00BFC6
:108750001C220300E421030084230300A42303005C
:10876000C8230300E42303000C2403002024030097
:10877000F0ED00E02DE9F04383B0144800F0E4F997
:10878000034600221C461546114BD3E9002314EB87
:10879000020845EB0309CDE900890E4BD3E900231C
:1087A000DDE90001904271EB030307D2DDE900230C
:1087B00012F1807643F10007CDE90067DDE900237F
:1087C0001046194603B0BDE8F08300BF242C0020FA
:1087D000902D0020982D002008B5024800F0C1F926
:1087E00000BF08BD242C002000B585B003460091D1
:1087F0008DF80730114A02AB1946104601F06DFCA6
:108800000390039B002B13D0039B9DF807201A7045
:10881000039B009A5A60094A02AB1946104601F0C0
:1088200075FC0346002B01D0FFF7D6FF002300E0C4
:108830000423184605B05DF804FB00BFA02D0020FE
:1088400000B587B003900B4601928DF80B30039B67
:10885000002B04D1134940F22E2001F0B3FB019B01
:10886000002B04D10F4940F22F2001F0ABFB019BFC
:10887000002B01D1072310E0039B1B680593059B88
:10888000019A5A619DF80B30012B0CBF0123002384
:10889000DBB21A46059B1A610023184607B05DF843
:1088A00004FB00BF44240300F0B587B0039002919D
:1088B0000192039B002B04D1164940F23E2001F0A7
:1088C00081FB039B0593059B1B7FDBB2002B01D033
:1088D00000231CE0059B019A9A61FFF74BFF0246BB
:1088E0000B46029900200C460546161943EB050776
:1088F000059BC3E90267059B1B69002B02D0059B02
:10890000029A1A6105990020FFF76EFF0346184688
:1089100007B0F0BD4424030000B585B00190019B71
:10892000002B04D109494FF4157001F04BFB019B5A
:108930000393039B00221A7703990120FFF754FF4A
:108940000346184605B05DF804FB00BF442403004D
:1089500082B001900091019A009BD31A23F07F43CB
:10896000184602B07047000008B5034800F0ECF864
:108970000346184608BD00BF242C002082B0EFF348
:1089800010830093009B019372B600BF019B1846B1
:1089900002B0704762B600BF00BF704700B585B037
:1089A0000190FFF7EBFF0390164B9B68002B1BD148
:1089B000144B01229A60144BD3F88020134B1340C0
:1089C000104A1360104B114AC3F880200E4BD3F8A5
:1089D00084300C4A53600C4B4FF0FF32C3F88420B4
:1089E000019B00221A7002E0019B01221A70039B76
:1089F000002B01D1FFF7CEFF0023184605B05DF82C
:108A000004FB00BFB02D002000E100E0FC06FFBD2C
:108A100000B585B003468DF80730104B9B68002BDE
:108A200016D09DF80730002B12D1FFF7A7FF039057
:108A30000B4A0A4B1B681360094A084B5B6853607A
:108A4000064B00229A60039B002B01D1FFF7A2FF87
:108A50000023184605B05DF804FB00BFB02D0020D0
:108A600000E100E000B583B0019000F02BF8034670
:108A7000012B03D00549432001F0A4FA0198FFF728
:108A80008DFF00BF03B05DF804FB00BFD0240300DE
:108A900000B583B003468DF8073000F013F80346A5
:108AA000012B03D00649512001F08CFA9DF80730C4
:108AB0001846FFF7ADFF00BF03B05DF804FB00BF31
:108AC000D024030084B0EFF305830193019BC3F32B
:108AD00008030393039B002B0DD1EFF31483009342
:108AE000009B0293029B03F00103002B0CBF0123A8
:108AF0000023DBB200E00123184604B070470000F9
:108B000082B003468DF807309DF90730002B0DDB4E
:108B10009DF8073003F01F0206499DF907305B09F5
:108B2000012000FA02F2403341F8232000BF02B0D6
:108B3000704700BF00E100E082B00190019BD3F8D4
:108B40000435184602B0704700B583B00190019B10
:108B50001B681846FFF7F0FF0346184603B05DF8A0
:108B600004FB00B583B00190019B93F904301846D3
:108B7000FFF7C6FF00BF03B05DF804FB08B5044B68
:108B80001B68044A12681046984700BF08BD00BF22
:108B9000BC2D0020C02D002082B00190019B03F06D
:108BA0000303002B0CBF01230023DBB2184602B0E5
:108BB0007047000000B585B00190002303930EE0DC
:108BC0000B4A039B52F82330002B05D0084A039B25
:108BD00052F8233001989847039B01330393039B7A
:108BE000032BEDD900BF00BF05B05DF804FB00BF4B
:108BF000D42D002082B001900091019B1B78013B95
:108C0000052B61D801A252F823F000BF258C020089
:108C10002D8C0200538C0200858C0200A58C020072
:108C2000C18C0200009B00221A704EE0009B0122C2
:108C30001A70019B1A89009B9A81019B9A88009B5C
:108C4000DA81019BDA68009B9A60009B00221A740B
:108C50003BE0009B02221A70019B1A89009B9A81BB
:108C6000019B9A88009BDA81019BDA68009B9A60DD
:108C7000019B9B7D062B0CBF01230023DAB2009BD6
:108C80001A7422E0009B03221A70019BDA88009B71
:108C90009A81019B1A89009BDA81019BDA68009B0B
:108CA0009A6012E0009B04221A70019BDA88009BF4
:108CB0009A81009B0022DA81009B00229A6004E0E6
:108CC000009B05221A7000E000BF00BF02B0704791
:108CD00084B001900091019B0393039A009B9A42F8
:108CE00006D2039B1B68B3F1FF3F01D0012300E0D4
:108CF000002303F00103DBB2184604B0704782B0D2
:108D00000190019B5B8803339B00019A1344184632
:108D100002B0704700B583B0019000910198FFF751
:108D2000EEFF0246009B934201D2022311E0019B19
:108D30009B884FF6FF72934208D0019B1B88002B43
:108D400004D0019B9B68B3F1FF3F01D1012300E0F8
:108D50000023184603B05DF804FB000000B583B0A3
:108D60000190019B002B13D00D4BDB681A46019B31
:108D700093420DD30A4B1B691A46019B934207D8B5
:108D80000198FFF709FF0346002B01D0012300E003
:108D9000002303F00103DBB2184603B05DF804FBC7
:108DA000102C002084B00190009148F209630393D5
:108DB0000023ADF80A3027E0BDF80A201649134613
:108DC0009B0013449B000B4404331B68009A9A4297
:108DD00015D9BDF80A20104913469B0013449B0087
:108DE0000B4404331B6803F58053009A9A4206D261
:108DF00000230393019BBDF80A201A8008E0BDF808
:108E00000A300133ADF80A30BDF80A30012BD3D94E
:108E1000039B184604B07047F42D002082B00190E7
:108E20000091009B9B7D022B09D9019B1A89009B15
:108E3000DB8813449BB203339AB2019B1A81019BD6
:108E40005A89009BDB88D31A9BB2033B9AB2019BE1
:108E50005A8100BF02B0704700B583B0074B1B6852
:108E60001946002300930823054A064801F0FAFE3C
:108E70000346184603B05DF804FB00BF1C2E00201B
:108E8000E0250300102C002000B585B00390039965
:108E9000002300930823044A044801F0E3FE03463C
:108EA000184605B05DF804FBE8250300102C0020EF
:108EB00000B585B003460091ADF80630BDF8062038
:108EC000244913469B0013449B000B4404331B6846
:108ED00003F580530293009B1B680393039B002BB5
:108EE00004D00398FFF70BFF039026E0BDF806209F
:108EF000184913469B0013449B000B4404331B6822
:108F00000833039319E002990398FFF703FF034620
:108F1000022B10D0022B10DC002B02D0012B05D02D
:108F20000BE0009B039A1A6001230EE00398FFF701
:108F3000E6FE039001E0002307E002990398FFF7A3
:108F4000C7FE0346002BDED10023184605B05DF8AE
:108F500004FB00BFF42D002000B585B00190009106
:108F6000019B5B681846FFF7F9FE0346002B19D0FA
:108F7000019B1A89244B1B899A4213D1019B1A68C1
:108F8000019B5B689B689A420CD1019B5B68194608
:108F90000098FFF707FF0346002B0CBF01230023B7
:108FA000DBB22CE0009B00221A8023E00023029316
:108FB00010E0029B0393039B9A68019B1B689A42F3
:108FC00008D1029A019B5A600F4B1A89019B1A81A2
:108FD000012314E0009B1B8802AA11461846FFF7E4
:108FE00067FF0346002BE4D1009B1B8801339AB234
:108FF000009B1A80009B1B88012BD7D900231846A1
:1090000005B05DF804FB00BF242E002000B587B03A
:109010000390029101920093324B1B78DBB283F0F4
:109020000103DBB2002B02D048F2016355E0019B43
:10903000002B02D0009B002B49D148F204634CE086
:10904000009B9B881946284A0B469B000B449B00BB
:1090500013441B78002B33D124E0009B1B6805933D
:10906000039B002B06D0059B9A88039B1B889A4282
:1090700000D017E0029B002B06D0059B1A88029BAC
:109080001B889A4200D00DE0059B9A68019B1A60EC
:10909000009B1A68019B5A60144B1A89019B1A8124
:1090A00000231AE0009B9B88009A11461846FFF7A0
:1090B000FFFE0346002BD0D1009B00221A6000E087
:1090C00000BF009B9B8801339AB2009B9A80009B53
:1090D0009B88012BB4D948F20963184607B05DF8A4
:1090E00004FB00BFC82D0020F42D0020242E0020FA
:1090F00000B583B00190054B0199184601F01AF8AC
:109100000346184603B05DF804FB00BFE42D0020C1
:1091100000B583B00190044B0199184601F023F883
:1091200000BF03B05DF804FBE42D002008B50A4B36
:109130001B68002B04D109494FF4247000F042FF52
:109140000121054801F082F80346002B14BF0123DA
:109150000023DBB2184608BDD02D00206025030097
:1091600000B587B003900291039B02229A75029981
:10917000039B1A1D002300930423074801F072FD8E
:109180000590059B002B01D1002301E048F20D63FF
:10919000184607B05DF804FB102C002000B587B01E
:1091A00003900291039B1B69002B01D0032200E076
:1091B0000122039B9A75029B08331946039B03F116
:1091C0000C02002300930423074801F04BFD059097
:1091D000059B002B01D1002301E048F20D631846E6
:1091E00007B05DF804FB00BF102C002000B587B06D
:1091F00003900291039B1B78032B01D1052200E011
:109200000622039B9A75029B04331946039B03F1C4
:109210000802002300930423074801F023FD059072
:10922000059B002B01D1002301E048F20D63184695
:1092300007B05DF804FB00BF102C002000B587B01C
:1092400003900B46ADF80A300399002300930423E2
:109250000D4A0E4801F006FD0590059B002B02D03B
:1092600048F20D630BE0BDF80A20094913469B0044
:1092700013449B000B44103301221A70002318463C
:1092800007B05DF804FB00BFF0250300102C0020A0
:10929000F42D002000B589B0019002AB00221A60C5
:1092A0005A609A60019BDB6802930DF1160202ABD3
:1092B00011461846FFF750FE0346002B12D0039BC1
:1092C0000693069B9A88019BDA80069B1A88019B6D
:1092D0001A81039BBDF8162011461846FFF7AEFF12
:1092E000079002E048F209630793079B184609B00C
:1092F0005DF804FB00B587B00190019B981D02AAA0
:109300000D4B0021FFF782FE0590059B002B08D135
:10931000039B094A928811461846FFF78FFF059074
:1093200004E008220021044808F0C1FE059B18460D
:1093300007B05DF804FB00BF342E002000B587B0F5
:1093400003900291039B01229A75029B0C331846ED
:10935000039B1A69039BDB889B0000210091014657
:10936000074801F07FFC0590059B002B01D10023ED
:1093700001E048F20D63184607B05DF804FB00BF3A
:10938000102C002082B0184B1B8901339AB2164B67
:109390001A81154B00225A80134B00221A730023A6
:1093A000ADF8063018E0BDF80620104913469B00C2
:1093B00013449B000B441A78BDF80630002A0CBFFA
:1093C00001220022D1B2084A13440A469A72BDF81B
:1093D00006300133ADF80630BDF80630012BE2D976
:1093E00000BF00BF02B07047242E0020F42D0020E3
:1093F00084B0019000238DF80F300023ADF80C30BD
:1094000031E0BDF80C301C4A13449B7A002B25D068
:10941000BDF80C30184A134400229A72BDF80C2093
:10942000164913469B0013449B000B440C331B68E6
:10943000002B13D1BDF80C20104913469B00134498
:109440009B000B4410331B78002B07D0019BBDF809
:109450000C201A8001238DF80F3008E0BDF80C3085
:109460000133ADF80C30BDF80C30012BC9D99DF893
:109470000F30184604B07047242E0020F42D002031
:1094800008B5084B05221A70074B02229A80064B3A
:109490001B68194600230122044801F0C5FC03465D
:1094A000184608BD242E00201C2E0020102C002061
:1094B00000B583B0164B5B88ADF80230BDF80220D2
:1094C000144913469B0013449B000B440C331B6848
:1094D000002B14D10E4B04221A70BDF802200D4946
:1094E00013469B0013449B000B4404331B6819462E
:1094F00000230122084801F097FC019002E0FFF7E9
:10950000BFFF0190019B184603B05DF804FB00BF4C
:10951000242E0020F42D0020102C002000B587B050
:10952000104B5B680593104B1A680F4B9B889B0090
:1095300013440493059B5B880333ADF80E30094B4D
:1095400003221A700499074B5A68BDF80E309B002D
:1095500000200090054801F085FB0346184607B03F
:109560005DF804FB242E00201C2E0020102C00206F
:1095700000B583B00A4B5B880A491846FFF798FC90
:109580000346002B03D0FFF7C9FF019002E0FFF76D
:109590008FFF0190019B184603B05DF804FB00BFEC
:1095A000242E0020282E002008B50A4B06221A700F
:1095B000084B5B881946084A0B469B000B449B00EE
:1095C000134404331B681846FFF75EFC0346184635
:1095D00008BD00BF242E0020F42D002008B5054B47
:1095E00007221A70034B00225A60FFF735FC03462E
:1095F000184608BD242E002008B50D48FFF7F8FED8
:10960000034683F00103DBB2002B0BD0094B002291
:109610001A70084B00225A80064B00225A6041F60D
:109620001D5302E0FFF7A4FF0346184608BD00BF24
:10963000262E0020242E002082B0094B5B68019367
:10964000019B5B880333ADF80230064B9A88BDF866
:10965000023013449AB2034B9A8000BF02B07047A5
:10966000242E00201C2E002082B01E4B1B6801936C
:109670001D4B5B8819461D4A0B469B000B449B0003
:10968000134404331B68174A1360174B5B88194651
:10969000164A0B469B000B449B0013440433019A6B
:1096A0001A60114B5B8819460E4B98880F4A0B467F
:1096B0009B000B449B001344083302461A80094B5D
:1096C00002229A80084B5B881946084A0B469B0089
:1096D0000B449B001344103300221A7000BF02B0E9
:1096E000704700BF1C2E0020242E0020F42D0020E7
:1096F00008B51A4B1B78072B2CD801A252F823F07F
:109700002197020055970200559702002D970200FD
:109710003997020045970200459702004D970200D5
:10972000FFF730FE0D4B01221A7014E0FFF784FFA3
:109730000A4B02221A700EE0FFF796FF074B062233
:109740001A7008E0054B07221A7004E0034B01224F
:109750001A7000E000BF00BF08BD00BF242E00202B
:1097600000B587B00190009148F20E630593019B0C
:10977000002B05D0634B00225A604FF40643BCE037
:10978000009B1B79032B00F2AB8001A252F823F05F
:10979000A1970200AF9702003D9802005D98020079
:1097A000009B01221A71FFF757FB05909BE00023F5
:1097B0008DF813300023ADF810302BE0BDF81020E9
:1097C000514913469B0013449B000B441B78022B0A
:1097D0001BD1BDF810204C4913469B0013449B003D
:1097E0000B4400221A7001238DF81330BDF81020AD
:1097F000454913469B0013449B000B4404331B68EC
:109800001846FFF741FB059008E0BDF81030013322
:10981000ADF81030BDF81030012BCFD99DF81330C2
:1098200083F00103DBB2002B5CD0364B01221A70AF
:10983000344B00225A6041F61D535EE0009B00222B
:109840001A71324B02229A80304B1B681946002352
:1098500001222F4801F0E8FA059044E0009B002225
:109860001A712A4B1B681846FFF70EFB0590294B0F
:109870005B88ADF80E30254B1B680293BDF80E20B7
:10988000214913469B0013449B000B4404331B687F
:109890001E4A1360BDF80E201B4913469B0013445B
:1098A0009B000B440433029A1A60BDF80E20174B3C
:1098B0009888154913469B0013449B000B440833BA
:1098C00002461A80114B02229A80BDF80E200E49E2
:1098D00013469B0013449B000B4400221A7002E0C5
:1098E00000BF00E000BF059B002B05D0054B002208
:1098F0005A6048F20D6300E00023184607B05DF897
:1099000004FB00BFC82D0020F42D00201C2E0020D9
:10991000102C0020242E002000B587B0019000916B
:10992000009B9B8A1A4613469B0013449B003B4AAC
:1099300013440493019B002B06D000990498FFF771
:109940006DFA4FF4064364E0049B5A68049B1B893C
:109950009B0013440393009B9B7D062B4DD801A2D3
:1099600052F823F0A9990200CD990200B59902009E
:10997000C199020081990200D9990200F39902006D
:10998000274B00225A60009B9B69254A136025499A
:109990002348FFF7E1FA034683F00103DBB2002B13
:1099A00002D048F2096334E003990098FFF7D8FB2E
:1099B000059026E003990098FFF7F0FB059020E062
:1099C00003990098FFF7BAFC05901AE003990098F4
:1099D000FFF70CFC059014E0009B06229A75104BD3
:1099E0005B68104A128811461846FFF727FC05905D
:1099F00007E041F61D53059303E048F20E6305931B
:109A000000BF059B002B03D000990498FFF706FACE
:109A1000059B184607B05DF804FB00BFF42D00203D
:109A20003C2E0020482E002000B585B0019000910A
:109A3000019B002B02D04FF4064329E0009B1B79C9
:109A4000022B1BD0022B1DDC002B02D0012B08D0D7
:109A500018E0009B02221A710098FFF71BFC03908C
:109A600015E00098FFF746FC0390039B48F209625B
:109A700093420BD141F61D53039307E041F61D536A
:109A8000039304E048F20E63039300E000BF039BDE
:109A9000184605B05DF804FB00B585B00190019B48
:109AA000002B02D04FF406433DE0214B1B7B002BE3
:109AB00003D01F4B00221A7301E0FFF719FE1C4B65
:109AC0001B78013B062B29D801A252F823F000BFD6
:109AD000ED9A0200F59A0200FD9A0200059B020031
:109AE0001D9B02000D9B0200159B0200FFF784FDE9
:109AF000039017E0FFF73CFD039013E0FFF70EFD26
:109B000003900FE0FFF7D4FC03900BE0FFF74CFD50
:109B1000039007E0FFF762FD039003E048F20E6355
:109B2000039300BF039B184605B05DF804FB00BF1C
:109B3000242E002000B589B00190404B1B68002BFB
:109B400005D13F48FFF7D4FA03463C4A13603B4B2C
:109B50001B68002B04D13B4940F29E5000F032FAC2
:109B6000364B1B681B78013B052B2CD801A252F801
:109B700023F000BF8D9B02009D9B02009D9B020075
:109B8000AD9B0200AD9B0200BD9B02002B4B1B68EE
:109B900019460198FFF7E4FD019018E0274B1B6878
:109BA00019460198FFF7B8FE019010E0234B1B689F
:109BB00019460198FFF738FF019008E00198FFF778
:109BC0006BFF019003E048F20E63019300BF019B1D
:109BD000002B2BD003AB00221A605A609A60DA6027
:109BE0001A61019B41F61D52934201D0019B00E096
:109BF00000230493114B1B6803AA11461846FEF775
:109C0000F9FF03AB1846FEF7D5FF0C4B00221A6094
:109C1000002301930A48FFF77BFAFFF787FA034610
:109C200083F00103DBB2002B02D186E700BF00E026
:109C300000BF00BF09B05DF804FB00BF4C2E002040
:109C4000502E00206025030000B583B00190019BD9
:109C50005B681846FFF76EFF00BF03B05DF804FBBA
:109C600086B0039002910192039B5B090593059BCB
:109C70005B01039AD31A0493029B059A1A60019B15
:109C8000049A1A6000BF06B07047000084B00190CB
:109C90000091002303931FE0019B002B10D0124A78
:109CA000039B52F82330019A9A4209D80F4A039B2A
:109CB00052F823200E49039B51F823309A4206D1D3
:109CC0000A4A039B52F82330009A9A4201D2039B1E
:109CD00006E0039B01330393039B062BDCD900238F
:109CE000184604B0704700BF7C260300B42603006A
:109CF0009826030000B585B0019002AA03AB19466F
:109D00000198FFF7ADFF039B074A52F82310029B0F
:109D100001229A40039B0A43034941F8232000BFD4
:109D200005B05DF804FB00BF5430002000B585B0DD
:109D3000019001990020FFF7A9FF0390034A039BBC
:109D400052F82330184605B05DF804FB7C2603006A
:109D500000B585B0019002AA03AB19460198FFF740
:109D60007FFF039B084A52F82320029B22FA03F349
:109D700003F00103002B14BF01230023DBB21846BC
:109D800005B05DF804FB00BF5430002000B585B07D
:109D9000019002AA03AB19460198FFF761FF039BEC
:109DA000084A52F82310029B012202FA03F3DA4315
:109DB000039B0A40034941F8232000BF05B05DF82A
:109DC00004FB00BF5430002000B583B00023019392
:109DD0000023019305E00198FFF78CFF019B0133FD
:109DE0000193019B0F2BF6D9034B01221A7000231C
:109DF000184603B05DF804FB5830002000B58BB066
:109E000003900291384B1B7883F00103DBB2002BE7
:109E100002D048F2081362E0039B002B02D148F203
:109E20000E135CE0029B002B02D148F20E1356E0A9
:109E3000029B1B680593059B002B02D0059B202BE2
:109E400002D948F207134AE010210598FFF71EFFD8
:109E50000490264A049B52F823300993244A049B19
:109E600052F82330079348F2041308931EE0099830
:109E7000FFF75CFF06900998FFF76AFF0346002B87
:109E80000DD0002308930998FFF780FF079B194A1C
:109E90001A44039B1A60029B069A1A6009E0079A0B
:109EA000069B13440793099B01330993099B0F2BCE
:109EB000DDD9089B002B11D00F4A104BD31ADB08B9
:109EC0001B0443F00100039B1B681A46029B1B689E
:109ED00000931346089A0A4905F0F7F8089B1846BC
:109EE0000BB05DF804FB00BF58300020982603003B
:109EF000D0260300542E00203C220300E42103005E
:109F00000026030000B587B0019000230493019B55
:109F1000039303AA04AB11461846FFF76FFF0590A1
:109F2000059B002B0DD0094A094BD31ADB081B04F3
:109F300043F00103019A0749184605F0A1F80023F0
:109F40000493049B184607B05DF804FB3C22030011
:109F5000E42103003C26030000B585B00190174BB7
:109F60001B7883F00103DBB2002B20D1019B002B77
:109F70001FD0002303930023029314E0039B104A95
:109F80001344019A9A4204D10298FFF7B3FE00BF2E
:109F900010E00298FFF7CAFE0246039B13440393A6
:109FA000029B01330293029B0F2BE7D902E000BF13
:109FB00000E000BF05B05DF804FB00BF5830002092
:109FC000542E002000B585B003460091ADF8063050
:109FD000BDF806300293009B039302AB1A460021A2
:109FE00044F20200FEF714FB00BF05B05DF804FB6D
:109FF00086B001900091019B53E8011F8AB2D88975
:10A0000002449889824228BF121A1889824202BFEC
:10A01000BFF32F8F002307E0C2EA010243E80120CB
:10A020000028E9D14FF001038DF80F30059002911F
:10A030000492029A009B1A609DF80F30DBB218461A
:10A0400006B0704784B00190019951E8013FC3EA1E
:10A05000034341E80132002AF7D10392029300BF83
:10A0600004B0704786B001900091019B53E8021F35
:10A070001FFAA1F2D888824202BFBFF32F8F0023BC
:10A080000DE0D88902449889824228BF121AC1EA99
:10A09000024243E802200028E8D14FF001038DF886
:10A0A0000F30059002910492029A009B1A609DF86D
:10A0B0000F30DBB2184606B0704784B001900199AA
:10A0C00051E8023FC3EA234341E80232002AF7D1B4
:10A0D0000392029300BF04B0704700B585B00190B1
:10A0E0000091009B19460198FFF782FF0346002B61
:10A0F00007D0019B1B68009A128813440393039BAB
:10A1000000E00023184605B05DF804FB00B583B0FD
:10A1100001900091009B1A88009B5B889A4204D1B1
:10A120000198FFF78FFF012300E00023184603B0DA
:10A130005DF804FB00B585B001900091009B1946C5
:10A140000198FFF78FFF0346002B07D0019B1B6888
:10A15000009A528813440393039B00E0002318469F
:10A1600005B05DF804FB00B583B001900091009B41
:10A170001A88009B5B889A4204D10198FFF79DFFE3
:10A18000012300E00023184603B05DF804FB10B47F
:10A1900087B001900091019B009A53E8004F104650
:10A1A00043E8000191F0000FF7D10594049003916A
:10A1B000059B184607B05DF8044B704710B487B094
:10A1C00001900091019B009A53E8004F44EA02007D
:10A1D00043E8000191F0000FF6D10594049003913B
:10A1E000049B184607B05DF8044B704710B487B065
:10A1F00001900091019B009A53E8004F04EA02008D
:10A2000043E8000191F0000FF6D10594049003910A
:10A21000059B184607B05DF8044B704710B487B033
:10A2200001900091019B009A53E8004F04EB02005B
:10A2300043E8000191F0000FF6D1059404900391DA
:10A24000049B184607B05DF8044B704710B487B004
:10A2500001900091019B009A53E8004FA4EB02008B
:10A2600043E8000191F0000FF6D1059404900391AA
:10A27000049B184607B05DF8044B704700B583B0E7
:10A28000019001210198FFF799FF0346184603B09A
:10A290005DF804FB00B583B0019000210198FFF741
:10A2A000A5FF0346184603B05DF804FB00B583B074
:10A2B00001900B468DF80330019B002B03D1084918
:10A2C000E820FFF77FFE019BDA689DF803300199D3
:10A2D000098A01FB03F31344184603B05DF804FB3D
:10A2E000EC26030000B583B001900091019B002B88
:10A2F00003D10849F520FFF765FE009B019AD2685B
:10A300009B1A019A128AB3FBF2F3DBB2184603B030
:10A310005DF804FBEC26030000B585B00190019BBD
:10A32000002B01D10E234CE0019B1B68002B03D1B5
:10A330002649FF20FFF746FE019B5B68002B04D1F6
:10A3400022494FF48070FFF73DFE019B9B68002B74
:10A3500004D11E4940F20110FFF734FE019BDB6877
:10A36000002B04D119494FF48170FFF72BFE019B9C
:10A370001B8A002B04D1154940F20310FFF722FE7F
:10A38000019B9A68019B5B68D31A8DF80F30019B83
:10A390001B68019A52681A6007E0019B1A681368EB
:10A3A000591C11609DF80F201A709DF80F305A1E2D
:10A3B0008DF80F20002BF0D1019B1B6800221A7131
:10A3C0000023184605B05DF804FB00BFEC2603002F
:10A3D00000B585B00190019B002B04D11F494FF4BB
:10A3E0009270FFF7EFFD0023039300238DF80A30EE
:10A3F0000DF10A031846FEF735FB019B1B681A682E
:10A40000019B5B689A421FD9019B1B681A68013A3D
:10A410001A601B681B7819460198FFF747FF0390E5
:10A42000019B9A68019B1B681B68D31A8DF80B303F
:10A43000019B1B681B799DF80B209A4204D9019B54
:10A440001B689DF80B201A719DF80A301846FEF71C
:10A450001FFB039B184605B05DF804FBEC260300C8
:10A4600010B584B001900091019B002B04D11549D7
:10A4700040F24710FFF7A6FD009B002B04D11149C5
:10A480004FF4A470FFF79EFD009B039300238DF80B
:10A490000B300DF10B031846FEF7E4FA019B1B6825
:10A4A0001C68621C1A6003990198FFF71BFF0346A2
:10A4B00023709DF80B301846FEF7EAFA00BF04B08F
:10A4C00010BD00BFEC26030000B583B00190019BD6
:10A4D000002B03D10C493120FFF774FD019B9B68D1
:10A4E000002B0CD0019B5B69019A1069019A1168DD
:10A4F000019A92689847019B00229A6000E000BF91
:10A5000003B05DF804FB00BF742703000EB400B570
:10A5100084B00190019B002B03D118494220FFF722
:10A5200051FD019B5B69002B03D114494320FFF7C8
:10A5300049FD019B1B68002B03D110494420FFF704
:10A5400041FD019B5B68002B03D10C494520FFF7BF
:10A5500039FD059B002B0AD00023039306AB039320
:10A5600003AB1A460599019800F0B8F900E000BF66
:10A5700004B05DF804EB03B0704700BF742703001C
:10A5800000B583B001900B468DF803309DF8033081
:10A590000A2B03D10D210198FFF7F2FF019B1A68E6
:10A5A000019B9B68581C0199886013449DF8032007
:10A5B0001A70019B9A68019B5B689A4202D30198CA
:10A5C000FFF782FF00BF03B05DF804FB00B587B062
:10A5D000039002910192009300230593009B03F0E6
:10A5E0000103002B24D00BE0029B01330293059B57
:10A5F000013305939DF8133019460398FFF7C0FF08
:10A60000029B1B788DF813309DF81330002BEBD193
:10A6100006E0019B013B019320210398FFF7B0FF67
:10A62000019A059B9A422ED9019B002BF1D12AE079
:10A63000029B002B0BD0029807F06CFD059006E002
:10A64000019B013B019320210398FFF799FF019A99
:10A65000059B9A420FD9019B002BF1D10BE0029B85
:10A6600001330293059B013305939DF8133019467E
:10A670000398FFF785FF029B1B788DF813309DF838
:10A680001330002BEBD100BF07B05DF804FB0000D6
:10A6900000B589B00390029101920093029B079349
:10A6A0000123069307E0079A019BB2FBF3F307939C
:10A6B000069B01330693079A019B9A42F3D2009AB4
:10A6C000069B9A4201D9009B06930B9B03F0010362
:10A6D000002B22D10A9B002B1FD00B9B03F00203FF
:10A6E000002B06D0009B002B03D130238DF81730B0
:10A6F00002E020238DF8173008E00A9B013B0A9303
:10A700009DF8173019460398FFF73AFF0A9B002B74
:10A7100003D0069A0A9B9A42EFD301230793009B2A
:10A72000012B03D9009B013B009309E0029A079B90
:10A73000B2FBF3F30493049A019B9A4200D205E022
:10A74000079B019A02FB03F30793E8E7029A079B32
:10A75000B2FBF3F30493049B079A02FB03F3029A00
:10A76000D31A0293154A049B13441B781946039885
:10A77000FFF706FF079A019BB2FBF3F30793079BD2
:10A78000002BE3D10B9B03F00103002B11D00A9B9C
:10A79000002B0ED006E00A9B013B0A932021039870
:10A7A000FFF7EEFE0A9B002B03D0069A0A9B9A4203
:10A7B000F1D300BF09B05DF804FB00BF7C280300A3
:10A7C00000B589B00590049103920293049B002B7D
:10A7D000B8BF5B4206930123079307E0039B069AE9
:10A7E00092FBF3F30693079B01330793039B069AAF
:10A7F0009A42F3DA029A079B9A4201D9029B079385
:10A800000A9B002B0AD0049B002B04DB0B9B03F05C
:10A810000403002B02D00A9B013B0A930B9B03F01D
:10A820000203002B02D0029B002B16D00B9B03F0DF
:10A830000103002B11D10A9B002B0ED006E00A9BCE
:10A84000013B0A9320210598FFF79AFE0A9B002BF3
:10A8500003D0079A0A9B9A42F1D3049B002B07DA94
:10A86000049B5B4204932D210598FFF789FE08E0C5
:10A870000B9B03F00403002B03D02B210598FFF75B
:10A880007FFE0B9B03F00203002B19D00B9B03F000
:10A890000103002B14D1029B002B11D10A9B002B2A
:10A8A0000ED006E00A9B013B0A9330210598FFF782
:10A8B00067FE0A9B002B03D0079A0A9B9A42F1D3AA
:10A8C00004990B9B01930A9B0093029B039A0598A2
:10A8D000FFF7DEFE00BF09B05DF804FB00B58FB0E6
:10A8E000059004910392059B002B04D1AD4940F2E1
:10A8F0005220FFF767FB059B5B69002B04D1A94938
:10A900004FF41570FFF75EFB059B1B68002B04D10D
:10A91000A44940F25520FFF755FB059B5B68002BCF
:10A9200004D1A04940F25620FFF74CFB049B002BBA
:10A9300000F09381049B1B788DF83730049B013322
:10A9400004939DF83730002B00F07E819DF837305E
:10A95000252B40F06D8100230A9301230C93049B67
:10A960001B788DF837309DF83730302B0DD0302BD9
:10A970001BDC2B2B11D02D2B17D10A9B43F001038D
:10A980000A93049B0133049312E00A9B43F00203F1
:10A990000A93049B013304930AE00A9B43F00403E7
:10A9A0000A93049B0133049302E000230C9300BF3D
:10A9B0000C9B002BD3D1002309939DF837302A2B11
:10A9C0000CD1039B1B68191D039A11601B68099A1F
:10A9D00013440993049B013304931AE0049B1B78EE
:10A9E0008DF837309DF837302F2B12D99DF837303E
:10A9F000392B0ED8049B01330493099A13469B000C
:10AA000013445B001A469DF837301344303B0993DA
:10AA1000D3E700230B93049B1B788DF837309DF808
:10AA200037302E2B1DD1049B01330493049B1B78DC
:10AA30008DF837309DF837302F2B12D99DF83730ED
:10AA4000392B0ED8049B013304930B9A13469B00B9
:10AA500013445B001A469DF837301344303B0B9388
:10AA6000E4E7049B1B788DF837309DF837306C2B6A
:10AA700003D09DF83730682B07D1049B0133049332
:10AA8000049B1B788DF83730EFE79DF83730252B86
:10AA900000F0C480252BC0F2C680782B00F3C38061
:10AAA000582BC0F2C080583B202B00F2BC8001A282
:10AAB00052F823F0A9AB020027AC020027AC020039
:10AAC00027AC020027AC020027AC020027AC020032
:10AAD00027AC020027AC020027AC020027AC020022
:10AAE00039AB02005BAB020027AC020027AC0200CE
:10AAF00027AC020027AC02005BAB020027AC0200CF
:10AB000027AC020027AC020027AC020027AC0200F1
:10AB100027AC0200E9AB020027AC020027AC020020
:10AB2000CDAB020027AC02007FAB020027AC0200D5
:10AB300027AC0200A9AB0200039B1B68191D039AF6
:10AB400011601B680C930C9B8DF81F309DF81F3013
:10AB500019460598FFF714FD66E0039B1B68191D55
:10AB6000039A11601B680C930A9B0193099B009345
:10AB70000B9B0A220C990598FFF722FE54E0039BD9
:10AB80001B68191D039A11601B680C930C990A9B92
:10AB90000193099B00930B9B0A220598FFF778FD10
:10ABA00042E000BFF4270300039B1B68191D039AB2
:10ABB00011601B680C930C990A9B0193099B0093ED
:10ABC0000B9B10220598FFF763FD2DE0039B1B688C
:10ABD000191D039A11601B6808930A9B099A08992A
:10ABE0000598FFF7F3FC1FE0039B1B68191D039AF0
:10ABF00011601B680C9330210598FFF7C1FC782188
:10AC00000598FFF7BDFC0C990023019308230093DE
:10AC1000082310220598FFF73BFD05E02521059844
:10AC2000FFF7AEFC00E000BF049B0133049305E096
:10AC30009DF8373019460598FFF7A2FC049B1B7856
:10AC4000002B7FF477AE00E000BF059B1B7B002B41
:10AC500004D00598FFF738FC00E000BF0FB05DF8A6
:10AC600004FB00BF10B586B00590049103920293D7
:10AC7000059B002B10D1604A604BD31ADB081B04E4
:10AC800043F001005E4A5F490E2300930B465E4984
:10AC900004F01BFA0E23ABE0039B002B10D1564AA5
:10ACA000564BD31ADB081B0443F00100574A5549A1
:10ACB0000E2300930B46544904F007FA0E2397E045
:10ACC000059B1B68002B10D14B4A4C4BD31ADB0859
:10ACD0001B0443F001004E4A4A49082300930B46E7
:10ACE000494904F0F2F9082382E0029B002B10D1BD
:10ACF000414A424BD31ADB081B0443F00100454A8A
:10AD00004049092300930B463F4904F0DEF909232B
:10AD10006EE0059B5B685A68029BB3FBF2F101FB96
:10AD200002F29B1A002B10D0334A344BD31ADB08A3
:10AD30001B0443F00100384A3249092300930B46B3
:10AD4000314904F0C2F9092352E0049800F01EF9D9
:10AD50000346002B10D1284A284BD31ADB081B04CA
:10AD600043F001002D4A2749102300930B46264942
:10AD700004F0ABF910233BE0039B184600F006F902
:10AD80000346002B10D11C4A1C4BD31ADB081B04B2
:10AD900043F00100224A1B49102300930B461A4935
:10ADA00004F093F9102323E0029A0499059800F027
:10ADB000D3F80346002B10D10F4A104BD31ADB08EF
:10ADC0001B0443F00100174A0E49102300930B4661
:10ADD0000D4904F07AF910230AE0059B1B68DC6832
:10ADE000089B0093029B039A04990598A047034689
:10ADF000184606B010BD00BF44220300E421030042
:10AE00009C280300402A0300A428030030290300E3
:10AE1000D8280300EC280300382903006429030024
:10AE20007C290300A029030010B586B00590049189
:10AE300003920293059B002B10D13E4A3E4BD31A3E
:10AE4000DB081B0443F001003C4A3D490E230093FC
:10AE50000B463C4904F039F90E2368E0059B1B685A
:10AE6000002B10D1334A344BD31ADB081B0443F0B8
:10AE70000100354A3249082300930B46314904F05A
:10AE800024F9082353E0039B002B10D1294A2A4BB5
:10AE9000D31ADB081B0443F001002C4A284909237C
:10AEA00000930B46274904F010F909233FE0049969
:10AEB000059800F078F80346002B10D11D4A1E4B70
:10AEC000D31ADB081B0443F00100214A1C4910235C
:10AED00000930B461B4904F0F8F8102327E0059B6C
:10AEE0005B681B68039A02FB03F31A4604990598F2
:10AEF00000F032F80346002B10D10E4A0E4BD31A45
:10AF0000DB081B0443F00100124A0D491023009393
:10AF10000B460C4904F0D9F8102308E0059B1B6888
:10AF20001C69029B039A04990598A047034618469A
:10AF300006B010BD44220300E42103009C28030056
:10AF4000542A0300A4280300D8280300EC28030097
:10AF5000C8290300F029030084B0039002910192F4
:10AF6000039BDB68029A9A4209D3029A019B13441D
:10AF70005A1E039B1B699A4201D8012300E000235B
:10AF800003F00103DBB2184604B0704782B00190B1
:10AF9000019B03F00303002B0CBF01230023DBB252
:10AFA000184602B0704782B001900091019B5B6827
:10AFB0001B685A1E009B1340002B0CBF012300236B
:10AFC000DBB2184602B0704729DF704700BF184651
:10AFD00028DF704700BF184600B589B00190009186
:10AFE000019B1B689B68002B35D002AB00221A60C6
:10AFF0005A609A60DA601A615A61009B0393019B60
:10B000009B680793019B1B79002B02D0012B0DD06D
:10B010001AE001238DF80830019B1B690493019B02
:10B02000DB680593019B5B6906930DE002238DF8B5
:10B030000830019BDB684FF4805202FB03F304935A
:10B04000019B5B69069300BF019B1B689B6802AA7A
:10B050001046984700E000BF09B05DF804FB00B55A
:10B0600087B00190019B5A69019B9B69D31AB3F584
:10B07000805F28BF4FF4805305930422059BB3FBE8
:10B08000F2F3012B38BF01230593019B1A69019B41
:10B090009B6913440493019BDB681A46019B9B69DF
:10B0A00013440393059A03990498FFF78DFF034611
:10B0B000184607B05DF804FB00B583B00190019B12
:10B0C000DA68019B1B6913441846FFF781FF0346AA
:10B0D000184603B05DF804FB08B5034B0349184656
:10B0E000FFF741F800BF08BD5C300020843000202D
:10B0F00008B5084B08491846FFF71CF80346074AED
:10B100001360064B1B68002B14BF01230023DBB226
:10B11000184608BD5C3000208430002080300020BC
:10B1200000B583B02A4B1B7A002B0BD1FFF7E0FF51
:10B13000034683F00103DBB2002B03D0244B002233
:10B140005A6042E0224B02221A72224B1B681B7982
:10B15000002B02D0012B07D00DE01E4B1B681846B8
:10B16000FFF77DFF019009E01A4B1B681846FFF7B7
:10B17000A3FF019002E00323019300BF019B002B7A
:10B1800003D0019B112B0CD00FE0114B1B7C83F0E3
:10B190000103DBB2002B17D00021022000F06EF873
:10B1A00012E00B4B01221A720FE00A4B1B680321BD
:10B1B0001846FFF711FF064B00221A72044B0022BB
:10B1C0005A60FFF789FF00E000BF03B05DF804FBA1
:10B1D0006C3000208030002084B001901B4B002296
:10B1E000DA60019B1B79002B02D0012B19D028E0DB
:10B1F000019B5A69019B9B69D31AB3F5805F28BFF5
:10B200004FF480530393019B9A69039B1A44019B5B
:10B210009A61019B9A69019B5B699A420ED1012355
:10B2200010E0019B1B695A1C019B1A61019B1A6962
:10B23000019B5B699A4203D1012303E000BF00E058
:10B2400000BF0023184604B0704700BF6C300020D8
:10B2500082B00190084BDB680133074AD360064B8C
:10B26000DB68082B04D9044B0022DA60012300E0DC
:10B270000023184602B070476C30002000B585B03E
:10B2800001900091019B022B02D0019B032B48D11E
:10B29000274B1B7A022B05D0022B35DC002B42D02A
:10B2A000012B31E000238DF80F30019B022B03D0DE
:10B2B000019B032B09D011E01E4B1B681846FFF7BA
:10B2C0008BFF03468DF80F3008E01A4B1B681846B9
:10B2D000FFF7BEFF03468DF80F3000BF9DF80F301B
:10B2E000002B10D0124B00221A72124B1A68019BCD
:10B2F000022B01D1002300E00D2319461046FFF771
:10B300006BFEFFF7E9FE00BF094B5B7C83F0010396
:10B31000DBB2002B02D0FFF703FF05E006F0D2FC02
:10B3200002E000BF00E000BF05B05DF804FB00BF15
:10B330006C3000208030002082B0034600918DF8F0
:10B340000730064B01225A74044B1B7A002B0CBFAA
:10B3500001230023DBB2184602B070476C30002096
:10B3600000B583B0034600918DF807309DF8073093
:10B37000012B03D09DF80730032B0DD1084B002281
:10B380005A749DF80730012B0CBF01230023DAB259
:10B39000034B1A74FFF7C4FE00BF03B05DF804FB53
:10B3A0006C30002000B583B001900198FEF7B4FF27
:10B3B0000346184603B05DF804FB00B58BB001905E
:10B3C0000091019B1B8A043B0793009A079B13443F
:10B3D000DA1C079BB2FBF3F38DF81B300198FEF7E4
:10B3E000F7FF0590059B002B01D1002338E0059B5A
:10B3F00000221A71059B01225A71079B9AB2059B84
:10B40000DA80059B09939DF81B30013B0493099B4F
:10B41000019A1A60002308931DE00198FEF7D8FFF7
:10B420000390039B002B0ED0059B5B790133DAB2AE
:10B43000059B5A71099B039A1A60039B019A1A6033
:10B44000039B099304E0059800F00EF8002307E041
:10B45000089B01330893089A049B9A42DDD3059B0D
:10B4600018460BB05DF804FB00B58BB00190019B52
:10B470000793079B5B798DF81B30019B08939DF820
:10B480001B30013B05930023099305E0089B1B68D3
:10B490000893099B01330993099A059B9A42F5D3B6
:10B4A000089B1B680493019B0893002309930BE0FE
:10B4B000089B1B68039308990498FEF7D1FF039B30
:10B4C0000893099B013309939DF81B30099A9A420E
:10B4D000EED300BF00BF0BB05DF804FB00B585B034
:10B4E0000190019B0393039B043301211846FEF74F
:10B4F00095FE00BF05B05DF804FB00B587B0019074
:10B50000019B0593059B043301211846FEF79EFE1F
:10B510000346039303AB0493049B1B78002B02D1D7
:10B520000198FFF7A1FF00BF07B05DF804FB000022
:10B5300000B591B00390029101920093039B002B00
:10B5400003D14349B620FEF73DFD039B0993039BBE
:10B550000F93099BDB881A46099B5B7902FB03F377
:10B56000043B0893009A089B9A4203D33849C420AD
:10B57000FEF728FD099BDB880793009B1A1D079B9C
:10B58000B2FBF3F30E93009B0433079AB3FBF2F282
:10B59000079901FB02F29B1A0D93019B1A68009B0D
:10B5A0001344089A9A4203D2089A009BD31A01E0E6
:10B5B000019B1B680C93019B0C9A1A6005E00F9B82
:10B5C0001B680F930E9B013B0E930E9B002BF6D135
:10B5D00000230B93079A0D9BD31A0A930A9A0C9B8C
:10B5E000934228BF13460A932AE0029A0B9B134406
:10B5F00006930F9A0D9B1344043305939DF848302E
:10B60000002B05D00A9A0599069806F027FD04E05C
:10B610000A9A0699059806F021FD00230D930F9BC9
:10B620001B680F930C9A0A9BD31A0C930B9A0A9BD4
:10B6300013440B93079A0C9B934228BF13460A931B
:10B640000C9B002BD1D100BF00BF11B05DF804FBF3
:10B65000682A030000B589B0059004910392029313
:10B66000039B079307AA00230093029B0499059864
:10B67000FFF75EFF079B039A9A4203D00349F62027
:10B68000FEF7A0FC00BF09B05DF804FB682A0300C8
:10B6900000B589B00590049103920293039B079330
:10B6A00007AA01230093029B04990598FFF740FF26
:10B6B000079B039A9A4204D004494FF48070FEF726
:10B6C00081FC00BF09B05DF804FB00BF682A0300DD
:10B6D00082B003468DF807309DF90730002B0DDB53
:10B6E0009DF8073003F01F0206499DF907305B09FA
:10B6F000012000FA02F2603341F8232000BF02B0BB
:10B70000704700BF00E100E0BFF34F8F00BF064B62
:10B71000DB6803F4E0620449044B1343CB60BFF3DE
:10B720004F8F00BF00BFFDE700ED00E00400FA0509
:10B7300000B583B00190019B002B03D10449C420C4
:10B74000FEF740FC019B5B68184603B05DF804FB04
:10B75000F02A030000B585B00190019B002B03D1B6
:10B760000A498520FEF72EFC01210198FEF70FFD06
:10B770000390BFF35F8F00BF039B002B0CBF01231F
:10B780000023DBB2184605B05DF804FB382B03003C
:10B7900000B583B00190019B002B03D10A49922090
:10B7A000FEF710FC019B1B68012B03D00649932078
:10B7B000FEF708FCBFF35F8F00BF019B00221A60F9
:10B7C00000BF03B05DF804FB382B030033DF704784
:10B7D00000BF184641DF704700BF18464FF0804356
:10B7E0000122C3F80025BFF34F8F00BF20BFFDE744
:10B7F00000B585B000238DF807300DF1070318461A
:10B80000FDF730F9F1EE103A0393039B23F09F0309
:10B810000293029BE1EE103A00BFBFF35F8F00BFBF
:10B820002620FFF755FF9DF807301846FDF730F941
:10B83000039B03F00703002B03D004497D20FEF790
:10B84000C1FB00BF05B05DF804FB00BF702B030017
:10B8500000B587B0FFF7CCFF00238DF807300DF15E
:10B8600007031846FDF7FEF8FDF77EF8059006F091
:10B8700045FA0346002B0ED0FFF7ACFF0490049B63
:10B88000002B0BD0049B022B08D0104940F2611012
:10B89000FEF798FB02E020BF40BF20BFFDF764F831
:10B8A000039005990398FDF753F80290084B1A6826
:10B8B000029B1344064A13609DF807301846FDF7B3
:10B8C000E7F800BF07B05DF804FB00BF702B030072
:10B8D0009C30002000B583B0414A424BD31ADB08AC
:10B8E0001B0443F00303404A12784049184603F012
:10B8F000C7FB2BE03E48FFF71BFF0090009B1B6837
:10B90000394A1278104698470346002B0DD0344A26
:10B91000344BD31ADB081B0443F00300009B1B6865
:10B920001A46344903F0ACFB0DE02D4A2D4BD31AD7
:10B93000DB081B0443F00300009B1B681A462E49DA
:10B9400003F09EFB49E02A4800F01AFA2848FFF766
:10B95000EFFE0346002BCDD1214A224BD31ADB0840
:10B960001B0443F00303254A12782549184603F0C7
:10B9700087FB1B4A1B4BD31ADB081B0443F0030352
:10B980002049184603F06EFB03F020FE00BF03F0D1
:10B99000DBFB0346002BFAD1134B1B78032B03D0A0
:10B9A000114B1B78022B01D1FFF7AEFE06F0A6F972
:10B9B0000346002B0FD0FFF709FF0190019B002BDE
:10B9C00007D0019B022B04D00F4940F2A310FEF7D1
:10B9D000F9FA20BFFDE7FFF701FF03B05DF804FBB4
:10B9E00064220300E421030088300020142C0300AB
:10B9F00094300020302C0300502C0300A030002095
:10BA0000742C03008C2C0300702B030000B583B052
:10BA100003468DF807301E48FFF79CFE034683F06F
:10BA20000103DBB2002B2ED19DF80730042B0ED082
:10BA3000184B1B78002B03D01548FFF7A9FE23E015
:10BA4000154A9DF807301370124B01221A70114BE2
:10BA50001B78002B04D111494FF4EB70FEF7B2FABA
:10BA60000F4A104BD31ADB081B0443F003039DF865
:10BA700007200D49184603F003FBFFF72BFF04488E
:10BA8000FFF786FE00E000BF03B05DF804FB00BFD7
:10BA90008C3000209030002088300020702B030074
:10BAA00064220300E4210300A02C030082B0019073
:10BAB000019B9B68024A12781344184602B07047F3
:10BAC0003A2D030000B583B001900091019B002B3B
:10BAD00003D108498320FEF775FA019B9B68009A01
:10BAE0009A4202D2009B013300E00023184603B0C3
:10BAF0005DF804FBB42C030000B585B00190019BF8
:10BB00001B681B680393019B1B685B680293029A86
:10BB1000039B9A4203D3029A039BD31A07E001982E
:10BB2000FFF7C4FF0246039BD21A029B1344184638
:10BB300005B05DF804FB000000B585B00190019BE5
:10BB4000002B03D10D499820FEF73CFA019B1B689E
:10BB50001B680393019B1B685B6802930299019821
:10BB6000FFF7B0FF0246039B93420CBF0123002363
:10BB7000DBB2184605B05DF804FB00BFB42C03002F
:10BB800010B588B00190009100230793019B002B12
:10BB900003D15649A320FEF715FA009B002B03D1D1
:10BBA0005249A420FEF70EFA00238DF80F300DF154
:10BBB0000F031846FCF756FF0198FFF7BDFF034639
:10BBC0008DF81B309DF81B3083F00103DBB2002B96
:10BBD00003D1019B1B7C002B7BD1019B1B685B6805
:10BBE0000593019B1B685A68019B1C6811460198CC
:10BBF000FFF768FF034663609DF81B30002B0AD0F7
:10BC0000019B1B681A68019B1C6811460198FFF78D
:10BC100059FF03462360019BDB68013B072B38D8A3
:10BC200001A252F823F000BF49BC020059BC020037
:10BC300093BC02006BBC020093BC020093BC0200E8
:10BC400093BC02007DBC0200019B5A68059B134413
:10BC5000009A12781A702DE0019B5A68059B5B00D0
:10BC60001344009A12881A8024E0019B5A68059BAD
:10BC70009B001344009A12681A601BE0019B5A68EB
:10BC8000059BDB00D118009BD3E90023C1E9002309
:10BC900010E0019B5B681946019BDB68059A02FB7B
:10BCA00003F30B441846019BDB681A46009906F023
:10BCB000D5F900BF0198FFF71FFF0490019B1B6897
:10BCC0009B68049A9A4207D9019B1B68049A9A6060
:10BCD00002E00423079300E000BF9DF80F301846F0
:10BCE000FCF7D6FE079B184608B010BDB42C030025
:10BCF00082B00190019B9B6800229A60019B9B6827
:10BD000000221A61019B9B6800225A61019B9B687B
:10BD10000022DA60019B9B6800225A60019B9B68AD
:10BD200000221A6000BF02B07047000000B583B067
:10BD300001900091019B002B03D110495020FEF788
:10BD400041F9009B002B03D10C495120FEF73AF931
:10BD5000019B009A1A60019B1B681A68019B5A603C
:10BD6000019B5A68019B1B685B689A4202D1019B48
:10BD700000225A6000BF03B05DF804FB3C2D0300B5
:10BD800000B583B00190019B002B03D114496320BF
:10BD9000FEF718F9019B1B68002B03D110496420A2
:10BDA000FEF710F9019B5B68002B14D0019B5B68C8
:10BDB0001A46019B1B689B6813441A46019B5A60F4
:10BDC000019B5A68019B1B685B689A4204D1019BE6
:10BDD00000225A6000E000BF03B05DF804FB00BF22
:10BDE0003C2D030000B585B00190019800F00EF8DD
:10BDF0000390039B002B01D0039B00E0024B1846ED
:10BE000005B05DF804FB00BF782E030086B00190FA
:10BE1000164B0593164B04931FE0049A059BD31A07
:10BE2000DB10DA0F13445B10DB00059A1344039315
:10BE3000039B1B680293029A019B9A4202D9039BBF
:10BE400004930AE0029A019B9A4203D2039B0833AF
:10BE5000059302E0039B5B6804E0059A049B9A4209
:10BE6000DBD30023184606B0704700BF78320300CA
:10BE7000A033030082B003468DF807309DF90730E8
:10BE8000002B13DB9DF8073003F01F0209499DF9D1
:10BE900007305B09012000FA02F2203341F8232029
:10BEA000BFF34F8F00BFBFF36F8F00BF00BF02B063
:10BEB000704700BF00E100E0044BD3F80034002BD2
:10BEC00014BF01230023DBB2184670470000014075
:10BED00008B505F013FF034683F00103DBB2002B26
:10BEE00003D109497B20FEF76DF8FFF7E5FF034614
:10BEF00083F00103DBB2002B04D000F005FB034B01
:10BF000000229A7000BF08BDA8330300A4300020AF
:10BF100000B583B000230193184B1B78002B02D08F
:10BF2000852301931CE0154B00229A60134B0022DD
:10BF30005A60124B00221A61104B0022DA6010483E
:10BF400000F0A6FA019005F0D9FE034683F0010344
:10BF5000DBB2002B01D000F0C3FA084B01221A70AB
:10BF6000FFF7AAFF0346002B02D0044B01229A7070
:10BF7000019B184603B05DF804FB00BFA43000200D
:10BF800059C0020084B00190019B1B680393039B7E
:10BF9000002B03D0039B1A68019B1A60039B184671
:10BFA00004B0704700B583B0164B1B78002B04D14A
:10BFB000154940F21710FEF705F8124BDB68002B0D
:10BFC00004D111494FF48C70FDF7FCFF00238DF86C
:10BFD00007300DF107031846FCF744FD094BDB68F9
:10BFE000013B084AD360074BDB68002B01D1FFF708
:10BFF0006FFF9DF807301846FCF74AFD00BF03B0FD
:10C000005DF804FBA4300020A833030000B585B020
:10C0100003468DF807309DF80730002B02D10C4BFA
:10C02000039301E00B4B03930398FFF7ABFF0290E0
:10C03000029B002B06D0029B5B689DF807201046F0
:10C040009847F1E700BF00BF05B05DF804FB00BFF3
:10C05000AC300020B430002000B583B003468DF82A
:10C0600007309DF80730002B05D10A4B01225A708A
:10C070000020FFF7CBFF9DF80730012B05D1054BC2
:10C0800001229A700120FFF7C1FF00BF03B05DF8E5
:10C0900004FB00BFA430002000B583B001900091E4
:10C0A000019B002B05D1054B01225A700020FFF7A0
:10C0B000ADFF00BF03B05DF804FB00BFA43000205B
:10C0C00000B585B0034600918DF807309DF8073024
:10C0D000032B29D0032B35DC002B02D0012B04D0FD
:10C0E00030E00020FFF7C6FE2DE000238DF80F3072
:10C0F0000DF10F031846FCF7B5FC154B1B7883F0C8
:10C100000103DBB2002B01D0FFF702FF104BDB680D
:10C1100001330F4AD3600E4B01229A709DF80F3005
:10C120001846FCF7B5FC0EE0094B1B78002B04D138
:10C13000084940F25220FDF745FF00F0D1F9FFF722
:10C1400031FF00E000BF00BF05B05DF804FB00BF99
:10C15000A4300020A833030000B585B003468DF855
:10C16000073000238DF80F300DF10F031846FCF750
:10C1700079FC05F0C3FD034683F00103DBB2002B1D
:10C180000DD00DF1070319460948FFF7F9FC0848DF
:10C19000FFF7D2FC0346002B01D001F09DFA9DF879
:10C1A0000F301846FCF774FC00BF05B05DF804FBC7
:10C1B0008C21030000B585B0034600918DF807304F
:10C1C0009DF80730002B02D0032B09D02AE0174B33
:10C1D0001B78012B25D101F07FFA01F093FA20E0C2
:10C1E00000238DF80B300DF10B031846FCF73AFCD9
:10C1F0000E4B1B78012B0ED10D490E4801F014FA9D
:10C200000390039B002B04D00B4940F20710FDF76D
:10C21000D9FE01F047FA9DF80B301846FCF738FCC0
:10C2200000E000BF00BF05B05DF804FBB83000209F
:10C2300059C10200B93000203434030082B00346F3
:10C240008DF807309DF90730002B0CDB9DF8073087
:10C2500003F01F0205499DF907305B09012000FA30
:10C2600002F241F8232000BF02B0704700E100E075
:10C2700082B0034600918DF807309DF90730002BFE
:10C280000ADB009BDAB20C499DF907305201D2B2A9
:10C290000B4483F800230BE0009BDAB207499DF8BA
:10C2A000073003F00F03043B5201D2B20B441A765D
:10C2B00000BF02B0704700BF00E100E000ED00E009
:10C2C00082B00190019B1B0B5BB2184602B0704715
:10C2D00000B583B003460A468DF8073013468DF843
:10C2E00006309DF80630012B03D99DF80630032B4C
:10C2F0000BD99DF80630042B03D99DF80630072B87
:10C3000003D908496B20FDF75DFE9DF806209DF9D5
:10C31000073011461846FFF7ABFF00BF03B05DF8CA
:10C3200004FB00BFBC34030000B583B003468DF8A6
:10C3300007309DF907301846FFF780FF00BF03B0B4
:10C340005DF804FB82B003468DF807300F4A9DF973
:10C350000730002B00DA1F335B115BB252F8232049
:10C360009DF90730594203F01F0301F01F0158BF28
:10C370004B425BB222FA03F303F00103002B14BF1C
:10C3800001230023DBB2184602B0704700E100E051
:10C3900082B001904FF08042019BC2F8083300BF89
:10C3A00002B0704782B003468DF807309DF8073021
:10C3B00003F1804301221A6000BF02B0704784B0CD
:10C3C0000346ADF80630BDF8063003F18043002285
:10C3D0001A60BDF8063003F180431B680393039B8A
:10C3E00000BF04B0704782B00346ADF80630BDF818
:10C3F000063003F180431B68002B14BF0123002388
:10C40000DBB2184602B0704782B001904FF0804214
:10C41000019BC2F8183500BF02B070474FF080434F
:10C42000D3F818341B0C03F00103002B14BF0123B5
:10C430000023DBB21846704700B583B006238DF8A1
:10C4400007304FF08040FFF73BFF03461846FFF7E9
:10C4500079FF034683F00103DBB2002B13D04FF0CA
:10C460008040FFF72DFF03461A469DF80730194616
:10C470001046FFF72DFF4FF08040FFF721FF0346E6
:10C480001846FFF751FF00BF03B05DF804FB000042
:10C4900000B585B00190019B002B03D10E49A4206B
:10C4A000FDF790FD002303930C4B1B79002B02D06A
:10C4B000852303930BE0094B00229A71074A019BE5
:10C4C0001360064B01221A71044B00225A71039B20
:10C4D000184605B05DF804FBE83403000C31002079
:10C4E00008B5074B1B79002B03D10649BD20FDF78A
:10C4F00069FDFFF7A1FF0020FFF786FF00BF08BD21
:10C500000C310020E834030008B50D4B1B79002BDB
:10C5100003D10C49F720FDF755FD0220FFF738FF46
:10C520004FF48270FFF74BFF0C20FFF73BFF00BF7B
:10C53000FFF774FF0346002BFAD100BF00BF08BD10
:10C540000C310020E834030008B54FF48070FFF789
:10C550004AFF0346002B14D04FF48070FFF72FFFE3
:10C560000120FFF715FF264B5B7983F00103DBB257
:10C57000002B06D0224B01225A71214B1B68002050
:10C5800098474FF48270FFF72EFF0346002B0AD026
:10C590004FF48270FFF713FF0220FFF7F9FE184BEC
:10C5A0001B68012098474FF48870FFF71CFF034673
:10C5B000002B0AD04FF48870FFF701FF1020FFF71F
:10C5C000E7FE0F4B1B68022098474FF48670FFF779
:10C5D0000AFF0346002B10D00A4B00221A604FF4CA
:10C5E0008670FFF7ECFE0820FFF7D2FE044B002216
:10C5F0009A71034B1B680320984700BF08BD00BF1A
:10C600000C310020340C004082B003468DF8073016
:10C610009DF90730002B0CDB9DF8073003F01F025B
:10C6200005499DF907305B09012000FA02F241F843
:10C63000232000BF02B0704700E100E082B0034653
:10C6400000918DF807309DF90730002B0ADB009B25
:10C65000DAB20C499DF907305201D2B20B4483F88B
:10C6600000230BE0009BDAB207499DF8073003F086
:10C670000F03043B5201D2B20B441A7600BF02B042
:10C68000704700BF00E100E000ED00E082B00190E3
:10C69000019B1B0B5BB2184602B0704700B583B01C
:10C6A00003460A468DF8073013468DF806309DF88C
:10C6B0000630012B03D99DF80630032B0BD99DF8CA
:10C6C0000630042B03D99DF80630072B03D90849FF
:10C6D0006B20FDF777FC9DF806209DF90730114689
:10C6E0001846FFF7ABFF00BF03B05DF804FB00BFC7
:10C6F0006835030000B583B003468DF807309DF917
:10C7000007301846FFF780FF00BF03B05DF804FB59
:10C7100000B583B00346ADF80630BDF806301846C4
:10C7200000F026F803461B68012B0CBF01230023F1
:10C73000DBB2184603B05DF804FB00B585B00346D4
:10C74000ADF80630BDF80630184600F011F8034683
:10C750001A4600231360BDF80630184600F008F8AA
:10C7600003461B680393039B00BF05B05DF804FB01
:10C7700082B00346ADF80630BDF8063003F18043C1
:10C7800003F5C043184602B07047000082B0019024
:10C79000034A019BC2F8043300BF02B0704700BFD8
:10C7A0000060004082B00190034BD3F80423019B4A
:10C7B0001340184602B070470060004082B00190FC
:10C7C000084A019B03F5A27352F82330054943F050
:10C7D0000102019B03F5A27341F8232000BF02B0C0
:10C7E000704700BF0060004084B003900291134680
:10C7F0008DF80730144A039B03F5A27352F82330D7
:10C80000114923F44F3323F44073039A02F5A272C3
:10C8100041F822300C4A039B03F5A27352F82320FF
:10C82000029B1B0203F47C519DF807301B0403F4A8
:10C8300040330B4304491A43039B03F5A27341F8A9
:10C84000232000BF04B070470060004082B0019018
:10C85000054A019B03F5A27352F823301B0A03F02B
:10C860003F03184602B070470060004082B001905C
:10C87000064A019B03F5A27352F823301B0C03F008
:10C880000303DBB2184602B0704700BF00600040EF
:10C8900000B583B00190019B1B68184600F02AF98F
:10C8A0000346002B04D10B494FF4F670FDF78AFBC9
:10C8B000019B1B681F2B02D84FF0A04306E0019B91
:10C8C0001B6803F01F02019B1A60034B184603B05C
:10C8D0005DF804FB8C3503000003005000B585B003
:10C8E0000190084611461A4603468DF803300B4660
:10C8F0008DF8023013468DF8013001AB1846FFF772
:10C90000C7FF03909DF803209DF802305B001A4397
:10C910009DF801309B001A439DF818301B0242EA33
:10C9200003019DF81C301B04019A1943039B02F577
:10C93000E07243F8221000BF05B05DF804FB00B5BB
:10C9400085B003900B468DF80B309DF80B3000221C
:10C95000019200220092002200210398FFF7BEFFFF
:10C9600000BF05B05DF804FB00B585B0019001ABD8
:10C970001846FFF78DFF0390019A039B02F5E072C2
:10C9800053F8223023F002030293019A039B02F52D
:10C99000E072029943F8221000BF05B05DF804FB75
:10C9A00000B585B001900B468DF8033001AB1846F9
:10C9B000FFF76EFF0390019A039B02F5E07253F8B4
:10C9C0002230019A23F44031039B02F5E07243F8D0
:10C9D0002210019A039B02F5E07253F822309DF871
:10C9E000032012041146019A1943039B02F5E072D9
:10C9F00043F8221000BF05B05DF804FB00B585B018
:10CA0000019001AB1846FFF743FF0390039800F035
:10CA100020F80246019B22FA03F303F001031846B3
:10CA200005B05DF804FB00B585B0019001AB184678
:10CA3000FFF72EFF0390019A039B02F5E07253F873
:10CA400022301B0C03F00303DBB2184605B05DF87F
:10CA500004FB82B00190019BD3F81035184602B058
:10CA60007047000088B0039002910192164A05AB0E
:10CA700092E8030083E80300039B079319E0079BF8
:10CA80009B0020336B4453F80C3CD3F82025019BCA
:10CA90001A60079B9B0020336B4453F80C3C019AAF
:10CAA0001268C3F82025019B04330193079B0133CF
:10CAB0000793039A029B1344079A9A42DFD300BF5D
:10CAC00000BF08B0704700BFAC35030000B585B0AB
:10CAD000019001AB1846FFF7DBFE0390019B01229A
