:020000022000DC
:1070000000000420757302005D7302005F730200CC
:1070100061730200637302006573020000000000E8
:107020000000000000000000000000006773020084
:1070300069730200000000006B7302006D730200B0
:10704000A58402006F7302009D92020091A10200CC
:107050006F7302006F730200959102006F7302005C
:107060006F7302006F7302006F7302006F73020090
:107070006F730200999602006F7302006F73020033
:107080006F730200ADE802006F7302006F730200BD
:107090006F7302006F7302006DDB02006F730200FA
:1070A0006F7302006F7302006F7302006F73020050
:1070B0006F7302006F730200000000000000000008
:1070C0006F7302006F7302006F7302006F73020030
:1070D0006F7302006F7302006F7302006F73020020
:1070E0006F7302006F7302006F73020000000000F4
:1070F000000000006F730200000000006F730200C8
:10710000000000000000000000000000000000007F
:10711000000000000000000000000000000000006F
:10712000000000000000000000000000000000005F
:10713000000000000000000000000000000000004F
:10714000000000000000000000000000000000003F
:10715000000000000000000000000000000000002F
:10716000000000000000000000000000000000001F
:10717000000000000000000000000000000000000F
:1071800000000000000000000000000000000000FF
:1071900000000000000000000000000000000000EF
:1071A00000000000000000000000000000000000DF
:1071B00000000000000000000000000000000000CF
:1071C00000000000000000000000000000000000BF
:1071D00000000000000000000000000000000000AF
:1071E000000000000000000000000000000000009F
:1071F000000000000000000000000000000000008F
:10720000354936480A1A02D0072291438D4634493F
:1072100034480A1A06D00722914381F309880222D2
:1072200082F3148830483149314A00F044F831483B
:107230003149324A00F03FF831483249324A00F0D1
:107240003AF832483249334A00F035F83248334987
:10725000334A00F030F833483349344A00F02BF811
:1072600033483449344A00F026F83448344900227F
:1072700000F02CF833483449002200F027F8334856
:107280003349091A082902DB002202604160314AB1
:1072900090471F481F49884205D00268043003B454
:1072A000904703BCF7E700208646EC46002000210B
:1072B000294A9047FEE7884207D0521A05D0037842
:1072C00001300B700131013AF9D17047884202D088
:1072D00002700130FAE770470000042000E003204C
:1072E000000004200000042090410300242C002012
:1072F0008C2C0020D0730200D07302005C1A0300B3
:1073000090410300242C0020242C0020881B030023
:10731000881B0300881B0300881B0300881B0300D5
:10732000881B0300881B0300881B03008E41030099
:10733000F84103008C2C00208C2C00208C2C002089
:10734000784A0020784A0020784A0020784A0020B5
:10735000786A00209D73020031BE0200FEE7FEE75E
:10736000FEE7FEE7FEE7FEE7FEE7FEE7FEE7FEE7F5
:1073700000F002B8FFF7FCBF0F484FF00701884349
:1073800085460E4880470E48016841F4700101604F
:10739000BFF34F8FBFF36F8FFFF732BF09480A4922
:1073A0000A4A884207D0521A05D0037801300B7080
:1073B0000131013AF9D170470000042095C4020060
:1073C00088ED00E0741B0300102C0020242C00200A
:1073D00000B583B00190019B032B04D8019803F002
:1073E000EFF8034600E00023184603B05DF804FB05
:1073F00000B587B003460A468DF8073013468DF86E
:10740000063000238DF81730002304939DF80730D1
:10741000184603F01DF90490049B032B61D89DF8D6
:107420000630022B52D0022B5EDC002B31D0012B18
:107430005AD13649049A13465B0013440B441B7817
:107440008DF817303149049A13465B0013440B44FE
:1074500001331B78002B0ED02D4B2E4A4FF4804168
:10746000184607F0CFF80390039B002B03D1294A5D
:107470009DF8073013702549049A13465B001344A6
:107480000B4402331978244A049B13440A461A70A9
:107490002AE01F4B184607F0EDF81F4A049B1344DF
:1074A00019781A48049A13465B00134403440233C4
:1074B0001B78994217D11549049A13465B0013446F
:1074C0000B4402331B788DF817300CE00F49049AF7
:1074D00013465B0013440B4401331B788DF81730BF
:1074E00002E000BF00E000BF9DF81730002B09D07C
:1074F0000A4B1B68002B05D0084B1B689DF8172012
:107500001046984700BF07B05DF804FBDC2C002054
:10751000E82C0020082D00200C2D0020D82C002065
:1075200000B583B00190019B1B7802211846FFF73C
:107530005FFF00BF03B05DF804FB000000B583B03F
:107540000C4B1B78002B0FD00023019308E0019B0C
:10755000022B02D0019802F0BFFF019B013301937F
:10756000019B032BF3D901E002F0D0FF00BF03B071
:107570005DF804FB942C00202DE9D04F92B0034617
:107580008DF83F300023119300231093CC4B1B78D0
:10759000002B04D0CA4A00231370FFF7CFFF9DF8D9
:1075A0003F30172B00F23F8201A252F823F000BFB8
:1075B000117602002976020029760200C5760200C3
:1075C00061770200DD770200717802009178020095
:1075D000A1780200CD780200EB7802000979020060
:1075E00027790200357902003579020035790200E9
:1075F0003579020035790200C9790200D779020095
:10760000EB790200FF790200197A0200197A020070
:10761000FFF794FFAB4B184607F02CF81190AA4ADD
:107620009DF83F301370FFE1002002F00DFF03468C
:10763000002B0DD0002002F04FFF9DF83F30022BB1
:1076400002D14FF4E16301E04FF47A6310930BE051
:10765000002002F027FF9DF83F30022B01D1C82304
:1076600001E04FF4C8731093974A9DF83F301370B0
:10767000944C109B0022009301924FF000024FF0B7
:107680000003DDE900673946CB03314643EA514345
:107690003146CA0312F57A71029143F10003039354
:1076A0004FF4FA624FF00003DDE902010AF08CF8B2
:1076B00002460B46134600221946204606F0A2FF5A
:1076C0001190B1E1002002F0BFFE0346002B0DD067
:1076D000002002F001FF9DF83F30032B02D14FF450
:1076E000487301E04FF47A6310930BE0002002F03E
:1076F000D9FE9DF83F30032B01D1C82301E04FF4A0
:10770000C8731093704A9DF83F3013706D4C109BF6
:107710000022049305924FF000024FF00003DDE9D0
:1077200004673946CB03314643EA51433146CA0325
:1077300012F57A71069143F1000307934FF4FA6250
:107740004FF00003DDE906010AF03EF802460B4661
:10775000134600221946204606F054FF119063E1BB
:10776000002002F071FE0346002B06D0002002F03C
:10777000B3FE4FF47A63109305E0002002F092FE0E
:107780004FF4C8731093504A9DF83F3013704D4C1E
:10779000109B00229A4693464FF000024FF00003E0
:1077A0004FEACB3343EA5A434FEACA3212F57A71B1
:1077B000089143F1000309934FF4FA624FF000037C
:1077C000DDE908010AF000F802460B4613460022E4
:1077D0001946204606F016FF119025E1002002F020
:1077E00033FE0346002B0CD0002002F075FE9DF8FE
:1077F0003F30052B01D1C82301E04FF47A63109389
:107800000BE0002002F04EFE9DF83F30052B01D129
:10781000C82301E04FF4C87310932B4A9DF83F3002
:107820001370284C109B0022984691464FF000029E
:107830004FF000034FEAC93343EA58434FEAC832D6
:1078400012F57A710A9143F100030B934FF4FA6237
:107850004FF00003DDE90A0109F0B6FF02460B46CE
:10786000134600221946204606F0CCFE1190DBE0BC
:10787000002002F071FE144A9DF83F301370114B46
:10788000002240F26661184606F0BCFE1190CBE083
:10789000002002F007FE0C4A9DF83F301370C3E051
:1078A000074B01221A70012002F056FE054B002200
:1078B00040F26661184606F0A5FE1190B4E000BFE4
:1078C0008D2C0020982C00208C2C0020594B01225C
:1078D0001A70012002F040FE574B00224FF4005175
:1078E000184606F08FFE11909EE0524B01221A704E
:1078F000012002F031FE504B002240F26661184632
:1079000006F080FE11908FE04A4B01221A70012090
:1079100002F022FE484B00224FF40051184606F0B8
:1079200071FE119080E002F004FE444A9DF83F3061
:10793000137079E0424B184606F09CFE11909DF8BA
:107940003F30C3F111031093109B002B35D0119BD6
:10795000002B32D1109B012B28D9394C109B9BB2A4
:107960001A46C82302FB03F3DA171E4617464FF0E8
:1079700000024FF00003FB0343EA5643F20312F503
:107980007A710C9143F100030D934FF4FA624FF0BA
:107990000003DDE90C0109F017FF02460B46134610
:1079A00000221946204606F02DFE1190022002F01A
:1079B00079FD244B01221A7036E0022002F08CFD82
:1079C000204B00221A702FE0FFF7B8FD1B4A9DF8EC
:1079D0003F30137028E0FFF7B1FD002002F062FD98
:1079E000164A9DF83F3013701EE0FFF7A7FD0120F7
:1079F00002F058FD114A9DF83F30137014E0FFF774
:107A00009DFD002002F04EFD012002F04BFD0B4ACF
:107A10009DF83F30137007E002F08BFD074A9DF898
:107A20003F30137000E000BF119B184612B0BDE854
:107A3000D08F00BF8D2C0020982C00208C2C002093
:107A4000B82C0020942C002000B583B00190074B87
:107A50001B6803F00103002B04D0054B1B7818466C
:107A6000FFF78AFD00BF03B05DF804FB902C0020F7
:107A70008C2C002000B583B00190022002F06CFD38
:107A800000BF03B05DF804FB00B585B00190009124
:107A9000002303932A4A019B13602A4A009B136028
:107AA000019B03F00203002B2AD00023029308E07D
:107AB00001220121029800F055F80390029B013346
:107AC0000293029B032B02D8039B002BF0D0039B55
:107AD000002B06D140F2333204211B4806F038FB5C
:107AE0000390039B002B02D106F0BAFB0390039B8B
:107AF000002B05D1154A0021154806F04FFD0390D3
:107B0000019B03F00103002B14D0012002F0C0FD03
:107B1000039B002B05D10F4A00210F4806F03EFDC4
:107B20000390039B002B05D10C4A01210C4806F061
:107B300035FD0390039B184605B05DF804FB00BFBC
:107B4000902C0020D82C0020941B030021750200EB
:107B5000901B0300497A0200881B0300757A02001B
:107B60008C1B030084B001900B468DF80330134644
:107B70008DF8023000230393019B032B3CD89DF822
:107B80000230012B0BD19DF80330012B04D1019B56
:107B9000DBB20E33DBB200E000238DF802309DF83B
:107BA0000330022B0FD0022B23DC002B16D0012B2D
:107BB0001FD11449019A13465B0013440B449DF8EE
:107BC00002201A701AE00F49019A13465B00134411
:107BD0000B4401339DF802201A700FE00949019A05
:107BE00013465B0013440B4402339DF802201A70C5
:107BF00004E00723039301E007230393039B184644
:107C000004B07047DC2C002000B583B001220021B5
:107C10000020FFF7A7FF0190019B002B04D0019BE0
:107C2000072B01D0019B1CE0072202210120FFF756
:107C300099FF0190019B002B04D0019B072B01D0E1
:107C4000019B0EE0042202210020FFF78BFF019030
:107C5000019B002B04D0019B072B01D0019B00E06E
:107C60000023184603B05DF804FB00B583B0012281
:107C700002210020FFF776FF0190019B002B04D02A
:107C8000019B072B01D0019B1CE007220221012050
:107C9000FFF768FF0190019B002B04D0019B072B8D
:107CA00001D0019B0EE00A2200210020FFF75AFFBD
:107CB0000190019B002B04D0019B072B01D0019B5D
:107CC00000E00023184603B05DF804FB00B583B064
:107CD00001900120FFF77CFB0346002B03D0019BA2
:107CE00002221A700CE00020FFF772FB0346002B03
:107CF00003D0019B0B221A7002E0019B00221A7034
:107D000000BF03B05DF804FB00B585B001900091A1
:107D1000019B1B88102B02D0112B18D02FE01A4B7F
:107D20001B68002B0DD1FFF76FFF0390039B002B07
:107D300007D0164B1B68002B03D0144B1B6803980D
:107D40009847114B1B6801330F4A136017E00E4B25
:107D50001B68013B0C4A13600B4B1B68002B0DD1B9
:107D6000FFF783FF0390039B002B07D0074B1B6893
:107D7000002B03D0054B1B680398984700BF00BF3A
:107D800005B05DF804FB00BF142D0020102D00206D
:107D900000B585B001900091002303930A4A019B2E
:107DA0001360009B002B02D00098FFF78FFF074B5A
:107DB0001B68002B02D1FFF758FF0390039B184666
:107DC00005B05DF804FB00BF102D0020142D00202D
:107DD00082B003468DF807309DF90730002B13DB86
:107DE0009DF8073003F01F0209499DF907305B0930
:107DF000012000FA02F2203341F82320BFF34F8F15
:107E000000BFBFF36F8F00BF00BF02B0704700BF5D
:107E100000E100E0044BD3F80034002B14BF012331
:107E20000023DBB2184670470000014008B505F09A
:107E30006FFE034683F00103DBB2002B03D1094937
:107E40007B2007F057FFFFF7E5FF034683F00103B0
:107E5000DBB2002B04D000F005FB034B00229A702C
:107E600000BF08BDBC1B0300182D002000B583B067
:107E700000230193184B1B78002B02D0852301931C
:107E80001CE0154B00229A60134B00225A60124BE3
:107E900000221A61104B0022DA60104800F0A6FAA6
:107EA000019005F035FE034683F00103DBB2002BA1
:107EB00001D000F0C3FA084B01221A70FFF7AAFFA5
:107EC0000346002B02D0044B01229A70019B1846F6
:107ED00003B05DF804FB00BF182D0020B57F020041
:107EE00084B00190019B1B680393039B002B03D07C
:107EF000039B1A68019B1A60039B184604B07047E5
:107F000000B583B0164B1B78002B04D1154940F205
:107F1000171007F0EFFE124BDB68002B04D111495C
:107F20004FF48C7007F0E6FE00238DF807300DF15A
:107F30000703184606F02EFC094BDB68013B084A94
:107F4000D360074BDB68002B01D1FFF76FFF9DF873
:107F50000730184606F034FC00BF03B05DF804FBA0
:107F6000182D0020BC1B030000B585B003468DF81A
:107F700007309DF80730002B02D10C4B039301E032
:107F80000B4B03930398FFF7ABFF0290029B002B70
:107F900006D0029B5B689DF8072010469847F1E7E2
:107FA00000BF00BF05B05DF804FB00BF202D00201E
:107FB000282D002000B583B003468DF807309DF8CA
:107FC0000730002B05D10A4B01225A700020FFF721
:107FD000CBFF9DF80730012B05D1054B01229A708C
:107FE0000120FFF7C1FF00BF03B05DF804FB00BF35
:107FF000182D002000B583B001900091019B002B4B
:1080000005D1054B01225A700020FFF7ADFF00BFDC
:1080100003B05DF804FB00BF182D002000B585B04B
:10802000034600918DF807309DF80730032B29D0C7
:10803000032B35DC002B02D0012B04D030E00020D4
:10804000FFF7C6FE2DE000238DF80F300DF10F0372
:10805000184606F09FFB154B1B7883F00103DBB23B
:10806000002B01D0FFF702FF104BDB6801330F4AF2
:10807000D3600E4B01229A709DF80F30184606F01F
:108080009FFB0EE0094B1B78002B04D1084940F2FE
:10809000522007F02FFE00F0D1F9FFF731FF00E08A
:1080A00000BF00BF05B05DF804FB00BF182D002025
:1080B000BC1B030000B585B003468DF807300023D4
:1080C0008DF80F300DF10F03184606F063FB05F035
:1080D0001FFD034683F00103DBB2002B0DD00DF131
:1080E00007031946094809F0F5F9084809F0CEF9DF
:1080F0000346002B01D001F09DFA9DF80F30184681
:1081000006F05EFB00BF05B05DF804FB741A0300C7
:1081100000B585B0034600918DF807309DF8073013
:10812000002B02D0032B09D02AE0174B1B78012B20
:1081300025D101F07FFA01F093FA20E000238DF8B9
:108140000B300DF10B03184606F024FB0E4B1B7889
:10815000012B0ED10D490E4801F014FA0390039B38
:10816000002B04D00B4940F2071007F0C3FD01F0CB
:1081700047FA9DF80B30184606F022FB00E000BFDE
:1081800000BF05B05DF804FB2C2D0020B580020077
:108190002D2D0020481C030082B003468DF80730C7
:1081A0009DF90730002B0CDB9DF8073003F01F0210
:1081B00005499DF907305B09012000FA02F241F8F8
:1081C000232000BF02B0704700E100E082B0034608
:1081D00000918DF807309DF90730002B0ADB009BDA
:1081E000DAB20C499DF907305201D2B20B4483F840
:1081F00000230BE0009BDAB207499DF8073003F03B
:108200000F03043B5201D2B20B441A7600BF02B0F6
:10821000704700BF00E100E000ED00E082B0019097
:10822000019B1B0B5BB2184602B0704700B583B0D0
:1082300003460A468DF8073013468DF806309DF840
:108240000630012B03D99DF80630032B0BD99DF87E
:108250000630042B03D99DF80630072B03D90849B3
:108260006B2007F047FD9DF806209DF90730114669
:108270001846FFF7ABFF00BF03B05DF804FB00BF7B
:10828000D01C030000B583B003468DF807309DF97C
:1082900007301846FFF780FF00BF03B05DF804FB0E
:1082A00082B003468DF807300F4A9DF90730002B46
:1082B00000DA1F335B115BB252F823209DF90730BF
:1082C000594203F01F0301F01F0158BF4B425BB23C
:1082D00022FA03F303F00103002B14BF0123002350
:1082E000DBB2184602B0704700E100E082B00190B6
:1082F0004FF08042019BC2F8083300BF02B07047C4
:1083000082B003468DF807309DF8073003F18043B3
:1083100001221A6000BF02B0704784B00346ADF876
:108320000630BDF8063003F1804300221A60BDF824
:10833000063003F180431B680393039B00BF04B026
:10834000704782B00346ADF80630BDF8063003F141
:1083500080431B68002B14BF01230023DBB21846A7
:1083600002B0704782B001904FF08042019BC2F88A
:10837000183500BF02B070474FF08043D3F818346F
:108380001B0C03F00103002B14BF01230023DBB2FD
:108390001846704700B583B006238DF807304FF0BC
:1083A0008040FFF73BFF03461846FFF779FF03467F
:1083B00083F00103DBB2002B13D04FF08040FFF7B6
:1083C0002DFF03461A469DF8073019461046FFF761
:1083D0002DFF4FF08040FFF721FF03461846FFF7BF
:1083E00051FF00BF03B05DF804FB000000B585B08D
:1083F0000190019B002B03D10E49A42007F07AFCC9
:10840000002303930C4B1B79002B02D0852303938D
:108410000BE0094B00229A71074A019B1360064B3F
:1084200001221A71044B00225A71039B184605B0B1
:108430005DF804FBFC1C0300802D002008B5074BF1
:108440001B79002B03D10649BD2007F053FCFFF731
:10845000A1FF0020FFF786FF00BF08BD802D002090
:10846000FC1C030008B50D4B1B79002B03D10C49F4
:10847000F72007F03FFC0220FFF738FF4FF482702F
:10848000FFF74BFF0C20FFF73BFF00BFFFF774FF28
:108490000346002BFAD100BF00BF08BD802D00208D
:1084A000FC1C030008B54FF48070FFF74AFF034639
:1084B000002B14D04FF48070FFF72FFF0120FFF73F
:1084C00015FF264B5B7983F00103DBB2002B06D04E
:1084D000224B01225A71214B1B68002098474FF410
:1084E0008270FFF72EFF0346002B0AD04FF48270F4
:1084F000FFF713FF0220FFF7F9FE184B1B6801205E
:1085000098474FF48870FFF71CFF0346002B0AD0F2
:108510004FF48870FFF701FF1020FFF7E7FE0F4BC5
:108520001B68022098474FF48670FFF70AFF034646
:10853000002B10D00A4B00221A604FF48670FFF710
:10854000ECFE0820FFF7D2FE044B00229A71034B89
:108550001B680320984700BF08BD00BF802D002086
:10856000340C004082B003468DF807309DF9073087
:10857000002B0CDB9DF8073003F01F0205499DF925
:1085800007305B09012000FA02F241F8232000BF06
:1085900002B0704700E100E082B0034600918DF820
:1085A00007309DF90730002B0ADB009BDAB20C493B
:1085B0009DF907305201D2B20B4483F800230BE03F
:1085C000009BDAB207499DF8073003F00F03043B24
:1085D0005201D2B20B441A7600BF02B0704700BFFE
:1085E00000E100E000ED00E082B00190019B1B0B78
:1085F0005BB2184602B0704700B583B003460A4626
:108600008DF8073013468DF806309DF80630012BA3
:1086100003D99DF80630032B0BD99DF80630042BA7
:1086200003D99DF80630072B03D908496B2007F0C2
:1086300061FB9DF806209DF9073011461846FFF7AB
:10864000ABFF00BF03B05DF804FB00BF841D030057
:1086500000B583B003468DF807309DF90730184602
:10866000FFF780FF00BF03B05DF804FB00B583B0E7
:108670000346ADF80630BDF80630184600F026F87F
:1086800003461B68012B0CBF01230023DBB21846F5
:1086900003B05DF804FB00B585B00346ADF80630C5
:1086A000BDF80630184600F011F803461A460023BC
:1086B0001360BDF80630184600F008F803461B6842
:1086C0000393039B00BF05B05DF804FB82B0034633
:1086D000ADF80630BDF8063003F1804303F5C04322
:1086E000184602B07047000082B00190034A019B17
:1086F000C2F8043300BF02B0704700BF0060004002
:1087000082B00190034BD3F80423019B1340184619
:1087100002B070470060004082B00190084A019B9F
:1087200003F5A27352F82330054943F00102019B7F
:1087300003F5A27341F8232000BF02B0704700BFC9
:108740000060004084B00390029113468DF807301A
:10875000144A039B03F5A27352F82330114923F402
:108760004F3323F44073039A02F5A27241F822308A
:108770000C4A039B03F5A27352F82320029B1B02B1
:1087800003F47C519DF807301B0403F440330B4382
:1087900004491A43039B03F5A27341F8232000BF49
:1087A00004B070470060004082B00190054A019B10
:1087B00003F5A27352F823301B0A03F03F03184657
:1087C00002B070470060004082B00190064A019BF1
:1087D00003F5A27352F823301B0C03F00303DBB242
:1087E000184602B0704700BF0060004000B583B07B
:1087F0000190019B1B68184600F02AF90346002BE4
:1088000004D10B494FF4F67007F074FA019B1B6812
:108810001F2B02D84FF0A04306E0019B1B6803F01A
:108820001F02019B1A60034B184603B05DF804FB5E
:10883000A81D03000003005000B585B00190084654
:1088400011461A4603468DF803300B468DF8023068
:1088500013468DF8013001AB1846FFF7C7FF0390B0
:108860009DF803209DF802305B001A439DF801300B
:108870009B001A439DF818301B0242EA03019DF841
:108880001C301B04019A1943039B02F5E07243F864
:10889000221000BF05B05DF804FB00B585B0039061
:1088A0000B468DF80B309DF80B3000220192002210
:1088B0000092002200210398FFF7BEFF00BF05B021
:1088C0005DF804FB00B585B0019001AB1846FFF7D9
:1088D0008DFF0390019A039B02F5E07253F822305A
:1088E00023F002030293019A039B02F5E0720299BE
:1088F00043F8221000BF05B05DF804FB00B585B059
:1089000001900B468DF8033001AB1846FFF76EFF60
:108910000390019A039B02F5E07253F82230019A0A
:1089200023F44031039B02F5E07243F82210019AD0
:10893000039B02F5E07253F822309DF803201204E5
:108940001146019A1943039B02F5E07243F8221085
:1089500000BF05B05DF804FB00B585B0019001AB28
:108960001846FFF743FF0390039800F020F80246F3
:10897000019B22FA03F303F00103184605B05DF8EA
:1089800004FB00B585B0019001AB1846FFF72EFF40
:108990000390019A039B02F5E07253F822301B0CFE
:1089A00003F00303DBB2184605B05DF804FB82B0A8
:1089B0000190019BD3F81035184602B070470000B3
:1089C00088B0039002910192164A05AB92E8030029
:1089D00083E80300039B079319E0079B9B00203368
:1089E0006B4453F80C3CD3F82025019B1A60079B7D
:1089F0009B0020336B4453F80C3C019A1268C3F877
:108A00002025019B04330193079B01330793039AAD
:108A1000029B1344079A9A42DFD300BF00BF08B0FD
:108A2000704700BFC81D030000B585B0019001ABC1
:108A30001846FFF7DBFE0390019B012202FA03F3C5
:108A40001A46039BC3F8202500BF05B05DF804FB60
:108A500084B00190019B5B09029300230393029B66
:108A6000002B03D0029B012B04D007E04FF0FF3313
:108A7000039303E04FF6FF73039300BF019B03F0E2
:108A80001F030193039A019B22FA03F303F00103EE
:108A9000002B14BF01230023DBB2184604B070473B
:108AA00084B001900091009B0393019BDB0802932B
:108AB000019B03F0070301930122019B02FA03F3D8
:108AC0000399029A0A4412781340184604B070477A
:108AD00084B001900091009B0393019BDB080293FB
:108AE000019B03F007030193039A029B13441B7835
:108AF0005AB20121019B01FA03F35BB2134359B24D
:108B0000039A029B1344CAB21A7000BF04B07047A4
:108B100082B001900C4A019B1344303393F900302A
:108B2000002B09DB084A019B1344303393F90030D2
:108B3000072B01DC012300E0002303F00103DBB27B
:108B4000184602B0704700BF882D002082B0019007
:108B5000064A019B1344303393F90030072BCCBFF6
:108B600001230023DBB2184602B07047882D002095
:108B700082B00190064A019B1344303393F90030D0
:108B8000DB43DBB2DB09DBB2184602B0704700BF43
:108B9000882D002084B00390029101928DF803305B
:108BA000029B59B20E4A039B134430330A461A7093
:108BB0000B49029B019A41F823209DF8033083F072
:108BC0000103DBB2002B08D0029B083B039A51B291
:108BD000034A13440A4683F8602000BF04B070477C
:108BE000882D002082B00190044A019B1344303349
:108BF000FF221A7000BF02B0704700BF882D00200E
:108C000000B583B0019004490198FFF761FF00BFF0
:108C100003B05DF804FB00BFEC2D002082B0019092
:108C2000044A019B1344303393F90030184602B0D4
:108C3000704700BF882D002082B00190034A019B3D
:108C400052F82330184602B0704700BF882D00202C
:108C500084B00190074A019B1344603393F90030BC
:108C60008DF80F309DF80F3023F0C003184604B084
:108C7000704700BF882D002084B00190074A019BF7
:108C80001344603393F900308DF80F309DF80F30A6
:108C90009B09DBB2184604B0704700BF882D002046
:108CA00000B589B00390029113468DF80730FF2379
:108CB0008DF81F309DF80730002B01D0002300E015
:108CC000082305939DF80730002B01D0082300E00E
:108CD0000C230493059B069314E00F4A069B52F85D
:108CE0002330B3F1FF3F0AD19DF80730029A06996D
:108CF0000398FFF74FFF069B8DF81F3006E0069B99
:108D000001330693069A049B9A42E6D39DF91F30DD
:108D1000184609B05DF804FB882D002082B0034698
:108D20008DF807309DF80730094A4FF0FF3142F8BF
:108D300023109DF80730072B07D99DF80730083B13
:108D4000034A1344FF2283F8602000BF02B070473B
:108D5000882D002000B583B02D4B93F86A30002B8E
:108D600003D008230093009B4EE000238DF80730CA
:108D700011E09DF807301846FFF76AFE0346002B06
:108D800004D09DF807301846FFF72CFF9DF80730F8
:108D900001338DF807309DF807302F2BE9D90023D8
:108DA0008DF8073009E09DF807301846FFF7B6FF49
:108DB0009DF8073001338DF807309DF807300B2BF5
:108DC000F1D906220021134808F0E5FD1248FFF70B
:108DD0000BFC034606211846FFF70EFC0E48FFF772
:108DE00003FC03461846FFF733FC4FF4BE70FFF751
:108DF00052FC4FF00040FFF777FC054B012283F84F
:108E00006A2000230093009B184603B05DF804FB22
:108E1000882D0020EC2D002000600040044B93F8CA
:108E20006A30002B14BF01230023DBB218467047C1
:108E3000882D002000B587B003900291019203981D
:108E4000FFF706FE0346002B04D136494FF40C70A1
:108E500006F050FF002305930398FFF789FE0346B1
:108E6000002B02D00823059357E0029B9B78C3F3A5
:108E70004003DBB21A4601990398FFF711FF03463E
:108E80008DF813309DF91330B3F1FF3F43D0029BAF
:108E90009B78C3F38003DBB283F00103DBB2002BCA
:108EA00013D0029B9B7803F00103DBB2002B03D0AD
:108EB0000398FFF707FD05E0029B5B7819460398CE
:108EC000FFF7EBFC0398FFF79BFE029B9B7803F0F8
:108ED0000203DBB2002B08D09DF91300029B1B7824
:108EE0001A460399FFF72EFC17E09DF91330083B53
:108EF0000D4A134493F96010029B1B789B015AB2F0
:108F00009DF91330083B0A4351B2074A13440A46FD
:108F100083F8602001E004230593059B184607B001
:108F20005DF804FBD81D0300882D002000B589B032
:108F300001900B468DF803300198FFF789FD034639
:108F4000002B04D13A494FF4187006F0D3FE019873
:108F5000FFF70EFE0346002B04D1354940F2612095
:108F600006F0C8FE0198FFF7F1FD0346002B2AD05A
:108F70000198FFF753FE0346083B1846FFF77CFEB7
:108F800003468DF80F309DF80F30032B0BD101985D
:108F9000FFF7E2FC0346002B01D0032300E002238D
:108FA0008DF81F3008E09DF80F30012B01D102230E
:108FB00000E003238DF81F309DF81F3019460198FB
:108FC000FFF79CFC30E00198FFF7A2FD0346002B61
:108FD0002AD00198FFF722FE03460693069B9BB218
:108FE00040339BB29B00ADF81630069B1846FFF746
:108FF00093FBBDF816301846FFF74DFB9DF8033084
:10900000002B11D00198FFF709FE03461846FFF721
:1090100013FE0490049B002B06D00122069B02FA4B
:1090200003F31846FFF760FB00BF09B05DF804FBCF
:10903000D81D030000B583B001900198FFF708FD2B
:109040000346002B04D1094940F2AF2006F052FE3E
:109050000198FFF781FC0346002B14BF0123002376
:10906000DBB2184603B05DF804FB00BFD81D030057
:1090700000B585B00190019A02210020FFF7A0FC05
:10908000002303930BE0039B9B00019A13441B688E
:10909000002B01D0012306E0039B01330393039BC4
:1090A000012BF0D90023184605B05DF804FB000041
:1090B00000B587B00190002305935BE0344A059B1F
:1090C0001344603393F90030B3F1FF3F4ED005985D
:1090D000FFF7BEFD049001990498FFF7E1FC0346F9
:1090E000002B44D00598FFF7C7FD03468DF80F30DD
:1090F0000498FFF746FC03468DF80E309DF80E30BD
:10910000022B01D1032300E002238DF80D309DF8DE
:109110000D3019460498FFF7F1FB0498FFF784FC23
:109120000498FFF77BFD03461846FFF785FD029084
:10913000029B002B1BD09DF80F30032B0FD09DF806
:109140000E30022B03D19DF80F30012B07D09DF874
:109150000E30032B0BD19DF80F30022B07D19DF859
:109160000F20029B11460498984700E000BF059B22
:1091700001330593059B032BA0D90198FFF778FFD6
:109180000346002B97D100BF00BF07B05DF804FB7A
:10919000882D002000B58BB00023089301AB00227E
:1091A0001A605A604FF48073ADF81A3001230993A6
:1091B0000023079321E0BDF81A301846FFF756FA4E
:1091C0000346002B0ED00998FFF79AFA0346002BAE
:1091D00008D0BDF81A301846FFF75DFA089A099BC7
:1091E00013430893099B5B000993BDF81A300433BD
:1091F000ADF81A30079B01330793079B072BDAD989
:109200004FF4BE70FFF732FA0346002B0DD04FF437
:10921000BE70FFF740FA089B43F00043089301AB90
:109220001A4602210020FFF7CBFB089BDBB2002B84
:1092300029D0012309930023079321E0099A089B71
:109240001340002B16D00798FFF7AEFA0590079849
:10925000FFF7BAFA03468DF813300798FFF7ECFCD6
:109260000390039B002B05D09DF81320039B114610
:1092700005989847099B5B000993079B0133079367
:10928000079B072BDAD9089B002B03DA01AB1846A2
:10929000FFF70EFF00BF0BB05DF804FB08B5064BEF
:1092A0001B68002B03D10549512006F023FD024B1A
:1092B0001B68984700BF08BDF42D0020641E030002
:1092C00082B00190019B044A934201D1034B00E01C
:1092D0000023184602B0704700200040F42D002003
:1092E00000B587B001900091019B002B03D11C4970
:1092F000772006F0FFFC0198FFF7E2FF0590059B41
:10930000002B25D000238DF8133000238DF80B306F
:109310000DF10B03184605F03DFA059B1B79002B58
:1093200003D001238DF8133005E0059B009A1A60E5
:10933000059B01221A719DF80B30184605F040FA82
:109340009DF81330002B03D011230393039B02E0FD
:1093500000230393039B184607B05DF804FB00BF8E
:10936000641E030082B003468DF807309DF9073074
:10937000002B0CDB9DF8073003F01F0205499DF917
:1093800007305B09012000FA02F241F8232000BFF8
:1093900002B0704700E100E082B003468DF807306C
:1093A0009DF90730002B13DB9DF8073003F01F02F7
:1093B00009499DF907305B09012000FA02F22033C8
:1093C00041F82320BFF34F8F00BFBFF36F8F00BF63
:1093D00000BF02B0704700BF00E100E082B003466A
:1093E00000918DF807309DF90730002B0ADB009BB8
:1093F000DAB20C499DF907305201D2B20B4483F81E
:1094000000230BE0009BDAB207499DF8073003F018
:109410000F03043B5201D2B20B441A7600BF02B0D4
:10942000704700BF00E100E000ED00E000B583B050
:1094300003460A468DF8073013468DF806309DF82E
:109440000630012B03D99DF80630032B0BD99DF86C
:109450000630042B03D99DF80630072B03D90849A1
:109460006B2006F047FC9DF806209DF90730114659
:109470001846FFF7B3FF00BF03B05DF804FB00BF61
:10948000EC1E030000B583B003468DF807309DF94C
:1094900007301846FFF766FF00BF03B05DF804FB16
:1094A00000B583B003468DF807309DF907301846A4
:1094B000FFF772FF00BF03B05DF804FB82B00190BC
:1094C000034A019BC2F8043300BF02B0704700BFDB
:1094D00000D0004082B00190034A019BC2F80833DB
:1094E00000BF02B0704700BF00D0004082B003460A
:1094F0008DF807309DF8073003F1804303F55043A2
:1095000001221A6000BF02B0704784B00346ADF874
:109510000630BDF8063003F1804303F550430022C6
:109520001A60BDF8063003F1804303F550431B6811
:109530000393039B00BF04B07047000082B001900A
:10954000054BD3F80022019BDB4303491340C1F8CC
:10955000003200BF02B0704700D00040024BD3F889
:109560000835DBB21846704700D00040044BD3F8F2
:109570000435034A43F00103C2F8043500BF7047C5
:1095800000D0004000B583B001900091019B002BFA
:1095900003D118493E2006F0ADFB009B002B03D100
:1095A00014493F2006F0A6FB134B1B78002B01D07B
:1095B00085231BE0114A009B1360019B1B7803F07D
:1095C0000103DBB2002B01D0FFF7D0FF0120FFF732
:1095D000B5FF019B5B7819460D20FFF727FF0D2093
:1095E000FFF750FF044B01221A700023184603B006
:1095F0005DF804FB141F0300FC2D0020002E00204A
:1096000008B50A4B1B78012B03D00949562006F0F8
:1096100071FB4FF48070FFF778FF0120FFF74EFFDA
:109620000020FFF763FF00BF08BD00BFFC2D002036
:10963000141F030008B5084B1B78012B03D0074902
:109640005E2006F057FB0120FFF744FF0420FFF7E0
:109650004DFF00BF08BD00BFFC2D0020141F0300FC
:1096600008B50B4B1B78012B03D00A49652006F087
:1096700041FB0120FFF72EFF0420FFF737FF0D20ED
:10968000FFF70EFF024B00221A7000BF08BD00BF9B
:10969000FC2D0020141F030000B583B04FF4807030
:1096A000FFF733FFFFF75AFF03468DF80730054BEE
:1096B0001B689DF807201046984700BF03B05DF86F
:1096C00004FB00BF002E002000B589B0019000917E
:1096D000009B0793019B1B788DF80830019B5B680A
:1096E0000393019B9B68DBB28DF81030019BDB6814
:1096F0000593019B1B69DBB28DF81830074A079B65
:1097000052F823300649079A51F8221002AA10464F
:10971000984700BF09B05DF804FB00BF042E00208D
:10972000142E002010B58AB003900291019200938C
:10973000039B1B7809932249099B019A41F8232036
:109740002049099B009A41F82320002308931E4BCF
:1097500004AC0FCB84E80F00029B1B788DF810300F
:10976000029B5B788DF81130029B9B788DF812304C
:10977000029BDB788DF81330029B1B798DF8153036
:10978000029B5B798DF81630029B9B680693029BC7
:109790001B7B8DF81C30029B5B7B8DF81D30039B7F
:1097A000181D019B002B01D0084A00E00022099BF4
:1097B00004A900F073FA0890089B18460AB010BD7F
:1097C000042E0020142E00203C210300C996020024
:1097D00082B003468DF807309DF90730002B0CDB73
:1097E0009DF8073003F01F0205499DF907305B091A
:1097F000012000FA02F241F8232000BF02B07047B6
:1098000000E100E082B0034600918DF807309DF939
:109810000730002B0ADB009BDAB20C499DF90730B8
:109820005201D2B20B4483F800230BE0009BDAB262
:1098300007499DF8073003F00F03043B5201D2B2F1
:109840000B441A7600BF02B0704700BF00E100E091
:1098500000ED00E082B00190019B03F06043B3F1A2
:10986000005F0CBF01230023DBB2184602B0704733
:1098700082B00190019B1B0B5BB2184602B070478F
:1098800000B583B003460A468DF8073013468DF8BD
:1098900006309DF80630012B03D99DF80630032BC6
:1098A0000BD99DF80630042B03D99DF80630072B01
:1098B00003D908496B2006F01DFA9DF806209DF992
:1098C000073011461846FFF79DFF00BF03B05DF853
:1098D00004FB00BF4C21030000B583B003468DF8A4
:1098E00007309DF907301846FFF772FF00BF03B03D
:1098F0005DF804FB82B001900B468DF803309DF8B3
:109900000330019A134401221A6000BF02B070476D
:1099100084B001900B46ADF80230BDF80230019AD8
:10992000134400221A60BDF80230019A13441B68E8
:109930000393039B00BF04B0704782B001900B46B5
:10994000ADF80230BDF80230019A13441B68002BB9
:1099500014BF01230023DBB2184602B0704782B067
:1099600001900091019B009AC3F8042300BF02B04C
:10997000704782B001900091019B009AC3F80823C0
:1099800000BF02B0704782B00190019B0722C3F86C
:10999000002500BF02B0704784B00390029101928D
:1099A0000093039B029AC3F80825039B019AC3F80E
:1099B0000C25039B009AC3F8102500BF04B0704724
:1099C00082B001900091009A019BC3F8242500BF4A
:1099D00002B0704784B0039002910192029A039BF7
:1099E000C3F84425039B019AC3F8482500BF04B07F
:1099F000704784B0039002910192029A039BC3F8CE
:109A00003425039B019AC3F8382500BF04B0704782
:109A100084B001900B468DF8033013468DF8023068
:109A20009DF80230002B14BF01230023DBB2039307
:109A30009DF80330032B10D0032B13DC012B02D035
:109A4000022B05D00EE0039B43F0020303930AE0D0
:109A5000039B43F00403039305E0039B43F00603D9
:109A6000039300E000BF019B039AC3F8542500BF95
:109A700004B0704782B001900B468DF803309DF81A
:109A80000320019BC3F8C02500BF02B0704782B01D
:109A90000190019B0122C3F8502500BF02B070471E
:109AA00082B00190019B0022C3F8502500BF02B094
:109AB000704782B00190019B0122C3F8402500BF8E
:109AC00002B0704782B00190019B0022C3F840258C
:109AD00000BF02B07047000000B583B00190019B49
:109AE0001B68184600F0B1F80346002B04D10B495F
:109AF0004FF4F67006F0FEF8019B1B681F2B02D88E
:109B00004FF0A04306E0019B1B6803F01F02019B7E
:109B10001A60034B184603B05DF804FB7021030084
:109B20000003005000B585B00190084611461A4662
:109B300003468DF803300B468DF8023013468DF83E
:109B4000013001AB1846FFF7C7FF03909DF80320D3
:109B50009DF802305B001A439DF801309B001A43C8
:109B60009DF818301B0242EA03019DF81C301B04CB
:109B7000019A1943039B02F5E07243F8221000BFDB
:109B800005B05DF804FB00B585B003900023019398
:109B9000002300930023012201210398FFF7C2FF55
:109BA00000BF05B05DF804FB00B585B003900B461F
:109BB0008DF80B309DF80B300022019200220092AC
:109BC000002200210398FFF7ADFF00BF05B05DF84C
:109BD00004FB00B585B0019001AB1846FFF77CFF90
:109BE0000390019B012202FA03F31946039800F047
:109BF00018F800BF05B05DF804FB00B585B0019012
:109C000001AB1846FFF768FF0390019B012202FA9F
:109C100003F31946039800F00EF800BF05B05DF895
:109C200004FB82B001900091019B009AC3F80825C3
:109C300000BF02B0704782B001900091019B009A72
:109C4000C3F80C2500BF02B0704784B00190019B9F
:109C50005B09029300230393029B002B03D0029B1A
:109C6000012B04D007E04FF0FF33039303E04FF6DE
:109C7000FF73039300BF019B03F01F030193039A3B
:109C8000019B22FA03F303F00103002B14BF01230D
:109C90000023DBB2184604B07047000000B58DB059
:109CA0000590049103920293049B002B03D16C490D
:109CB000AD2006F01FF8059B1B791A461346DB0002
:109CC00013449B00674A13440A930A9B1B7F002B93
:109CD00003D008230793079BBDE0059B1B680993EE
:109CE000059B1A68059B1B7919465F4B53F8213079
:109CF00019461046FFF7F4FA0346002B03D0112350
:109D00000793079BA7E00A9B039A1A600A9B029A93
:109D10005A60049B1B7B012B05D8049B1B781846BB
:109D2000FFF76BFF04E0049B1B781846FFF751FF19
:109D3000049B1B7818460023019300230093002303
:109D400000220121FFF7EEFE049B5B78FF2B09D078
:109D5000049B5B780B930B98FFF74FFF0B98FFF773
:109D600012FF02E04FF0FF330B93049B9B78FF2B15
:109D700007D0049B9B78089301210898FFF714FFF4
:109D800002E04FF0FF330893049B9A780A9B83F814
:109D90002020049BDA780A9BDA77049BDB78FF2B80
:109DA00017D0049B1B79002B05D0049BDB78184649
:109DB000FFF723FF04E0049BDB781846FFF709FF59
:109DC000049BDB781846FFF7DEFE049B1A790A9B9A
:109DD0009A77049B1B781946089B0B9A0998FFF702
:109DE000DBFD049B9B6819460998FFF7E9FD049B7E
:109DF000197B049B5B7B1A460998FFF709FE049BBD
:109E00009B7919460998FFF735FE0998FFF7BBFDC6
:109E10000A9B1B68002B15D0059B1B681846FFF793
:109E200027FD03461A46049B5B7919461046FFF747
:109E300027FD059B1B681846FFF71AFD03461846C9
:109E4000FFF74AFD0A9B00225A770A9B01221A77E4
:109E500000230793079B18460DB05DF804FB00BF75
:109E600098210300242E00201C22030000B583B09B
:109E70000190019BDB7FFF2B0ED0019B9B7F002B72
:109E800005D0019BDB7F1846FFF7B7FE04E0019B7E
:109E9000DB7F1846FFF79DFE019B00225A77019B4E
:109EA00000221A72019B1B68019A02F10800019AB4
:109EB00052681146984700BF03B05DF804FB00B537
:109EC00083B001900B468DF803309DF8033083F08A
:109ED0000103DBB2002B04D040210198FFF749FDBC
:109EE00003E040210198FFF73AFD00BF03B05DF8A1
:109EF00004FB00B583B001900091009B03F00103C7
:109F0000002B03D00198FFF7C2FD02E00198FFF794
:109F1000C7FD009B03F00203002B03D00198FFF75D
:109F2000C8FD02E00198FFF7CDFD00BF03B05DF86A
:109F300004FB00B587B00390029101920093019B4E
:109F40001B68002B0AD0019B1B681846FFF782FC98
:109F5000034683F00103DBB2002B0ED1019B9B680B
:109F6000002B11D0019B9B681846FFF773FC03463A
:109F700083F00103DBB2002B06D0029B00225A774C
:109F800010230593059B54E0019B1968019B5B68B6
:109F90001A460398FFF71EFD019B9968019BDB6839
:109FA0001A460398FFF725FD4FF48C710398FFF7CD
:109FB000AFFC00990398FFF79CFF009B03F0080398
:109FC000002B03D110210398FFF794FC029B1B6820
:109FD000002B1FD100BF4FF48C710398FFF7ADFC2D
:109FE000034683F00103DBB2002BF4D1029BDB7F3D
:109FF000FF2B1BD0029B9B7F002B05D0029BDB7F9E
:10A000001846FFF7FAFD11E0029BDB7F1846FFF7C9
:10A01000E0FD0BE0009B03F00403002B0CBF0123C9
:10A020000023DBB219460398FFF749FF002305938D
:10A03000059B184607B05DF804FB000010B586B01C
:10A04000039002910192039B1B791A461346DB0091
:10A0500013449B003A4A13440593059B1B7F002B36
:10A0600004D1384940F22D2005F044FE029B1B68C4
:10A07000002B08D1029B5B68002B04D0314940F2D1
:10A080002E2005F037FE029B9B68002B08D1029B17
:10A09000DB68002B04D02B4940F22F2005F02AFE6C
:10A0A000039B1B79002B09D1029BDB68B3F5803F32
:10A0B00004D2029B5B68B3F5803F04D321494FF47F
:10A0C0000C7005F017FE00230493059B5B7FDBB249
:10A0D000002B03D011230493049B2EE0059B1B68E7
:10A0E000002B07D0019B03F01403002B02D1059B2A
:10A0F00001225A77059B029A03F10C0413460FCBF9
:10A1000084E80F00059BDB7FFF2B0ED0059B9B7F18
:10A11000002B05D0059BDB7F1846FFF75AFD04E0B6
:10A12000059BDB7F1846FFF768FD039B1868019BC2
:10A13000029A0599FFF7FDFE0346184606B010BDCA
:10A14000242E00209821030000B583B001900091D7
:10A150004FF48C710198FFF7F0FB0346002B10D0F1
:10A160004FF48C710198FFF7D3FB009B1B68002B09
:10A1700004D1064940F2972005F0BCFD0098FFF796
:10A1800075FE00BF03B05DF804FB00BF982103001B
:10A1900008B503490348FFF7D7FF00BF08BD00BF5C
:10A1A000242E00200030004000B583B00190019BB8
:10A1B0001B68184600F01FF90346002B04D10B4919
:10A1C0004FF4F67005F096FD019B1B681F2B02D81B
:10A1D0004FF0A04306E0019B1B6803F01F02019BA8
:10A1E0001A60034B184603B05DF804FB20220300FD
:10A1F0000003005000B585B00190084611461A468C
:10A2000003468DF803300B468DF8023013468DF867
:10A21000013001AB1846FFF7C7FF03909DF80320FC
:10A220009DF802305B001A439DF801309B001A43F1
:10A230009DF818301B0242EA03019DF81C301B04F4
:10A24000019A1943039B02F5E07243F8221000BF04
:10A2500005B05DF804FB00B585B0039000230193C1
:10A26000002300930023012201210398FFF7C2FF7E
:10A2700000BF05B05DF804FB00B585B003900B4648
:10A280008DF80B309DF80B300022019200220092D5
:10A29000002200210398FFF7ADFF00BF05B05DF875
:10A2A00004FB00B585B0019001AB1846FFF77CFFB9
:10A2B0000390019B012202FA03F31946039800F070
:10A2C00086F800BF05B05DF804FB00B585B00190CD
:10A2D00001AB1846FFF768FF0390019B012202FAC9
:10A2E00003F31946039800F07CF800BF05B05DF851
:10A2F00004FB00B585B0019001AB1846FFF754FF91
:10A300000390039BD3F804350293029BDA43019B2D
:10A31000012101FA03F31A40039BC3F80825019BAE
:10A3200001229A40029B1A40039BC3F80C2500BFF0
:10A3300005B05DF804FB00B583B001900091009B6F
:10A34000002B03D10198FFF7C0FF02E00198FFF74F
:10A35000A8FF00BF03B05DF804FB00B585B0019015
:10A3600001AB1846FFF720FF0390039800F01FF899
:10A370000246019B22FA03F303F00103184605B0DD
:10A380005DF804FB00B585B0019001AB1846FFF7FE
:10A390000BFF0390039800F012F80246019B22FA8B
:10A3A00003F303F00103184605B05DF804FB82B027
:10A3B0000190019BD3F81035184602B0704782B067
:10A3C0000190019BD3F80435184602B0704782B063
:10A3D00001900091019B009AC3F8082500BF02B0CC
:10A3E000704782B001900091019B009AC3F80C2540
:10A3F00000BF02B0704784B00190019B5B090293DB
:10A4000000230393029B002B03D0029B012B04D05B
:10A4100007E04FF0FF33039303E04FF6FF7303931E
:10A4200000BF019B03F01F030193039A019B22FAD3
:10A4300003F303F00103002B14BF01230023DBB25D
:10A44000184604B07047000000B585B00190019B2C
:10A45000032B03D911493A2005F04CFC104A019B0B
:10A4600013441B781846FFF78DFF0346002B14BFDB
:10A47000012300238DF80F309DF80F30002B14BFFF
:10A4800001230023DBB283F00103DBB203F00103FD
:10A49000DBB2184605B05DF804FB00BF40220300A4
:10A4A000BC22030000B583B00190019B032B03D9AC
:10A4B0000749412005F01EFC064A019B13441B7806
:10A4C00000211846FFF737FF00BF03B05DF804FB1B
:10A4D00040220300BC22030000B583B00190019B21
:10A4E000032B03D90749472005F004FC064A019BCA
:10A4F00013441B7801211846FFF71DFF00BF03B06E
:10A500005DF804FB40220300BC22030000B583B0C9
:10A510000023019305E00198FFF7DEFF019B013363
:10A520000193019B032BF6D900BF00BF03B05DF878
:10A5300004FB00B583B00023019305E00198FFF709
:10A54000B1FF019B01330193019B032BF6D900BF9F
:10A5500000BF03B05DF804FB00B583B00190019B20
:10A56000032B03D907495F2005F0C4FB064A019B72
:10A5700013441B781846FFF7BCFE00BF03B05DF81C
:10A5800004FB00BF40220300BC22030000B583B0DF
:10A590000023019309E0094A019B13441B781846E4
:10A5A000FFF759FE019B01330193019B032BF2D965
:10A5B000FFF7ACFF00BF03B05DF804FBBC22030053
:10A5C00000B585B00190019B032B03D91149AC2044
:10A5D00005F090FB104A019B13441B781846FFF7C7
:10A5E000BCFE0346002B14BF012300238DF80F305F
:10A5F0009DF80F30002B14BF01230023DBB283F042
:10A600000103DBB203F00103DBB2184605B05DF8CD
:10A6100004FB00BF40220300C022030000B583B04A
:10A62000002301930AE0094A019B13441B7803218C
:10A630001846FFF721FE019B01330193019B032B79
:10A64000F1D900BF00BF03B05DF804FBC0220300D6
:10A6500084B001904FF0FF330293002303930DE089
:10A660000A4A039B13441B781A46019B934202D16A
:10A67000039B029305E0039B01330393039B032B8E
:10A68000EED9029B184604B0704700BFC0220300F9
:10A6900000B583B00190019B03F00103002B01D0B2
:10A6A000FFF774FF019B03F00203002B01D0FFF7BB
:10A6B000B5FF00BF03B05DF804FB000000B585B036
:10A6C0000190019B002B0AD0074B43F00103039339
:10A6D000019B9B010293039B0298984700E000BFF7
:10A6E00005B05DF804FB00BFD022030000B583B0C5
:10A6F0000190019B002B0AD04FF47A70FFF7DEFF28
:10A70000019B013B0193019B002BF5D100E000BFB1
:10A7100003B05DF804FB08B501F066FD00BF08BD9D
:10A7200000B589B0039002910192019B002B33D0B8
:10A730000023079303230693029A079B1344019A6D
:10A740001946002001F0C8FC0590079A059B1344A8
:10A750000793019A059BD31A0193059B002B13D1F4
:10A760000F4B1B7883F00103DBB2002B13D10120C8
:10A77000FFF7BCFF069B013B0693069B002B03D112
:10A78000074B00221A7007E0054B01221A70019B4B
:10A79000002BD1D100E000BF00BF09B05DF804FB81
:10A7A000482E002000B585B003900291054B009320
:10A7B0004023054A0299039800F012F800BF05B043
:10A7C0005DF804FB21A702004C2E002082B001900E
:10A7D00000BF02B0704782B0019000BF02B0704766
:10A7E00000B5A1B00590049103920293049806F07D
:10A7F0000DFD039B1593029B1693002317930023D3
:10A800008DF8603000231993229B1A9300231F9325
:10A810000FA91F9B0822049806F0D2FD08231F935E
:10A82000119B1293BDF84030ADF84C30BDF842306A
:10A83000ADF84E3000238DF851309DF83C3003F0D8
:10A840000303DBB2012B26D10F9BC3F395231C938B
:10A850009DF83C30C3F3C203DBB28DF85030BDF835
:10A860003C30C3F38313DBB21B931B9B9A0009A9F3
:10A870001F9B049806F0A4FD1B9B9B001F9A13448A
:10A880001F9312AA09A915AB009313461B9A1C9893
:10A8900000F0E0FE2FE09DF83C3003F00303DBB254
:10A8A000022B28D1BDF83E30C3F389139BB21E930F
:10A8B0009DF83C30C3F3C203DBB28DF850301E9BD1
:10A8C000082B28BF08231D9307A91F9B1D9A0498D6
:10A8D00006F076FD1F9A1D9B13441F931E9A1D9B25
:10A8E000D31A1E9315AB12AA07A81D9900F054FFA6
:10A8F0001E9B002BE3D1049806F097FC00BF21B00B
:10A900005DF804FB82B00190019BDB6801225A7163
:10A9100000BF02B07047000000B583B04FF0FF33B6
:10A920000193FFF7F8FE0421084800F0AFFD019005
:10A93000019B002B03DA0649412005F0DBF90348AF
:10A94000FFF7E0FF00BF03B05DF804FB641B0300EA
:10A95000E822030000B583B001900091019B1B68C1
:10A960001B6800990198984700BF03B05DF804FB8D
:10A9700000B583B00190019B1B685B680198984704
:10A9800000BF03B05DF804FB00B583B00190019BEC
:10A990001B689B680198984700BF03B05DF804FBF3
:10A9A00082B001900B468DF80330019BDB689DF867
:10A9B00003201A7100BF02B0704782B00190019B62
:10A9C000DB681B79184602B0704782B00190019B8A
:10A9D000DB6801225A7100BF02B0704782B001905B
:10A9E000019BDB685B79184602B0704700B585B003
:10A9F000019000910C4B01221A700C4806F06AFB82
:10AA00000390039B002B01D0039B08E0084806F04D
:10AA100019FE084A084BD31ADB0802930023184694
:10AA200005B05DF804FB00BFBC300020B81A03007D
:10AA300080230300641B0300CC1A0300024A034B6B
:10AA4000D31ADB0818467047641B0300CC1A0300B6
:10AA500000B587B001900B468DF803309DF80330A8
:10AA6000002B1FD0FFF7EAFF04900023059313E0AB
:10AA7000059B9B000E4A13440393039B1B881A46B5
:10AA8000019B1B689A4204D1019B059A1A6000231E
:10AA900009E0059B01330593059A049B9A42E7D38D
:10AAA000052300E00023184607B05DF804FB00BF53
:10AAB000242C002000B585B001900B468DF80330A2
:10AAC0009DF8032001AB11461846FFF7C1FF03466E
:10AAD000002B07D1019BDB00054A13440393039B22
:10AAE0001B6800E00023184605B05DF804FB00BFBA
:10AAF000CC1A030084B001900B468DF80330019B03
:10AB0000DB00174A134402939DF80330013B032BEB
:10AB10001CD801A252F823F029AB020031AB02008D
:10AB200039AB020043AB020002238DF80F3011E075
:10AB300004238DF80F300DE0029B1B798DF80F3048
:10AB400008E0029B5B798DF80F3003E000238DF85D
:10AB50000F3000BF9DF80F30184604B0704700BF9B
:10AB6000CC1A030084B00190009100238DF80F30BF
:10AB7000019B1B7803F00403DBB2002B24D0019B64
:10AB80001B78C3F30103DBB2012B02D0022B0CD0E4
:10AB900017E0009B1B68019A1288C2F38312D2B29D
:10ABA00013449A1C009B1A600BE0009B1B68019ADF
:10ABB0005288C2F3891292B213449A1C009B1A6005
:10ABC00000BF01238DF80F309DF80F30184604B0F8
:10ABD0007047000000B58BB00023ADF826303E482A
:10ABE00005F0E4F93D4805F0E1F93D4B9B6804931D
:10ABF0003C4B1B680693049A069B134002339B0050
:10AC0000374A13440433089304AB19460898FFF7F6
:10AC1000A9FF0346002B09D0049A069B1340023378
:10AC20009B002F4A134404330893EDE700BF002331
:10AC3000079311E0049B5A1C0492069A1340079A4A
:10AC4000920001A90A44264902339B000B445B6829
:10AC50001360079B01330793079B012BEAD99DF8EB
:10AC60000430C3F30103DBB2012B10D0022B1CD143
:10AC7000BDF80A30ADF82630BDF80630C3F38913AD
:10AC80009BB203339A08049B1344049313E0BDF86A
:10AC90000A30ADF82630BDF80430C3F38313DBB2BD
:10ACA0001A46049B1344049305E00F494FF4C27005
:10ACB00005F020F800BF094805F084F90590059BD0
:10ACC000002B02D0049B064A9360BDF8263018463C
:10ACD0000BB05DF804FB00BFD4340020D03400205A
:10ACE000BC3000202C2C00209023030000B585B040
:10ACF0000021074805F0E3F80390039B0293029BB1
:10AD000083F310030193019B184605B05DF804FB23
:10AD1000D834002000B589B00390029101920093CD
:10AD2000039B1B0C0793FFF7E1FF0690FFF786FEDE
:10AD30000246079B934204D3214940F2A91004F034
:10AD4000D9FF069B1904009B5A1C0A9B1340079AC3
:10AD50000A431C4902339B000B445A60009A0A9B29
:10AD6000134002339B00174A134404330593039B9B
:10AD700003F00703D9B2059A137861F3C503137082
:10AD8000019B03F00F03D9B2059A138861F389136D
:10AD90001380029BC3F31501059A136861F39F2387
:10ADA0001360059A1378012161F301031370059A6A
:10ADB00013786FF38203137000BF09B05DF804FBD2
:10ADC00090230300BC30002000B58DB003900291A9
:10ADD00013468DF80730039B02330A9301238DF845
:10ADE000273000238DF81B300DF11B03184603F0AC
:10ADF000D1FC404B5A68029B1A603F4B1A683D4B8E
:10AE000099683C4B5B68CB1A134401330B9314E0F5
:10AE100001213A4805F09AF8FFF7DCFE0790079900
:10AE2000364805F093F8344B1A68324B9968314B29
:10AE30005B68CB1A134401330B930A9A0B9B9A421B
:10AE4000E6D89DF82730002B48D0002305939DF8C5
:10AE50000730002B17D09DF81430012262F3010354
:10AE60008DF814309DF8143043F004038DF814303D
:10AE7000039B03F00F03DAB2BDF8143062F38913B9
:10AE8000ADF8143016E09DF81430022262F301038D
:10AE90008DF814309DF8143043F004038DF814300D
:10AEA000039BC3F309039AB2BDF8163062F38F1304
:10AEB000ADF816300F4B5A680F4B1B681340023326
:10AEC0009B000C4A134404330893059A089B1A60AC
:10AED000084B5A680A9B1344064A53609DF81B307E
:10AEE000184603F06DFC9DF8273018460DB05DF84C
:10AEF00004FB00BFBC3000202C2C0020D8340020E4
:10AF000000B58BB005900491039202931F4B1B6810
:10AF1000079306AB012219460298FFF755FF034637
:10AF2000002B24D0069B023309930023089311E0E1
:10AF3000089B9B00039A1A44099B591C0991079985
:10AF40000B401268124902339B000B445A60089B65
:10AF500001330893089A029B9A42E9D3069A079B09
:10AF600000931346029A04990598FFF7D3FE084B05
:10AF70001B78002B05D000BF00F07EF80346002BA5
:10AF8000FAD100BF0BB05DF804FB00BF2C2C0020F1
:10AF9000BC30002000B583B0019000910023002256
:10AFA00000990198FFF7ACFF00BF03B05DF804FB08
:10AFB00000B587B0039002910192019B059305AA09
:10AFC000012302990398FFF79BFF00BF07B05DF8CC
:10AFD00004FB00B587B00390029101920093019B9E
:10AFE0000493009B059304AA022302990398FFF798
:10AFF00087FF00BF07B05DF804FB00B589B0039080
:10B00000029101920093019B0593009B06930A9B7A
:10B01000079305AA032302990398FFF771FF00BF66
:10B0200009B05DF804FB00B58BB00390029101926A
:10B030000093019B0593009B06930C9B07930D9B2C
:10B0400008930E9B099305AA052302990398FFF71D
:10B0500057FF00BF0BB05DF804FB0000054B9A687A
:10B06000044B5B689A420CBF01230023DBB21846F5
:10B07000704700BFBC30002000B599B0FFF7EEFF6D
:10B080000346002B01D00023C0E19B4B0022C3F8F4
:10B090001824BFF34F8F00BF974B9B680493974BC7
:10B0A0001B681093049A109B134002339B00924A32
:10B0B00013440433119300231793002316930023A2
:10B0C0000F9304AB19461198FFF74CFD0346002B74
:10B0D00019D0894BD3F81834002B14D1864B5A68F9
:10B0E000049B9A4205D8844B5B68834A9360002393
:10B0F0008CE1049A109B134002339B007E4A134458
:10B1000004331193DDE70023159311E0049B5A1CCF
:10B110000492109A1340159A920001A90A447649A4
:10B1200002339B000B445B681360159B013315933E
:10B13000159B012BEAD99DF8043003F00303DBB221
:10B14000022B40F09C80BDF80630C3F389139BB2FC
:10B150000D93BDF80630C3F389139BB2A02B28BF13
:10B16000A0239BB20C930C9BC3F309039AB2BDF8C6
:10B17000063062F38F13ADF806300C9B08330B9347
:10B180009DF80430C3F3C203DBB20F930B995C4804
:10B1900005F0ABFF1790179B002B00F0D38017989A
:10B1A00006F034F801A9169B0822179806F0EAF871
:10B1B000169B08331693049BDA43109B134001330C
:10B1C0009B000A930C9A0A9B9A4242D90A9B002B35
:10B1D00008D0049A109B134002339B00464A134444
:10B1E000043300E0474B08930A9B002B02D00A9BD4
:10B1F000DBB201E00C9BDBB28DF81F300A9B002B09
:10B2000001D0404B00E0002306930A9B002B06D0A0
:10B210000C9BDAB20A9BDBB2D31ADBB200E000234C
:10B220008DF817309DF81F20169B0899179806F087
:10B23000A9F89DF81F30169A13441693069B002B0D
:10B2400016D09DF81720169B0699179806F09AF8C5
:10B250000EE0049A109B134002339B00264A1344CD
:10B2600004330993169B0C9A0999179806F08AF8EB
:10B270000D9B03339A08049B1344049362E09DF8EA
:10B28000043003F00303DBB2012B5BD1BDF80430C3
:10B29000C3F38313DBB2062B28BF0623DAB2BDF853
:10B2A000043062F38913ADF80430BDF80430C3F301
:10B2B0008313DBB202330E939DF80430C3F3C20351
:10B2C000DBB20F930E9B9B0019460D4805F00DFF56
:10B2D0001790179B002B35D0179805F097FF01A901
:10B2E000169B0822179806F04DF8169B0833169304
:10B2F000002315931DE000BFBC3000202C2C002043
:10B30000B81A0300C8300020049B5A1C0492109AFB
:10B31000134002339B003F4A1344191D169B04221D
:10B32000179806F02FF8169B04331693159B0133DC
:10B330001593BDF80430C3F38313DBB21A46159B93
:10B340009342E1D3179B002B40D0324BD3F81034FB
:10B350001493304BD3F81834002B1BD0179805F0FA
:10B3600064FF4DE000238DF84F301498FFF736FB53
:10B370000346002B02D001238DF84F309DF84F304B
:10B38000002B03D017991498FFF7E4FA149BDB689D
:10B390001B681493149B002BE4D1179805F045FF0C
:10B3A00000238DF803300DF10303184603F0F2F982
:10B3B000184BD3F81834002B02D1049B154A936024
:10B3C0009DF80330184603F0FBF919E0114BD3F850
:10B3D0001034129306E01298FFF7D6FA129BDB683E
:10B3E0001B681293129B002BF5D10B4A0B4BD31AFF
:10B3F000DB081B0443F0020309491846FFF7CAFDA6
:10B40000FFF72CFE034683F00103DBB2184619B0A8
:10B410005DF804FBBC300020041B0300CC1A0300C1
:10B420002024030000B585B00023039323E0164BCE
:10B43000D3F81034029301238DF807300FE00298FF
:10B44000FFF7BBFA03461A46039B934203D100233E
:10B450008DF8073006E0029BDB681B680293029BB5
:10B46000002BECD19DF80730002B01D0039B07E0A7
:10B47000039B01330393039B092BD8DD4FF0FF336C
:10B48000184605B05DF804FBBC30002000B585B05F
:10B4900001900B468DF80330FFF7C4FF0390039B28
:10B4A000B3F1FF3F01D1039B22E0039BDBB21946BE
:10B4B0000198FFF775FA104BD3F81034002B08D120
:10B4C0000D4A019BC2F81034019BDB6800221A6010
:10B4D0000DE0094BD3F81034DA68019BDB68126881
:10B4E0001A60054BD3F81034DB68019A1A60039B8D
:10B4F000184605B05DF804FBBC30002000B583B0F1
:10B500000C4BD3F8103401930A4B01221A7009E056
:10B510000198FFF75AFA0198FFF72AFA019BDB68B6
:10B520001B680193019B002BF2D100BF00BF03B049
:10B530005DF804FBBC30002082B00190009100BF98
:10B5400002B0704710B584B003900291039BDB8872
:10B55000002B0AD0039BDB881A461F4B009313462F
:10B560001E4A1F49029804F069FE039B1B7A052BB3
:10B570002ED0039B5B7A002B12D0039B9B881A462C
:10B58000039B1B7A19461046FFF7B4FA03461A4686
:10B59000144B53F822301A461349029804F04EFE19
:10B5A000039B1B6819460298FFF7C6FF039B1B7A93
:10B5B0001A460E4B53F82240039B9B8800211846E5
:10B5C000FFF778FA034622460949029804F036FE4E
:10B5D00000BF04B010BD00BF542403006424030066
:10B5E0009C240300442C0020B4240300302C0020B1
:10B5F000B824030000B585B00390029113468DF87E
:10B600000730039B1B7A052B0FD0039B5B7A002B23
:10B6100006D00D4B1B681A460C49029804F00EFE2A
:10B620000B49029804F00AFE07E09DF80730002B52
:10B6300003D00749029804F001FE029804F0DCFDF3
:10B6400000BF05B05DF804FB442C0020B4240300C7
:10B65000C424030030B58BB0079006910592049383
:10B660000E9B1B7B8DF827300E9B00221A730E99C0
:10B670000498FFF767FF059B062B7FD801A252F8BD
:10B6800023F000BFA1B60200ABB60200BBB60200B9
:10B69000CFB60200EDB6020015B7020045B70200B2
:10B6A00007990E9804F0CAFD69E0069B1B681A46CC
:10B6B00007990E9804F0C2FD61E0069B1A68069B8C
:10B6C00004331B6807990E9804F0B8FD57E0069BF9
:10B6D0001A68069B04331968069B08331B6800939D
:10B6E0000B4607990E9804F0A9FD48E0069B1968DF
:10B6F000069B04331868069B08331B68069A0C32B5
:10B7000012680192009303460A4607990E9804F0C6
:10B7100095FD34E0069B1868069B04331C68069B65
:10B7200008331B68069A0C321268069910310968B2
:10B730000291019200932346024607990E9804F065
:10B740007DFD1CE0069B1C68069B04331D68069B60
:10B7500008331B68069A0C32126806991031096882
:10B7600006981430006803900291019200932B46D2
:10B77000224607990E9804F061FD00E000BF002208
:10B780000E990498FFF736FF0E9B9DF827201A7339
:10B7900000BF0BB030BD00BF00B587B00390029171
:10B7A00001920093029B082B60D8009B1B7B8DF8B5
:10B7B0001330009B00221A7300990198FFF7C2FE14
:10B7C0000023059314E0059A029B9A4209D2039A3A
:10B7D000059B13441B781A462649009804F02EFD59
:10B7E00003E02549009804F029FD059B01330593EA
:10B7F000059B072BE7D92149009804F01FFD002382
:10B80000059326E0059A029B9A421BD2039A059B58
:10B8100013441B788DF812309DF812307E2B0AD815
:10B820009DF81230184606F085F80346002B02D02A
:10B830009DF8123000E02E231A461149009804F0BA
:10B84000FDFC03E00F49009804F0F8FC059B013370
:10B850000593059B072BD5D9012200990198FFF785
:10B86000C9FE009B9DF813201A7300E000BF07B0CB
:10B870005DF804FBC8240300D0240300D424030093
:10B88000D8240300DC24030000B585B00190019B9F
:10B89000002B0AD0074B43F001030393019B9B014C
:10B8A0000293039B0298984700E000BF05B05DF843
:10B8B00004FB00BF6028030000B583B00190019B2A
:10B8C000002B0AD04FF47A70FFF7DEFF019B013B9B
:10B8D0000193019B002BF5D100E000BF03B05DF8A0
:10B8E00004FB000000B583B00190019B1B68184663
:10B8F00000F0AEF80346002B04D10B494FF4F6706C
:10B9000004F0F8F9019B1B681F2B02D84FF0A043ED
:10B9100006E0019B1B6803F01F02019B1A60034BAA
:10B92000184603B05DF804FBE02403000003005058
:10B9300000B585B00190084611461A4603468DF8B9
:10B9400003300B468DF8023013468DF8013001AB01
:10B950001846FFF7C7FF03909DF803209DF80230BB
:10B960005B001A439DF801309B001A439DF8183084
:10B970001B0242EA03019DF81C301B04019A194383
:10B98000039B02F5E07243F8221000BF05B05DF89A
:10B9900004FB00B585B003900023019300230093BE
:10B9A0000023012201210398FFF7C2FF00BF05B069
:10B9B0005DF804FB00B585B0019001AB1846FFF7B8
:10B9C00091FF0390019B012202FA03F319460398A9
:10B9D00000F02AF800BF05B05DF804FB00B585B0A3
:10B9E000019001AB1846FFF77DFF0390019B0122F8
:10B9F00002FA03F31946039800F020F800BF05B0DF
:10BA00005DF804FB00B583B001900091009B002B12
:10BA100003D10198FFF7E2FF02E00198FFF7CAFFA8
:10BA200000BF03B05DF804FB82B001900091019B60
:10BA3000009AC3F8082500BF02B0704782B0019099
:10BA40000091019B009AC3F80C2500BF02B070471B
:10BA500084B00190019B5B09029300230393029B36
:10BA6000002B03D0029B012B04D007E04FF0FF33E3
:10BA7000039303E04FF6FF73039300BF019B03F0B2
:10BA80001F030193039A019B22FA03F303F00103BE
:10BA9000002B14BF01230023DBB2184604B070470B
:10BAA00000B583B003468DF807309DF80730023BA0
:10BAB0000B2B00F29F8001A252F823F0DDBB0200A5
:10BAC000F5BB020095BB020065BB02007DBB020016
:10BAD000ADBB0200C5BB02001DBB0200EDBA0200F7
:10BAE00005BB020035BB02004DBB0200444A454B7A
:10BAF000D31ADB081B0443F0040343491846FFF73D
:10BB000049FA78E03E4A3F4BD31ADB081B0443F066
:10BB100004033E491846FFF73DFA6CE0384A394BBA
:10BB2000D31ADB081B0443F0040339491846FFF716
:10BB300031FA60E0324A334BD31ADB081B0443F07E
:10BB4000040334491846FFF725FA54E02C4A2D4BDC
:10BB5000D31ADB081B0443F004032F491846FFF7F0
:10BB600019FA48E0264A274BD31ADB081B0443F096
:10BB700004032A491846FFF70DFA3CE0204A214BFE
:10BB8000D31ADB081B0443F0040325491846FFF7CA
:10BB900001FA30E01A4A1B4BD31ADB081B0443F0AE
:10BBA000040320491846FFF7F5F924E0144A154B21
:10BBB000D31ADB081B0443F004031B491846FFF7A4
:10BBC000E9F918E00E4A0F4BD31ADB081B0443F0C7
:10BBD000040316491846FFF7DDF90CE0084A094B43
:10BBE000D31ADB081B0443F0040311491846FFF77E
:10BBF000D1F900E000BF00BF03B05DF804FB00BF57
:10BC0000041B0300CC1A03000025030014250300C5
:10BC1000282503003C250300502503006025030070
:10BC2000802503009C250300B4250300D0250300D4
:10BC3000E025030000B583B04FF480410020FEF7FB
:10BC4000D5FE0190019B0093009B002B04D00B4A72
:10BC50008221009802F07CFBFEF75EFE084A094B49
:10BC6000D31ADB081B0443F0040307491846FFF707
:10BC700091F900BF03B05DF804FB00BF002603008C
:10BC8000041B0300CC1A03006426030008B50D4A08
:10BC90000D4BD31ADB081B0443F004030B49184671
:10BCA000FFF778F903F028FF064A074BD31ADB08A1
:10BCB0001B0443F0040306491846FFF76BF900BF65
:10BCC00008BD00BF041B0300CC1A03008826030034
:10BCD000AC26030000B585B01D4A1E4BD31ADB0805
:10BCE0001B0443F004031C491846FFF753F91B4992
:10BCF0000320FBF7C9FE0390039B0293029B002BDA
:10BD000004D0174AC521029802F022FB0DF103036B
:10BD100019460020FCF73CF803460393039B01936C
:10BD2000019B002B04D00E4AC821019802F010FBA1
:10BD3000074A084BD31ADB081B0443F004030949E4
:10BD40001846FFF727F900BF05B05DF804FB00BFF8
:10BD5000041B0300CC1A030048270300A1BA020009
:10BD6000002603006827030008B5294A294BD31A87
:10BD7000DB081B0443F0040327491846FFF70AF9C0
:10BD800000F018FE224A234BD31ADB081B0443F0B1
:10BD9000040322491846FFF7FDF801210E2001F0A7
:10BDA00007FC0346002B0BD1194A1A4BD31ADB08A8
:10BDB0001B0443F004031A491846FFF7EBF81AE096
:10BDC000134A144BD31ADB081B0443F00403154930
:10BDD0001846FFF7DFF80E4A0E4BD31ADB081B0498
:10BDE00043F0040310491846FFF7D4F84FF47A7073
:10BDF000FFF762FDD1E7064A064BD31ADB081B04A6
:10BE000043F0040309491846FFF7C4F800BF08BD12
:10BE1000041B0300CC1A030090270300A82703008B
:10BE2000C0270300DC270300FC27030010280300C1
:10BE300000B585B01E4800F0DCF90020FFF7A9FD31
:10BE40000A20FFF739FD01210020FFF7DBFD0A2062
:10BE5000FFF732FD164800F0CCF9FFF7EBFEFFF7D5
:10BE600015FFFFF737FFFFF77FFF124A124BD31A78
:10BE7000DB081B0443F0040310491846FFF78AF857
:10BE8000052303930E4A6B4692E8030083E8030000
:10BE900008238DF80B306B469DF80B209DF80A1097
:10BEA000039801F0A4FB4FF4C870FFF705FDE7E726
:10BEB00030280300041B0300CC1A030044280300AD
:10BEC0005428030082B0234B0193019B08221A617E
:10BED000019B08225A61019B1F4A9A61019B1F4ADC
:10BEE000DA61019B4FF480521A62019B00229A6230
:10BEF000019B00225A62019B0222DA62019B164AD0
:10BF0000C3F8D820019B164AC3F8DC20019B80228D
:10BF1000C3F8E020019B0022C3F8E820019B002227
:10BF2000C3F8E420019B0222C3F8EC20019B0733F5
:10BF30000C4A10681860019B0B4A106818609188C1
:10BF4000927999809A71019B20229A7100BF02B068
:10BF5000704700BFDC3400206828030074360020DE
:10BF600074460020742803007828030000B589B0C7
:10BF700003900291019200230693039BDB680593D3
:10BF8000039B1B690493049A059B9A4205D9049A62
:10BF9000059BD31A013B079307E0039B9A6804991A
:10BFA000059BCB1A1344013B0793039B9A68059B9F
:10BFB000D31A079A934228BF13460793079A019B07
:10BFC000934228BF13460793039B5A68059B13446B
:10BFD000079A0299184605F0B5FC069A079B134488
:10BFE0000693029A079B13440293019A079BD31A64
:10BFF0000193059A079B13440593039B9B68059A3D
:10C000009A4201D100230593039B059ADA60019BB4
:10C01000002BB5D1069B184609B05DF804FB00B5AE
:10C0200089B0039002910192039BDB680793039B05
:10C030009A68079BD31A0693069A019B9A420ED9D7
:10C04000039B5A68079B1344019A0299184605F00E
:10C0500079FC079A019B1A44039BDA601AE0069B5D
:10C060000593039B5A68079B1344059A0299184647
:10C0700005F068FC019A069BD31A0593039B586848
:10C08000029A069B1344059A194605F05BFC039B34
:10C09000059ADA6000BF09B05DF804FB86B0019034
:10C0A000019B1B690493019BDB680393049A039B28
:10C0B0009A4208D8019B9A68039BD21A049B1344A6
:10C0C000013B059304E0049A039BD31A013B0593BB
:10C0D000059B184606B0704700B589B003900291E1
:10C0E0000192029B0693039B5A1C13465B00134468
:10C0F000DB00204A13440593059B5B69022B29D082
:10C10000022B2ED8002B02D0012B13D029E005984A
:10C11000FFF7C4FF0490049A019B9A4202D20023C5
:10C12000079321E0019B0793019A06990598FFF771
:10C1300076FF19E00598FFF7B1FF0490019A049B80
:10C14000934228BF13460793079A06990598FFF76D
:10C1500066FF09E0019A06990598FFF707FF079027
:10C1600002E00023079300BF079B184609B05DF863
:10C1700004FB00BFDC34002000B587B003900291BF
:10C1800001920F4B1B78002B01D1FFF79BFE002380
:10C190008DF813300DF11303184602F0FBFA019AE3
:10C1A00002990398FFF798FF05909DF81330184601
:10C1B00002F006FB059B184607B05DF804FB00BFC4
:10C1C000DC34002000B585B001900091009805F0A6
:10C1D00015FC0390039A00990198FFF7CDFF0346E1
:10C1E000184605B05DF804FB08B5FFF76BFE00BF0D
:10C1F00008BD00B583B0019001990020FFF7E2FF70
:10C200000346184603B05DF804FB0000BFF34F8FF0
:10C2100000BF064BDB6803F4E0620449044B1343A0
:10C22000CB60BFF34F8F00BF00BFFDE700ED00E024
:10C230000400FA0582B0124B1B680193114B1B6876
:10C240000093019B082B17D1009B032B12D801A24E
:10C2500052F823F065C2020069C202006DC20200FA
:10C2600071C20200012308E0012306E0012304E07B
:10C27000012302E0012300E00023184602B07047CA
:10C28000300100103401001082B0124B1B68019382
:10C29000114B1B680093019B082B17D1009B032BAC
:10C2A00012D801A252F823F0B9C20200BDC20200A6
:10C2B000C1C20200C5C20200012308E0012306E05A
:10C2C000012304E0012302E0012300E000231846DB
:10C2D00002B07047300100103401001082B0124BE0
:10C2E0001B680193114B1B680093019B082B17D10E
:10C2F000009B032B12D801A252F823F00DC30200B9
:10C3000011C3020015C3020019C30200012308E093
:10C31000002306E0002304E0002302E0002300E005
:10C320000023184602B0704730010010340100109D
:10C3300082B0124B1B680193114B1B680093019B49
:10C34000082B17D1009B032B12D801A252F823F01F
:10C3500061C3020065C3020069C302006DC302002D
:10C36000012308E0002306E0002304E0002302E0AC
:10C37000002300E00023184602B07047300100108F
:10C380003401001082B0124B1B680193114B1B68E3
:10C390000093019B082B17D1009B032B12D801A2FD
:10C3A00052F823F0B5C30200B9C30200BDC30200B6
:10C3B000C1C30200012308E0002306E0002304E0DB
:10C3C000002302E0002300E00023184602B070477B
:10C3D000300100103401001082B0124B1B68019331
:10C3E000114B1B680093019B082B17D1009B032B5B
:10C3F00012D801A252F823F009C402000DC40200B1
:10C4000011C4020015C40200012308E0002306E065
:10C41000002304E0002302E0002300E0002318468C
:10C4200002B07047300100103401001082B0124B8E
:10C430001B680193114B1B680093019B082B17D1BC
:10C44000009B032B12D801A252F823F05DC4020016
:10C4500061C4020065C4020069C40200012308E04F
:10C46000012306E0012304E0012302E0012300E0B0
:10C470000023184602B0704730010010340100104C
:10C48000024B034A1A6000BF704700BF682C0020AF
:10C490000090D00308B5FFF7CDFE0346002B0ED069
:10C4A0004FF080430022C3F80C214FF0804300225C
:10C4B000C3F810214FF080430022C3F83825FFF75E
:10C4C000E3FE0346002B76D04FF080537D4AD3F82D
:10C4D0000434C2F820354FF080537A4AD3F8083438
:10C4E000C2F824354FF08053764AD3F80C34C2F8A2
:10C4F00028354FF08053734AD3F81034C2F82C35E6
:10C500004FF080536F4AD3F81434C2F830354FF0EF
:10C5100080536C4AD3F81834C2F834354FF0805346
:10C52000684AD3F81C34C2F840354FF08053654A4E
:10C53000D3F82034C2F844354FF08053614AD3F821
:10C540002434C2F848354FF080535E4AD3F828347B
:10C55000C2F84C354FF080535A4AD3F82C34C2F805
:10C5600050354FF08053574AD3F83034C2F8543521
:10C570004FF08053534AD3F83434C2F860354FF04B
:10C580008053504AD3F83834C2F864354FF08053A2
:10C590004C4AD3F83C34C2F868354FF08053494ACE
:10C5A000D3F84034C2F86C354FF08053454AD3F885
:10C5B0004434C2F87035FFF791FE0346002B02D0D9
:10C5C000414B424A1A60FFF7B3FE0346002B03D0EB
:10C5D0003F4BFB22C3F81825FFF7D4FE0346002B80
:10C5E0000AD03C4B1B6823F00F023B4B1B6803F047
:10C5F0000F03384913430B60FFF7EEFE0346002B91
:10C6000003D0364B4FF400721A60FFF70FFF03465A
:10C61000002B0DD04FF08043D3F8003403F001031A
:10C62000002B05D04FF080436FF00102C3F80024C7
:10C630002B4BD3F888302A4A43F47003C2F8883071
:10C64000BFF34F8F00BFBFF36F8F00BF4FF01023BA
:10C65000D3F80032002B05DB4FF01023D3F804325F
:10C66000002B2BDA1F4B0122C3F8042500BF1D4B02
:10C67000D3F80034002BFAD04FF010231222C3F865
:10C68000002200BF174BD3F80034002BFAD04FF034
:10C6900010231222C3F8042200BF124BD3F8003437
:10C6A000002BFAD00F4B0022C3F8042500BF0D4B1E
:10C6B000D3F80034002BFAD0FFF7A8FDFFF7E0FE17
:10C6C00000BF08BD00C000408C56004048810300F8
:10C6D00000F00040E40E0040580200104096024076
:10C6E00000ED00E000E0014041DF704700BF184668
:10C6F00000B585B00190019B002B0AD0074B43F099
:10C7000001030393019B9B010293039B02989847AB
:10C7100000E000BF05B05DF804FB00BF4029030046
:10C7200000B583B00190019B002B0AD04FF47A70C2
:10C73000FFF7DEFF019B013B0193019B002BF5D12D
:10C7400000E000BF03B05DF804FB000000B583B05B
:10C750000190019B1B68184600F0B9F80346002BB6
:10C7600004D10B494FF4F67003F0C4FA019B1B6827
:10C770001F2B02D84FF0A04306E0019B1B6803F07B
:10C780001F02019B1A60034B184603B05DF804FBBF
:10C79000802803000003005000B585B001900846D2
:10C7A00011461A4603468DF803300B468DF80230C9
:10C7B00013468DF8013001AB1846FFF7C7FF039011
:10C7C0009DF803209DF802305B001A439DF801306C
:10C7D0009B001A439DF818301B0242EA03019DF8A2
:10C7E0001C301B04019A1943039B02F5E07243F8C5
:10C7F000221000BF05B05DF804FB00B585B00390C2
:10C8000000230193002300930023012201210398B8
:10C81000FFF7C2FF00BF05B05DF804FB00B585B0AF
:10C82000019001AB1846FFF791FF0390019B012295
:10C8300002FA03F31946039800F035F800BF05B07B
:10C840005DF804FB00B585B0019001AB1846FFF719
:10C850007DFF0390019B012202FA03F3194603981E
:10C8600000F02BF800BF05B05DF804FB00B585B003
:10C87000019001AB1846FFF769FF0390039800F0A1
:10C880000AF80246019B22FA03F303F0010318465B
:10C8900005B05DF804FB82B00190019BD3F8103520
:10C8A000184602B0704782B001900091019B009A37
:10C8B000C3F8082500BF02B0704782B00190009114
:10C8C000019B009AC3F80C2500BF02B0704784B0EA
:10C8D0000190019B5B09029300230393029B002BB1
:10C8E00003D0029B012B04D007E04FF0FF330393EA
:10C8F00003E04FF6FF73039300BF019B03F01F0398
:10C900000193039A019B22FA03F303F00103002B26
:10C9100014BF01230023DBB2184604B0704700B5F2
:10C920008FB003900291009313468DF807300023D7
:10C930000D93029B09939DF807300A93009B0B937C
:10C940009DF840300C93039B043309A9002218463C
:10C95000FDF774FB0D900D9B18460FB05DF804FBBE
:10C9600000B583B001900B468DF803300198FFF7B6
:10C970007DFF0346002B03D01020FFF74FFF02E09E
:10C980001020FFF75FFF00BF03B05DF804FB00005D
:10C9900082B001900091019B1B78002B03D1044BC6
:10C9A00001221A7000E000BF00BF02B0704700BF54
:10C9B0006C2C002010B588B000230793222000F0D3
:10C9C000E1FD274A04AB1268114619800233120CAC
:10C9D0001A7003238DF8113004AB224A194629201E
:10C9E000FCF728FA0790079B0693069B002B04D0C0
:10C9F0001D4A4A21069801F0ABFC01212920FCF7D1
:10CA000095FA1A4B6C460FCB84E80F004FF0007379
:10CA1000029300238DF80C3022238DF803300E236F
:10CA20008DF802300F238DF801300D238DF8003082
:10CA300000238DF80D30694600230D4A0D48FCF7A0
:10CA400071FE0790079B0593059B002B04D0064AB7
:10CA50005821059801F07CFC00BF08B010BD00BF54
:10CA60001029030061C90200A02803001429030053
:10CA700091C902002829030008B5034B5B7C1846C6
:10CA8000FFF7E0FE00BF08BDF446002008B5034BE9
:10CA90005B7C1846FFF7C2FE00BF08BDF4460020CD
:10CAA00000B587B0FFF7E8FFC0238DF80C300123F5
:10CAB0008DF81730164B00221A709DF8172003A925
:10CAC0000023009300231348FFF729FF0490049BE1
:10CAD000002B0ED0104A7221049801F039FC08E0B6
