:020000022000DC
:10700000000004205D730200B9730200BB7302002C
:10701000BD730200BF730200C173020000000000D4
:10702000000000000000000000000000C373020028
:10703000C573020000000000C7730200C97302009C
:10704000C5830200CB730200BD910200A99F02001C
:10705000CB730200CB730200B5900200CB73020029
:10706000CB730200CB730200CB730200CB73020020
:10707000CB730200B9950200CB730200CB73020000
:10708000CB730200F1DE0200CB730200CB7302006F
:10709000CB730200CB7302002DD30200CB7302002E
:1070A000CB730200CB730200CB730200CB730200E0
:1070B000CB730200CB730200000000000000000050
:1070C000CB730200CB730200CB730200CB730200C0
:1070D000CB730200CB730200CB730200CB730200B0
:1070E000CB730200CB730200CB73020000000000E0
:1070F00000000000CB73020000000000CB73020010
:10710000000000000000000000000000000000007F
:10711000000000000000000000000000000000006F
:10712000000000000000000000000000000000005F
:10713000000000000000000000000000000000004F
:10714000000000000000000000000000000000003F
:10715000000000000000000000000000000000002F
:10716000000000000000000000000000000000001F
:10717000000000000000000000000000000000000F
:1071800000000000000000000000000000000000FF
:1071900000000000000000000000000000000000EF
:1071A00000000000000000000000000000000000DF
:1071B00000000000000000000000000000000000CF
:1071C00000000000000000000000000000000000BF
:1071D00000000000000000000000000000000000AF
:1071E000000000000000000000000000000000009F
:1071F000000000000000000000000000000000008F
:10720000354936480A1A02D0072291438D4634493F
:1072100034480A1A06D00722914381F309880222D2
:1072200082F3148830483149314A00F044F831483B
:107230003149324A00F03FF831483249324A00F0D1
:107240003AF832483249334A00F035F83248334987
:10725000334A00F030F833483349344A00F02BF811
:1072600033483449344A00F026F83448344900227F
:1072700000F02CF833483449002200F027F8334856
:107280003349091A082902DB002202604160314AB1
:1072900090471F481F49884205D00268043003B454
:1072A000904703BCF7E700208646EC46002000210B
:1072B000294A9047FEE7884207D0521A05D0037842
:1072C00001300B700131013AF9D17047884202D088
:1072D00002700130FAE770470000042000E003204C
:1072E000000004200000042098150300102C00204A
:1072F000782C0020D0730200D0730200C8F702007F
:1073000098150300102C0020102C002088F8020093
:1073100088F8020088F8020088F8020088F8020065
:1073200088F8020088F8020088F802009615030029
:1073300000160300782C0020782C0020782C0020E8
:10734000A5490020A8490020A8490020A8490020FC
:10735000A8690020857302000DBA020000F036B85B
:107360000F484FF00701884385460E4880470E4876
:10737000016841F470010160BFF34F8FBFF36F8F5D
:10738000FFF73EBF09480A490A4A884207D0521A05
:1073900005D0037801300B700131013AF9D1704703
:1073A000000004204DD0020088ED00E088F80200C3
:1073B000102C0020102C0020FEE7FEE7FEE7FEE781
:1073C000FEE7FEE7FEE7FEE7FEE7FEE7FFF7C8BFE2
:1073D00000B587B003460A468DF8073013468DF88E
:1073E000063000238DF81730002304939DF80730F2
:1073F000184602F0EDFF0490049B032B61D89DF822
:107400000630022B52D0022B5EDC002B31D0012B38
:107410005AD13649049A13465B0013440B441B7837
:107420008DF817303149049A13465B0013440B441E
:1074300001331B78002B0ED02D4B2E4A4FF4804188
:10744000184606F001FC0390039B002B03D1294A48
:107450009DF8073013702549049A13465B001344C6
:107460000B4402331978244A049B13440A461A70C9
:107470002AE01F4B184606F01FFC1F4A049B1344CA
:1074800019781A48049A13465B00134403440233E4
:107490001B78994217D11549049A13465B0013448F
:1074A0000B4402331B788DF817300CE00F49049A17
:1074B00013465B0013440B4401331B788DF81730DF
:1074C00002E000BF00E000BF9DF81730002B09D09C
:1074D0000A4B1B68002B05D0084B1B689DF8172032
:1074E0001046984700BF07B05DF804FBCC2C002085
:1074F000D82C0020F82C0020FC2C0020C82C0020C8
:1075000000B583B00190019B1B7802211846FFF75C
:107510005FFF00BF03B05DF804FB000000B583B05F
:107520000C4B1B78002B0FD00023019308E0019B2C
:10753000022B02D0019802F0BDFE019B01330193A2
:10754000019B032BF3D901E002F0CEFE00BF03B094
:107550005DF804FB802C00202DE9D04F92B003464B
:107560008DF83F300023119300231093CC4B1B78F0
:10757000002B04D0CA4A00231370FFF7CFFF9DF8F9
:107580003F30172B00F23F8201A252F823F000BFD8
:10759000F17502000976020009760200A576020064
:1075A00041770200BD770200517802007178020035
:1075B00081780200AD780200CB780200E978020001
:1075C0000779020015790200157902001579020089
:1075D0001579020015790200A9790200B779020035
:1075E000CB790200DF790200F9790200F979020013
:1075F000FFF794FFAB4B184606F05EFB1190AA4ACA
:107600009DF83F301370FFE1002002F00BFE0346AF
:10761000002B0DD0002002F04DFE9DF83F30022BD4
:1076200002D14FF4E16301E04FF47A6310930BE071
:10763000002002F025FE9DF83F30022B01D1C82327
:1076400001E04FF4C8731093974A9DF83F301370D0
:10765000944C109B0022009301924FF000024FF0D7
:107660000003DDE900673946CB03314643EA514365
:107670003146CA0312F57A71029143F10003039374
:107680004FF4FA624FF00003DDE9020107F052FF08
:1076900002460B46134600221946204606F0D4FA4D
:1076A0001190B1E1002002F0BDFD0346002B0DD08A
:1076B000002002F0FFFD9DF83F30032B02D14FF474
:1076C000487301E04FF47A6310930BE0002002F05E
:1076D000D7FD9DF83F30032B01D1C82301E04FF4C3
:1076E000C8731093704A9DF83F3013706D4C109B17
:1076F0000022049305924FF000024FF00003DDE9F1
:1077000004673946CB03314643EA51433146CA0345
:1077100012F57A71069143F1000307934FF4FA6270
:107720004FF00003DDE9060107F004FF02460B46B7
:10773000134600221946204606F086FA119063E1AE
:10774000002002F06FFD0346002B06D0002002F05F
:10775000B1FD4FF47A63109305E0002002F090FD34
:107760004FF4C8731093504A9DF83F3013704D4C3E
:10777000109B00229A4693464FF000024FF0000300
:107780004FEACB3343EA5A434FEACA3212F57A71D1
:10779000089143F1000309934FF4FA624FF000039C
:1077A000DDE9080107F0C6FE02460B46134600223B
:1077B0001946204606F048FA119025E1002002F013
:1077C00031FD0346002B0CD0002002F073FD9DF824
:1077D0003F30052B01D1C82301E04FF47A631093A9
:1077E0000BE0002002F04CFD9DF83F30052B01D14D
:1077F000C82301E04FF4C87310932B4A9DF83F3023
:107800001370284C109B0022984691464FF00002BE
:107810004FF000034FEAC93343EA58434FEAC832F6
:1078200012F57A710A9143F100030B934FF4FA6257
:107830004FF00003DDE90A0107F07CFE02460B462B
:10784000134600221946204606F0FEF91190DBE0AF
:10785000002002F06FFD144A9DF83F301370114B69
:10786000002240F26661184606F0EEF91190CBE076
:10787000002002F005FD0C4A9DF83F301370C3E074
:10788000074B01221A70012002F054FD054B002223
:1078900040F26661184606F0D7F91190B4E000BFD7
:1078A000792C0020882C0020782C0020594B0122B4
:1078B0001A70012002F03EFD574B00224FF4005198
:1078C000184606F0C1F911909EE0524B01221A7041
:1078D000012002F02FFD504B002240F26661184655
:1078E00006F0B2F911908FE04A4B01221A70012084
:1078F00002F020FD484B00224FF40051184606F0DC
:10790000A3F9119080E002F002FD444A9DF83F3057
:10791000137079E0424B184606F0CEF911909DF8AD
:107920003F30C3F111031093109B002B35D0119BF6
:10793000002B32D1109B012B28D9394C109B9BB2C4
:107940001A46C82302FB03F3DA171E4617464FF008
:1079500000024FF00003FB0343EA5643F20312F523
:107960007A710C9143F100030D934FF4FA624FF0DA
:107970000003DDE90C0107F0DDFD02460B4613466E
:1079800000221946204606F05FF91190022002F00D
:1079900077FC244B01221A7036E0022002F08AFCA8
:1079A000204B00221A702FE0FFF7B8FD1B4A9DF80C
:1079B0003F30137028E0FFF7B1FD002002F060FCBB
:1079C000164A9DF83F3013701EE0FFF7A7FD012017
:1079D00002F056FC114A9DF83F30137014E0FFF797
:1079E0009DFD002002F04CFC012002F049FC0B4AF6
:1079F0009DF83F30137007E002F089FC074A9DF8BC
:107A00003F30137000E000BF119B184612B0BDE874
:107A1000D08F00BF792C0020882C0020782C0020EB
:107A2000A82C0020802C002000B583B00190074BCB
:107A30001B6803F00103002B04D0054B1B7818468C
:107A4000FFF78AFD00BF03B05DF804FB7C2C00202B
:107A5000782C002000B583B00190022002F06AFC6F
:107A600000BF03B05DF804FB00B585B00190009144
:107A7000002303932A4A019B13602A4A009B136048
:107A8000019B03F00203002B2AD00023029308E09D
:107A900001220121029800F055F80390029B013366
:107AA0000293029B032B02D8039B002BF0D0039B75
:107AB000002B06D140F2333204211B4805F06AFE48
:107AC0000390039B002B02D105F0ECFE0390039B77
:107AD000002B05D1154A0021154806F081F80390C6
:107AE000019B03F00103002B14D0012002F090FC55
:107AF000039B002B05D10F4A00210F4806F070F8B8
:107B00000390039B002B05D10C4A01210C4806F081
:107B100067F80390039B184605B05DF804FB00BFAF
:107B20007C2C0020C82C002094F802000175020073
:107B300090F80200297A020088F80200557A0200C3
:107B40008CF8020084B001900B468DF80330134688
:107B50008DF8023000230393019B032B3CD89DF842
:107B60000230012B0BD19DF80330012B04D1019B76
:107B7000DBB20E33DBB200E000238DF802309DF85B
:107B80000330022B0FD0022B23DC002B16D0012B4D
:107B90001FD11449019A13465B0013440B449DF80E
:107BA00002201A701AE00F49019A13465B00134431
:107BB0000B4401339DF802201A700FE00949019A25
:107BC00013465B0013440B4402339DF802201A70E5
:107BD00004E00723039301E007230393039B184664
:107BE00004B07047CC2C002082B003468DF80730DB
:107BF0009DF90730002B13DB9DF8073003F01F02BF
:107C000009499DF907305B09012000FA02F220338F
:107C100041F82320BFF34F8F00BFBFF36F8F00BF2A
:107C200000BF02B0704700BF00E100E0044BD3F892
:107C30000034002B14BF01230023DBB21846704729
:107C40000000014008B505F043FB034683F0010343
:107C5000DBB2002B03D109497B2006F009FBFFF7BB
:107C6000E5FF034683F00103DBB2002B04D000F0F4
:107C700089FB034B00229A7000BF08BDBCF80200CC
:107C8000002D002000B583B000230193184B1B7812
:107C9000002B02D0852301931CE0154B00229A6033
:107CA000134B00225A60124B00221A61104B002223
:107CB000DA60104800F02AFB019005F009FB03464A
:107CC00083F00103DBB2002B01D000F047FB084B2F
:107CD00001221A70FFF7AAFF0346002B02D0044BC3
:107CE00001229A70019B184603B05DF804FB00BFA7
:107CF000002D0020CD7D020084B00190019B1B6807
:107D00000393039B002B03D0039B1A68019B1A600B
:107D1000039B184604B0704700B583B0164B1B7820
:107D2000002B04D1154940F2171006F0A1FA124BAE
:107D3000DB68002B04D111494FF48C7006F098FADF
:107D400000238DF807300DF10703184606F044F8BC
:107D5000094BDB68013B084AD360074BDB68002B0B
:107D600001D1FFF76FFF9DF80730184606F04AF87B
:107D700000BF03B05DF804FB002D0020BCF802003A
:107D800000B585B003468DF807309DF80730002B0D
:107D900002D10C4B039301E00B4B03930398FFF7C5
:107DA000ABFF0290029B002B06D0029B5B689DF804
:107DB000072010469847F1E700BF00BF05B05DF807
:107DC00004FB00BF082D0020102D002000B583B05B
:107DD00003468DF807309DF80730002B05D10A4B7C
:107DE00001225A700020FFF7CBFF9DF80730012BCE
:107DF00005D1054B01229A700120FFF7C1FF00BF9A
:107E000003B05DF804FB00BF002D002000B583B077
:107E100001900091019B002B05D1054B01225A7066
:107E20000020FFF7ADFF00BF03B05DF804FB00BF0B
:107E3000002D002000B585B0034600918DF8073075
:107E40009DF80730032B29D0032B35DC002B02D003
:107E5000012B04D030E00020FFF7C6FE2DE0002308
:107E60008DF80F300DF10F03184605F0B5FF154BD7
:107E70001B7883F00103DBB2002B01D0FFF702FF78
:107E8000104BDB6801330F4AD3600E4B01229A700E
:107E90009DF80F30184605F0B5FF0EE0094B1B7832
:107EA000002B04D1084940F2522006F0E1F900F01D
:107EB00055FAFFF731FF00E000BF00BF05B05DF8E5
:107EC00004FB00BF002D0020BCF8020000B585B007
:107ED00003468DF8073000238DF80F300DF10F03A6
:107EE000184605F079FF05F0F3F9034683F0010326
:107EF000DBB2002B0DD00DF107031946094807F03E
:107F00009FF9084807F078F90346002B01D001F0EB
:107F100021FB9DF80F30184605F074FF00BF05B037
:107F20005DF804FBD0F7020000B585B00346009170
:107F30008DF807309DF80730002B02D0032B09D0B5
:107F40002AE0174B1B78012B25D101F003FB01F030
:107F500017FB20E000238DF80B300DF10B031846C2
:107F600005F03AFF0E4B1B78012B0ED10D490E4840
:107F700001F098FA0390039B002B04D00B4940F2C8
:107F8000071006F075F901F0CBFA9DF80B30184692
:107F900005F038FF00E000BF00BF05B05DF804FB4E
:107FA000142D0020CD7E0200152D00200CF90200BA
:107FB00000B589B001900091009B0793019B1B784D
:107FC0008DF80830019B5B680393019B9B68DBB2D3
:107FD0008DF81030019BDB680593019B1B69DBB2B8
:107FE0008DF81830074A079B52F823300649079A44
:107FF00051F8221002AA1046984700BF09B05DF858
:1080000004FB00BF682D0020782D002010B58AB039
:108010000390029101920093039B1B7809932249DC
:10802000099B019A41F823202049099B009A41F8B5
:108030002320002308931E4B04AC0FCB84E80F00D1
:10804000029B1B788DF81030029B5B788DF8113005
:10805000029B9B788DF81230029BDB788DF81330F1
:10806000029B1B798DF81530029B5B798DF81630D9
:10807000029B9B680693029B1B7B8DF81C30029B26
:108080005B7B8DF81D30039B181D019B002B01D0DD
:10809000084A00E00022099B04A901F00BFD0890AA
:1080A000089B18460AB010BD682D0020782D0020CE
:1080B00058F90200B17F020082B003468DF8073004
:1080C0009DF90730002B0CDB9DF8073003F01F02F1
:1080D00005499DF907305B09012000FA02F241F8D9
:1080E000232000BF02B0704700E100E082B00346E9
:1080F00000918DF807309DF90730002B0ADB009BBB
:10810000DAB20C499DF907305201D2B20B4483F820
:1081100000230BE0009BDAB207499DF8073003F01B
:108120000F03043B5201D2B20B441A7600BF02B0D7
:10813000704700BF00E100E000ED00E082B0019078
:10814000019B1B0B5BB2184602B0704700B583B0B1
:1081500003460A468DF8073013468DF806309DF821
:108160000630012B03D99DF80630032B0BD99DF85F
:108170000630042B03D99DF80630072B03D9084994
:108180006B2006F075F89DF806209DF90730114622
:108190001846FFF7ABFF00BF03B05DF804FB00BF5C
:1081A00068F9020000B583B003468DF807309DF9E9
:1081B00007301846FFF780FF00BF03B05DF804FBEF
:1081C00082B003468DF807300F4A9DF90730002B27
:1081D00000DA1F335B115BB252F823209DF90730A0
:1081E000594203F01F0301F01F0158BF4B425BB21D
:1081F00022FA03F303F00103002B14BF0123002331
:10820000DBB2184602B0704700E100E082B0019096
:108210004FF08042019BC2F8083300BF02B07047A4
:1082200082B003468DF807309DF8073003F1804394
:1082300001221A6000BF02B0704784B00346ADF857
:108240000630BDF8063003F1804300221A60BDF805
:10825000063003F180431B680393039B00BF04B007
:10826000704782B00346ADF80630BDF8063003F122
:1082700080431B68002B14BF01230023DBB2184688
:1082800002B0704782B001904FF08042019BC2F86B
:10829000183500BF02B070474FF08043D3F8183450
:1082A0001B0C03F00103002B14BF01230023DBB2DE
:1082B0001846704700B583B006238DF807304FF09D
:1082C0008040FFF73BFF03461846FFF779FF034660
:1082D00083F00103DBB2002B13D04FF08040FFF797
:1082E0002DFF03461A469DF8073019461046FFF742
:1082F0002DFF4FF08040FFF721FF03461846FFF7A0
:1083000051FF00BF03B05DF804FB000000B585B06D
:108310000190019B002B03D10E49A42005F0A8FF7A
:10832000002303930C4B1B79002B02D0852303936E
:108330000BE0094B00229A71074A019B1360064B20
:1083400001221A71044B00225A71039B184605B092
:108350005DF804FB94F90200882D002008B5074B56
:108360001B79002B03D10649BD2005F081FFFFF7E3
:10837000A1FF0020FFF786FF00BF08BD882D002069
:1083800094F9020008B50D4B1B79002B03D10C4961
:10839000F72005F06DFF0220FFF738FF4FF48270E1
:1083A000FFF74BFF0C20FFF73BFF00BFFFF774FF09
:1083B0000346002BFAD100BF00BF08BD882D002066
:1083C00094F9020008B54FF48070FFF74AFF0346A6
:1083D000002B14D04FF48070FFF72FFF0120FFF720
:1083E00015FF264B5B7983F00103DBB2002B06D02F
:1083F000224B01225A71214B1B68002098474FF4F1
:108400008270FFF72EFF0346002B0AD04FF48270D4
:10841000FFF713FF0220FFF7F9FE184B1B6801203E
:1084200098474FF48870FFF71CFF0346002B0AD0D3
:108430004FF48870FFF701FF1020FFF7E7FE0F4BA6
:108440001B68022098474FF48670FFF70AFF034627
:10845000002B10D00A4B00221A604FF48670FFF7F1
:10846000ECFE0820FFF7D2FE044B00229A71034B6A
:108470001B680320984700BF08BD00BF882D00205F
:10848000340C004082B003468DF807309DF9073068
:10849000002B0CDB9DF8073003F01F0205499DF906
:1084A00007305B09012000FA02F241F8232000BFE7
:1084B00002B0704700E100E082B0034600918DF801
:1084C00007309DF90730002B0ADB009BDAB20C491C
:1084D0009DF907305201D2B20B4483F800230BE020
:1084E000009BDAB207499DF8073003F00F03043B05
:1084F0005201D2B20B441A7600BF02B0704700BFDF
:1085000000E100E000ED00E082B00190019B1B0B58
:108510005BB2184602B0704700B583B003460A4606
:108520008DF8073013468DF806309DF80630012B84
:1085300003D99DF80630032B0BD99DF80630042B88
:1085400003D99DF80630072B03D908496B2005F0A5
:108550008FFE9DF806209DF9073011461846FFF75B
:10856000ABFF00BF03B05DF804FB00BF2CFA0200B4
:1085700000B583B003468DF807309DF907301846E3
:10858000FFF780FF00BF03B05DF804FB00B583B0C8
:108590000346ADF80630BDF80630184600F026F860
:1085A00003461B68012B0CBF01230023DBB21846D6
:1085B00003B05DF804FB00B585B00346ADF80630A6
:1085C000BDF80630184600F011F803461A4600239D
:1085D0001360BDF80630184600F008F803461B6823
:1085E0000393039B00BF05B05DF804FB82B0034614
:1085F000ADF80630BDF8063003F1804303F5C04303
:10860000184602B07047000082B00190034A019BF7
:10861000C2F8043300BF02B0704700BF00600040E2
:1086200082B00190034BD3F80423019B13401846FA
:1086300002B070470060004082B00190084A019B80
:1086400003F5A27352F82330054943F00102019B60
:1086500003F5A27341F8232000BF02B0704700BFAA
:108660000060004084B00390029113468DF80730FB
:10867000144A039B03F5A27352F82330114923F4E3
:108680004F3323F44073039A02F5A27241F822306B
:108690000C4A039B03F5A27352F82320029B1B0292
:1086A00003F47C519DF807301B0403F440330B4363
:1086B00004491A43039B03F5A27341F8232000BF2A
:1086C00004B070470060004082B00190054A019BF1
:1086D00003F5A27352F823301B0A03F03F03184638
:1086E00002B070470060004082B00190064A019BD2
:1086F00003F5A27352F823301B0C03F00303DBB223
:10870000184602B0704700BF0060004000B583B05B
:108710000190019B1B68184600F02AF90346002BC4
:1087200004D10B494FF4F67005F0A2FD019B1B68C4
:108730001F2B02D84FF0A04306E0019B1B6803F0FB
:108740001F02019B1A60034B184603B05DF804FB3F
:1087500050FA02000003005000B585B001900846B1
:1087600011461A4603468DF803300B468DF8023049
:1087700013468DF8013001AB1846FFF7C7FF039091
:108780009DF803209DF802305B001A439DF80130EC
:108790009B001A439DF818301B0242EA03019DF822
:1087A0001C301B04019A1943039B02F5E07243F845
:1087B000221000BF05B05DF804FB00B585B0039042
:1087C0000B468DF80B309DF80B30002201920022F1
:1087D0000092002200210398FFF7BEFF00BF05B002
:1087E0005DF804FB00B585B0019001AB1846FFF7BA
:1087F0008DFF0390019A039B02F5E07253F822303B
:1088000023F002030293019A039B02F5E07202999E
:1088100043F8221000BF05B05DF804FB00B585B039
:1088200001900B468DF8033001AB1846FFF76EFF41
:108830000390019A039B02F5E07253F82230019AEB
:1088400023F44031039B02F5E07243F82210019AB1
:10885000039B02F5E07253F822309DF803201204C6
:108860001146019A1943039B02F5E07243F8221066
:1088700000BF05B05DF804FB00B585B0019001AB09
:108880001846FFF743FF0390039800F020F80246D4
:10889000019B22FA03F303F00103184605B05DF8CB
:1088A00004FB00B585B0019001AB1846FFF72EFF21
:1088B0000390019A039B02F5E07253F822301B0CDF
:1088C00003F00303DBB2184605B05DF804FB82B089
:1088D0000190019BD3F81035184602B07047000094
:1088E00088B0039002910192164A05AB92E803000A
:1088F00083E80300039B079319E0079B9B00203349
:108900006B4453F80C3CD3F82025019B1A60079B5D
:108910009B0020336B4453F80C3C019A1268C3F857
:108920002025019B04330193079B01330793039A8E
:10893000029B1344079A9A42DFD300BF00BF08B0DE
:10894000704700BF70FA020000B585B0019001AB1E
:108950001846FFF7DBFE0390019B012202FA03F3A6
:108960001A46039BC3F8202500BF05B05DF804FB41
:1089700084B00190019B5B09029300230393029B47
:10898000002B03D0029B012B04D007E04FF0FF33F4
:10899000039303E04FF6FF73039300BF019B03F0C3
:1089A0001F030193039A019B22FA03F303F00103CF
:1089B000002B14BF01230023DBB2184604B070471C
:1089C00084B001900091009B0393019BDB0802930C
:1089D000019B03F0070301930122019B02FA03F3B9
:1089E0000399029A0A4412781340184604B070475B
:1089F00084B001900091009B0393019BDB080293DC
:108A0000019B03F007030193039A029B13441B7815
:108A10005AB20121019B01FA03F35BB2134359B22D
:108A2000039A029B1344CAB21A7000BF04B0704785
:108A300082B001900C4A019B1344303393F900300B
:108A4000002B09DB084A019B1344303393F90030B3
:108A5000072B01DC012300E0002303F00103DBB25C
:108A6000184602B0704700BF902D002082B00190E0
:108A7000064A019B1344303393F90030072BCCBFD7
:108A800001230023DBB2184602B07047902D00206E
:108A900082B00190064A019B1344303393F90030B1
:108AA000DB43DBB2DB09DBB2184602B0704700BF24
:108AB000902D002084B00390029101928DF8033034
:108AC000029B59B20E4A039B134430330A461A7074
:108AD0000B49029B019A41F823209DF8033083F053
:108AE0000103DBB2002B08D0029B083B039A51B272
:108AF000034A13440A4683F8602000BF04B070475D
:108B0000902D002082B00190044A019B1344303321
:108B1000FF221A7000BF02B0704700BF902D0020E6
:108B200000B583B0019004490198FFF761FF00BFD1
:108B300003B05DF804FB00BFF42D002082B001906B
:108B4000044A019B1344303393F90030184602B0B5
:108B5000704700BF902D002082B00190034A019B16
:108B600052F82330184602B0704700BF902D002005
:108B700084B00190074A019B1344603393F900309D
:108B80008DF80F309DF80F3023F0C003184604B065
:108B9000704700BF902D002084B00190074A019BD0
:108BA0001344603393F900308DF80F309DF80F3087
:108BB0009B09DBB2184604B0704700BF902D00201F
:108BC00000B589B00390029113468DF80730FF235A
:108BD0008DF81F309DF80730002B01D0002300E0F6
:108BE000082305939DF80730002B01D0082300E0EF
:108BF0000C230493059B069314E00F4A069B52F83E
:108C00002330B3F1FF3F0AD19DF80730029A06994D
:108C10000398FFF74FFF069B8DF81F3006E0069B79
:108C200001330693069A049B9A42E6D39DF91F30BE
:108C3000184609B05DF804FB902D002082B0034671
:108C40008DF807309DF80730094A4FF0FF3142F8A0
:108C500023109DF80730072B07D99DF80730083BF4
:108C6000034A1344FF2283F8602000BF02B070471C
:108C7000902D002000B583B02D4B93F86A30002B67
:108C800003D008230093009B4EE000238DF80730AB
:108C900011E09DF807301846FFF76AFE0346002BE7
:108CA00004D09DF807301846FFF72CFF9DF80730D9
:108CB00001338DF807309DF807302F2BE9D90023B9
:108CC0008DF8073009E09DF807301846FFF7B6FF2A
:108CD0009DF8073001338DF807309DF807300B2BD6
:108CE000F1D906220021134806F00BFD1248FFF7C8
:108CF0000BFC034606211846FFF70EFC0E48FFF753
:108D000003FC03461846FFF733FC4FF4BE70FFF731
:108D100052FC4FF00040FFF777FC054B012283F82F
:108D20006A2000230093009B184603B05DF804FB03
:108D3000902D0020F42D002000600040044B93F89B
:108D40006A30002B14BF01230023DBB218467047A2
:108D5000902D002000B587B00390029101920398F6
:108D6000FFF706FE0346002B04D136494FF40C7082
:108D700005F07EFA002305930398FFF789FE03466A
:108D8000002B02D00823059357E0029B9B78C3F386
:108D90004003DBB21A4601990398FFF711FF03461F
:108DA0008DF813309DF91330B3F1FF3F43D0029B90
:108DB0009B78C3F38003DBB283F00103DBB2002BAB
:108DC00013D0029B9B7803F00103DBB2002B03D08E
:108DD0000398FFF707FD05E0029B5B7819460398AF
:108DE000FFF7EBFC0398FFF79BFE029B9B7803F0D9
:108DF0000203DBB2002B08D09DF91300029B1B7805
:108E00001A460399FFF72EFC17E09DF91330083B33
:108E10000D4A134493F96010029B1B789B015AB2D0
:108E20009DF91330083B0A4351B2074A13440A46DE
:108E300083F8602001E004230593059B184607B0E2
:108E40005DF804FB80FA0200902D002000B589B087
:108E500001900B468DF803300198FFF789FD03461A
:108E6000002B04D13A494FF4187005F001FA01982B
:108E7000FFF70EFE0346002B04D1354940F2612076
:108E800005F0F6F90198FFF7F1FD0346002B2AD013
:108E90000198FFF753FE0346083B1846FFF77CFE98
:108EA00003468DF80F309DF80F30032B0BD101983E
:108EB000FFF7E2FC0346002B01D0032300E002236E
:108EC0008DF81F3008E09DF80F30012B01D10223EF
:108ED00000E003238DF81F309DF81F3019460198DC
:108EE000FFF79CFC30E00198FFF7A2FD0346002B42
:108EF0002AD00198FFF722FE03460693069B9BB2F9
:108F000040339BB29B00ADF81630069B1846FFF726
:108F100093FBBDF816301846FFF74DFB9DF8033064
:108F2000002B11D00198FFF709FE03461846FFF702
:108F300013FE0490049B002B06D00122069B02FA2C
:108F400003F31846FFF760FB00BF09B05DF804FBB0
:108F500080FA020000B583B001900198FFF708FD88
:108F60000346002B04D1094940F2AF2005F080F9F7
:108F70000198FFF781FC0346002B14BF0123002357
:108F8000DBB2184603B05DF804FB00BF80FA0200B4
:108F900000B585B00190019A02210020FFF7A0FCE6
:108FA000002303930BE0039B9B00019A13441B686F
:108FB000002B01D0012306E0039B01330393039BA5
:108FC000012BF0D90023184605B05DF804FB000022
:108FD00000B587B00190002305935BE0344A059B00
:108FE0001344603393F90030B3F1FF3F4ED005983E
:108FF000FFF7BEFD049001990498FFF7E1FC0346DA
:10900000002B44D00598FFF7C7FD03468DF80F30BD
:109010000498FFF746FC03468DF80E309DF80E309D
:10902000022B01D1032300E002238DF80D309DF8BF
:109030000D3019460498FFF7F1FB0498FFF784FC04
:109040000498FFF77BFD03461846FFF785FD029065
:10905000029B002B1BD09DF80F30032B0FD09DF8E7
:109060000E30022B03D19DF80F30012B07D09DF855
:109070000E30032B0BD19DF80F30022B07D19DF83A
:109080000F20029B11460498984700E000BF059B03
:1090900001330593059B032BA0D90198FFF778FFB7
:1090A0000346002B97D100BF00BF07B05DF804FB5B
:1090B000902D002000B58BB00023089301AB002257
:1090C0001A605A604FF48073ADF81A300123099387
:1090D0000023079321E0BDF81A301846FFF756FA2F
:1090E0000346002B0ED00998FFF79AFA0346002B8F
:1090F00008D0BDF81A301846FFF75DFA089A099BA8
:1091000013430893099B5B000993BDF81A3004339D
:10911000ADF81A30079B01330793079B072BDAD969
:109120004FF4BE70FFF732FA0346002B0DD04FF418
:10913000BE70FFF740FA089B43F00043089301AB71
:109140001A4602210020FFF7CBFB089BDBB2002B65
:1091500029D0012309930023079321E0099A089B52
:109160001340002B16D00798FFF7AEFA059007982A
:10917000FFF7BAFA03468DF813300798FFF7ECFCB7
:109180000390039B002B05D09DF81320039B1146F1
:1091900005989847099B5B000993079B0133079348
:1091A000079B072BDAD9089B002B03DA01AB184683
:1091B000FFF70EFF00BF0BB05DF804FB08B5064BD0
:1091C0001B68002B03D10549512005F051F8024BD3
:1091D0001B68984700BF08BDFC2D00201CFB020047
:1091E00082B00190019B044A934201D1034B00E0FD
:1091F0000023184602B0704700200040FC2D0020DC
:1092000000B587B001900091019B002B03D11C4950
:10921000772005F02DF80198FFF7E2FF0590059BF8
:10922000002B25D000238DF8133000238DF80B3050
:109230000DF10B03184604F0CFFD059B1B79002BA5
:1092400003D001238DF8133005E0059B009A1A60C6
:10925000059B01221A719DF80B30184604F0D2FDCF
:109260009DF81330002B03D011230393039B02E0DE
:1092700000230393039B184607B05DF804FB00BF6F
:109280001CFB020082B003468DF807309DF90730C1
:10929000002B0CDB9DF8073003F01F0205499DF9F8
:1092A00007305B09012000FA02F241F8232000BFD9
:1092B00002B0704700E100E082B003468DF807304D
:1092C0009DF90730002B13DB9DF8073003F01F02D8
:1092D00009499DF907305B09012000FA02F22033A9
:1092E00041F82320BFF34F8F00BFBFF36F8F00BF44
:1092F00000BF02B0704700BF00E100E082B003464B
:1093000000918DF807309DF90730002B0ADB009B98
:10931000DAB20C499DF907305201D2B20B4483F8FE
:1093200000230BE0009BDAB207499DF8073003F0F9
:109330000F03043B5201D2B20B441A7600BF02B0B5
:10934000704700BF00E100E000ED00E000B583B031
:1093500003460A468DF8073013468DF806309DF80F
:109360000630012B03D99DF80630032B0BD99DF84D
:109370000630042B03D99DF80630072B03D9084982
:109380006B2004F075FF9DF806209DF9073011460B
:109390001846FFF7B3FF00BF03B05DF804FB00BF42
:1093A000B8FB020000B583B003468DF807309DF985
:1093B00007301846FFF766FF00BF03B05DF804FBF7
:1093C00000B583B003468DF807309DF90730184685
:1093D000FFF772FF00BF03B05DF804FB82B001909D
:1093E000034A019BC2F8043300BF02B0704700BFBC
:1093F00000D0004082B00190034A019BC2F80833BC
:1094000000BF02B0704700BF00D0004082B00346EA
:109410008DF807309DF8073003F1804303F5504382
:1094200001221A6000BF02B0704784B00346ADF855
:109430000630BDF8063003F1804303F550430022A7
:109440001A60BDF8063003F1804303F550431B68F2
:109450000393039B00BF04B07047000082B00190EB
:10946000054BD3F80022019BDB4303491340C1F8AD
:10947000003200BF02B0704700D00040024BD3F86A
:109480000835DBB21846704700D00040044BD3F8D3
:109490000435034A43F00103C2F8043500BF7047A6
:1094A00000D0004000B583B001900091019B002BDB
:1094B00003D118493E2004F0DBFE009B002B03D1B2
:1094C00014493F2004F0D4FE134B1B78002B01D02D
:1094D00085231BE0114A009B1360019B1B7803F05E
:1094E0000103DBB2002B01D0FFF7D0FF0120FFF713
:1094F000B5FF019B5B7819460D20FFF727FF0D2074
:10950000FFF750FF044B01221A700023184603B0E6
:109510005DF804FBE0FB0200042E0020082E002072
:1095200008B50A4B1B78012B03D00949562004F0DB
:109530009FFE4FF48070FFF778FF0120FFF74EFF8A
:109540000020FFF763FF00BF08BD00BF042E00200E
:10955000E0FB020008B5084B1B78012B03D007493C
:109560005E2004F085FE0120FFF744FF0420FFF792
:109570004DFF00BF08BD00BF042E0020E0FB02002D
:1095800008B50B4B1B78012B03D00A49652004F06A
:109590006FFE0120FFF72EFF0420FFF737FF0D209D
:1095A000FFF70EFF024B00221A7000BF08BD00BF7C
:1095B000042E0020E0FB020000B583B04FF4807061
:1095C000FFF733FFFFF75AFF03468DF80730054BCF
:1095D0001B689DF807201046984700BF03B05DF850
:1095E00004FB00BF082E002082B003468DF8073030
:1095F0009DF90730002B0CDB9DF8073003F01F02AC
:1096000005499DF907305B09012000FA02F241F893
:10961000232000BF02B0704700E100E082B00346A3
:1096200000918DF807309DF90730002B0ADB009B75
:10963000DAB20C499DF907305201D2B20B4483F8DB
:1096400000230BE0009BDAB207499DF8073003F0D6
:109650000F03043B5201D2B20B441A7600BF02B092
:10966000704700BF00E100E000ED00E082B0019033
:10967000019B03F06043B3F1005F0CBF01230023A3
:10968000DBB2184602B0704782B00190019B1B0B01
:109690005BB2184602B0704700B583B003460A4675
:1096A0008DF8073013468DF806309DF80630012BF3
:1096B00003D99DF80630032B0BD99DF80630042BF7
:1096C00003D99DF80630072B03D908496B2004F015
:1096D000CFFD9DF806209DF9073011461846FFF78B
:1096E0009DFF00BF03B05DF804FB00BF78FC0200E3
:1096F00000B583B003468DF807309DF90730184652
:10970000FFF772FF00BF03B05DF804FB82B0019069
:109710000B468DF803309DF80330019A1344012263
:109720001A6000BF02B0704784B001900B46ADF8DC
:109730000230BDF80230019A134400221A60BDF8CD
:109740000230019A13441B680393039B00BF04B0CB
:10975000704782B001900B46ADF80230BDF8023080
:10976000019A13441B68002B14BF01230023DBB2B2
:10977000184602B0704782B001900091019B009A98
:10978000C3F8042300BF02B0704782B0019000917B
:10979000019B009AC3F8082300BF02B0704782B053
:1097A0000190019B0722C3F8002500BF02B070475B
:1097B00084B00390029101920093039B029AC3F834
:1097C0000825039B019AC3F80C25039B009AC3F854
:1097D000102500BF04B0704782B001900091009A3C
:1097E000019BC3F8242500BF02B0704784B00390EA
:1097F00002910192029A039BC3F84425039B019AAC
:10980000C3F8482500BF04B0704784B003900291AC
:109810000192029A039BC3F83425039B019AC3F873
:10982000382500BF04B0704784B001900B468DF816
:10983000033013468DF802309DF80230002B14BF20
:1098400001230023DBB203939DF80330032B10D0D8
:10985000032B13DC012B02D0022B05D00EE0039B5F
:1098600043F0020303930AE0039B43F004030393D2
:1098700005E0039B43F00603039300E000BF019B58
:10988000039AC3F8542500BF04B0704782B001901A
:109890000B468DF803309DF80320019BC3F8C025CB
:1098A00000BF02B0704782B00190019B0122C3F853
:1098B000502500BF02B0704782B00190019B00228A
:1098C000C3F8502500BF02B0704782B00190019BE1
:1098D0000122C3F8402500BF02B0704782B001905A
:1098E000019B0022C3F8402500BF02B07047000072
:1098F00000B583B00190019B1B68184600F0B1F8D9
:109900000346002B04D10B494FF4F67004F0B0FC71
:10991000019B1B681F2B02D84FF0A04306E0019B60
:109920001B6803F01F02019B1A60034B184603B02B
:109930005DF804FB9CFC02000003005000B585B0FC
:109940000190084611461A4603468DF803300B462F
:109950008DF8023013468DF8013001AB1846FFF741
:10996000C7FF03909DF803209DF802305B001A4367
:109970009DF801309B001A439DF818301B0242EA03
:1099800003019DF81C301B04019A1943039B02F547
:10999000E07243F8221000BF05B05DF804FB00B58B
:1099A00085B003900023019300230093002301223C
:1099B00001210398FFF7C2FF00BF05B05DF804FB6B
:1099C00000B585B003900B468DF80B309DF80B3039
:1099D0000022019200220092002200210398FFF74A
:1099E000ADFF00BF05B05DF804FB00B585B0019088
:1099F00001AB1846FFF77CFF0390019B012202FA9E
:109A000003F31946039800F018F800BF05B05DF89D
:109A100004FB00B585B0019001AB1846FFF768FF65
:109A20000390019B012202FA03F31946039800F008
:109A30000EF800BF05B05DF804FB82B00190009104
:109A4000019B009AC3F8082500BF02B0704782B09E
:109A500001900091019B009AC3F80C2500BF02B051
:109A6000704784B00190019B5B090293002303932C
:109A7000029B002B03D0029B012B04D007E04FF088
:109A8000FF33039303E04FF6FF73039300BF019B83
:109A900003F01F030193039A019B22FA03F303F0DF
:109AA0000103002B14BF01230023DBB2184604B0CE
:109AB0007047000000B58DB00590049103920293A9
:109AC000049B002B03D16C49AD2004F0D1FB059B16
:109AD0001B791A461346DB0013449B00674A134464
:109AE0000A930A9B1B7F002B03D008230793079B35
:109AF000BDE0059B1B680993059B1A68059B1B79B4
:109B000019465F4B53F8213019461046FFF778FB92
:109B10000346002B03D011230793079BA7E00A9B62
:109B2000039A1A600A9B029A5A60049B1B7B012BC2
:109B300005D8049B1B781846FFF76BFF04E0049BD5
:109B40001B781846FFF751FF049B1B78184600232B
:109B5000019300230093002300220121FFF7EEFE72
:109B6000049B5B78FF2B09D0049B5B780B930B98CD
:109B7000FFF74FFF0B98FFF712FF02E04FF0FF33A4
:109B80000B93049B9B78FF2B07D0049B9B78089337
:109B900001210898FFF714FF02E04FF0FF3308930C
:109BA000049B9A780A9B83F82020049BDA780A9B0E
:109BB000DA77049BDB78FF2B17D0049B1B79002BF3
:109BC00005D0049BDB781846FFF723FF04E0049BD5
:109BD000DB781846FFF709FF049BDB781846FFF790
:109BE000DEFE049B1A790A9B9A77049B1B78194620
:109BF000089B0B9A0998FFF7DBFD049B9B681946AD
:109C00000998FFF7E9FD049B197B049B5B7B1A46CF
:109C10000998FFF709FE049B9B7919460998FFF7FD
:109C200035FE0998FFF7BBFD0A9B1B68002B15D07A
:109C3000059B1B681846FFF727FD03461A46049B41
:109C40005B7919461046FFF727FD059B1B681846F0
:109C5000FFF71AFD03461846FFF74AFD0A9B00224C
:109C60005A770A9B01221A7700230793079B18460D
:109C70000DB05DF804FB00BFC4FC02000C2E0020F8
:109C80005CFD020000B583B00190019BDB7FFF2BE0
:109C90000ED0019B9B7F002B05D0019BDB7F1846DC
:109CA000FFF7B7FE04E0019BDB7F1846FFF79DFE40
:109CB000019B00225A77019B00221A72019B1B68AC
:109CC000019A02F10800019A52681146984700BFB4
:109CD00003B05DF804FB00B583B001900B468DF82E
:109CE00003309DF8033083F00103DBB2002B04D076
:109CF00040210198FFF749FD03E040210198FFF75B
:109D00003AFD00BF03B05DF804FB00B583B00190DD
:109D10000091009B03F00103002B03D00198FFF793
:109D2000C2FD02E00198FFF7C7FD009B03F00203AC
:109D3000002B03D00198FFF7C8FD02E00198FFF760
:109D4000CDFD00BF03B05DF804FB00B587B0039004
:109D5000029101920093019B1B68002B0AD0019B8A
:109D60001B681846FFF782FC034683F00103DBB251
:109D7000002B0ED1019B9B68002B11D0019B9B688F
:109D80001846FFF773FC034683F00103DBB2002B98
:109D900006D0029B00225A7710230593059B54E0BE
:109DA000019B1968019B5B681A460398FFF71EFD2B
:109DB000019B9968019BDB681A460398FFF725FD14
:109DC0004FF48C710398FFF7AFFC00990398FFF7ED
:109DD0009CFF009B03F00803002B03D11021039884
:109DE000FFF794FC029B1B68002B1FD100BF4FF4B0
:109DF0008C710398FFF7ADFC034683F00103DBB2DF
:109E0000002BF4D1029BDB7FFF2B1BD0029B9B7F9F
:109E1000002B05D0029BDB7F1846FFF7FAFD11E00F
:109E2000029BDB7F1846FFF7E0FD0BE0009B03F091
:109E30000403002B0CBF01230023DBB21946039857
:109E4000FFF749FF00230593059B184607B05DF80F
:109E500004FB000010B586B0039002910192039BB1
:109E60001B791A461346DB0013449B003A4A1344FD
:109E70000593059B1B7F002B04D1384940F22D2010
:109E800004F0F6F9029B1B68002B08D1029B5B686B
:109E9000002B04D0314940F22E2004F0E9F9029B56
:109EA0009B68002B08D1029BDB68002B04D02B4958
:109EB00040F22F2004F0DCF9039B1B79002B09D121
:109EC000029BDB68B3F5803F04D2029B5B68B3F56D
:109ED000803F04D321494FF40C7004F0C9F90023EA
:109EE0000493059B5B7FDBB2002B03D0112304930B
:109EF000049B2EE0059B1B68002B07D0019B03F001
:109F00001403002B02D1059B01225A77059B029A6C
:109F100003F10C0413460FCB84E80F00059BDB7F95
:109F2000FF2B0ED0059B9B7F002B05D0059BDB7F75
:109F30001846FFF75AFD04E0059BDB7F1846FFF744
:109F400068FD039B1868019B029A0599FFF7FDFEC7
:109F50000346184606B010BD0C2E0020C4FC0200BB
:109F600000B583B0019000914FF48C710198FFF718
:109F7000F0FB0346002B10D04FF48C710198FFF7D3
:109F8000D3FB009B1B68002B04D1064940F29720AD
:109F900004F06EF90098FFF775FE00BF03B05DF89E
:109FA00004FB00BFC4FC020008B503490348FFF7E7
:109FB000D7FF00BF08BD00BF0C2E002000300040BE
:109FC00000B583B00190019B1B68184600F002F9B0
:109FD0000346002B04D10B494FF4F67004F048F906
:109FE000019B1B681F2B02D84FF0A04306E0019B8A
:109FF0001B6803F01F02019B1A60034B184603B055
:10A000005DF804FB28FF02000003005000B585B096
:10A010000190084611461A4603468DF803300B4658
:10A020008DF8023013468DF8013001AB1846FFF76A
:10A03000C7FF03909DF803209DF802305B001A4390
:10A040009DF801309B001A439DF818301B0242EA2C
:10A0500003019DF81C301B04019A1943039B02F570
:10A06000E07243F8221000BF05B05DF804FB00B5B4
:10A0700085B0039000230193002300930023012265
:10A0800001210398FFF7C2FF00BF05B05DF804FB94
:10A0900000B585B003900B468DF80B309DF80B3062
:10A0A0000022019200220092002200210398FFF773
:10A0B000ADFF00BF05B05DF804FB00B585B00190B1
:10A0C00001AB1846FFF77CFF0390019B012202FAC7
:10A0D00003F31946039800F069F800BF05B05DF876
:10A0E00004FB00B585B0019001AB1846FFF768FF8F
:10A0F0000390019B012202FA03F31946039800F032
:10A100005FF800BF05B05DF804FB00B585B00190B5
:10A1100001AB1846FFF754FF0390039BD3F80435B7
:10A120000293029BDA43019B012101FA03F31A40D7
:10A13000039BC3F80825019B01229A40029B1A4009
:10A14000039BC3F80C2500BF05B05DF804FB00B508
:10A1500083B001900091009B002B03D10198FFF781
:10A16000C0FF02E00198FFF7A8FF00BF03B05DF851
:10A1700004FB00B585B0019001AB1846FFF720FF46
:10A180000390039800F00AF80246019B22FA03F3B9
:10A1900003F00103184605B05DF804FB82B001909E
:10A1A000019BD3F80435184602B0704782B0019085
:10A1B0000091019B009AC3F8082500BF02B07047C8
:10A1C00082B001900091019B009AC3F80C2500BF5A
:10A1D00002B0704784B00190019B5B090293002399
:10A1E0000393029B002B03D0029B012B04D007E0BA
:10A1F0004FF0FF33039303E04FF6FF73039300BF69
:10A20000019B03F01F030193039A019B22FA03F3BE
:10A2100003F00103002B14BF01230023DBB2184617
:10A2200004B0704700B585B00190019B032B03D9A2
:10A2300011493A2004F01CF8104A019B13441B7882
:10A240001846FFF796FF0346002B14BF0123002397
:10A250008DF80F309DF80F30002B14BF0123002321
:10A26000DBB283F00103DBB203F00103DBB218467B
:10A2700005B05DF804FB00BF48FF020088FF020044
:10A2800000B583B00190019B032B03D907494120FE
:10A2900003F0EEFF064A019B13441B780021184689
:10A2A000FFF755FF00BF03B05DF804FB48FF020055
:10A2B00088FF020000B583B00190019B032B03D9F6
:10A2C0000749472003F0D4FF064A019B13441B783B
:10A2D00001211846FFF73BFF00BF03B05DF804FB08
:10A2E00048FF020088FF020000B583B000230193FD
:10A2F00005E00198FFF7DEFF019B01330193019B0D
:10A30000032BF6D900BF00BF03B05DF804FB00B516
:10A3100083B00023019305E00198FFF7B1FF019B93
:10A3200001330193019B032BF6D900BF00BF03B09B
:10A330005DF804FB00B583B00190019B032B03D9AA
:10A3400007495F2003F094FF064A019B13441B78E2
:10A350001846FFF7DAFE00BF03B05DF804FB00BF4C
:10A3600048FF020088FF020000B583B0002301937C
:10A3700009E0094A019B13441B781846FFF777FE52
:10A38000019B01330193019B032BF2D9FFF7ACFF33
:10A3900000BF03B05DF804FB88FF020000B583B086
:10A3A000002301930AE0094A019B13441B7803210F
:10A3B0001846FFF76DFE019B01330193019B032BB0
:10A3C000F1D900BF00BF03B05DF804FB8CFF0200B1
:10A3D00084B001904FF0FF330293002303930DE00C
:10A3E0000A4A039B13441B781A46019B934202D1ED
:10A3F000039B029305E0039B01330393039B032B11
:10A40000EED9029B184604B0704700BF8CFF0200D3
:10A4100000B583B00190019B03F00103002B01D034
:10A42000FFF7A2FF019B03F00203002B01D0FFF70F
:10A43000B5FF00BF03B05DF804FB000000B585B0B8
:10A440000190019B002B0AD0074B43F001030393BB
:10A45000019B9B010293039B0298984700E000BF79
:10A4600005B05DF804FB00BFA0FF020000B583B09B
:10A470000190019B002B0AD04FF47A70FFF7DEFFAA
:10A48000019B013B0193019B002BF5D100E000BF34
:10A4900003B05DF804FB08B501F05CFC00BF08BD2B
:10A4A00000B589B0039002910192019B002B33D03B
:10A4B0000023079303230693029A079B1344019AF0
:10A4C0001946002001F0F6FB0590079A059B1344FE
:10A4D0000793019A059BD31A0193059B002B13D177
:10A4E0000F4B1B7883F00103DBB2002B13D101204B
:10A4F000FFF7BCFF069B013B0693069B002B03D195
:10A50000074B00221A7007E0054B01221A70019BCD
:10A51000002BD1D100E000BF00BF09B05DF804FB03
:10A52000302E002000B585B003900291054B0093BA
:10A530004023054A0299039800F012F800BF05B0C5
:10A540005DF804FBA1A40200342E002082B001902B
:10A5500000BF02B0704782B0019000BF02B07047E8
:10A5600000B5A1B00590049103920293049804F001
:10A5700003FD039B1593029B16930023179300235F
:10A580008DF8603000231993229B1A9300231F93A8
:10A590000FA91F9B0822049804F0C8FD08231F93ED
:10A5A000119B1293BDF84030ADF84C30BDF84230ED
:10A5B000ADF84E3000238DF851309DF83C3003F05B
:10A5C0000303DBB2012B26D10F9BC3F395231C930E
:10A5D0009DF83C30C3F3C203DBB28DF85030BDF8B8
:10A5E0003C30C3F38313DBB21B931B9B9A0009A976
:10A5F0001F9B049804F09AFD1B9B9B001F9A134419
:10A600001F9312AA09A915AB009313461B9A1C9815
:10A6100000F0E0FE2FE09DF83C3003F00303DBB2D6
:10A62000022B28D1BDF83E30C3F389139BB21E9391
:10A630009DF83C30C3F3C203DBB28DF850301E9B53
:10A64000082B28BF08231D9307A91F9B1D9A049858
:10A6500004F06CFD1F9A1D9B13441F931E9A1D9BB3
:10A66000D31A1E9315AB12AA07A81D9900F054FF28
:10A670001E9B002BE3D1049804F08DFC00BF21B099
:10A680005DF804FB82B00190019BDB6801225A71E6
:10A6900000BF02B07047000000B583B04FF0FF3339
:10A6A0000193FFF7F8FE0421084800F0AFFD019088
:10A6B000019B002B03DA0649412003F0D9FD034832
:10A6C000FFF7E0FF00BF03B05DF804FB78F802007D
:10A6D000B8FF020000B583B001900091019B1B6898
:10A6E0001B6800990198984700BF03B05DF804FB10
:10A6F00000B583B00190019B1B685B680198984787
:10A7000000BF03B05DF804FB00B583B00190019B6E
:10A710001B689B680198984700BF03B05DF804FB75
:10A7200082B001900B468DF80330019BDB689DF8E9
:10A7300003201A7100BF02B0704782B00190019BE4
:10A74000DB681B79184602B0704782B00190019B0C
:10A75000DB6801225A7100BF02B0704782B00190DD
:10A76000019BDB685B79184602B0704700B585B085
:10A77000019000910C4B01221A700C4804F060FB10
:10A780000390039B002B01D0039B08E0084804F0D2
:10A790000FFE084A084BD31ADB0802930023184621
:10A7A00005B05DF804FB00BFA4300020F4F7020000
:10A7B0006400030078F8020008F80200024A034B24
:10A7C000D31ADB081846704778F8020008F8020030
:10A7D00000B587B001900B468DF803309DF803302B
:10A7E000002B1FD0FFF7EAFF04900023059313E02E
:10A7F000059B9B000E4A13440393039B1B881A4638
:10A80000019B1B689A4204D1019B059A1A600023A0
:10A8100009E0059B01330593059A049B9A42E7D30F
:10A82000052300E00023184607B05DF804FB00BFD5
:10A83000102C002000B585B001900B468DF8033038
:10A840009DF8032001AB11461846FFF7C1FF0346F0
:10A85000002B07D1019BDB00054A13440393039BA4
:10A860001B6800E00023184605B05DF804FB00BF3C
:10A8700008F8020084B001900B468DF80330019B6C
:10A88000DB00174A134402939DF80330013B032B6E
:10A890001CD801A252F823F0A9A80200B1A8020016
:10A8A000B9A80200C3A8020002238DF80F3011E0FE
:10A8B00004238DF80F300DE0029B1B798DF80F30CB
:10A8C00008E0029B5B798DF80F3003E000238DF8E0
:10A8D0000F3000BF9DF80F30184604B0704700BF1E
:10A8E00008F8020084B00190009100238DF80F3029
:10A8F000019B1B7803F00403DBB2002B24D0019BE7
:10A900001B78C3F30103DBB2012B02D0022B0CD066
:10A9100017E0009B1B68019A1288C2F38312D2B21F
:10A9200013449A1C009B1A600BE0009B1B68019A61
:10A930005288C2F3891292B213449A1C009B1A6087
:10A9400000BF01238DF80F309DF80F30184604B07A
:10A950007047000000B58BB00023ADF826303E48AC
:10A9600003F07AFD3D4803F077FD3D4B9B6804936F
:10A970003C4B1B680693049A069B134002339B00D2
:10A98000374A13440433089304AB19460898FFF779
:10A99000A9FF0346002B09D0049A069B13400233FB
:10A9A0009B002F4A134404330893EDE700BF0023B4
:10A9B000079311E0049B5A1C0492069A1340079ACD
:10A9C000920001A90A44264902339B000B445B68AC
:10A9D0001360079B01330793079B012BEAD99DF86E
:10A9E0000430C3F30103DBB2012B10D0022B1CD1C6
:10A9F000BDF80A30ADF82630BDF80630C3F3891330
:10AA00009BB203339A08049B1344049313E0BDF8EC
:10AA10000A30ADF82630BDF80430C3F38313DBB23F
:10AA20001A46049B1344049305E00F494FF4C27087
:10AA300003F01EFC00BF094803F01AFD0590059BBA
:10AA4000002B02D0049B064A9360BDF826301846BE
:10AA50000BB05DF804FB00BFBC340020B83400200C
:10AA6000A4300020182C00207400030000B585B02D
:10AA70000021074803F079FC0390039B0293029B9B
:10AA800083F310030193019B184605B05DF804FBA6
:10AA9000C034002000B589B0039002910192009368
:10AAA000039B1B0C0793FFF7E1FF0690FFF786FE61
:10AAB0000246079B934204D3214940F2A91003F0B8
:10AAC000D7FB069B1904009B5A1C0A9B1340079A4C
:10AAD0000A431C4902339B000B445A60009A0A9BAC
:10AAE000134002339B00174A134404330593039B1E
:10AAF00003F00703D9B2059A137861F3C503137005
:10AB0000019B03F00F03D9B2059A138861F38913EF
:10AB10001380029BC3F31501059A136861F39F2309
:10AB20001360059A1378012161F301031370059AEC
:10AB300013786FF38203137000BF09B05DF804FB54
:10AB400074000300A430002000B58DB00390029182
:10AB500013468DF80730039B02330A9301238DF8C7
:10AB6000273000238DF81B300DF11B03184603F02E
:10AB700033F9404B5A68029B1A603F4B1A683D4BB1
:10AB800099683C4B5B68CB1A134401330B9314E078
:10AB900001213A4803F030FCFFF7DCFE07900799EB
:10ABA000364803F029FC344B1A68324B9968314B14
:10ABB0005B68CB1A134401330B930A9A0B9B9A429E
:10ABC000E6D89DF82730002B48D0002305939DF848
:10ABD0000730002B17D09DF81430012262F30103D7
:10ABE0008DF814309DF8143043F004038DF81430C0
:10ABF000039B03F00F03DAB2BDF8143062F389133C
:10AC0000ADF8143016E09DF81430022262F301030F
:10AC10008DF814309DF8143043F004038DF814308F
:10AC2000039BC3F309039AB2BDF8163062F38F1386
:10AC3000ADF816300F4B5A680F4B1B6813400233A8
:10AC40009B000C4A134404330893059A089B1A602E
:10AC5000084B5A680A9B1344064A53609DF81B3000
:10AC6000184603F0CFF89DF8273018460DB05DF870
:10AC700004FB00BFA4300020182C0020C0340020AA
:10AC800000B58BB005900491039202931F4B1B6893
:10AC9000079306AB012219460298FFF755FF0346BA
:10ACA000002B24D0069B023309930023089311E064
:10ACB000089B9B00039A1A44099B591C0991079908
:10ACC0000B401268124902339B000B445A60089BE8
:10ACD00001330893089A029B9A42E9D3069A079B8C
:10ACE00000931346029A04990598FFF7D3FE084B88
:10ACF0001B78002B05D000BF00F07EF80346002B28
:10AD0000FAD100BF0BB05DF804FB00BF182C002087
:10AD1000A430002000B583B00190009100230022F0
:10AD200000990198FFF7ACFF00BF03B05DF804FB8A
:10AD300000B587B0039002910192019B059305AA8B
:10AD4000012302990398FFF79BFF00BF07B05DF84E
:10AD500004FB00B587B00390029101920093019B20
:10AD60000493009B059304AA022302990398FFF71A
:10AD700087FF00BF07B05DF804FB00B589B0039002
:10AD8000029101920093019B0593009B06930A9BFD
:10AD9000079305AA032302990398FFF771FF00BFE9
:10ADA00009B05DF804FB00B58BB0039002910192ED
:10ADB0000093019B0593009B06930C9B07930D9BAF
:10ADC00008930E9B099305AA052302990398FFF7A0
:10ADD00057FF00BF0BB05DF804FB0000054B9A68FD
:10ADE000044B5B689A420CBF01230023DBB2184678
:10ADF000704700BFA430002000B599B0FFF7EEFF08
:10AE00000346002B01D00023C0E19B4B0022C3F876
:10AE10001824BFF34F8F00BF974B9B680493974B49
:10AE20001B681093049A109B134002339B00924AB4
:10AE30001344043311930023179300231693002324
:10AE40000F9304AB19461198FFF74CFD0346002BF6
:10AE500019D0894BD3F81834002B14D1864B5A687B
:10AE6000049B9A4205D8844B5B68834A9360002315
:10AE70008CE1049A109B134002339B007E4A1344DA
:10AE800004331193DDE70023159311E0049B5A1C52
:10AE90000492109A1340159A920001A90A44764927
:10AEA00002339B000B445B681360159B01331593C1
:10AEB000159B012BEAD99DF8043003F00303DBB2A4
:10AEC000022B40F09C80BDF80630C3F389139BB27F
:10AED0000D93BDF80630C3F389139BB2A02B28BF96
:10AEE000A0239BB20C930C9BC3F309039AB2BDF849
:10AEF000063062F38F13ADF806300C9B08330B93CA
:10AF00009DF80430C3F3C203DBB20F930B995C4886
:10AF100003F0A1FF1790179B002B00F0D380179828
:10AF200004F02AF801A9169B0822179804F0E0F80B
:10AF3000169B08331693049BDA43109B134001338E
:10AF40009B000A930C9A0A9B9A4242D90A9B002BB7
:10AF500008D0049A109B134002339B00464A1344C6
:10AF6000043300E0474B08930A9B002B02D00A9B56
:10AF7000DBB201E00C9BDBB28DF81F300A9B002B8B
:10AF800001D0404B00E0002306930A9B002B06D023
:10AF90000C9BDAB20A9BDBB2D31ADBB200E00023CF
:10AFA0008DF817309DF81F20169B0899179804F00C
:10AFB0009FF89DF81F30169A13441693069B002B9A
:10AFC00016D09DF81720169B0699179804F090F854
:10AFD0000EE0049A109B134002339B00264A134450
:10AFE00004330993169B0C9A0999179804F080F87A
:10AFF0000D9B03339A08049B1344049362E09DF86D
:10B00000043003F00303DBB2012B5BD1BDF8043045
:10B01000C3F38313DBB2062B28BF0623DAB2BDF8D5
:10B02000043062F38913ADF80430BDF80430C3F383
:10B030008313DBB202330E939DF80430C3F3C203D3
:10B04000DBB20F930E9B9B0019460D4803F003FFE4
:10B050001790179B002B35D0179803F08DFF01A98F
:10B06000169B0822179804F043F8169B0833169392
:10B07000002315931DE000BFA4300020182C0020F1
:10B08000F4F70200B0300020049B5A1C0492109A7E
:10B09000134002339B003F4A1344191D169B0422A0
:10B0A000179804F025F8169B04331693159B01336B
:10B0B0001593BDF80430C3F38313DBB21A46159B16
:10B0C0009342E1D3179B002B40D0324BD3F810347E
:10B0D0001493304BD3F81834002B1BD0179803F07F
:10B0E0005AFF4DE000238DF84F301498FFF736FBE0
:10B0F0000346002B02D001238DF84F309DF84F30CE
:10B10000002B03D017991498FFF7E4FA149BDB681F
:10B110001B681493149B002BE4D1179803F03BFF9A
:10B1200000238DF803300DF10303184602F054FE9E
:10B13000184BD3F81834002B02D1049B154A9360A6
:10B140009DF80330184602F05DFE19E0114BD3F86C
:10B150001034129306E01298FFF7D6FA129BDB68C0
:10B160001B681293129B002BF5D10B4A0B4BD31A81
:10B17000DB081B0443F0020309491846FFF7CAFD28
:10B18000FFF72CFE034683F00103DBB2184619B02B
:10B190005DF804FBA430002040F8020008F802002B
:10B1A0001801030000B585B00023039323E0164B7C
:10B1B000D3F81034029301238DF807300FE0029882
:10B1C000FFF7BBFA03461A46039B934203D10023C1
:10B1D0008DF8073006E0029BDB681B680293029B38
:10B1E000002BECD19DF80730002B01D0039B07E02A
:10B1F000039B01330393039B092BD8DD4FF0FF33EF
:10B20000184605B05DF804FBA430002000B585B0F9
:10B2100001900B468DF80330FFF7C4FF0390039BAA
:10B22000B3F1FF3F01D1039B22E0039BDBB2194640
:10B230000198FFF775FA104BD3F81034002B08D1A2
:10B240000D4A019BC2F81034019BDB6800221A6092
:10B250000DE0094BD3F81034DA68019BDB68126803
:10B260001A60054BD3F81034DB68019A1A60039B0F
:10B27000184605B05DF804FBA430002000B583B08B
:10B280000C4BD3F8103401930A4B01221A7009E0D9
:10B290000198FFF75AFA0198FFF72AFA019BDB6839
:10B2A0001B680193019B002BF2D100BF00BF03B0CC
:10B2B0005DF804FBA430002082B00190009100BF33
:10B2C00002B0704710B584B003900291039BDB88F5
:10B2D000002B0AD0039BDB881A461F4B00931346B2
:10B2E0001E4A1F49029803F0FFF9039B1B7A052BA6
:10B2F0002ED0039B5B7A002B12D0039B9B881A46AF
:10B30000039B1B7A19461046FFF7B4FA03461A4608
:10B31000144B53F822301A461349029803F0E4F90B
:10B32000039B1B6819460298FFF7C6FF039B1B7A15
:10B330001A460E4B53F82240039B9B880021184667
:10B34000FFF778FA034622460949029803F0CCF940
:10B3500000BF04B010BD00BF4C0103005C0103003E
:10B3600094010300302C0020AC0103001C2C0020B1
:10B37000B001030000B585B00390029113468DF82B
:10B380000730039B1B7A052B0FD0039B5B7A002BA6
:10B3900006D00D4B1B681A460C49029803F0A4F91D
:10B3A0000B49029803F0A0F907E09DF80730002B45
:10B3B00003D00749029803F097F9029803F072F955
:10B3C00000BF05B05DF804FB302C0020AC01030089
:10B3D000BC01030030B58BB0079006910592049331
:10B3E0000E9B1B7B8DF827300E9B00221A730E9943
:10B3F0000498FFF767FF059B062B7FD801A252F840
:10B4000023F000BF21B402002BB402003BB40200C1
:10B410004FB402006DB4020095B40200C5B402003E
:10B4200007990E9803F060F969E0069B1B681A46BD
:10B4300007990E9803F058F961E0069B1A68069B7D
:10B4400004331B6807990E9803F04EF957E0069BEA
:10B450001A68069B04331968069B08331B6800931F
:10B460000B4607990E9803F03FF948E0069B1968D0
:10B47000069B04331868069B08331B68069A0C3237
:10B4800012680192009303460A4607990E9803F04A
:10B490002BF934E0069B1868069B04331C68069B56
:10B4A00008331B68069A0C32126806991031096835
:10B4B0000291019200932346024607990E9803F0E9
:10B4C00013F91CE0069B1C68069B04331D68069B51
:10B4D00008331B68069A0C32126806991031096805
:10B4E00006981430006803900291019200932B4655
:10B4F000224607990E9803F0F7F800E000BF0022FB
:10B500000E990498FFF736FF0E9B9DF827201A73BB
:10B5100000BF0BB030BD00BF00B587B003900291F3
:10B5200001920093029B082B60D8009B1B7B8DF837
:10B530001330009B00221A7300990198FFF7C2FE96
:10B540000023059314E0059A029B9A4209D2039ABC
:10B55000059B13441B781A462649009803F0C4F84B
:10B5600003E02549009803F0BFF8059B01330593DC
:10B57000059B072BE7D92149009803F0B5F8002374
:10B58000059326E0059A029B9A421BD2039A059BDB
:10B5900013441B788DF812309DF812307E2B0AD898
:10B5A0009DF81230184604F07BF80346002B02D0B9
:10B5B0009DF8123000E02E231A461149009803F03E
:10B5C00093F803E00F49009803F08EF8059B0133D0
:10B5D0000593059B072BD5D9012200990198FFF708
:10B5E000C9FE009B9DF813201A7300E000BF07B04E
:10B5F0005DF804FBC0010300C8010300CC01030097
:10B60000D0010300D401030000B585B00190019B77
:10B61000002B0AD0074B43F001030393019B9B01CE
:10B620000293039B0298984700E000BF05B05DF8C5
:10B6300004FB00BFE004030000B583B00190019B50
:10B64000002B0AD04FF47A70FFF7DEFF019B013B1D
:10B650000193019B002BF5D100E000BF03B05DF822
:10B6600004FB000000B583B00190019B1B681846E5
:10B6700000F0AEF80346002B04D10B494FF4F670EE
:10B6800002F0F6FD019B1B681F2B02D84FF0A04370
:10B6900006E0019B1B6803F01F02019B1A60034B2D
:10B6A000184603B05DF804FBD80103000003005006
:10B6B00000B585B00190084611461A4603468DF83C
:10B6C00003300B468DF8023013468DF8013001AB84
:10B6D0001846FFF7C7FF03909DF803209DF802303E
:10B6E0005B001A439DF801309B001A439DF8183007
:10B6F0001B0242EA03019DF81C301B04019A194306
:10B70000039B02F5E07243F8221000BF05B05DF81C
:10B7100004FB00B585B00390002301930023009340
:10B720000023012201210398FFF7C2FF00BF05B0EB
:10B730005DF804FB00B585B0019001AB1846FFF73A
:10B7400091FF0390019B012202FA03F3194603982B
:10B7500000F02AF800BF05B05DF804FB00B585B025
:10B76000019001AB1846FFF77DFF0390019B01227A
:10B7700002FA03F31946039800F020F800BF05B061
:10B780005DF804FB00B583B001900091009B002B95
:10B7900003D10198FFF7E2FF02E00198FFF7CAFF2B
:10B7A00000BF03B05DF804FB82B001900091019BE3
:10B7B000009AC3F8082500BF02B0704782B001901C
:10B7C0000091019B009AC3F80C2500BF02B070479E
:10B7D00084B00190019B5B09029300230393029BB9
:10B7E000002B03D0029B012B04D007E04FF0FF3366
:10B7F000039303E04FF6FF73039300BF019B03F035
:10B800001F030193039A019B22FA03F303F0010340
:10B81000002B14BF01230023DBB2184604B070478D
:10B8200000B583B003468DF807309DF80730023B22
:10B830000B2B00F29F8001A252F823F05DB90200A9
:10B8400075B9020015B90200E5B80200FDB80200A2
:10B850002DB9020045B902009DB802006DB8020082
:10B8600085B80200B5B80200CDB80200444A454B85
:10B87000D31ADB081B0443F0040343491846FFF7BF
:10B8800049FA78E03E4A3F4BD31ADB081B0443F0E9
:10B8900004033E491846FFF73DFA6CE0384A394B3D
:10B8A000D31ADB081B0443F0040339491846FFF799
:10B8B00031FA60E0324A334BD31ADB081B0443F001
:10B8C000040334491846FFF725FA54E02C4A2D4B5F
:10B8D000D31ADB081B0443F004032F491846FFF773
:10B8E00019FA48E0264A274BD31ADB081B0443F019
:10B8F00004032A491846FFF70DFA3CE0204A214B81
:10B90000D31ADB081B0443F0040325491846FFF74C
:10B9100001FA30E01A4A1B4BD31ADB081B0443F030
:10B92000040320491846FFF7F5F924E0144A154BA3
:10B93000D31ADB081B0443F004031B491846FFF726
:10B94000E9F918E00E4A0F4BD31ADB081B0443F049
:10B95000040316491846FFF7DDF90CE0084A094BC5
:10B96000D31ADB081B0443F0040311491846FFF700
:10B97000D1F900E000BF00BF03B05DF804FB00BFD9
:10B9800040F8020008F80200F80103000C0203006E
:10B99000200203003402030048020300580203009F
:10B9A0007802030094020300AC020300C802030003
:10B9B000D802030000B583B04FF480410020FEF7A9
:10B9C000D5FE0190019B0093009B002B04D00B4AF5
:10B9D0008221009801F0DEFFFEF75EFE084A094B67
:10B9E000D31ADB081B0443F0040307491846FFF78A
:10B9F00091F900BF03B05DF804FB00BFF80203003B
:10BA000040F8020008F802006C03030000B585B09E
:10BA10000020FFF77EFE0A20FFF70EFE0121002026
:10BA2000FFF7B0FE0A20FFF707FE18490320FCF7D6
:10BA30001BF8FFF7BFFF02F01DFB00F0F7FA012132
:10BA40000E2001F0F1F8124A124BD31ADB081B0446
:10BA500043F0040310491846FFF75CF905230393EC
:10BA60000E4A6B4692E8030083E8030008238DF832
:10BA70000B306B469DF80B209DF80A10039801F0DF
:10BA8000F2F84FF4C870FFF7D7FDE7E721B80200DE
:10BA900040F8020008F80200C8040300D8040300BC
:10BAA00082B0234B0193019B08221A61019B08225B
:10BAB0005A61019B1F4A9A61019B1F4ADA61019BEF
:10BAC0004FF480521A62019B00229A62019B00226D
:10BAD0005A62019B0222DA62019B164AC3F8D820FF
:10BAE000019B164AC3F8DC20019B8022C3F8E020AA
:10BAF000019B0022C3F8E820019B0022C3F8E42048
:10BB0000019B0222C3F8EC20019B07330C4A10680A
:10BB10001860019B0B4A106818609188927999808F
:10BB20009A71019B20229A7100BF02B0704700BF3A
:10BB3000C4340020E80403005C3600205C4600208A
:10BB4000F4040300F804030000B589B003900291E7
:10BB5000019200230693039BDB680593039B1B69FB
:10BB60000493049A059B9A4205D9049A059BD31A1B
:10BB7000013B079307E0039B9A680499059BCB1A46
:10BB80001344013B0793039B9A68059BD31A079ABA
:10BB9000934228BF13460793079A019B934228BFFD
:10BBA00013460793039B5A68059B1344079A02990F
:10BBB000184603F07DFD069A079B13440693029AEC
:10BBC000079B13440293019A079BD31A0193059A8A
:10BBD000079B13440593039B9B68059A9A4201D1E6
:10BBE00000230593039B059ADA60019B002BB5D1D6
:10BBF000069B184609B05DF804FB00B589B00390B8
:10BC000002910192039BDB680793039B9A68079B51
:10BC1000D31A0693069A019B9A420ED9039B5A683F
:10BC2000079B1344019A0299184603F041FD079AB5
:10BC3000019B1A44039BDA601AE0069B0593039B61
:10BC40005A68079B1344059A0299184603F030FD81
:10BC5000019A069BD31A0593039B5868029A069B88
:10BC60001344059A194603F023FD039B059ADA60F5
:10BC700000BF09B05DF804FB86B00190019B1B6911
:10BC80000493019BDB680393049A039B9A4208D8B0
:10BC9000019B9A68039BD21A049B1344013B0593B2
:10BCA00004E0049A039BD31A013B0593059B1846B5
:10BCB00006B0704700B589B0039002910192029BD3
:10BCC0000693039B5A1C13465B001344DB00204A77
:10BCD00013440593059B5B69022B29D0022B2ED8B8
:10BCE000002B02D0012B13D029E00598FFF7C4FFE9
:10BCF0000490049A019B9A4202D20023079321E008
:10BD0000019B0793019A06990598FFF776FF19E0C2
:10BD10000598FFF7B1FF0490019A049B934228BF56
:10BD200013460793079A06990598FFF766FF09E0FF
:10BD3000019A06990598FFF707FF079002E0002394
:10BD4000079300BF079B184609B05DF804FB00BFCE
:10BD5000C434002008B5FFF7A3FE00BF08BD41DFD3
:10BD6000704700BF1846000000B585B00190019BE8
:10BD7000002B0AD0074B43F001030393019B9B0167
:10BD80000293039B0298984700E000BF05B05DF85E
:10BD900004FB00BFD005030000B583B00190019BF8
:10BDA000002B0AD04FF47A70FFF7DEFF019B013BB6
:10BDB0000193019B002BF5D100E000BF03B05DF8BB
:10BDC00004FB000000B583B00190019B1B6818467E
:10BDD00000F0B9F80346002B04D10B494FF4F6707C
:10BDE00002F046FA019B1B681F2B02D84FF0A043BC
:10BDF00006E0019B1B6803F01F02019B1A60034BC6
:10BE0000184603B05DF804FB000503000003005072
:10BE100000B585B00190084611461A4603468DF8D4
:10BE200003300B468DF8023013468DF8013001AB1C
:10BE30001846FFF7C7FF03909DF803209DF80230D6
:10BE40005B001A439DF801309B001A439DF818309F
:10BE50001B0242EA03019DF81C301B04019A19439E
:10BE6000039B02F5E07243F8221000BF05B05DF8B5
:10BE700004FB00B585B003900023019300230093D9
:10BE80000023012201210398FFF7C2FF00BF05B084
:10BE90005DF804FB00B585B0019001AB1846FFF7D3
:10BEA00091FF0390019B012202FA03F319460398C4
:10BEB00000F035F800BF05B05DF804FB00B585B0B3
:10BEC000019001AB1846FFF77DFF0390019B012213
:10BED00002FA03F31946039800F02BF800BF05B0EF
:10BEE0005DF804FB00B585B0019001AB1846FFF783
:10BEF00069FF0390039800F00AF80246019B22FABA
:10BF000003F303F00103184605B05DF804FB82B0AB
:10BF10000190019BD3F81035184602B0704782B0EB
:10BF200001900091019B009AC3F8082500BF02B060
:10BF3000704782B001900091019B009AC3F80C25D4
:10BF400000BF02B0704784B00190019B5B0902936F
:10BF500000230393029B002B03D0029B012B04D0F0
:10BF600007E04FF0FF33039303E04FF6FF730393B3
:10BF700000BF019B03F01F030193039A019B22FA68
:10BF800003F303F00103002B14BF01230023DBB2F2
:10BF9000184604B0704700B58FB00390029100932B
:10BFA00013468DF8073000230D93029B09939DF8EB
:10BFB00007300A93009B0B939DF840300C93039B32
:10BFC000043309A900221846FDF744FF0D900D9B8C
:10BFD00018460FB05DF804FB00B583B001900B4626
:10BFE0008DF803300198FFF77DFF0346002B03D047
:10BFF0001020FFF74FFF02E01020FFF75FFF00BFA8
:10C0000003B05DF804FB000082B001900091019B39
:10C010001B78002B03D1044B01221A7000E000BFF3
:10C0200000BF02B0704700BF542C002010B588B08C
:10C0300000230793222000F0E1FD274A04AB126899
:10C04000114619800233120C1A7003238DF8113037
:10C0500004AB224A19462920FCF77CFE0790079B77
:10C060000693069B002B04D01D4A4A21069801F036
:10C0700091FC01212920FCF7E9FE1A4B6C460FCBFD
:10C0800084E80F004FF00073029300238DF80C300A
:10C0900022238DF803300E238DF802300F238DF804
:10C0A00001300D238DF8003000238DF80D306946E6
:10C0B00000230D4A0D48FBF7A9FF0790079B059346
:10C0C000059B002B04D0064A5821059801F062FC1C
:10C0D00000BF08B010BD00BFA0050300D9BF02001B
:10C0E00020050300A405030009C00200B8050300F1
:10C0F00008B5034B5B7C1846FFF7E0FE00BF08BDA8
:10C10000DC46002008B5034B5B7C1846FFF7C2FEF7
:10C1100000BF08BDDC46002000B587B0FFF7E8FF90
:10C12000C0238DF80C3001238DF81730164B0022F8
:10C130001A709DF8172003A90023009300231348C9
:10C14000FFF729FF0490049B002B0ED0104A7221A8
:10C15000049801F01FFC08E001F0BAF80346002B38
:10C1600002D0FFF7FCFD00E020BF074B1B78DBB2DD
:10C1700083F00103DBB2002BEED1FFF7C3FF00BF5A
:10C1800007B05DF804FB00BF542C0020B805030085
:10C190002005030000B589B003468DF80F30FFF786
:10C1A000A7FF03238DF814309DF80F308DF815305C
:10C1B00000238DF8163003238DF81F3003238DF8EC
:10C1C0001E309DF81E2004AB0021184603F099FA9A
:10C1D000184B00221A7004A89DF81F2005A99DF88D
:10C1E0001E30009303461448FFF7D5FE0690069BC9
:10C1F000002B0ED0114A9121069801F0CBFB08E0EC
:10C2000001F066F80346002B02D0FFF7A8FD00E01E
:10C2100020BF084B1B78DBB283F00103DBB2002B9D
:10C22000EED1FFF76FFF9DF81230184609B05DF8A8
:10C2300004FB00BF542C0020B805030020050300B8
:10C2400000B589B003460A468DF80F3013468DF8C5
:10C250000E30FFF74DFF02238DF814309DF80F309C
:10C260008DF815309DF80E308DF8163003238DF8BB
:10C270001F30164B00221A709DF81F2005A90023BD
:10C28000009300231248FFF786FE0690069B002BC2
:10C290000ED0104AD521069801F07CFB08E001F091
:10C2A00017F80346002B02D0FFF759FD00E020BF2E
:10C2B000064B1B78DBB283F00103DBB2002BEED11F
:10C2C000FFF720FF00BF09B05DF804FB542C0020ED
:10C2D000B80503002005030000B589B003460291AC
:10C2E0008DF80F3013468DF80E30FFF701FF022353
:10C2F0008DF810309DF80F308DF811309DF80E300C
:10C3000002338DF81F309DF80E300233184601F0CD
:10C310004FFF03460693BDF81020069B1A80069B2C
:10C3200002339DF80E200299184603F0C1F9184B0C
:10C3300000221A709DF81F20002300930023069905
:10C340001448FFF728FE0590059B002B0ED0124ADB
:10C35000F421059801F01EFB08E000F0B9FF034648
:10C36000002B02D0FFF7FBFC00E020BF084B1B783E
:10C37000DBB283F00103DBB2002BEED1069801F0B3
:10C3800041FFFFF7BFFE00BF09B05DF804FB00BF2F
:10C39000542C0020B80503002005030000B589B027
:10C3A00003468DF80F300B468DF80E3013468DF88E
:10C3B0000D30FFF79DFE05238DF814309DF80F30EA
:10C3C0008DF815309DF80E308DF816309DF80D3033
:10C3D0008DF8173004238DF81F30174B00221A7088
:10C3E0009DF81F2005A90023009300231348FFF7A1
:10C3F000D2FD0690069B002B0FD0114A4FF4887196
:10C40000069801F0C7FA08E000F062FF0346002B2F
:10C4100002D0FFF7A4FC00E020BF074B1B78DBB283
:10C4200083F00103DBB2002BEED1FFF76BFE00BF00
:10C4300009B05DF804FB00BF542C0020B8050300D0
:10C440002005030000B585B003468DF807309DF840
:10C4500007301A46E0210F20FFF7A0FF0A20FFF760
:10C460009BFC0F20FFF796FE03468DF80F300A2045
:10C47000FFF792FC9DF80F3023F01F038DF80F306B
:10C480009DF80F209DF807309A4201D1002300E06B
:10C490000123184605B05DF804FB000000B585B027
:10C4A00003460A468DF8073013468DF806300123FF
:10C4B0008DF80F309DF80630012B03D0022B00F0D1
:10C4C000B28060E19DF80730013B0F2B00F2A6809F
:10C4D00001A252F823F000BF19C502002DC50200C9
:10C4E00041C5020055C502001DC6020069C5020013
:10C4F0007DC5020091C502001DC602001DC60200D6
:10C50000A5C50200B9C50200CDC50200E1C5020003
:10C51000F5C5020009C602003F238DF80E30FF2347
:10C520008DF80D3087238DF80C307BE01F238DF8BC
:10C530000E30FF238DF80D3087238DF80C3071E01D
:10C540000F238DF80E30FF238DF80D3087238DF8E3
:10C550000C3067E00F238DF80E30F1238DF80D308D
:10C5600085238DF80C305DE007238DF80E30FF2316
:10C570008DF80D3087238DF80C3053E007238DF8AC
:10C580000E30FA238DF80D3087238DF80C3049E0FA
:10C5900003238DF80E30FF238DF80D3087238DF89F
:10C5A0000C303FE003238DF80E30FA238DF80D3068
:10C5B00087238DF80C3035E003238DF80E30F023FF
:10C5C0008DF80D3086238DF80C302BE001238DF88B
:10C5D0000E30FA238DF80D3087238DF80C3021E0D2
:10C5E00041238DF80E30F1238DF80D3085238DF821
:10C5F0000C3017E000238DF80E30F0238DF80D304D
:10C6000086238DF80C300DE000238DF80E30D023FA
:10C610008DF80D3082238DF80C3003E000238DF867
:10C620000F3000BFB3E09DF80730013B0F2B00F245
:10C63000A58001A252F823F079C602008DC602003F
:10C64000A1C60200B5C602007DC70200C9C602002D
:10C65000DDC60200F1C602007DC702007DC70200F0
:10C6600005C7020019C702002DC7020041C702001A
:10C6700055C7020069C702001F238DF80E30BF2383
:10C680008DF80D3007238DF80C307BE00F238DF8EB
:10C690000E30BF238DF80D3007238DF80C3071E07C
:10C6A00007238DF80E30BF238DF80D3007238DF84A
:10C6B0000C3067E007238DF80E30A4238DF80D3081
:10C6C00004238DF80C305DE003238DF80E30BF237A
:10C6D0008DF80D3007238DF80C3053E003238DF8CF
:10C6E0000E30B4238DF80D3006238DF80C3049E060
:10C6F00001238DF80E30BF238DF80D3007238DF800
:10C700000C303FE001238DF80E30B4238DF80D304E
:10C7100006238DF80C3035E001238DF80E30B1235F
:10C720008DF80D3005238DF80C302BE000238DF8AB
:10C730000E30B4238DF80D3006238DF80C3021E037
:10C7400000238DF80E30B1238DF80D3005238DF8C0
:10C750000C3017E000238DF80E3090238DF80D304B
:10C7600002238DF80C300DE000238DF80E3080236D
:10C770008DF80D3000238DF80C3003E000238DF888
:10C780000F3000BF03E000238DF80F3000BF9DF88D
:10C790000F30002B13D09DF80E3019462A20FFF7DA
:10C7A0004FFD9DF80D3019462920FFF749FD9DF8F2
:10C7B0000C3019462820FFF743FD002300E0012339
:10C7C000184605B05DF804FB00B583B030238DF842
:10C7D000063040238DF8053050238DF804300023B7
:10C7E0008DF8073025E09DF8063000211846FFF748
:10C7F00027FD9DF8053000211846FFF721FD9DF823
:10C80000043000211846FFF71BFD9DF80630013368
:10C810008DF806309DF8053001338DF805309DF810
:10C82000043001338DF804309DF8073001338DF862
:10C8300007309DF807300D2BD5D900216020FFF778
:10C84000FFFC00217020FFF7FBFC00BF03B05DF888
:10C8500004FB00B585B003460A468DF80730134641
:10C860008DF80630FFF758FC0A20FFF795FA802074
:10C87000FFF7E8FD03468DF80F309DF80F30002BD1
:10C8800005D00A20FFF788FA9DF80F303FE00A2014
:10C89000FFF782FA9DF806209DF8073011461846EA
:10C8A000FFF7FCFD0346002B05D00A20FFF774FAC2
:10C8B0009DF80F302BE00A20FFF76EFA9DF80F303D
:10C8C000002B22D1FFF780FF03212B20FFF7B8FCBC
:10C8D000042264216020FFF761FD002260217020A6
:10C8E000FFF75CFD0020FFF7ADFD03468DF80F302C
:10C8F0009DF80F30002B05D00A20FFF74DFA9DF868
:10C900000F3004E00A20FFF747FA9DF80F30184671
:10C9100005B05DF804FB00B585B0034600928DF8C4
:10C9200007300B468DF80630009BADF80E309DF8B1
:10C930000630012B34D1BDF80E30DBB28DF80B3050
:10C94000BDF80E301B0A9BB2DBB28DF80A30009B9B
:10C950001B0CADF80E30BDF80E30DBB203F0030354
:10C96000DBB28DF809309DF80920BDF80E30DBB23E
:10C97000DB00DBB223F01F03DBB21344DBB28DF824
:10C9800009309DF8093043F00803DBB28DF8093017
:10C99000BDF80E305B099BB2DBB28DF8083013E0B6
:10C9A000BDF80E30DB089BB2DBB28DF80830BDF865
:10C9B0000E30DBB25B01DBB28DF8093000238DF85D
:10C9C0000B3000238DF80A3002A99DF807300422AD
:10C9D0001846FFF781FC00BF05B05DF804FB0000BE
:10C9E00000B585B003468DF807309DF807308DF807
:10C9F0000F309DF80F300533DBB20E4A127A0E4924
:10CA00001846FFF769FC9DF80F300433DBB2094A82
:10CA1000127A11461846FFF713FC064B1978054B9E
:10CA20005A689DF80F301846FFF775FF00BF05B034
:10CA30005DF804FBDC460020E546002000B583B02D
:10CA400003468DF807309DF80730013BDBB2082222
:10CA500008211846FFF7A2FC00BF03B05DF804FBF5
:10CA600000B585B00190214A02AB126811461980C9
:10CA70000233120C1A7002238DF80E30019B002233
:10CA80001A7000238DF80F3026E09DF80F30103318
:10CA90006B4413F8083C1846FFF77CFB03468DF8FF
:10CAA0000D309DF80D3003F00803002B0FD19DF8D9
:10CAB0000F3010336B4413F8083C0133DAB2019B9A
:10CAC0001A7000238DF80E309DF80E300AE09DF8A4
:10CAD0000F3001338DF80F309DF80F30022BD4D971
