:10000000000004205D030000B9030000BB030000F2
:10001000BD030000BF030000C1030000000000009A
:10002000000000000000000000000000C30300000A
:10003000C503000000000000C7030000C903000062
:1000400015080000CB030000F90C0000A50D00000E
:10005000CB030000CB0300007D0B0000CB030000AE
:10006000CB030000CB030000CB030000CB03000058
:10007000CB0300003D0D0000CB030000CB030000CC
:10008000CB0300001D2C0000CB030000CB030000BD
:10009000CB030000CB0300003D270000CB03000092
:1000A000CB030000CB030000CB030000CB03000018
:1000B000CB030000CB0300000000000000000000A4
:1000C000CB030000CB030000CB030000CB030000F8
:1000D000CB030000CB030000CB030000CB030000E8
:1000E000CB030000CB030000CB03000000000000A6
:1000F00000000000CB03000000000000CB03000064
:1001000000000000000000000000000000000000EF
:1001100000000000000000000000000000000000DF
:1001200000000000000000000000000000000000CF
:1001300000000000000000000000000000000000BF
:1001400000000000000000000000000000000000AF
:10015000000000000000000000000000000000009F
:10016000000000000000000000000000000000008F
:10017000000000000000000000000000000000007F
:10018000000000000000000000000000000000006F
:10019000000000000000000000000000000000005F
:1001A000000000000000000000000000000000004F
:1001B000000000000000000000000000000000003F
:1001C000000000000000000000000000000000002F
:1001D000000000000000000000000000000000001F
:1001E000000000000000000000000000000000000F
:1001F00000000000000000000000000000000000FF
:10020000354936480A1A02D0072291438D463449AF
:1002100034480A1A06D00722914381F30988022242
:1002200082F3148830483149314A00F044F83148AB
:100230003149324A00F03FF831483249324A00F041
:100240003AF832483249334A00F035F832483349F7
:10025000334A00F030F833483349344A00F02BF881
:1002600033483449344A00F026F8344834490022EF
:1002700000F02CF833483449002200F027F83348C6
:100280003349091A082902DB002202604160314A21
:1002900090471F481F49884205D00268043003B4C4
:1002A000904703BCF7E700208646EC46002000217B
:1002B000294A9047FEE7884207D0521A05D00378B2
:1002C00001300B700131013AF9D17047884202D0F8
:1002D00002700130FAE770470000042000E00320BC
:1002E00000000420000004208C3E000000000020DC
:1002F000AC000020D0030000D003000068370000ED
:100300008C3E00000000002000000020103800009B
:1003100010380000103800001038000010380000BD
:100320001038000010380000103800008A3E00002D
:10033000383F0000AC000020AC000020AC000020E2
:100340000D1D0020101D0020101D0020101D00207C
:10035000103D002085030000F51B000000F036B8BA
:100360000F484FF00701884385460E4880470E48E6
:10037000016841F470010160BFF34F8FBFF36F8FCD
:10038000FFF73EBF09480A490A4A884207D0521A75
:1003900005D0037801300B700131013AF9D1704773
:1003A000000004200D25000088ED00E0103800005A
:1003B0000000002000000020FEE7FEE7FEE7FEE769
:1003C000FEE7FEE7FEE7FEE7FEE7FEE7FFF7C8BF52
:1003D000022000F0DDBE00002DE9F04780460D460A
:1003E00000F0F0FE0328044610D8012D10D0022D95
:1003F00030D05DB91A4802F0C2FB1A4B04EB44023C
:1004000013449D78184B1B5DAB4219D0BDE8F087B3
:10041000144E00EB4003F218F55C5378470053B1DB
:10042000DFF84C900E484A464FF4804102F07EFBC4
:1004300008B989F8008027443E440B4BB2781A551E
:10044000002DE3D0094B1B68002BDFD02846BDE808
:10045000F047184700EB4004024804446578EFE792
:1004600020000020AE000020C9000020C4000020B1
:10047000AC00002000780221FFF7AEBF08B5094BA1
:100480001B7853B1002000F051FE012000F04EFE19
:10049000BDE80840032000F049BEBDE8084000F078
:1004A00059BE00BFAD000020F8B57A4C2378054650
:1004B0001BB100232370FFF7E1FF172D00F28780A7
:1004C000DFE805F00C1717425364757F878C878C23
:1004D000949999999999C3C8D0D8E3E3FFF7CEFFCF
:1004E0006D4802F04CFB6D4B002204461A7020460A
:1004F000F8BD002000F0F2FDF0B1002000F016FE83
:10050000022D0CBF4FF4E1644FF47A64634B1D700D
:1005100000254FF400464FF47A7029464FF4FA62F2
:100520000023E4FB060102F0B4FF2A460146BDE8C1
:10053000F840594802F0FABA00F0E4FD022D0CBF71
:10054000C8244FF4C874E1E7002000F0C7FD40B1B3
:10055000002000F0EBFD4FF44874504B03221A705A
:10056000D6E700F0CFFDC824F7E7002000F0B6FD85
:1005700038B1002000F0DAFD4FF47A64474B0422D2
:10058000EDE700F0BFFD4FF4C874F7E7002000F07E
:10059000A5FD48B1002000F0C9FD404B05221A70AE
:1005A00040F6CD410022C2E700F0ACFDF5E70020A7
:1005B00000F0EEFD394B06221A70002240F266610F
:1005C000B5E7002000F09EFD344B07221A7000248E
:1005D0008DE70120207000F0DBFDEEE701202070A8
:1005E00000F0D6FD00224FF40051A0E700F0C1FD5D
:1005F0002A4B0C22EAE72A482A4E02F0C0FAD5F12B
:10060000110504461CD0D8B9012D13D0C82045438C
:1006100021464FF400474FF47A704FF4FA620023FA
:10062000C5FB070102F035FF224601461C4802F0D7
:100630007DFA0446022000F065FD0123337056E781
:10064000022000F073FD0023F8E7FFF717FF134BBC
:100650001222BBE7FFF712FF002000F053FD0F4B03
:100660001322B3E7FFF70AFF012000F04BFD0B4B0D
:100670001422ABE7FFF702FF002000F043FD01204A
:1006800000F040FD054B1522A0E700F072FD034B82
:100690001D709CE7C000002040000020C800002022
:1006A00000000020AD000020044B1B68DB0703D5D1
:1006B000034B1878FFF7F8BE704700BFBC0000205E
:1006C000C800002038B51C4B18601C4B10F0020409
:1006D000054619601AD01A4B1A480E221A700F22BA
:1006E000DA7010229A7111225A72042140F23332C8
:1006F00002F020F9044648B902F074F9044628B91A
:100700000146114A114802F0FFF90446EB0711D5E2
:10071000012000F069FD6CB921460D4A0D4802F038
:10072000F3F9044630B9BDE838400B4A0B480121C3
:1007300002F0EAB9204638BDBC000020C400002009
:10074000AE000020103800007504000034380000AE
:10075000A906000038380000D1030000303800003E
:100760007FB503788DF804304368029383688DF871
:100770000C30C36804930369064A8DF81430064BA5
:1007800001A853F8213052F82110984707B05DF8BE
:1007900004FB00BF1C0100202C010020F0B5054621
:1007A000174615F804CB124A42F82C70114A42F849
:1007B0002C30114B0C460FCB85B06E4686E80F00EF
:1007C0002368009323798DF8053063798DF806301E
:1007D000A3680293002FA389084AADF80C3008BF24
:1007E0003A4663463146284600F006FB05B0F0BDA8
:1007F0002C0100201C010020483800006107000087
:1008000000F18040002382B0036003680193019BE4
:1008100002B070474FF0804110B5D1F8003163B19C
:100820004FF48070FFF7ECFF1F4B58790122C1F89D
:10083000082310B95A711B6898474FF08042D2F8CC
:10084000043153B14FF48270FFF7DAFF0223C2F88C
:100850000833154B01201B6898474FF08042D2F8AF
:10086000103153B14FF48870FFF7CAFF1023C2F85C
:1008700008330D4B02201B6898474FF08042D2F896
:100880000C3183B100214FF48670C2F8341CFFF79D
:10089000B7FF0823C2F80833034B9971BDE8104035
:1008A0001B680320184710BD3C01002000F1804068
:1008B00000F5C040002382B0036003680193019BF0
:1008C00002B0704703681F2B83BF03F01F03036050
:1008D00001484FF0A04070470003005007B5019059
:1008E00001A8FFF7EFFF019B00EB8300D0F8003772
:1008F00023F44033C0F80037D0F8003743EA014111
:10090000C0F8001703B05DF804FB0000054B4FF082
:10091000FF32072843F8202084BFC01880F85820F1
:10092000704700BF4401002038B51D4991F86A3076
:10093000A3BB4FF6FF70FF245A09012A0CBF0246E1
:100940004FF0FF3203F01F05EA40D20748BFCA1834
:1009500003F1010348BF82F83040302BECD1002472
:10096000E0B20134FFF7D2FF0C2CF9D10D4B00227D
:100970004A669A800C4BC02083F80603402018601A
:100980004FF4BE70FFF792FF084B4FF00040C3F8E2
:100990000403012381F86A30104638BD0820FCE7C3
:1009A00044010020A801002000E100E000600040B8
:1009B000034B93F86A00003818BF0120704700BF4E
:1009C00044010020F7B53D4F3B18044693F9303001
:1009D000002B71DA8B78C3F34003002B0BBF082583
:1009E00000250C200820854202D1042003B0F0BD70
:1009F00057F82560013647D138196EB247F82520DF
:100A000080F8306013B97B1983F858408B785A0707
:100A10001AD4D8073AD501A80194FFF753FF019BD8
:100A200000EB8300D0F8003723F00203C0F8003752
:100A30002348E20804F0070C012303FA0CF310F832
:100A400002C043EA0C03835488780B7810F002004C
:100A500028D0AD0005F1804505F5C0452402D5F844
:100A6000102522F44F3222F44072C5F810251B04E1
:100A7000D5F8102504F47C5403F440331C4314438C
:100A8000C5F810450020B1E70135ACE701A84A7868
:100A90000194FFF717FF019B03F5E073920040F804
:100AA0002320C5E7083E47FA86F797F8604044EAF6
:100AB000831387F8603099E7082097E74401002006
:100AC000A801002073B5244D2E18044696F9302055
:100AD000072A1DDD083A45FA82F595F860309B0932
:100AE000032B10D1019001A8FFF7ECFE019BD0F879
:100AF0001015D94001F001010231204602B0BDE8D5
:100B00007040FFF7EBBE012B0CBF02210321F4E77D
:100B1000D3B2072B1DD8930003F1804303F5C043E4
:100B2000D3F8100540F00100C3F8100502F14000B1
:100B300040B2800080B2FFF7B9FE51B196F9303073
:100B400055F823302BB1012303FA02F2034BC3F80B
:100B5000042302B070BD00BF4401002000600040CB
:100B600007B5019001A8FFF7ADFE019BD0F8100575
:100B7000D84000F0010003B05DF804FB2DE9FF4709
:100B80000024CDE90244584D4FF48072012102F156
:100B9000804303F5C04390B21B68012B06D1D5F802
:100BA00004330B4202D0FFF781FE0C430432B2F54E
:100BB000907F4FEA4101EAD14B4BD3F87C31012BB6
:100BC00011D14FF4BE70FFF771FE4FF0A04344F017
:100BD0000044D3F820250292C3F82025D3F820281A
:100BE0000392C3F82028E3B2D3B1404F0025012679
:100BF000344210D0AB0003F1804303F5C043D3F877
:100C00001005D3F8101557F8253023B1C1F3014171
:100C1000C0F3052098470135082D4FEA4606E7D175
:100C2000002C59DA314D324C324E4FF0000801277A
:100C300016F9013B5A1C3CD0C3F3C2011031694480
:100C40005FFA83F911F8081C03F03F0203F0070371
:100C500007FA03F319422CD001A80192FFF732FEE4
:100C6000019B03F5E07350F82330C3F3014ABAF156
:100C7000020F0CBF032102211046FFF72FFE01A82F
:100C80000192FFF71FFE019B07FA03F3C0F820351E
:100C9000AB1893F9303055F8233053B14FEA99111E
:100CA000032904D0BAF1020F19D1012901D110464C
:100CB000984708F10108B8F1040FB9D14FF0A043EB
:100CC000D3F820250292C3F82025D4F820350393C9
:100CD000C4F820351343A7D104B0BDE8F087BAF1BA
:100CE000030FE6D10229E1E7006000404401002043
:100CF00000030050A4010020014B1B68184700BFEF
:100D0000B001002038B50B4B98420C4601D00020B2
:100D100038BD002001F068FF074B1D7915B901228D
:100D20001C601A71002001F061FF002DEFD011202E
:100D3000EEE700BF00200040B0010020074B00227A
:100D4000C3F8002182B0D3F800210192019AD3F8B0
:100D50000805034B1B68C0B202B0184700D0004022
:100D6000B80100201F2886BF054A00F01F004FF081
:100D7000A042012303FA00F0C2F80C05704700BF3F
:100D8000000300501F2886BF054A00F01F004FF0E7
:100D9000A042012303FA00F0C2F80805704700BF23
:100DA00000030050114B07B5D3F81821DAB11049F0
:100DB0000022C3F81821C87FD3F818310193FF2807
:100DC000019B03D08B7F5BB1FFF7CCFF00234B77F8
:100DD0000B72D1E90031074803B05DF804EB184706
:100DE000FFF7D0FFF2E703B05DF804FB00300040EE
:100DF000BC010020C40100202DE9F74F06796D4D9C
:100E000001934FF0240909FB06F905EB090A934603
:100E10009AF81C2080460C46002A40F0C7800768DC
:100E200065493846FFF76EFF0146002840F0C08054
:100E300045F809B0019BCAF80430237B2078012BC8
:100E400000F29D80FFF78EFF23781F2B86BF03F0F3
:100E50001F035A4A4FF0A04203F5E073012042F805
:100E6000230094F80190B9F1FF0F00F08B80484601
:100E7000FFF778FFB9F11F0F8BBF09F01F034B4637
:100E80004E4A4FF0A04203F5E073032042F82300DE
:100E9000A378FF2B79D01F2B8BBF03F01F021A46BC
:100EA00046484FF0A04002F5E0724FF0040C40F8C5
:100EB00022C09A46242202FB065282F82030E078B3
:100EC000D077FF2816D02379002B61D0FFF74AFF97
:100ED000E3781F2B86BF03F01F03384A4FF0A04270
:100EE00003F5E073032042F82300242303FB065399
:100EF00022799A772378C7F80835A368C7F80C9544
:100F0000C7F810A5C7F82435637B227B003B18BFC8
:100F10000123022A3FD0032A40D0012A01D143F005
:100F20000203C7F85435A379C7F8C0350723C7F8BB
:100F3000003524237343EB58B3B1D8F800306279FD
:100F400043F3073052010028C3F30733D2B228DB42
:100F50001B4C271887F800230122400903F01F03C8
:100F600002FA03F344F82030242303FB0655002340
:100F70006B7701232B77084603B0BDE8F08FFFF7AE
:100F800001FF61E74FF0FF3982E74FF0FF3A91E749
:100F9000FFF7F8FE9CE743F00403C2E743F00603C3
:100FA000BFE7084803F00F03C254DDE70821E2E77A
:100FB0001121E0E7BC010020A50D00000003005056
:100FC00000E100E014ED00E02DE9F3410779424E25
:100FD00024237B431446F2180D46517F8046002996
:100FE00078D1F35823B114F0140F04BF01235377C1
:100FF00095E80F004FF0240C0CFB076C0CF10C0E65
:101000008EE80F009CF81F00FF2804D09CF81E30CB
:10101000C3B1FFF7B7FE296821B101F06043B3F116
:10102000005F06D1AA6882B102F06043B3F1005FAD
:101030000BD0242303FB076600237377102002B034
:10104000BDE8F081FFF78EFEE5E7D8F8003068686C
:10105000C3F84415C3F84805E968C3F834250022ED
:10106000C3F83815C3F81821D3F818210192019A52
:1010700014F0010218BF0122C3F8502514F0020237
:1010800018BF0122C3F8402522075CBF01221A6164
:1010900024227A43B25892B9D3F81821002AFBD0FF
:1010A000242303FB0766F07FFF2803D0B47F1CB125
:1010B000FFF758FE0020C2E7FFF764FEFAE714F0DE
:1010C00004004FF0400202D0C3F80823F2E7C3F84F
:1010D0000423B4E71120B2E7BC010020074B1B5CDE
:1010E0001F2B8ABF064A4FF0A04203F01F03D2F81D
:1010F0000405D840C04300F0010070477D3800006F
:1011000000030050074B1B5C1F2B86BF064903F0F2
:101110001F034FF0A041012202FA03F3C1F80C357E
:10112000704700BF7D38000000030050074B1B5C78
:101130001F2B86BF064903F01F034FF0A041012279
:1011400002FA03F3C1F80835704700BF7D3800008C
:101150000003005008B50020FFF7E8FF0120FFF76B
:10116000E5FF0220FFF7E2FFBDE808400320FFF79C
:10117000DDBF08B50020FFF7C5FF0120FFF7C2FF64
:101180000220FFF7BFFFBDE808400320FFF7BABF0A
:101190000A4B185C1F288ABF094B4FF0A04300F090
:1011A0001F00D3F804250121814021EA02000A40F2
:1011B000C3F80805C3F80C25704700BF7D38000050
:1011C000000300500B2809D00C2809D0182809D09A
:1011D00019280CBF03204FF0FF30704700207047E4
:1011E0000120704702207047C20710B504460CD595
:1011F0004FF0A0430322C3F83427C3F83827C3F8BD
:101200003C27C3F84027FFF7A5FFA3070AD54FF0F7
:10121000A0430C22C3F82C27C3F83027C3F860275B
:10122000C3F8642710BDF0B595B01D4616460846B4
:101230000C4602F0E9F81A9B0D93CDE908650025EC
:101240002B46082205A920460A958DF82C500C95AE
:1012500002F0F6F8079B0293069B03939DF8143067
:101260008DF8115003F00302012A1DD1BDF814209E
:10127000059DC3F3C203C2F383168DF81030B2008C
:1012800008230EA9204602F0DBF8C5F3952508AB2C
:101290000093324602AB0EA9284600F027FB2046F9
:1012A00002F0B6F815B0F0BD022AF8D1BDF816501C
:1012B000C3F3C203C5F389158DF810300827082D34
:1012C0002E4628BF08263B4632460EA9204602F08D
:1012D000B7F8AD1B08AB02AA31460EA8374400F0A0
:1012E00069FB002DEBD1DAE708B500F0FCFB044800
:1012F000042100F065FA034B01225A7108BD00BFBA
:101300000038000060000020037813F0040216D0BB
:1013100003F00303012B03D0022B09D001207047F7
:101320000A6800880232C0F3831002440A60F5E7BD
:101330000B684288023303EB92130B60EEE7104612
:10134000704700002DE9F04FDFF810A10F4685B07F
:101350000446861C0020154601F046FCDAF80420FD
:101360003A60DAF8083003F580739B1A0AF21C47DA
:101370000AF583690AF21448B34219D30020002DFC
:1013800068D004F00F039B0143F0050363F30F00E3
:10139000DAF80430DAB2033233444AF8220000208B
:1013A000CAF8043001F022FC012005B0BDE8F08F3E
:1013B0000121384601F05FFD484601F074FD4046CA
:1013C00001F071FDDAF808000090C0B203300AEBBA
:1013D00080006946FFF798FF009B30BBDAB20AEB4A
:1013E0008202D16801919A1C0133DBB20AEB8303BC
:1013F0000092D3F80CB001F00303012B22D0022B92
:1014000015D08346404601F051FD10B1009BCAF84B
:1014100008305946384601F02EFDDAF80830DAF87F
:10142000042003F580739B1AA6E7D8B2CEE7BDF877
:101430000630C3F3891303334FEA1B4B02EB9303CC
:101440000093DFE7BDF80430C3F383134FEA1B4B6F
:101450001344F5E7A40544F0060099E7780300205B
:10146000064B074810B501221A7001F086FF0446AA
:1014700010B9044801F0EEFF204610BD78030020AB
:101480007C370000A838000030B50A4C71B10A4A18
:101490000A49121BD20800239A4201D1002030BD14
:1014A00031F82350854202D00133F5E7034654F862
:1014B0003300F4E7903700000038000000000020FF
:1014C000094B013903EBC000032909D8DFE801F01B
:1014D0000A0204060420704700797047407970477B
:1014E000002070470220704790370000034BD3E97B
:1014F0000130C31A58425841704700BF780300209A
:101500002DE9FF41FFF7F2FF0546002840F0E98092
:10151000754CC4F81804BFF34F8FA3680093DBB277
:10152000033304EB83006946FFF7EEFE009B18B11E
:10153000D4F81824002A5AD0DAB2991C013304EBEB
:101540008202DBB204EB8303D268DB68029302F011
:101550000303022B0192009154D1BDF80630634879
:10156000C3F38917A02F3E4628BFA02606F1080125
:1015700066F38F13C1F30901ADF8063001F015FFD2
:101580000546002800F0988001F03EFF0023082265
:1015900001A9284601F04AFF0099CB43DBB2013391
:1015A000C9B20331B6EB830F4FEA830204EB81012A
:1015B00025D95FFA82F80823A6EB0806284601F031
:1015C00035FFF6B208F10803494903F0FC0332463F
:1015D000284601F02BFF009B033703EB970700978A
:1015E000D4F81834002B43D1D4F8106453E0626867
:1015F0009A4294D8A260284604B0BDE8F08108233E
:101600003246E5E7012B57D1BDF804303748C3F324
:101610008311062928BF062161F38913023101F0E5
:101620000F018900ADF8043001F0BFFE0546002827
:1016300042D001F0E9FE0023082201A9284601F06A
:10164000F5FE0026BDF80420C2F38312B3009642D3
:1016500003F10803C4D200994A1CC9B203310092B5
:1016600004EB81010422284601F0E0FE0136E9E79F
:10167000284601F0CDFEFFF739FF80F00100C5B22A
:10168000B9E7F3685B7923B1336829461B683046B4
:101690009847F3681E68002EF3D1284601F0B8FE83
:1016A000304601F0A1FAD4F818340BB9009BA360BE
:1016B000002001F09BFADEE7D4F8104454B90D4B3A
:1016C0000D480E49C01AC008000440F0020000F0A6
:1016D0005DF8D0E7236820469B689847E3681C685C
:1016E000ECE7002587E700BF780300207C37000087
:1016F0008403002090370000C837000091380000B4
:101700002DE9F34704460E46924601A901221846E8
:101710009946FFF717FE1B4F10B3019D4FF00008CD
:10172000AA1CC84508EB020123D11748002101F08B
:101730007FFB80F31000000440EA1440E4006B1CBF
:1017400004F03804DBB2EDB244F0010407EB83038C
:10175000033544EA881444EA8624D86047F82540D3
:101760003B781BB1FFF7CCFE0028FBD102B0BDE8EF
:10177000F087C9B207EB81015AF82830CB6008F135
:101780000108CEE7780300209407002000231A46C2
:10179000FFF7B6BF07B50123019201AAFFF7B0FF1B
:1017A00003B05DF804FB1FB5CDE90123069B03934D
:1017B00001AA0323FFF7A4FF05B05DF804FB0000B6
:1017C00030B50F4CD4F8102403460020114631B92F
:1017D000D96808714AB9C4F810340A6030BDC968C4
:1017E0000D79854206D00968F1E7D26814680C606B
:1017F0001360F3E701300A28E8D14FF0FF30EDE73E
:101800007803002038B5084B0125D3F810441D702B
:1018100004B938BDE3685D71236820465B6898476A
:10182000E3681C68F4E700BF7803002030B5C38884
:1018300085B004460D4633B1144A00921449154A46
:10184000284601F08DFB217A05291DD0637A4BB122
:10185000A088FFF735FE104B104953F8202028468A
:1018600001F07EFB227A0E4BA08853F822200392CF
:101870000021FFF709FE039A0A490346284605B0EE
:10188000BDE8304001F06CBB05B030BDD43800007D
:10189000BC380000B438000040390000D9380000DE
:1018A00064390000DC38000007B503460846197AA1
:1018B000052911D05B7A2BB1094A0A49019001F040
:1018C0004FFB01980849019001F04AFB019803B0D1
:1018D0005DF804EB01F039BB002AF8D0F2E700BF55
:1018E000D4380000D9380000D13800002DE9F04389
:1018F00085B01F460C9D002395F80C902B7306466F
:101900000C46904629463846FFF790FFB8F1060F7F
:1019100009D8DFE808F00412181F283340003146C8
:10192000284601F01DFB002229463846FFF7BCFF80
:1019300085F80C9005B0BDE8F08322683146284652
:1019400001F00EFBEFE7D4E900233146284601F011
:1019500007FBE8E7A36800933146D4E90023284653
:1019600001F0FEFADFE7E3680193A36800933146D4
:10197000D4E90023284601F0F3FAD4E7236902935F
:10198000E3680193A36800933146D4E90023284615
:1019900001F0E6FAC7E76369039323690293E368FA
:1019A0000193A36800933146D4E90023284601F04F
:1019B000D7FAB8E708292DE9F74F80460E461746B3
:1019C0001C463DD800251B7B2573214610460193FC
:1019D000FFF72CFFDFF88CA0DFF88CB0AE4232D9D5
:1019E00018F805205946204601F0BAFA0135082DAD
:1019F000F4D11B49DFF874A0DFF874B0204601F081
:101A0000AFFA4FF000094E4524D918F809507E2D41
:101A10001ED8284601F0F2FD002814BF2A462E22C7
:101A20005946204601F09CFA09F10109B9F1080F65
:101A3000E9D1012221463846FFF736FF019B237387
:101A400003B0BDE8F08F5146204601F089FACDE79A
:101A50002E22E5E75146204601F082FAE4E700BF76
:101A6000F0380000EC380000E6380000EE380000E6
:101A7000F23800007047000007B5044B0093044A99
:101A80004023FFF7D0FB03B05DF804FB951A00007C
:101A9000310800202DE9F84388461446B2B10F4BB7
:101AA0000F4E0325002743F00109224608EB0701EA
:101AB000002000F075F90744241A48B933782BB197
:101AC0004FF47A40C847013D02D13570BDE8F88334
:101AD00001233370002CE8D1F8E700BF8039000003
:101AE00030080020704700F08BB9000002380B2846
:101AF00057D8DFE800F04F563A2C3341481706100C
:101B00001E252848284B2949C01AC008000440F067
:101B10000400FFF73BBE2348234B2549C01AC008E9
:101B20000004F4E71F48204B2249C01AC0080004F3
:101B3000EDE71C481C4B2049C01AC0080004E6E72A
:101B40001848194B1D49C01AC0080004DFE71548A2
:101B5000154B1B49C01AC0080004D8E71148124BA6
:101B60001849C01AC0080004D1E70E480E4B1649A8
:101B7000C01AC0080004CAE70A480B4B1349C01A30
:101B8000C0080004C3E70748074B1149C01AC00842
:101B90000004BCE70348044B0E49C01AC008000407
:101BA000B5E77047C837000090370000943900004F
:101BB000A5390000B7390000C8390000DA39000043
:101BC000E9390000063A0000223A0000383A0000E5
:101BD000513A0000613A000038B5054D044645F021
:101BE00001054FF47A40A847013CFAD138BD00BF47
:101BF000C03A000037B54FF0A04503240A20C5F8CD
:101C00000047FFF7E9FF0123C5F808350A20FFF771
:101C1000E3FF1B492046FEF755FD4FF480410020AD
:101C2000FFF71EFC08B100F0F3FEFFF75DFB154C5B
:101C3000154B1649E41AE408240444F00404204631
:101C4000FFF7A4FD00F0FEFF00F0E0FB01210E20F5
:101C500000F018FC20460E49FFF798FD0D4B1D685B
:101C60005C68284621466B4603C308226B46002168
:101C7000052000F00EFC4FF4C870FFF7ADFFF0E751
:101C8000ED1A0000C8370000903700007F3A0000CE
:101C9000A13A0000AE3A00000369C26893429CBFBB
:101CA00080681B18013B981A70472DE9F843D0E96A
:101CB00002940546A9EB04084068904520440F466D
:101CC000144404D901F0A2FCEC60BDE8F88342465C
:101CD000A4EB090401F09AFC6868224607EB0801AE
:101CE000F0E72DE9F843C5680646894617464FF0E8
:101CF00000083469B3687068A54228BFE418013C45
:101D0000621B5C1BBC4228BF3C46944228BF144661
:101D100049462844224601F079FCB3682544AB4289
:101D200008BF00253F1BA044A144F560E1D1404617
:101D3000BDE8F88310B5144C1449A1610823C4E927
:101D40000433C4F8D810124B1249E361C4F8DC1014
:101D50004FF48053802102222362C4F8E010002354
:101D60000D49A362E01D6362C4F8E830C4F8E430B2
:101D7000E262C4F8EC2001F0A5FC0849204601F01D
:101D8000A1FC2023A37110BD74080020C63A0000F6
:101D90008C0A00200C0A0020CF3A0000D33A000041
:101DA00070B5164B182400FB04451D4404FB00339A
:101DB0001646DC6A012C0ED0022C18D0E4B9284655
:101DC000FFF76AFF864204D832462846FFF76DFFC8
:101DD0003446204670BD2846FFF75EFF86423446F3
:101DE00028BF044622462846FFF75FFFF1E7284652
:101DF000BDE87040FFF775BF0024EAE774080020D3
:101E0000FFF798BF41DF7047037813B9014B0122F8
:101E10001A707047680000201FB5CDE90001CDE9B8
:101E20000223694600220348FFF7CEF805B05DF8AB
:101E300004FB00BFF83A000038B5054D0A2445F010
:101E400001054FF47A40A847013CFAD138BD00BFE4
:101E5000103B00001F288ABF0A4B4FF0A04300F040
:101E60001F00D3F8103523FA00F04FF0A04310F014
:101E7000010F4FF4803214BFC3F80825C3F80C25B6
:101E8000704700BF00030050074B5B7C1F2B86BFD1
:101E9000064903F01F034FF0A041012202FA03F3A9
:101EA000C1F80C35704700BF8C1A002000030050A9
:101EB000074B5B7C1F2B86BF064903F01F034FF0C7
:101EC000A041012202FA03F3C1F80835704700BFB0
:101ED0008C1A00200003005013B5FFF7D5FFC02374
:101EE0000D4C8DF8043000231A46012101A82370FF
:101EF000FFF792FF08B100F08BFD23781BB1FFF7CD
:101F0000D7FF02B010BD00F0FFFB10B1FFF77AFF62
:101F1000F3E720BFF1E700BF6800002013B5144CC1
:101F2000FFF7B2FF002203238DF801008DF8022095
:101F3000ADF804208DF806202270194601AA6846E3
:101F40008DF80030FFF768FF08B100F061FD2378DD
:101F50002BB1FFF7ADFF9DF8060002B010BD00F0F9
:101F6000D3FB10B1FFF74EFFF1E720BFEFE700BF53
:101F70006800002013B50C46FFF786FF02238DF89A
:101F800004308DF8064000230C4C8DF805001A46ED
:101F9000032101A82370FFF73FFF08B100F038FDCF
:101FA00023781BB1FFF784FF02B010BD00F0ACFB3B
:101FB00010B1FFF727FFF3E720BFF1E7680000202B
:101FC0007FB515460191FFF75FFF0223EE188DF8EC
:101FD0000D0030468DF80C3000F0B4FEBDF80C302A
:101FE000019904462A4620F8023B01F00FFB0E4DF2
:101FF00000231A46F1B220462B70FFF70DFF08B1FF
:1020000000F006FD2B783BB1204600F0BBFE04B08B
:10201000BDE87040FFF74CBF00F076FB10B1FFF752
:10202000F1FEEFE720BFEDE76800002037B514466A
:102030000D46FFF729FF05238DF804308DF8074082
:1020400000230E4C8DF8050004211A460DEB01000B
:102050008DF806502370FFF7DFFE08B100F0D8FCC2
:1020600023781BB1FFF724FF03B030BD00F04CFB19
:1020700010B1FFF7C7FEF3E720BFF1E768000020CB
:1020800038B50246E02105460F20FFF7CFFFFFF7E6
:10209000D3FE0F20FFF742FF044604F0E004FFF7F1
:1020A000CBFE601B18BF012038BD0000012938B5E8
:1020B000044603D002293FD0012126E0431E0F2B06
:1020C00023D8DFE803F08088080C220F1324222293
:1020D000282B142E32368724FF250F2109E0852472
:1020E000F125FAE78724FF25072102E0014687242E
:1020F000FA252A20FFF73EFF29462920FFF73AFF5D
:1021000021462820FFF736FF0021084638BD8724E6
:10211000FF250321EDE78724FA25FAE78624F02539
:10212000F7E78524F1254121E3E78624F025002106
:10213000DFE78224D025FAE7431E0F2BBCD801A28B
:1021400052F823F0CF210000DD210000852100009E
:102150008B210000B92000008F2100009521000094
:102160009B210000B9200000B9200000A32100003D
:10217000A9210000AF210000B5210000BB21000013
:10218000C12100000724BF25AEE7A425ACE7072442
:10219000BF25BEE70624B425BBE70724BF250121E0
:1021A000A7E70624B425FAE70524B125F7E70624B6
:1021B000B425BCE70524B125B9E702249025B6E78C
:1021C00000248025B3E78724FF253F2191E70724DA
:1021D000BF251F218DE78724FF25FAE70724BF25A8
:1021E0007BE700BF10B5302420460021FFF7C2FE78
:1021F00004F110000021C0B2FFF7BCFE04F1200082
:1022000001340021C0B2E4B2FFF7B4FE3E2CEBD1A2
:1022100000216020FFF7AEFEBDE8104000217020D5
:10222000FFF7A8BE70B505460E46FFF755FEFFF74F
:1022300003FE8020FFF724FF044618B1FFF7FCFDE2
:10224000204670BDFFF7F8FD31462846FFF72EFF08
:102250000028F3D1FFF7F0FDFFF7C4FF03212B2087
:10226000FFF788FE042264216020FFF7DFFE22468C
:1022700060217020FFF7DAFE2046FFF701FF0546D8
:102280000028DBD0FFF7D8FD2C46D9E7012913B58C
:1022900093B2D4B21AD1C2F307411B0A8DF80630AB
:1022A000CB0023F01F0301F003010B4343F00803AD
:1022B000520D8DF807408DF805308DF8042004226A
:1022C0000DEB0201FFF77CFE02B010BDDB088DF8BC
:1022D0000430640100238DF805408DF807308DF837
:1022E0000630ECE738B50A4D044605302A7A05F188
:1022F0000901C0B2FFF764FE201D297AC0B2FFF7C2
:1023000039FE6A6829782046BDE83840FFF7BEBF2D
:102310008C1A0020013808221146C0B2FFF786BE91
:10232000F7B50F4B1A889B788DF8063000230646C8
:10233000ADF80420037001AD032415F8017B384685
:10234000FFF7ECFD10F0080003D10137377003B040
:10235000F0BD013C14F0FF04EFD10220F7E700BF0D
:10236000DA3A000010B5074C2272217060605A1EE4
:102370000934073312F8011F04F8011B9A42F9D1FE
:10238000002010BD8C1A002013B500240DF10700A9
:10239000FFF7C6FF01340228A4B203D1322CF5D1D5
:1023A000062018E0322CFBD09DF80700FFF79AFFBB
:1023B0009DF80700FFF7AEFF00249DF807000138E5
:1023C000C0B2FFF7ABFD013410F00800A4B204D096
:1023D000322CF2D1072002B010BD322C08BF0720EA
:1023E000F9E70000074B1F28587486BF00F01F0054
:1023F000054B4FF0A04300F5E070032243F8202086
:10240000FFF756BD8C1A00200003005010B52220A3
:1024100086B0FFF7E7FF154B1A889B78ADF80420CC
:102420008DF80630124A032301A929208DF80530C2
:10243000FEF7C8FA08B100F0EBFA01212920FEF7F7
:1024400041FB0C4B0FCB02AC84E80F004FF0007344
:102450000493094B0293094A094800232146FEF7D9
:102460009DF908B100F0D4FA06B010BDE03A0000C2
:10247000551E0000E43A00000D0F0E22091E000058
:10248000F43A000008B5FFF7CDFE003818BF012070
:1024900008BD08B5FFF766FFBDE80840FFF774BF49
:1024A000BFF34F8F0549064BCA6802F4E06213433D
:1024B000CB60BFF34F8F00BFFDE700BF00ED00E032
:1024C0000400FA054FF08053D3F83001A0F108035F
:1024D00058425841704700004FF08053D3F83021E4
:1024E000082A06D1D3F83431052B02D8024AD05C31
:1024F00070470020704700BF1C3B0000024AD2F822
:102500000034002BFBD0704700E0014010B5FFF70E
:10251000D9FF40B14FF080430022C3F80C21C3F82B
:102520001021C3F83825FFF7CDFF002846D04FF023
:1025300080526B4BD2F80414C3F82015D2F808145B
:10254000C3F82415D2F80C14C3F82815D2F81014C7
:10255000C3F82C15D2F81414C3F83015D2F8181497
:10256000C3F83415D2F81C14C3F84015D2F820145F
:10257000C3F84415D2F82414C3F84815D2F8281427
:10258000C3F84C15D2F82C14C3F85015D2F83014F7
:10259000C3F85415D2F83414C3F86015D2F83814BF
:1025A000C3F86415D2F83C14C3F86815D2F8401487
:1025B000C3F86C15D2F84424C3F87025FFF78CFFDC
:1025C00018B1484B484AC3F88C26FFF785FF18B16D
:1025D000464BFB22C3F81825FFF77EFF70B14FF082
:1025E00080414FF08053D1F8E42ED3F8583222F0D6
:1025F0000F0203F00F031343C1F8E43EFFF76CFF33
:1026000020B13B4B4FF40072C3F84026FFF75AFF4E
:1026100048B14FF08043D3F80024D20744BF6FF095
:102620000102C3F80024334AD2F8883043F470031F
:10263000C2F88830BFF34F8FBFF36F8F4FF08053D6
:10264000D3F83021082A0ED1D3F83431052B02D823
:10265000294AD35C3BB14FF01023D3F808224FF046
:102660008043C3F858254FF01021D1F80C32DB0716
:1026700014D522480123C0F80435FFF73FFFD1F8F5
:102680000C3223F00103C1F80C32FFF737FF0023AF
:10269000C0F80435FFF732FFFFF702FFD1F8003230
:1026A000002B03DBD1F80432002B14DA1349012389
:1026B0004FF01020C1F804351224FFF71FFFC0F8B7
:1026C0000042FFF71BFFC0F80442FFF717FF00238B
:1026D000C1F80435DEE70A4B0A4A1A6010BD00BF94
:1026E00000C00040005000404881030000F000405E
:1026F0000090024000ED00E0163B000000E00140C9
:102700006C0000200090D003014B1878704700BF88
:10271000A01A002007B50849684600F0A4FE019BF6
:1027200013B903B05DF804FBD3E900209047684675
:1027300000F0A3FEF3E700BF2C3B0000FFF7EABF69
:10274000C30710B507D4F023054A4008145C2340A2
:102750001943115410BD0901C9B20F23F4E700BF9A
:10276000B01A002030B5094B1C78094B19680023BA
:102770009C4202DC0022104630BD11F833508542E5
:1027800001EBC302F7D00133F2E700BFA11A00202A
:10279000D01A002013B504460191FFF7E3FF38B1CA
:1027A00043682BB10199204602B0BDE8104018479C
:1027B00002B010BD034B044819680022490800F01C
:1027C000B5B900BFA41A00207000002010B5C0B237
:1027D000FFF7C8FF04460078FEF7C2F963785A1E77
:1027E00053425341834208D1044BD3E9002313439E
:1027F00003D1BDE81040FFF7DDBF10BDA81A0020CF
:1028000038B5334A43080446D35CC2074CBF1B09A2
:1028100003F00F030D46042B59D8DFE803F0032221
:102820002A363900002952D00121FFF789FF002004
:1028300000F0DAF90120A4F12003C4F12001254AB7
:1028400020FA01F100FA03F30B43A040D2E9004162
:1028500020430B43C2E90003BDE83840002000F0EC
:10286000C5B9002918BF02212046BDE83840FFF74E
:1028700067BF41B10321FFF763FF20460121BDE897
:102880003840FFF787BF0121EEE701BB0421EBE7EA
:1028900009B10321E8E7FFF753FF29462046FFF778
:1028A00079FF284600F0A0F90120A4F12003C4F12B
:1028B0002001084A20FA01F100FA03F30B43A0407B
:1028C000D2E9004124EA000021EA0303C2E738BD4F
:1028D000B01A0020A81A00202DE9F041124E134F23
:1028E00000243378A34208DC114BD3E900231343BF
:1028F00018D0BDE8F041FFF75DBF3D6805EBC408A7
:1029000015F83400FEF72CF998F801305A1E53429E
:102910005341181A4142414115F83400FFF770FF46
:102920000134DEE7BDE8F081A11A0020D01A0020B2
:10293000A81A0020092AF7B505460C4616463ED9C6
:10294000FEF736F8E8B11F4B1F481D601F4B204FA4
:102950001C70204B002120221E6000F080FE1E4BC8
:1029600000200021C3E90001013CE4B20326FF2C52
:102970000DD11A4A1A48002103B0BDE8F04000F01A
:10298000C3B8FDF7D1FF0028DDD003B0F0BD9DF83E
:10299000063015F834008DF8046005EBC40223F00E
:1029A00007038DF8063001A993788DF805303A4673
:1029B000FEF708F8013CE4B20028D8D0E5E707208C
:1029C000E3E700BFD01A0020B01A0020A11A0020AF
:1029D000CD270000A41A0020A81A0020D928000042
:1029E000443B000070B5084D084E00242B789C42F3
:1029F00001D3002070BD3368012113F83400FEF7C5
:102A000061F80134F2E700BFA11A0020D01A0020BB
:102A10001FB50021039001AA44F20100CDE9011184
:102A200000F004F805B05DF804FB000038B572B69C
:102A3000FEF7E8FEFEF764FD0028FBD1104B114CB9
:102A4000114D1249E41AE408240444F00100FEF791
:102A50009DFED5F8F030DB0700D500BE0C4944F0F0
:102A60000200FEF793FEBFF34F8FEA68094B02F4B2
:102A7000E0621343EB60BFF34F8F00BFFDE700BF81
:102A800090370000C837000000ED00E0483B000030
:102A9000543B00000400FA0508B50A4800F0A8F805
:102AA000094AD2E90031C018084BD3E9002341F1AB
:102AB0000001904271EB030303D210F1807041F1E9
:102AC000000108BD90000020D81A0020F01A002054
:102AD00037B505460C460A4801A900F06FF960B108
:102AE0000570446001A9064800F092F918B1054844
:102AF00000F082F8002003B030BD0420FBE700BFE7
:102B0000E01A00209000002030B56AB103684FF051
:102B1000FF344FF0FF355A614A1E5142C3E9024566
:102B200051411961002030BD0720FCE7F8B504468B
:102B3000002017460D4600F057F8D4E90223B3F100
:102B4000FF3F08BFB2F1FF3F15D1FFF7A5FF2818DF
:102B500041F10001C4E902010126002000F046F81D
:102B60005EB12369A76103B1256121460020BDE85C
:102B7000F840FFF7ADBF0026EFE73046F8BD38B5A7
:102B80000446002000F030F8D4E90223B3F1FF3FFF
:102B900008BFB2F1FF3F1FBF4FF0FF324FF0FF33CE
:102BA000C4E90223012508BF0025002000F01EF81B
:102BB0002DB121460120BDE83840FFF789BF2846E6
:102BC00038BD000072B6024A1368013313607047C3
:102BD000F81A0020034A1368013B136003B962B678
:102BE000704700BFF81A0020FFF7ECBFFFF7F2BFF5
:102BF0000368D3F80405704790F90430002B09DB13
:102C00005A09012103F01F0301FA03F3403202497C
:102C100041F82230704700BF00E100E0024B034A58
:102C20001B681068184700BF041B0020FC1A002016
:102C3000034901220B6802FA00F003430B6070475E
:102C4000081B002010B5002420460134FFF7F0FFD8
:102C5000102CF9D1024B01221A70002010BD00BFC8
:102C60000C1D00202D4B1B78F7B5002B4CD00028F5
:102C70004DD000294BD00D686B1E1F2B4AD8284C15
:102C8000284ADFF8A4C0002354F8047B52F8046BF0
:102C9000BD4203D85CF82370BE4205D1102E03D884
:102CA0000133072BF0D100231F4A204C204E52F84D
:102CB000232054F8234033680F2A10D91D4B1E4C93
:102CC0000095E41AE408240403681C4944F0010058
:102CD00048F20412FEF767FD48F204100FE023FAF1
:102CE00002F7FF070DD5012505FA02F223EA0203D8
:102CF0003360134B1C44202304600B60002003B09E
:102D0000F0BD20340132D7E748F20810F7E748F267
:102D10000E10F4E748F20710F1E700BF0C1D002089
:102D2000043C0000CC3B0000203C0000E83B0000DD
:102D3000081B002090370000E83700006B3B0000C4
:102D40000C1B002037B50025CDE90050044601A931
:102D50006846FFF787FF58B10748084B08491B1A18
:102D6000DB081B04224643F00100FEF713FD00952B
:102D7000009803B030BD00BF90370000E837000076
:102D8000A73B00000B4B1B7810B402467BB170B11F
:102D9000002309491846CC18A24203D15DF8044B20
:102DA000FFF746BF0130102803F12003F3D15DF88F
:102DB000044B70470C1D00200C1B002037B550E859
:102DC000013F9DB2C48925448489A54228BF2D1B9B
:102DD0000489A54202BFBFF32F8F002207E0C5EA96
:102DE000030540E80154002CE9D14FF001028DF8B1
:102DF00003200193019A0A609DF8031001F0FF037C
:102E000021B1006810FA82F003B030BD1846FBE72C
:102E10000A884B889A4209D150E8012FC2EA02423F
:102E200040E80123002BF7D10120704700207047B4
:102E300010B5034653E8000F0A4643E8002494F017
:102E4000000FF7D110BD10B5034653E8002F42EA3A
:102E5000010043E8000494F0000FF6D110BD10B556
:102E6000034653E8000F00EA010243E8002494F00F
:102E7000000FF6D110BD10B5034653E8002F02EB4A
:102E8000010043E8000494F0000FF6D110BD10B526
:102E9000034653E8002FA2EB010043E8000494F03E
:102EA000000FF6D110BD0121FFF7CDBF0021FFF7C4
:102EB000D6BF10B590B1D0E9012301689B1ADBB2EF
:102EC0000A60013BDBB2FF2B026802D100201071C7
:102ED00010BD11684C1C14600B70F2E70E20F7E770
:102EE00038B504460020FFF77FFE2268636811684A
:102EF000994213D9481E106011F8013CE568218AF7
:102F000001FB0355A36811791B1ADBB2994200D269
:102F100013710020FFF76AFE284638BD0025F8E748
:102F200038B5054600200C46FFF75EFE2A68136898
:102F3000591C1160E968641A298AB4FBF1F41C7009
:102F4000BDE838400020FFF751BE826810B5044646
:102F50002AB143690168006998470023A36010BD46
:102F60000EB403B5039921B104AB01AA019300F09B
:102F700077F802B05DF804EB03B070470A2938B562
:102F800004460D4602D10D21FFF7F8FFA368226821
:102F9000591CA160D554D4E901329A4204D3204689
:102FA000BDE83840FFF7D1BF38BD00002DE9F84F2C
:102FB0009846DDE90A43154682460F460A464FF019
:102FC0000109AA420FD2C14538BFC14613F0010B17
:102FD00001D16CB900240126B8F1010F1BD908F109
:102FE000FF386E43F8E709F10109B2FBF5F2E8E7B3
:102FF0009B070ED5B8F1000F0CBF30262026A14547
:10300000E9D2013C31465046FFF7B8FF002CF6D11B
:10301000E0E72026F3E7B7FBF6F39D42E1D9DFF8BE
:103020003C80B7FBF6F3504618F8031006FB137705
:10303000FFF7A4FF3346AB42B6FBF5F6F1D2BBF186
:10304000000F02D00CB1A14501D3BDE8F88F2021BB
:103050005046013CFFF792FFF4E700BF3C3C000004
:103060002DE9F74F054617468846002900F03E81B6
:1030700018F8011B49B92B7B002B00F0378128463B
:1030800003B0BDE8F04FFFF760BF252940F0B780DF
:10309000002698F800302D2B424608F1010823D075
:1030A000302B24D02B2B25D000242A2B02F1010118
:1030B00023D13B681A1D1B683A601C440A461378EA
:1030C0002E2B26D101324FF0000A104610F8011BBA
:1030D000A1F1300CBCF1090F1DD80A2303FB0A1320
:1030E000A3F1300A0246F0E746F00106D1E746F0C8
:1030F0000206CEE746F00406CBE711F8013CA3F147
:1031000030000928DBD80A2202FB0434303C0A468E
:10311000CBE74FF0000A12F8011B01F0FB00682812
:103120009046F8D0782909D86F290CD8632962D045
:1031300022D8252963D0582900F0888098F80030DB
:10314000002B95D197E770390829F7D801A353F8D8
:1031500021F000BFC73200003D3100003D310000CA
:103160005D3200003D3100003B3200003D31000087
:103170003D3100004D320000642901D06929DDD1C4
:103180003A68D2F80090111D89EAE9723960A2EB21
:10319000E9724FF0010B092A35DCD34538BFD3461D
:1031A0002CB1B9F1000F01DB720700D5013CB30768
:1031B00002D5BAF1000F03D0F00701D44CBB0024B4
:1031C000B9F1000F2DDAC9F100092D212846FFF7CA
:1031D000D5FE06F00302022A04D1BAF1000F01D194
:1031E0001CBB0024CDE9004653460A224946284626
:1031F000FFF7DCFEA2E73B681A1D19783A60284603
:10320000FFF7BCFE9AE70A230BF1010BB2FBF3F2C6
:10321000C1E7A345D4D220212846013CFFF7AEFEEA
:10322000CCE77107D5D52B21D0E7A345DAD23021E1
:103230002846013CFFF7A2FED2E73968CDE90046F7
:103240000A1D3A6053460A220968D0E739680A1D08
:103250003A60CDE9004653461022F5E73B681A1D57
:103260003A6016F00106D3F8009024D1B9F1000FAE
:1032700003D0484600F048FA0646B4421DD809F18A
:10328000FF3919F8011F00293FF458AF2846FFF70E
:1032900075FEF6E728460136FFF770FE19F80610AE
:1032A0000029F7D1A642BFF449AF20212846013CAE
:1032B000FFF764FEF6E70026F0E720212846013CF0
:1032C000FFF75CFED9E73B681A1D3A6030212846BB
:1032D0001C68FFF753FE78212846FFF74FFE0022B7
:1032E0000823CDE900322146102280E703B0BDE873
:1032F000F08F00BF2DE9F84FB0F806A04579D2F85D
:1033000000B09DF828900AFB05F5043D88460BEBBC
:103310000301A94203F1040488BFA5EB030BB4FB2E
:10332000FAF607460AFB1644C2F800B04EB9AAEBFB
:1033300004055D4528BF5D46BBF1000F04D1BDE823
:10334000F88F3F68013EF1E7043408EB06003C4487
:103350002A46B9F1000F0DD02146ABEB050B00F06A
:1033600055F9DA452E443F6855464FF0000428BF12
:103370005D46E1E701462046EFE7FFF79ABDF8B565
:1033800046790146721E0546002393422D6803D3F9
:103390000024A64202D8F8BD0133F6E70F6828469C
:1033A000FFF7BEFD01343946F3E72DE9F843068AFD
:1033B000CD1C0746FFF794FD043E35440446B5FB9B
:1033C000F6F5F0B14FF48073EDB28380C680013D15
:1033D000076081464FF00008A84512D23846FFF733
:1033E0007FFD064648B163790133637108F1010836
:1033F000C9F8000007608146EEE72046FFF7BFFFEF
:1034000034462046BDE8F88301210430FFF733BD80
:1034100010B5012104460430FFF739FDC0B220B9D0
:103420002046BDE81040FFF7AABF10BD1FB50392AC
:103430000022009203AAFFF75DFF05B05DF804FBD0
:103440001FB503920122009203AAFFF753FF05B0B4
:103450005DF804FB836800225A60C3E904229A6085
:10346000DA601A6070470B684A684360934208BF8D
:103470000023016008BF43607047436843B102689E
:10348000916852680B449342436004BF0023436039
:10349000704753EA020C61D02DE9F04BB3FA83F583
:1034A0001E0007BFB2FA82F502FA05F403FA05F42A
:1034B0001646C5F120051EBF22FA05F73C4320350C
:1034C00056EA044C4FEA144418BF0134A3464FF0A7
:1034D0000009C846904271EB030C39D3094207BF7B
:1034E000B0FA80F700FA07F6B1FA81F701FA07F6A9
:1034F000C7F120071EBF20FA07FC46EA0C0620375A
:10350000B6FBFBFC7F1B103F07F01F04C4F1200635
:103510000CFA04F42CFA06F644BF34460026202F99
:10352000A4BF2646002454EA060C08BF012418EB69
:10353000040849EB0609A4FB027CC01B06FB02CC75
:1035400004FB03CC71EB0C01904271EB030CC5D270
:103550000B46024649464046BDE8F08BB2FBF3F20B
:103560007F2805D8034A044B105C5B5C1840704709
:1035700000207047583C0000D83C0000A0F16103D7
:10358000192B98BF20387047A0F14103192B98BF21
:10359000203070477F299ABF017001206FF02E0004
:1035A000704700BF5AB10A787F2A0AD800B102607A
:1035B0000021501AC3E9001118BF012070471046BE
:1035C00070476FF02E007047A0F16103192B98BF70
:1035D00020387047A0F14103192B98BF2030704765
:1035E0007F2805D8034A044B105C5B5C1840704789
:1035F00000207047583C0000D83C0000024B5B683C
:103600009B6809211B68184798000020844640EAFF
:10361000010313F0030F18D18446202A0BD32DE9A0
:10362000F007B1E8F807A0E8F807A2F12002202A85
:10363000F7D2BDE8F007042A07D351F8043B40F85D
:10364000043BA2F10402042AF7D2002A05D011F8A3
:10365000013B00F8013B013AF9D1604670478446CE
:10366000002A2DD010F0030F04D000F8011B013AFE
:1036700026D0F7E7C9B241EA012141EA0141202AF7
:1036800012D3A2F120022DE9F0030B460C460D46A1
:103690000E460F4688468946A0E8FA03203AFBD238
:1036A000BDE8F00320320BD0042A05D340F8041BF8
:1036B000043A05D0042AF9D200F8011B013AFBD1E3
:1036C00060467047024610F0030F16D111F0030F49
:1036D00013D12DE9F0004FF001374FF0803351F84E
:1036E000044BA4EB070525EA04051D4002D142F86E
:1036F000044BF4E7A1F10401F0BC11F8013B02F81E
:10370000013B002BF9D1704700F1010110F0030FCC
:1037100011D010F8012B002A23D010F0030F0AD08B
:1037200010F8012B002A1CD010F0030F03D010F862
:10373000012B002A15D02DE970004FF001324FF017
:10374000803350F8044BA4EB020525EA04051D4024
:1037500000D1F6E7A0F1040070BC10F8012B002A9C
:08376000FBD1A0EB0100704752
:1037680010010020CD0000204000000001000000F2
:04377800000000004D
:10377C00E00100206803002078030020E80100200D
:04378C001800000021
:1037900058380000000000005E3800000000000003
:1037A00065380000000000006938000000000000DB
:1037B0006D380000000000007238000000000000BA
:1037C0007738000000000000A23800000000040468
:1037D000383B000000000000613B000000000000DA
:1037E0003C38000000000000C13B00000000030363
:1037F000223B0000000003034238000000000000EC
:1038000088390000000000008138000060000020BE
:103810000B000300D90300000C000300D9030000D3
:1038200018000300D903000019000300D9030000A9
:10383000000000202000002040000020636C6F6327
:103840006B00726E67000000FFFFFFFF0006FF00C5
:103850000000004000000000434C4F434B00475025
:10386000494F54450050525300524E47005350495F
:103870004D0055415254005541525445000D0E0F14
:10388000107274745F6C6F675F6261636B656E6406
:10389000004261636B656E647320666C7573686566
:1038A0006400617070000000980700207F00000035
:1038B000180800201B5B313B33316D0025734C6FC2
:1038C00067732064726F70706564202825642925F1
:1038D000730D0A001B5B306D002573003C25733EA1
:1038E0002025733A20002025303278002020200047
:1038F0007C002563001B5B313B33306D001B5B316B
:103900003B33326D001B5B313B33336D001B5B314E
:103910003B33346D001B5B313B33356D001B5B313A
:103920003B33366D001B5B313B33376D0077617283
:103930006E696E6700696E666F0064656275670028
:10394000D4380000F5380000B4380000FD3800001D
:10395000053900000D390000153900001D3900003F
:1039600025390000000000004E3B00002D3900000A
:10397000353900003A390000000000000000000066
:103980000338FDD870470000791A0000E51A0000DE
:10399000751A0000425350204576656E743A2053E4
:1039A0004C45455000425350204576656E743A2090
:1039B00057414B45555000425350204576656E7433
:1039C0003A20524553455400425350204576656E87
:1039D000743A205359534F4646004253502045767F
:1039E000656E743A20444655004253502045766532
:1039F0006E743A204144564552544953494E47202B
:103A0000535441525400425350204576656E743AE7
:103A1000204144564552544953494E472053544F30
:103A20005000425350204576656E743A2044495305
:103A3000434F4E4E45435400425350204576656EE9
:103A4000743A2057484954454C495354204F4646F0
:103A500000425350204576656E743A20424F4E44E2
:103A600000425350204576656E743A20434C4541E0
:103A70005220424F4E44494E472044415441004C4D
:103A80006F6767696E6720496E697469616C697AEE
:103A90006174696F6E20434F4D504C455445442E20
:103AA0000043414E20737461727465642E000102FC
:103AB00003040506070800000000000000000000E5
:103AC0000338FDD870475465726D696E616C0052A1
:103AD00054540053454747455200304050000000C1
:103AE00003000200FFFFFFFF06FF00000000004090
:103AF0000000000000000000003000400000000056
:103B000001000000000000000000000000000000B4
:103B10000338FDD8704700000000010101000000DB
:103B200000006E72665F7364680000007C370000FE
:103B30007C370000080000006170705F627574746B
:103B40006F6E000070000020466174616C20657229
:103B5000726F720053797374656D2072657365744A
:103B6000006170705F74696D6572004D656D6F7294
:103B700079207265736572766174696F6E20666113
:103B8000696C65643A206572725F636F64652025B5
:103B9000642C206D656D6F72792025702C207369FF
:103BA0007A6520256421004661696C656420746F24
:103BB000206D616C6C6F6320736964653A202564C5
:103BC000006D656D5F6D6E677200000000000000A3
:103BD00000000000100000001000000010000000B5
:103BE00010000000100000000000000000000000B5
:103BF00000000000000200000002000000020000BF
:103C00000002000020000000400000002000000032
:103C1000000100000001000028050000740D0000F4
:103C20000000000000000000000000001000000084
:103C3000100000001000000010000000303132338E
:103C40003435363738394142434445464300000055
:103C5000504F5349580000002020202020202020D1
:103C600020682828282820202020202020202020EC
:103C7000202020202020202048101010101010108C
:103C80001010101010101010848484848484848494
:103C900084841010101010101081818181818101A5
:103CA0000101010101010101010101010101010104
:103CB0000101011010101010108282828282820293
:103CC00002020202020202020202020202020202D4
:103CD0000202021010101020000703200417020136
:103CE00008571040800000004C3C0000503D000090
:103CF000643E000053756E004D6F6E005475650094
:103D00005765640054687500467269005361740019
:103D1000000000004A616E00466562004D6172005D
:103D2000417072004D6179004A756E004A756C00F1
:103D300041756700536570004F6374004E6F7600E5
:103D40004465630000000000414D00504D0000003C
:103D5000883E0000843E0000843E0000843E000057
:103D6000843E0000843E0000843E0000843E00004B
:103D7000843E0000843E0000FFFFFFFFFFFFFFFFC7
:103D8000FFFFFFFFFFFF0000C43D0000F43C000008
:103D9000003E0000143D0000483D0000A83D00002A
:103DA000583E0000B43D0000256D2F25642F257975
:103DB0000000000025612025622025652025542073
:103DC0002559000053756E646179004D6F6E646112
:103DD000790054756573646179005765646E657325
:103DE0006461790054687572736461790046726920
:103DF0006461790053617475726461790000000038
:103E00004A616E7561727900466562727561727998
:103E1000004D6172636800417072696C004D617998
:103E2000004A756E65004A756C7900417567757357
:103E3000740053657074656D626572004F63746FD2
:103E4000626572004E6F76656D62657200446563EF
:103E5000656D62657200000025483A254D3A25538C
:103E600000000000613500007D350000893500004C
:103E7000E1350000C9350000D5350000953500005A
:0A3E8000A5350000000000002E0030
:103E8C000000000000000000FFFFFFFFFFFFFFFF2E
:103E9C000000000000000000000000000000000016
:103EAC000000000000000000FFFFFFFFFFFFFFFF0E
:103EBC0000000000000000000000000000000000F6
:103ECC000000000000000000FFFFFFFFFFFFFFFFEE
:103EDC0000000000000000000000000000000000D6
:103EEC0000000000FF000000010000000090D00363
:103EFC000000000000000000FFFFFFFFFFFFFFFFBE
:103F0C0000000000000000000000000000000000A5
:103F1C000010014011000400E83C0000E83C0000E7
:0C3F2C00E83C0000E83C0000E83C00001D
:040000030000035D99
:00000001FF
